:100000006F00800A00000000A4000000A4000000AF
:1000100000000000000000000000000000000000E0
:1000200000000000000000000000000000000000D0
:10003000A400000000000000A40000000000000078
:10004000A4000000A4000000A4000000A400000020
:10005000A4000000A4000000A4000000A400000010
:10006000A4000000A4000000A4000000A400000000
:10007000A4000000A4000000A4000000A4000000F0
:10008000A4000000A4000000A4000000A4000000E0
:10009000A4000000A400000040000020A400000014
:1000A000A400000001A001009701002093810179C4
:1000B00017210020130101F4174500001305C5D3D3
:1000C00097050020938505F41706002013064602C5
:1000D00063FAC5008322050023A055001105910590
:1000E000E3EAC5FE1385418B938581EA6377B5000A
:1000F000232005001105E36DB5FE89629382028815
:10010000739002308D427390428097020000938278
:1001100062EF93E2320073905230EF10501B97124F
:1001200000009382E2C67390123473002030010005
:0401300000000000CB
:100134001145B71601409305A01763C5B30693058F
:10014400B01763C07506C8CA639EB3049385418D16
:100154000395050021C91386C18D37370140130764
:1001640007C06347A0009386818D944214C239A0CE
:100174007D158AA105E91442910614C28A228AA136
:1001840019C9B62289CA54D7858234C308538565F0
:100194004D8D08D301A80853FD75FD156D8D08D349
:1001A40011A088CA85031306D02063CFC3008143FE
:1001B400138501900C4185050CC11705002013051A
:1001C40025F89385C18F88C113854190232075003C
:1001D4009383C18C83D70300372301401303034067
:1001E4000325C304930500406390F5049382818C36
:1001F40083A502002E9523A0A2001387018D0C2352
:1002040085050CA31306000263CAC500230007007A
:1002140023A002009382418C23A0A2002390030018
:100224009385118D8C21D1A89395F701850723908F
:10023400F30063DC050A9382818B83A502002E956B
:1002440023A0A20093050040E39CF5FC23A0020038
:100254009382418B23A0A2008145970200209382C0
:1002640022DA03A6C2006345C50093E58500C102F6
:1002740003A642006345C50093E54500A10203A619
:1002840002006344C50093E525009382018C03A515
:10029400020023A002009382C18B23A0A200970234
:1002A40000209382E2D503A6C2006345C50093E50E
:1002B4000502C10203A642006345C50093E5050497
:1002C400A10203A602006344C50093E505019382DD
:1002D400F18C03C502002380B2006316B50093823B
:1002E400E18C2380A200A14509A89382018C83A5F7
:1002F40002002E9523A0A2008145232AB302B7054C
:100304004000032583004D8D2324A3007300203077
:10031400634E050263C305042E86AA857D5515C266
:1003240085466378B6006356C00006068606E36C0D
:10033400B6FE014563E4C500918D558D8582058225
:10034400F5FA82808682C93F2E8582823305A040D9
:100354006347B000B305B040C1B7B305B04086826F
:10036400653F3305A0408282868263C705006349E6
:1003740005005D372E858282B305B040E35B05FE40
:100384003305A040513F3305B040828200002A83E8
:1003940009CA83830500230073007D1605038505C0
:1003A4006DFA82802A8311C62300B3007D160503EB
:1003B40065FE82802147B717014011469145CCCB99
:1003C40093168501E186094363C4060037030200DE
:1003D40023A867000100010001008CCB010001008B
:1003E400010006057D171375F50F71FB37170140E2
:1003F40050CB89450CCB944393F6F6F093E606086C
:1004040094C301000100010010CB010001000100B0
:1004140050CB0100010001004CCB98431377F7F057
:100424001367070198C3828083C7218D89EFB717AB
:1004340001400947D8CB0100010001001147D8CB86
:10044400010001000100828083C7218D89EFB71765
:100454000140114798CB010001000100094798CBE6
:10046400010001000100828083C7218D511122C245
:1004740006C42A849DEB4D3F13058007253F0145A3
:10048400153F137574001365050B2D3701451D3792
:1004940041450D37553F493F13058007213F12441D
:1004A400A24013050004310131B7A2401244A38CC9
:1004B400A18E238C018E3101828003C7218D5111BD
:1004C40006C422C226C085476310F71423A20190F4
:1004D400B7070020371402409387071423AEF18E28
:1004E4001C4C93E717001CCC1C4C93E747001CCC16
:1004F4001C4C93E707011CCC1C4C93E707021CCC53
:1005040085454945EF10C03BA5454545EF10403BA7
:100514001C4C8564C58F1CCC5C44C58F5CC4010035
:100524005C44FD761387F6FFF98F5CC4B73701404E
:1005340098439386F67F37040140137777FC13675B
:10054400870098C39843A5457945758F98C3984308
:10055400A166938404801377F7F798C398431367CD
:10056400072098C398431367071098C3D8436D9B1B
:10057400D8C39843558F98C398439166558F98C3B1
:1005840098431367470098C398431367070498C3B5
:100594005C44E19B93E747005CC4EF1060325C4429
:1005A40011777D17F98F3167D98F5CC41307C005A4
:1005B40081479306A02F0546854537050040EF1077
:1005C400406DB70700401307B00798DF984FE576F2
:1005D400FD16758F98CF984F458F98CF9853136712
:1005E400070198D3984B6D9B98CBD8471367470066
:1005F400D8C7A2401244B7E700E01307000423A2BF
:10060400E710824431018280B7170140094798CB33
:10061400114798CB85454545EF10802A85454945C6
:10062400EF10002A29458964EF1060520144ED3B24
:10063400938404E7B307940088230504A53BE547A6
:10064400E31AF4FE11350945EF1060501306F0313A
:10065400854537050040EF10205F61BF83C7218DBA
:10066400D5EB111122CA3704002026C806CC130486
:10067400041481442685CD3BA28793050401A14639
:10068400130700088823902B798D798E3335A000C9
:1006940019C21365250003C60702798E19C21365B2
:1006A400450003C60703798E19C21365850003C686
:1006B4000704798E19C21365050103C60705798EEF
:1006C40019C21365050203C60706798E19C213659C
:1006D400050403C60707798E19C2136505082EC6DB
:1006E4003AC43EC236C0F931824622479247FD16CB
:1006F400B2450587C1FA8507E393B7F8B13385049A
:10070400A14713040408E397F4F6E2405244C244B8
:100714007101828082803705002051111306004048
:1007240081451305051406C4B539A24023AA018ED8
:1007340023A8018E2386018E310182809357354090
:10074400370700209205BE951345F5FF930707145C
:100754001D898546AE979C23B396A60013070714FC
:1007640019E693C6F6FFF58F2E971CA38280D58FCA
:1007740093F7F70FD5BF93573540920537070020FD
:10078400AE97130707143E971345F5FF14231D89ED
:100794008547B397A70093C7F7FFF58F1CA3828003
:1007A4001307F0076367A7001307F0036363B70039
:1007B400D9B782809357354092053387B700B7077E
:1007C400002093870714BA9794231345F5FF1D89D6
:1007D40005473317A700558F98A382801307F007A6
:1007E4006367A7001307F0036363B700E1B7828070
:1007F4001301C1FD3AC006D022CE26CC3307C50072
:10080400635005029307000863C5E7023A838144F5
:100814006344600282507244E244130141028280C4
:10082400328313060008AA84E354E6FE3303A64089
:10083400C5B71303000881443387D50063D005048A
:100844009306000463D5E60481453384D500B305DB
:10085400D44033079300268502461ACA36C83AC6DE
:100864002EC42AC2E13D12453247A2450505C246BF
:100874005243E313A7FEFD16F9FA69BF13060004F9
:100884006354E600B306B640E341D0FC61B7BA86D0
:100894008145DDBF3307C500635B0500930700088E
:1008A40063CFE7003A868147634EC0008280AA87FF
:1008B40013050008E35AE5FE3306F540F5B71306C1
:1008C400000881473387D50063D8050493060004E4
:1008D40063DDE6048145011122CC26CA06CE3684A6
:1008E400B384D500B38584403307F6003E8532C80F
:1008F4003EC63AC42EC22AC0BD3D02452247924597
:100904000505B2474246E314A7FE7D1461FCF2409C
:100914006244D24405618280130500046354E500F7
:10092400B306B540E349D0FA8280BA868145DDBF7B
:100934003687854675BD3687B286054655BD011195
:1009440022CC06CE368426CABA862AC032C20547CD
:100954006348C70022866244F240D2440561E1BF85
:10096400634787006244F240D2440561D1B7AE8444
:1009740036C47D3FA24612460245B3059400FD15D8
:10098400453FA2460245938514001306E4FF36C88A
:1009940032C62EC44D3792470247C246324633858B
:1009A400E700A2457D1545BFB707002003A7C7018F
:1009B400011126CAB304A700938704602EC006CE93
:1009C40022CCB2853EC283C6C18E802089C693479D
:1009D400F4FF13F4F70F8247024599073EC49316B8
:1009E4008401E1862EC82AC663D80602C53B324577
:1009F400C2459317140013F4F70FA2470505E3103B
:100A0400F5FE9247938404108505E39E97FAF2401D
:100A14006244D244056182806133C2453245D1BF0C
:100A2400411122C426C206C62A84AE8408200504C5
:100A340011E5B2402244924441018280A68532C02D
:100A4400A53702469904DDB71301C1FC22D626D48A
:100A540006D82EC632C836CA3ACC3EC49304150012
:100A64000144C247A2973EC0E2476348F400C25023
:100A74003254A25413014103828083C7F4FF2683B6
:100A8400130700083EC20146B2473385C700D24768
:100A94006346F600A2470504BE94E1B792471AD212
:100AA4003AD0B3F5E70032CE85E18245053B724684
:100AB40002571253058719E78347030013070008F9
:100AC40005033EC20506C9B78245D93912530257F8
:100AD4007246CDB703C6218E1D479307160093F7C0
:100AE400F70F6373F700814703C7118E6308F7009C
:100AF4001387418E329708A32381F18E828083C7A6
:100B0400E18C311193F7F70F83C6018E22C626C4F8
:100B140006C82380F18E8944054433F7970019CB26
:100B240033F7960001EB1375F40F36C23EC05D3700
:100B34009246824705041D478604E310E4FEC24042
:100B44003244A24451018280511106C44D3F83C7EF
:100B5400118E03C7218E0145630FF7001387418E61
:100B64003E978507082393F7F70F1D476373F70034
:100B74008147A380F18EA24031018280511106C4C5
:100B8400E1377DFDA24031018280511122C2371428
:100B940002401C4C06C493E717001CCC1C4C93E782
:100BA40007011CCCA5455145EF009051B706014003
:100BB400DC4671771307F73FF98FDCC61C4C0567D9
:100BC40013070780D98F1CCC5C44D98F5CC4010007
:100BD4005C44FD769386F67FF58F5CC4B73701409D
:100BE400938707C0944765767D16E19A94C7DD46DE
:100BF40094D79306803ED4D79306401FB4C394433E
:100C0400A2401244BD9A94C3D44B93E61600D4CBAD
:100C1400944393E6060894C3D44FF18E1966D18E9B
:100C2400D4CFD44F558FD8CFF843A166558FF8C38E
:100C340098431367170098C33101828023ACA18CB9
:100C44007D57239AE18C828083A5418C511137050D
:100C5400600906C4EFF04FECA240310182805111CB
:100C64001305800C06C422C226C0EF00506EB706DE
:100C74000140DC4601777D17F98F37250140DCC63A
:100C840013050540EF00906E0147B72201401D4354
:100C940085466D46138502400C49B317E30093C79C
:100CA400F7FFED8FB395E600CD8F1CC90D07E31355
:100CB400C7FE13060040A145EF00D03D9357A54061
:100CC400960723A2F18C9355254099473705004B8D
:100CD400A388F18C2389018CEFF08FE385678D075E
:100CE40063D1A70685469547A388F18C2389D18CC7
:100CF400B7170240984F1367170098CF984F1367A0
:100D0400070298CF930580047945EF00703B29458D
:100D1400EF00F063B7170140938707409C4793F7B0
:100D24000704F5F7B7060140DC46370700F97D17DD
:100D3400F98F37070004D98FDCC683C7218D754529
:100D440091E379458145EF00B03781450945EF00CE
:100D5400303703C6118D37240140854513050440FF
:100D6400EF00902A130404401C44370740007D45DB
:100D7400D98F1CC4EF00105C093DEFF00FF412444E
:100D8400A2408244310141BA2111854722C82380FF
:100D9400F1D226C606CA23A801D083C701D2238074
:100DA40001D23EC40921D93BFD573EC2713B05C562
:100DB400B7F700E0944783A741E9B69723AAF1E87F
:100DC400EFF07F95A2472380F1D2F12EEF00F01DC2
:100DD40069F57128E5BF8D3D930725033EC00247A1
:100DE4009247E385E7FC1306E002BA85138581E99F
:100DF400EF1060031375F50F95476310F5029387A1
:100E040081E9130760051306B0039305D005138524
:100E140081E9D8A33131EFF07F84824779B7A946BD
:100E2400B385D502938741D2135715400589AE97F0
:100E3400BA979C2311E1918713F5F7008280A947A3
:100E4400B385F50293561540938741D205891387DC
:100E540041D2AE96B6979C2309E9BD8B12065D8EEE
:100E64001376F60F369710A38280C19BCDBF511124
:100E740006C4EFF0AFFE83A5C1D0B7D73C0037F569
:100E840000E09387F7A714453386B640E3FDC7FE19
:100E9400A24023A6D1D031018280994613060008CE
:100EA4009305B00301456FF0FF9EAE871306B003B0
:100EB400AA853E85B5B68D6531119385855F01455B
:100EC40006C822C6DD37994609469305B00349454D
:100ED400EFF05F9C83A501D101460A85EF00B06B5A
:100EE4002A848A855145D13799473305F4027146DE
:100EF40099469305B003098E5105EFF0BF998D65AE
:100F040093850565130500034D37994649469305B6
:100F1400B0031305E004EFF0FF978D6593854566F4
:100F2400130500065937994609469305B00313057E
:100F34002007EFF03F9683C501D201460A85EF00F2
:100F440090652A848A851305400785378547631A87
:100F5400F400994619469305B0031305A007EFF072
:100F64007F93C24032445101828051473387E50266
:100F74009387C1D99946BA97AA97982395473386F8
:100F8400F50299470607B305F5028D679387475025
:100F9400BA9703C31700130740069C230D65130576
:100FA40005677D163303E302910515473E931A95B1
:100FB400D14759BC411122C406C626C2014481440A
:100FC4009375F40F13F5F40F2EC045378504D147FC
:100FD4008245E399F4FE0504B147E312F4FEB240FE
:100FE4002244924441018280D147B387F50233877A
:100FF400A7009387C1D9BA9798236304C70090A325
:10100400ADB78280411126C206C622C42AC08144DB
:1010140001440246A2852685C13F05041374F40FDA
:101024003147E318E4FEEFF06FE35145EF0030324F
:101034009387140093F4F70F5147E39BE4FCB24009
:10104400224492444101828051111305200206C4B6
:10105400553F9306800213064008A5457955EFF0E5
:101064007F8305479306A00213066008A1457555C2
:10107400EFF0FF8C05479306C002130680089D45D8
:101084007155EFF0DF8B0D654546C145130545628B
:10109400EFF01F990D6565469D4513050561EFF059
:1010A4003F980D65130610029D451305C55FEFF0CB
:1010B4003F971135EFF08FDA1305A00FEF003029B9
:1010C400753C59347DDDA2404D45310125BF2111C8
:1010D4001305200206CA22C826C62D3793068002AD
:1010E40013060006A5454145EFF0CFFA05479306E0
:1010F400A00213062006A1453D45EFF05F84930648
:10110400C0020547130640069D453945EFF03F836D
:1011140083C501D201460A85EF00F047994733059C
:10112400F5021304C0054546098C05800D65A285AA
:1011340013058566EFF0DF8E4546930544020A8564
:10114400EFF01F8E0D6513061002D9451305856552
:10115400EFF01F8D83C701D215478965B387E70276
:101164009385C5E815460A85BE95EFF04FA2130690
:1011740010029305C0040A85A3020100EFF05F8A00
:101184001D3BEFF0AFCD1305A00FEF00501CEFF0A7
:10119400FF9EEFF07F9B75DD4D45AD35D240424457
:1011A400B244610182801301C1FD26CC83C401D203
:1011B4001307800789673387E402938747F706D0CC
:1011C40022CE02C002C202C402C6B9423E971386AE
:1011D400C1D99387C1D93ECAB5439385C1E8814635
:1011E4003D43314593F016001C2363840000918332
:1011F4000507BD8B638B670C638B570C638C770C73
:101204006393A700F147B300D6002380F00085065E
:10121400D147E399F6FC5106E313B6FC239C01D0B5
:10122400814301478142014381465144338686020A
:10123400D24793F0F60FB2973EC881474246B305B2
:10124400F6008C210D46138585FE1375F50F636535
:10125400A60813F6F70F32C606C205438507E39FB7
:1012640087FC8506B147E393F6FC63840300239C63
:10127400E1D0638802002247238EE1D00247A38E87
:10128400E1D0630803001247238FE1D03247A38FD4
:10129400E1D0238B01D00547239DE1D0238A01D0DF
:1012A400A38A01D0A38401D0238401D0B9E4F53604
:1012B4001133B7F700E0984772448250E24423A602
:1012C400E1D0130141026FF06FB9CD472DBF9307F1
:1012D400200215BFE94705BF71466398C50013F6A0
:1012E400F70F32C006C4854295BF4946E368B6F697
:1012F400050742074183854395B7753E55BF1111D4
:1013040006CC22CA26C8513E8D65938505640145E5
:10131400693E8D659385856313058006793683C799
:1013240001D215478964B387E7029385C4E815465B
:1013340028000144BE95EFF08F858D659385856403
:1013440013058002A3060100EFF03FB69387C4E8BB
:10135400A30201003EC037F700E01847B70680003B
:10136400758F05E72C0013050004EFF01FB4EFF0B0
:10137400EFAEEFF06FFD1947631FE502EFF0BFB367
:10138400E2405244C2447101828019453305A402EB
:101394009307C40058003E97034787FF4C005882C8
:1013A400130700F82386E18E13050504EFF0FFAF61
:1013B4002386018E6DBF1547631AE5028544130425
:1013C400E002B385E402824715462800BE95EF008B
:1013D4009027154701E9238091D2EFF0DFADC5399D
:1013E400D93379BF8504E39E84FCC5BF8D46631859
:1013F400D5007D147D57E310E4F61144A9BF85465A
:101404006317D5000504E318E4F40144A9B70947B8
:101414006316E50258009307C400B386E70003C7C8
:1014240086FF1306A00505071377F70F6365E6002B
:10143400238CE6FE0DB713071004DDBF1147E31C30
:10144400E5F058009307C400B386E70003C786FF9E
:10145400130600047D171377F70FE36BE6FC1307FD
:10146400A005F9B71301C1FD26CC83C4F1D183C70C
:10147400E1D122CE06D01397870161873AC003C712
:1014840041D113948401894661846317D700FD1404
:10149400E204E184824701A885466318D708FD1752
:1014A400E207E187A28451463386C7029386C1D9F5
:1014B40013F3F40FB296A69694224D4636C6636192
:1014C400660293F6F70FAD4563ECD500B245637839
:1014D400B606138635FE1376F60F914563F1C506FD
:1014E4000D6509471305C557238BE1D0930480028A
:1014F400EFF0CFF483C5E1D103C5F1D1268685048D
:10150400EFF09FAEEFF0BF9693F4F40F9307200330
:101514006394F4009304F002EFF00FE361DD72448E
:101524008250E24413014102BDB919E385048DB729
:101534008D466314D7008507A5B7A284A1BF89454A
:101544006D4663E6E5006946198E1376F60FB68597
:101554001A8536C41AC23ACA3EC8EFF0FFA8C24779
:1015640052472685BE853A86EFF07F8D1243A24608
:10157400A38F61D0238FD1D083D7A1D11377F40F58
:101584003AC21880FD173AC46341F00E3247C94786
:1015940063E1E7140D651305455EEFF02FEA83D789
:1015A400A1D1824522858507239DF1D0EFF03F87A5
:1015B4001375F50F854755466309F500594611C55E
:1015C4008D475D466303F5005146A2451245EFF091
:1015D400BFA183D781D1FD17C207C183239CF1D05A
:1015E40081EB83C5C1D103C5D1D17546EFF0DF9F2F
:1015F40003C761D185476319F70083A701D1A90700
:1016040023A8F1D0EFF03F8B03C7F1D183C7D1D129
:10161400631FF70C03C7E1D183C7C1D16319F70C6A
:101624000D4703C461D1238BE1D0EFF02F83130561
:10163400401F312BEFF08FD49147630AF40A0D65F4
:1016440013058556EFF08FDFEFF04F811305803ED1
:10165400FD2983C701D29306C00263E7F608850714
:101664002380F1D2EFF0BFA65DBD824522853EC83E
:10167400EFF0EFFA1375F50F0947C2476319E50058
:1016840012470507131487016184514611A80547C1
:10169400631FE500224755460507620761873AC084
:1016A400A24512453EC8EFF03F94C247C1BD01E9CF
:1016B400124759467D17131487016184D5B70D4726
:1016C400E315E5FC22475D467D17620761873AC052
:1016D400C1BF0D651305055FEFF04FD6A245124556
:1016E4004D46EFF07F900DB7EFF01F960DBD825081
:1016F4007244E24413014102828003C5D1D183C5FF
:10170400C1D151473387E5029387C1D9511106C42A
:10171400BA97AA9790230D47930736FE93F7F70FCE
:101724006367F70005061376F60FEFF0FF8B83C7A8
:1017340051D18946850793F7F70F63E7F600A38A2B
:10174400F1D0A24031018280A38A01D003C681D0A6
:1017540083C791D0238401D0A384C1D083C661D12F
:101764008DC381E68546238BD1D091466396D700FD
:101774008D46238AD1D031A08546639FD700238A22
:1017840001D083C761D105476385E7001147E39A18
:10179400E7FAA2403101F9B10D466394C7008946C6
:1017A400C9BF0946E39FC7FCE9B7511106C4B13765
:1017B400EFF08FB91DC595476303F50263EBA700EE
:1017C40083C791D085CF83C681D085EE2384A1D0F1
:1017D40009A89947630BF500EFF04FBA19A0EFF091
:1017E4001FB20145A2403101828003C761D1854700
:1017F4000545E319F7FEEFF01F9BE5B7A384A1D0DD
:10180400CDB7A384D1D0D9B7994763C2B70295475E
:10181400FD15B385F5025859FD47B397B70093C733
:10182400F7FFF98FB315B600CD8F5CD98280B1472D
:1018340063C2B7029547E515B385F5021859FD470C
:10184400B397B70093C7F7FFF98FB315B600CD8FE1
:101854001CD982809547CD15B385F5025855FD47AF
:10186400B397B70093C7F7FFF98F3316B6005D8EB1
:1018740050D582805C5937074000819BCD8F5CD95D
:101884001C45D98F1CC51C41898BF5DF6845420571
:1018940041818280311122C626C406C82AC03284FE
:1018A400814463488000C24032442685A2445101E9
:1018B400828002452EC27D14753F9245AA94D5B705
:1018C400B707100013573540938727043E972A071C
:1018D40093767500104313952600BD47B397A70070
:1018E40093C7F7FFF18F13F6F5003316A600D18FD7
:1018F4001CC39307700263DBB7000545930780029E
:101904003315D5006393F500420508CB8280371761
:1019140002405C43511122C289833704002006C46B
:1019240026C08D8B8546130404026388D704894638
:101934006387D7040840B714024048C4D8408D6771
:101944009387477D0D83798BBA978E23EFE0DF9CD5
:1019540008C8D8408D679387477B2D837D8BBA97C2
:101964008C23DC4063C307008545EFE0FF9AA24067
:1019740048C8124482443101828048406DBF5C43B0
:10198400C183858B81E70840060575B74840EDBFE4
:10199400372702401C43511106C4F19B93E72700EB
:1019A4001CC3371702401C4393E717001CC3B71727
:1019B40002409843098B75DFD843719BD8C3B7178E
:1019C4000240D84309830D8B6DFFD843B70600F955
:1019D400FD16758FD8C39843B706F7FEFD16758FAD
:1019E40098C39843B706FCFFFD16758F98C39847B4
:1019F400F9769386F60F758F98C79847B7069D00BA
:101A04006146558F98C7D8431377F7F0D8C38D67CD
:101A14009386C7792D479387C779EC2A6375B600F7
:101A24007D17F9167DFB0607B7160240BA97D04218
:101A34009C3341771307F77F718FAE07D98FDCC2D0
:101A4400DC4286078583DCC2D935B707002093873B
:101A540007029C4B37C78C011307F7A78946636AB3
:101A6400F70037B7120113070788B3B7E70093C627
:101A74001700372702401C43A240F19BD58F1CC39B
:101A840031018280B7F700E09843799B98C398436B
:101A9400759B98C398431367470098C398430607F8
:101AA400058398C30D6723A407001307F7ED98CBAC
:101AB400D843799BD8C398435D9B98C323A601E878
:101AC40098431367170098C38280B7170240D8530E
:101AD400511123A8E1E8856706C422C226C0938772
:101AE40087380100FD17F5FF6535B7170240D84B5D
:101AF40013675700D8CB984F85669386D6A3558F26
:101B040098CFD84FB70620108506558FD8CF1164CB
:101B140091648D3F130444DF938444DF636894002D
:101B24001244A240824431016FF06F931C401104AF
:101B34008297EDB7E1473305F502B7F700E0984720
:101B4400B7F600E09C46998FE3EEA7FE8280996782
:101B5400938707DC3305F502B7F700E09847B7F63B
:101B640000E09C46998FE3EEA7FE8280B7270140F0
:101B7400938707406311F502B7170240984F136724
:101B8400072098CFD84713670720D8C70100D84744
:101B94001377F7DFD8C71C453707F2FF7D17F98F96
:101BA40037070E00D98F1CC51C4537071000D98F85
:101BB4001CC55C55370710FF7D17F98F5CD51C4594
:101BC40093E717001CC5054559B7B73701409387FC
:101BD40007C06312F502B7170240D847856693869B
:101BE4000680558FD8C70100D847FD769386F67FC7
:101BF400758FD8C78280B7070040E31DF5FEB7177D
:101C04000240984B1367170098CB0100984B799BBF
:101C140098CBCDB7B7370140938707C0631BF50056
:101C2400B71602409C4E056713070780D98F9CCED8
:101C34008280B7070040E31DF5FE371702405C4F72
:101C440093E717005CCFEDB7411106C622C426C244
:101C54002A8432C0AE847D3F2285853F1C440246DF
:101C6400FD14E19B1CC404D450D45C48B24092449B
:101C740093E717005CC81C48F99B1CC85C4493E7B5
:101C840017005CC41C4093E717001CC022444101A8
:101C94008280111132C636C43AC23EC006CC22CA72
:101CA40026C82A84AE84BD37228505370C443246C3
:101CB400A246E1990CC47D1610D454D41440824732
:101CC4001247BD9A14C0144093B71700990793E6BE
:101CD400060814C08D466381D40A63C996028546FA
:101CE400638AD40489466387D4067C402167E24032
:101CF400D98F7CC05C48C24493E717005CC81C4081
:101D040093E717001CC05244710182809146E39E00
:101D1400D4FC38C0584CE576FD16758FB207D98FC0
:101D24005CCC5C4C056793060780D58F5CCC1C505B
:101D3400D98F39A858D8184C92071377F7F8D98F48
:101D44001CCC1C4C93E787001CCC1C5093E7170059
:101D54001CD061BF18DC184CE576FD16758FB207F0
:101D6400D98F1CCC1C4C056713070780D98F1CCC5A
:101D74001C5093E70701E9BF58DC584C92071377CE
:101D8400F7F8D98F5CCC5C4C93E787005CCC1C5093
:101D940093E7071075BF130181FC22D806DA26D613
:101DA4002AC42EC0A30401028146014713049102F0
:101DB4000245A94532CC36CA3AC8EFE0EFD52AC26B
:101DC40002459307F4FFA9453EC6EFE0AFD742476B
:101DD400D246824513050503A30FA4FE2545B24749
:101DE40062469304170085068D43636FB500224550
:101DF40013062700BE85EFE08FD9D25042542685C2
:101E0400B254130181038280639A760001CAA38FBE
:101E1400C7FE930427009307E4FF814612473E84DC
:101E24003AC0268771B763C30500B5B7511106C41C
:101E34009306D00214A1B305B0400505A93FA24002
:101E440005053101828001476314E6000145828063
:101E5400B307E5000507B386E5009C2383C6F6FFB8
:101E6400E384D7FE3385D740828000007800AED566
:101E740080A83FD300408D14A0C0DA128120D9F18C
:101E8400DB402000AF000000494E54524F474F4CF6
:101E9400454D4B524F4E454D59444C4F4C4544458E
:101EA4004E5354524F504C494C49455259424B4160
:101EB4004B4C41554E425241554E57484954454D5D
:101EC4004F555345445245414D494445414C494C75
:101ED400555A455341494E5442454C4C5354524F24
:101EE4004A41454D4F4345424153544C49534C415B
:101EF4004D4A45414E534D4554414C4D494B524F2B
:101F040053454E5A4147414C415853544F4E455303
:101F14004C415645464F5254454C554349454E4114
:101F24005455524249454E454B41545A45485944EB
:101F3400524F4641554E41554C545241544F4441E1
:101F440059484F524F524741505041524554414CC9
:101F5400434C4F434B484F4D455242554E4E5946C4
:101F64004F544F4E515541434B484146494B000055
:101F7400FFFFFFFFFFFFFFFFFFFF00002022FF1F07
:101F8400FF39FF3FFFF02FFFF2F1F139F33FFFF08C
:101F94002FFF12FF1F393F3FFFF02F221FFF1F3972
:101FA4003F3FFFF02FFF121111393F3FFFF02FFF8A
:101FB40012FF1F39FF33FFF02FFF12FF1F39FF3FBE
:101FC400FFFFFFFFFFFFFFFFFFFFFDFFFFFFFFFF1F
:101FD400FFFFFFFFFFFFFFFFFFFFF0FFFFFFEEEE3E
:101FE400EEEECEEEEEEEEEEEEEEEEEEEEEEEEEEE2D
:101FF400EEEEFEFFFFFFFFFFFFFFFFEFFEFF00001F
:1020040000000000FFEFFEFFFFFFFFFFFFFFFFEFF9
:10201400FEFFFFFFFFFFFFFFFFEFDEFFFF000000FB
:1020240000FFFFEFFEFFFFFFFFFFFFFFFFEFFEFFDD
:10203400FFFFFFFFFFFFFFEFFEFFFFFF0000FFFFBB
:10204400FFEFFEFFFFFFFFFFFFFFFFCFFEFFFFFFDE
:10205400FFFFFFFFFFEFEEEEEEEEEEEEEEEEEEEE46
:10206400EEEEEEEEEEEEEEEEEEEEFEFFFFFFFFFF27
:10207400FFFFFFEFFEFFFFFFFFFFFFFFFFEFFEFF8E
:10208400FFF0F0F0F0FFFFEFFEFFFFF1F1F1F1FFE1
:10209400FFEFFEFFFF111111F1FFFFEFFEFFFF1134
:1020A4001111F1FFFFEFFEFFFF111111F1FFFFEF1F
:1020B400FEFFFFEFEEEEFFFFFFEFFEDFFFFFFFFF90
:1020C400FFFFFFEFFEFFFFFFFFFFFFFFFFEFEEEE5F
:1020D400EEEECEEEEEEEEEEEEEEEEEEEEEEEEEEE3C
:1020E400EEEEFEFFFFFFFFFFFFFFFFEFFE0FFFFF20
:1020F400EFFFFFFFFFEFFE00F0FFEFFF2F2FFFEFDB
:10210400FE10F0FFEFFFF2F0F2EFFE00F0FFEFFF42
:102114002F2FFFEFFE0FFFFFCFFFF2F0F2EFFEFFD6
:10212400FFFFEFFF2F2FFFEFFEFFFFFFEFFFFFFF8C
:10213400FFEFFEDFFFFFEFFFFFFFFFEFFEFFFFFFFD
:10214400EFFFFFFFFFEFEEEEEEEEEEEEEEEEEEEE65
:10215400EEEEEEEECEEEEEEEEEEEFEF0F0F0F0F0A1
:10216400F0F0F0EFFEFFFFFFFFFFFFFFFFEFFEFFCA
:10217400FFFFFFFFFFFFFFEFFEFFFFFFFFFFFFFF7C
:10218400FFEFDEFFFFFF3FFFFFFFFFEFFEFFFFFF5D
:1021940033F3FFFFFFEFFEFFFF3F0333FFFFFFEFCC
:1021A400FEEFFF33E232F3EFFFEFFEEF3F23E323D3
:1021B40033EFFFEFFEEF3332333332E3FFEFEEEE74
:1021C400EEEEEEEEEEEEEEEEEEEEEEEEEEEEEEEE2B
:1021D400EEEEFEFFFFFFFFFFFFFFFFEFFE222222D6
:1021E4000222222222EFFEFFFFFFFFFFFFFFFFEF8D
:1021F400FE4F4F4FEFFFF4F4F4EFDEFFF4F4EFFF84
:102204004F4FFFEFFE4F4F4FEFFFF4F4F4EFFEFF9D
:10221400F4F4EFFF4F4FFFEFFC4F4F4FEFFFF4F499
:10222400F4EFFEFFFFFFEFFFFFFFFFEFFEFFFFFFF7
:102234001FFFFFFFFFEFEEEEEEEEEEEEEEEEEEEE44
:10224400EEEEEEEEEEEEEEEEEEEEFEFFFFFFFFFF45
:102254000FFFFFEFFEFFFFFF55F5EF0FFFEFFEFF50
:10226400FF5F5555EF0FFFEFFEFFFF5F5555EF0F73
:10227400FFEFDEFFFF5F1555EF0FFFEFFEFFFF5F80
:102284005555EF0FFFEFFEFFFF5F5555EF0FFFEFC3
:10229400FEFFFFFF55F5EF0FFFEFEEEEEEEEEEEE75
:1022A400EE0FFFEFFC2F22222222FFFFFFEFEEEEC4
:1022B400EEEEEEEEEEEEEEEEEEEEEEEECEEEEEEE5A
:1022C400EEEEFEFFFFFFFFFFFFFFFFEFFEFFFFFF4E
:1022D400FFFFFFFFFFEFFEFFF0FF02F2FFF4F4EF5A
:1022E400FEFFFE2F6F2FFFFFFFEFDEFFF02FF6261E
:1022F400FF4F4FEFFEFFFE2F6F2FFFFFFFEFFEFF9D
:10230400F02FF626FFF4F4EFFEFFFE2FEF2FFFFF72
:10231400FFEFFEFFF0FFE2F2FF4F4FEFFEFFFFFF84
:10232400EFFFFFFFFFEFEEEEEEEEEEEEEEEEEEEE83
:10233400EEEEEEEEEEEEEEEEEEEEFEFFFFFFFFFF54
:10234400FFFFFFEFFE0FEFEEFEEEEE0FFFEFFE0FCF
:10235400EFFFFFFFEF0FFFEFFE0FEFFFF2F2EF0FC4
:10236400FFEFDE0FEF3F7F3FEF0FFFEFFE0FEFFFBB
:10237400F2F2EF0FFFEFFE0FEFFF6FFFEF0FFFEF34
:10238400FE0FEF2FFF2FEF0FFFEFFE0FEFEEEEEE3E
:10239400EE0FFFEFFEFFFFFFCFFFFFFFFFEFEEEEBD
:1023A400EEEEEEEEEEEEEEEEEEEEEEEEEEEEEEEE49
:1023B400EEEE3E3333333333333333E3FEFFFFFF89
:1023C4002FF2FFFFFFEFFEFFFFEFEEEEFEFFFFEF4A
:1023D400FEFFFFEFFFFFFEFFFFEFFE0FF0EF8FF8B2
:1023E400FE0FF0EFFE0000EF8FF8FE0000EFFE009E
:1023F40000EF8FF8FE0000EFFE0FF0EF8FF8FE0FF6
:10240400F0EFFEFFFFEFFEEFFEFFFFEFFEFFFFFF2B
:10241400DFFFFFFFFFEFEEEEEEEECEEEEEEEEEEEC2
:10242400EEEEEEEEEEEEEEEEEEEEFE2FFF8F8F8F83
:10243400FF2FFFEFFE2FFFFFF8F8FF2FFFEFFE2F18
:10244400EFFF0FFFEF2FFFEFFE2FEFFF1FFFEF2F29
:10245400FFEFDE6FEFFFCEFEEF7FFFEFFE2FEFF417
:102464009EFEE42FFFEFFE2FEFFF0EFEEF2FFFEF98
:10247400FE2FEFFF0EFEEF2FFFEFFE2FEFFF0EFEFE
:10248400EF2FFFEFFE0FFFFFFFFFFF0FFFEFEEEE5B
:10249400EEEEEEEEEEEEEEEEEEEEEEEEEEEEEEEE58
:1024A400EEEEFEFFFF6FEFFEF6FFFFEFFEFFFFEF26
:1024B400AFFAFEFFFFEFFEAFFAEEEEEEEEAFFAEF8D
:1024C400FEAFFAFE1FF1EFAFFAEFDEAFFFCFFFFF73
:1024D400F1FFFAEFFEAFEFE2FAAF2EFEFAEFFEAF36
:1024E400EFE2AFFA2EFEFAEFFEAAEFE2AFFA2EFE0B
:1024F400AAEFFEAAEFE2AAAA2EFEAAEFFEFFFFEFC2
:10250400FFFFFEFFFFEFEEEEEEEEEEEEEEEEEEEE92
:10251400EEEEEEEECEEEEEEEEEEEFEFFFFFFFFFF92
:10252400FFFFFFEFFE4444444444444444EFFEF4BC
:10253400FFFFFFFFFFFF4FEFFEF4FFFFFFFFFFFF73
:102544004FEFDEF4FFFFFFFFFFFF4FEFFEF4F9FF55
:10255400FFFFFF9F4FEFFEF4EEEE0EEEEEEE4FEFB9
:10256400FEF4BEBBFBBBBBEB4FEFFEF4BEBBFBBB41
:10257400BBEB4FEFFEFFBEBBFBBBBBEBFFEFEEEED7
:10258400EEEEEEEEEEEEEEEEEEEEEEEEEEEEEEEE67
:10259400EEEEEE88EEFFFFFFFFFF3FE3EE88E8FF7D
:1025A4000FFFFFFF3FE3EE08E8FFF0F0FFFFEFEE61
:1025B400EE8EE8FF0F7F12FFFFEFDEFFFFFFFF2429
:1025C400EE0FFFEFFEFFFFFF27EEFEFFFFEFFEFF24
:1025D400FF24EE0E0FFFFFE9FEFF27EE0EFFFFFFC5
:1025E400EFEEFE2FEE0EFFF0F0F03FE3FEE4FEFF11
:1025F400F0FFBBFB3FE3EEEEEECEEEEEEEEEEEEEE4
:10260400EEEEEEEEEEEEEEEEEEEE0E000F0FFFF05F
:10261400FFFFFFEFFEF00F0F0FFFFFFFFFEFFEF0D6
:102624000F0FF0FF00F0FFEFFEF00F0F0FFFFFFFA3
:10263400FFEFDCF00F0FFFF0FFFFFFEFFEFFFFFFE8
:10264400FFFFFFFFFFEFFEFFFFFF00F00FFFF0E0D3
:10265400FEFFFFFF0FFFF0F000EFFEFFFFFF0FFF95
:1026640000F0F0E0FEFFFFFF0FFFF0F0F0E0EEEE11
:10267400EEEEEEEEEEEEEEEEEEEEEEEEEEEEEEEE76
:10268400EEEEFEFFFFFF0FFFFFFFFFEFFEFFEEEE9C
:102694001EEEEEEEFFEFFEFF0E02FFFF26E6FFEF5B
:1026A400FEFF2E20EFF562E2FFEFDEFFECEE3ABE16
:1026B400EEEEFFEFFEFFEEEE388EEEEEFFEFFEFFE6
:1026C4002E27E99842E2FFEFFEFF7E72999924E4F7
:1026D400FFEFFEFFEEEEEEEEEEEEFFEFFEFFFFFF8E
:1026E400FFFFFFFFFFEFEEEEEEEEEEEEEEEEEEEEB0
:1026F400EEEEEEEEEEEEEEEEEEEEFEFFFFFFFFFF91
:10270400FFFFFFEFFEFFEF00000000E0FFEFFEFF22
:10271400FF0E000000FEFFEFFEFFFFEF0000E0FFF2
:10272400FFEFFEFFFFFF0E00FEFFFFEFFEDFFFFFE8
:10273400EFECFFFFFFEFFEFFFFFF0F0EFFFFFFEFCA
:10274400FEFFFFFF0F0EFFFFFFEFFEFFFFFFEFEEA9
:10275400FFFFFFEFFEFFFFFF1111F1FFFFEFEEEEB2
:10276400EEEEEEEEEEEEEEEEEEEEEEEEEEEEEEEE85
:10277400EEEE0E01B1BBBBFFFFFFFFEF1E10E0EE5C
:102784000EEEEEFEFFEF0EE1E100000E00FEFFEFA5
:102794001E10E0E0EE0E0EFEFFEF0E01E100000061
:1027A4000EFEFFEFDEE0EEEEEEEE00FEFFEF0E01BA
:1027B400E100000EE0FEFFEF1EEEE0E00E0000FE82
:1027C400FFEF0E01E100E0EE00FEFFEF1E10E0005F
:1027D400000000FEFFEFEEEEEEEEEEEECEEEEEEEDD
:1027E400EEEEEEEEEEEEEEEEEEEEFEFFEFFFFFFFB0
:1027F400CFFFFFEFFEF9EFF0FEFEE0FF8FEFFEF9F3
:10280400EFFFFEFEEFFF88EFFE99EFEEFFEFEE8F96
:1028140088EFFE99FFF07FFFF08888EFDE99FFF0E4
:102824000FFFF08888EFFE99EFEEFFEFEE8F88EF51
:10283400FEF9EFFFFEFEEFFF88EFFEF9EFF0FEFE7C
:10284400E0FF8FEFFEFFEFFFFFFFEFFFFFEFEEEE86
:10285400EEEEEEEEEEEEEEEEEEEEEEEEEEEEEEEE94
:10286400EEEE0E0000000000000000E00E0000008C
:102874000000000000E00E0000000000000000E086
:102884000E0000000000000000E0DE0000000C006C
:10289400000000E00E0000000000000000E00E0058
:1028A40000000000000000E00E0000000000000036
:1028B40000E00E0000000000000000E00E00000038
:1028C4000000000000E0EEEEEEEEEEEEEEEEEEEED8
:1028D400EEEEEEEEEEEEEEEEEEEEFEFFFFFFFFFFAF
:1028E400FFFFFFEFFEFF1FFFFF0F00F0FFEFFEFFF4
:1028F400EFFEFFEFEEFEFFEFFEFF0EEFFF2E27E7EA
:10290400FFEFDEFFFFFFEE727272FEEFFEFFEEFEE0
:102914002F272727FEEFFEFFFFEF7F727272E2E0A0
:10292400FEFFFFFFEE270727C7EFFEFFFFFFFEEEC8
:10293400EEEEFEEF5E5353E3FEFFFFEE3FE5EEEEF9
:10294400EEEEEEEEEEEEEEEEEEEEEEEEEEEEEEEEA3
:10295400EEEE2E22E2FFFFFFFF2E02E2FEFAFFFE62
:10296400FFFFEFFFAFEF0E9FFFEFFFFFFEFFF9E06A
:10297400EEEEF8FFFEEFFF8FEEEEFEFF8EFFEFFEB2
:10298400FFE8FFEF0EF0EFF8DFFF8FFE0FE00E0E13
:10299400FF8E0FF0E8FFE0E0FEEFF0EF0FF0FE0F28
:1029A400FEEFFEF10EFF0EE0FFE01FEFFEFFEFF083
:1029B4000FF00FFEFFCFEEEEEEEEEEEEEEEEEEEEED
:1029C400EEEEEEEEEEEEEEEEEEEEDE2222222F2E16
:1029D4002F2222E2FE222022222E222220E22E2256
:1029E40022F2F2FEF22222E2FE22222FEEEE2E2F1D
:1029F4002FE22E22F2FEFEFFFEFE22E2FE22F2FE75
:102A0400FEF6FEFE22E2FE2FFFFEFEFFFEFE2FEF8D
:102A1400FE2222FEEEEFFE2E22E22E22E2FEFFFF37
:102A2400FFEE22E2FCF2F22E222722FEF2E2EEEE8A
:102A3400EEEEEEEEEEEEEEEEEEEEEEEEEEEEEEEEB2
:102A4400EEEEFEFF0F00F00FF0FFFFEFFEFFE0EEF3
:102A54000E0FF0FFFFEFFE0FEEEEEE00F0FFFFEFC4
:102A6400FEE0EEEEEE0EF0FFFFEFDEE00E00EEEE27
:102A7400F0FFFFEFFEE00E0088E8F0F2F2E2FEE085
:102A84000E0008E8202222E2FEE0EEEE88E8F0F2F2
:102A9400F2E2FEE0EEEE88EEF0F2F2E2FE0000007A
:102AA4000000F0F2F2C2EEEEEEEEEEEEEEEEEEEE40
:102AB400EEEEEEEEEEEEEEEEEEEEFEF5EFEFFFEF07
:102AC400EFFF5FEFFEF5EFEFFFEFEFFF5FEFEEEEEF
:102AD400EFEF6FEFEFEFEEEEFEF5EFEF7FEFEFFFCF
:102AE4005FEFFEEEEEEFFFEFEFEEEEEFFEF5FFEF42
:102AF400FFEFFFFF5FEFFEEEEEEFDEEEEFEEEEEF49
:102B0400FEF5EFFFF3F3EFFF5FEFFEFFEFF2FFFFE2
:102B1400E2FFFFEFFEF5EF333333E3FF5FEFEEEE5B
:102B2400EEEECEEEEEEEEEEEEEEEEEEEEEEEEEEEE1
:102B3400EEEEDE0000000000000000E0FEF1F1F126
:102B4400F11F1F1F1FEFEE9900000000000099EE17
:102B5400EE999EF9F11F9FE999EEEE999EE9E999A4
:102B64009EE999EEEE999EE9E9999EE999EEEE992E
:102B74009EE9E9999EE999EEEE999EE9E9999EE923
:102B840099EEEE999EE9E9999EE999EEEE999EE90E
:102B9400E9999EE999EEEEEEEEEEECEEEEEEEEEE57
:102BA400EEEEEEEEEEEEEEEEEEEEEEEEEEFFFFFF0E
:102BB400F3F5EEEEEE07E7FF2F62305EEFEEEE7018
:102BC400F0FFE22E06E3F5EEEE07F72FFEEF62309C
:102BD4005EEFEE70F0E2FFFF2E06E3EFEEEE2FFE67
:102BE400FFFFEF6230EFFEFFE2FFFFFFFF2E06E381
:102BF400FE2FFEFFFFFFFFEF62E0FEE2FFFFFFFF9D
:102C0400FFFF2EE62EEDFFFFFFFFFFFFCEE0EEEE0F
:102C1400EEEEEEEEEEEEEEEEEEEEEEEEEEEEEEEED0
:102C2400EEEEDEE0FEF0EFFFF0FFFFEFFEFFFEFE54
:102C34000EEFEEEEEFEFEEFEFEFEFFFFFFEFFFEF17
:102C4400FE0FFFFEFEEEEFFEF0EFFEEEEE0ECEFE0A
:102C5400F0EFEFEFFEFFEFFF1E0FEFF0FFEFEEEEF2
:102C6400EFEFFEFEE0EF00EFFEFFEF0FEF0FEF0FD1
:102C7400FFEEFEEEEFFEFFFEEFF0EFEFFEF0FFFEE5
:102C8400FFFEFEFEFEEFEEEEEEEEEEEEEEEEEEEE0E
:102C9400EEEEEEEEEEEEEEEEEEEEFEFFFFFFCFFF1B
:102CA400FFFFFFEFFEFFEEFFFFFFFFEEFFEFFEEF84
:102CB40077FEFFFFEF77FEEFFE7E77E7EFFE7E778E
:102CC400E7EFDE7E77FF0FF0FF77E7EFFE7E777F9B
:102CD4000000FE77E7EFFE7E77E7EEEE7E77E7EF24
:102CE400FEEF77FEFFFFEF77FEEFFEFFEEFFFFFF45
:102CF400FFEEFFEFFEFFFFFFFFFFFFFFFFEFEEEE34
:102D0400EEEEEEEEEEEEEEEEEEEEEEEEEEEEEEEEDF
:102D1400EEEEFEFFEFFFFFFEFFFEFFEFFE7FEF4F45
:102D2400FFFEF0FEF7EFFEFFEFFFFFFEFFFEFFEFFB
:102D3400EEFEEEFEEEEDEFEEEFEE2EFF2FFFFFF2D6
:102D4400FFF2FFE20EFF2FFFFFF2FFF2FFE0EEFEC5
:102D5400EEFEEEECEFEEEFEEFEFFEFFFEFFFFFFE19
:102D6400FFEFFE4FEF0FEFFFF7FEF4EFFEFFEFFF75
:102D7400EFFFFFFEFFEFEEEEEEEEEEEEEEEEEEEE2A
:102D8400EEEEEEEEEEEEEEEEEEEEFEFFFFFFFFFFFA
:102D9400FFFFFFEFFEEFEEEEEEEEEEEEFEEFFEEFE8
:102DA4000000E00E0000FEEFFEEFE666E61E111ED8
:102DB400FEEFFEEFE88EE83EE33EFEEFFEEFB0EE00
:102DC400EBAEEEAAFEEFFEEF99E9E94E4E44FEEFBC
:102DD400FEEF0000E00E0000FEEFFEEFEE2EE22E0E
:102DE400E2EEFEEFDEFFFFFFFFFFFFFFFFCFEEEEA1
:102DF400EEEEEEEEEEEEEEEEEEEEEEEEEEEEEEEEEF
:102E0400EEEEFEF0F0F020020F0F0FEFFEEEEEEE0E
:102E1400EEEEEEEEEEEFFEF0F0F020020F0F0FEF0D
:102E2400FEEEEEEEEEEEEEEEEEEFDEF0F0F0200271
:102E34000F0F0FEFFEEEEEEEEEEEEEEEEEEFFEF027
:102E4400F0F020020F0F0FEFFEEEEEEEEEEEEEEEE0
:102E5400EEEFFEF0F0F020020F0F0FEFFEEEEEEEBD
:102E6400CEEEEEEEEEEFEEEEEEEEEEEEEEEEEEEE9D
:102E7400EEEEEEEEEEEEEEEEEEEEFEFF2E22E22EA5
:102E840022E222EEFEEF222EE2222EE222E22E2E79
:102E9400E2222EE2222EE2E22E222EE2222EE22252
:102EA4002EE2DEE22EEEE22EEEE22EEE2E202EE2D8
:102EB400022EE2022EE22E2EE2222EE2222EE2C286
:102EC4002EE2222EE2222EE222EEEE222EE2222E0A
:102ED400E2222EE2EE2E22E22E22E22E22E2EEEE7A
:102EE400EEEEEEEEEEEEEEEEEEEEEEEEEEEEEEEEFE
:102EF400EEEEFEE8EEF89FF95F55F5EFFEE8EEF82A
:102F0400E99E5FEE5EEFFE8F8E9FEEEE59EE5EEF72
:102F1400FE8F8E9FEEEE59EE5EEFDEFFF89FEEEE33
:102F240059EE5EEFFEFFF89FEEEE5955F5C0FE8FA9
:102F34008E9FEEEE595EFFEFFE8F8E9FEEEE59EE02
:102F4400F5EFFEE8EEF8E99E5FEE5EEFFEE8EEF8E0
:102F54009FF95FEE5EEFEEEEEEEEEEEEEEEEEEEEEF
:102F6400EEEEEEEEEEEEEEEEEEEEFEFFFFFFDFFF38
:102F7400FFFFFFEFFEFF0E00000000E0FFEFFEFF8B
:102F8400EE00000000EEFFEFFEFFEE0E0000E0EEAC
:102F9400FFEFFEFFEEEE0000EEEEFFEFFEFFEEEEC3
:102FA4000EE0EEEEFFEFFEFFEEEE0000EEEEFFEFC2
:102FB400FEFFEE0E0000E0EEFFEFFEFFEE0000006D
:102FC40000EEFFEFFEFFEE00000000EEFFEFEEEE7E
:102FD400EEEECEEEEEEEEEEEEEEEEEEEEEEEEEEE2D
:102FE400EEEEFEFFFFFF1FFFFFFFFFEFFEFFFFFF01
:102FF400CEFEFFFFFFEFFEFFFFEFF4E7FFFFFFEF63
:10300400FEFFFF4EF477FEFFFFEFDEFFEF44F477A1
:10301400E7FFFFEFFEFFEF44F477E7FFFFEFFEFF6C
:10302400FF4EF477FEFFFFEFFEFFFFEFF4E7FFFF35
:10303400FFEFFEFFFFFFFEFEFFFFFFEF2E22202229
:103044002222220222E2EEEEEEEEEEEEEEEEEEEEC4
:10305400EEEEEEEEEEEEEEEEEEEEEEEDFFEFFFEF69
:10306400FFEFFFEFEEEF1FEF1FEF1FEF1FEFEEEF8E
:10307400EFEFEFEFEFEFEFEFEEEFEFEFEFEFEFEF5D
:10308400EFEFEEEFEFEFEFEFEFEFEFEFEEEFEFEF4E
:10309400EFEFEFEFEFEFEEEFEFEFEFEFEFEFEFEF3D
:1030A400EEEFEFEFEFEFEFEFEFEFEE1FEF1FEF1F9E
:1030B400EF1FEFEFEE0FEFFFEFFFEF0FEFEFEEEE8F
:1030C400EEEEEEEEEECEEEEEEEEEEEEEEEEEEEEE3C
:1030D400EEEEFEFF5E55555555E5FFEFFEFF5E3300
:1030E400533533E5FFEFFEF05EE353353EE50FEF76
:1030F400FEFF3EE333333EE3FFEFDEF032EE3EE32A
:10310400EE230FCFFEFF3EE333333EE3FFEFFEF04B
:103114005EE353353EE50FEFFEFF5E33533533E593
:10312400FFEFFEFF5E55555555E5FFEFFEFFEEEE52
:10313400EEEEEEEEFFEFEEEEEEEEEEEEEEEEEEEE99
:10314400EEEEEEEEEEEEEEEEEEEEFEFFFFFFFFFF36
:10315400FFFFFFEFFEFFFFFFF00FFFFFFFEFFE0F8C
:10316400FF2F2EE2F2FFF0EFFEFFFFE2FFFF2EFF44
:10317400FFEFDEFF2FFEEFF2EFF2FFEFFEFFE2FFC5
:10318400EFF2FF2EFFEFFE2F2E2FFFFEF2E2F2EF03
:10319400FEE2FFEE222EEEFF2EEFFEFEFFFEEFFF1D
:1031A400EFFFEFC2EEFFFFFEEFFFEFFFFFEEEEEEED
:1031B400EEEEEEEEEEEEEEEEEEEEEEEEEEEEEEEE2B
:1031C400EEEEDEFFFFFFFFFFFFFFFFEFAEAAAAEA6E
:1031D400FFAAAAAAEAEFFEAAFEAAFEAFEAFFEAEF56
:1031E400FEAAFEAAFEAFEAFFEAEFFEAAFEAAFEAF1F
:1031F400EAEAFFEFFEAAAAEAFFAFAAEAFFEFFEAAF5
:10320400FEFFFFAFEAEAFFEFFEAAFEFFFFAFEAFF11
:10321400FFEFFEAAFEFFFFAFEAFFFFEFAEAAEEFF4D
:10322400FFAAEAFEFFCFEEEEEEEEEEEEEEEEEEEEEF
:10323400EEEEEEEEEEEEEEEEEEEEEEEEEEEE222242
:1032440022E3EEEEEEEEEE2E022232E3EEEEEEEEB0
:10325400EE22222233E3EEEEEEEE4E44444433E318
:10326400EEEEEEEE4D44444433E3EEEEEEEE4E4429
:10327400444433E3EEEEEEEE4E444E4433EEEEEED3
:10328400EEEE4E444444E3EEEEEEEEEE4E444444A1
:10329400EEEEEEEEEEEEEEEEEECEEEEEEEEEEEEE6A
:1032A400EEEEEEEEEEEEEEEEEEEEEEEEEEEEEEEE3A
:1032B400EEEEFEFFFFFFFFFFFFFFFFEF6E6E6E6E91
:1032C400FEEFE6E6E6E66E6E6E6EFEEFE6E6E6E638
:1032D4006E6E6E6EFEEFE6E6E6E66E6E6E6E7EEF88
:1032E400E6E6E6E66E6E6E6EFEE0E6E6E6E66E6E38
:1032F4006E6EFEEFE6E6E6E66E6E6E6EFEEFE6E6F8
:10330400E6E66E6E6E6EFEEFE6E6E6E6FEFFFFFFB5
:10331400FFFDFFFFFFEFEEEEEEEEEEECEEEEEEEE77
:10332400EEEEEEEEEEEEEEEEEEEEEEEE8EE8EEEE1F
:103334009EECEEEEEEEE8888EEEE8EE8EEEEEEFE1D
:103344008888EFEE8EE8EEEEEEEE8EE8EEEE8EE896
:10335400EEEEEEEE847877778748EEEEEEEE8408B4
:1033640000008048EEEEEEEE8EE8EEEE8EE8EEEE35
:10337400EEEE8EE8EEFE8888EFEEEEEE8EE8EEEEF0
:103384008888EEEEEEEE9EEDEEEE8EE8EEEEEEEEDC
:10339400EEEEEEEEEEEEEEEEEEEEEEEEEEEEEEEE49
:1033A400EEEEFEFFF0FFE6F5FFF3FFEFFEEF0EEFAC
:1033B400E6E53FEEFFEFFEEFEEF0E6F5E3EEFFEFBE
:1033C400FEEFEE0EE635EEEEFFEFDE222022CF2FEB
:1033D400222022EFFEEFEE3EE506EEEEFFEFFEEFDB
:1033E400EEF3E5F6E0EEFFEFFEEF3EEFE5E60FEE7F
:1033F400FFEFFEEFF3EEE5E6FEE0FFEFFE3FFFFF3B
:10340400F5F6FF0FFFEFEEEEEEEEEEEEEEEEEEEE85
:10341400EEEEEEEEEEEEEEEEEEEEEE2FF2EEEEFE73
:1034240022EFEEEEFEE22EEE222FEEF220EF2EEE53
:10343400FE22FFF2EE2FFFE22EFE02E22F2EFEE22C
:10344400E2CFDE2EEEE2E22E2EEEE2EEEE2EEEE203
:10345400E22E2EEEE2EEEE2E2EEFE22E2EEEE2EE37
:10346400EEFEF2EEE2F22E2EEFEEEEEEEEEE2FEFA9
:10347400FEF2EEEEEEEEEEEEEEEEEEEEEEEEEEEE54
:10348400EEEEEEEEEEEEEEEE0000000000000000C8
:103494000000000000000000000000000000000028
:1034A4000000000000000000000000000000000018
:1034B4000000000000000000000000000000000008
:1034C40000000000000000000000000000000000F8
:1034D40000000000000000000000000000000000E8
:1034E40000000000000000000000000000000000D8
:1034F40000000000000000000000000000000000C8
:10350400000001000200030004000500060007009B
:10351400080009000A000B000C000D000E000F004B
:103524001000110012001300000101010201030147
:103534000401050106010701080109010A010B0143
:103544000C010D010E010F011001110112011301F3
:10355400000201020202030204020502060207023B
:10356400080209020800D90B080000000800D90B62
:103574002000E008000000000200ED0E0200D10F60
:103584000200C1100200C0110200CF120200ED13AC
:1035940002001C1502005E160200B31702001B197C
:1035A40002009A1A02002F1C0200DC1D0200A21F56
:1035B400020084210200822302009E250200DB27F0
:1035C40002003A2A0200BC2C0200652F02003832A5
:1035D4000200333502005D380200B73B00000000F2
:1035E4000100ED130100C011000000000100DC1D0A
:1035F400000000005343520077696E6E6572206FBD
:1036040066207468652067616D652100596F7520B7
:10361400626563616D65206162736F6C75746500CA
:10362400434F4E47524154554C4154494F4E5321F8
:1036340000000000423A4E4F00000000413A4F4B58
:10364400000000005053573A00000000413A505324
:103654005700000070617373776F7264000000009C
:103664004C564C004C4556454C000000CF4B8FDF68
:10367400E7DF8FCFC7DF8FFFCF87E707EFFFCFFFEE
:10368400874B078FE7AFD7E7C7DF8FC7CF13E38F2A
:10369400FBCFCFFF03038F078F77DFEF878FDF0722
:1036A400FF238BDF1F4787FF8703DF070F27070FE2
:1036B4009F070707DF130FDF0703CFFFCF03DF8F5A
:1036C400AF278F6F7F0707B7BF87AB8FC7FFB7FFE2
:1036D40007078383C70F8F8387A7B7777B7B53073E
:1036E4001F3777FF5737ABB3571FABA3032333738E
:1036F4007B7BABDF6BD737FF5787AB870787838726
:103704004B2B33737B7B53DF1B1757FF033703B3F9
:10371400031703E3032333737B7BABDF5BD767FFC1
:1037240027079383270793C3032333737B7B03DF29
:103734006BD777FF97FFF7BF7FF7EFEFFFF7FFFF39
:10374400FFFFFFFFFFFFFFFF839FBFD7D77F7FF7F9
:10375400BFDFFFFFFFFFFFFFFFFFFFFF8307D3BFB5
:103764009FDFDFDFDFFFFFFFFFFFFFFFFFFFFFFF45
:10377400032303878F8787878787FFFFFFFFFFFF69
:10378400FFFFFFFFA7878F8F830B0B0B0B0BFFFF35
:10379400FFFFFFFFFFFFFFFF020004040610080500
:1037A4000C141006181520073016400F6017801FE0
:1037B4000202020204081020040404040810204039
:1037C400060606060C183060080808081020408019
:1037D40001000200030004000500060007000800C1
:1037E40002000400080010002000400080000001D6
:1037F40000A830305020702070706070102020209D
:1038040000002020000020200000202000002020B4
:1038140000204850F8C84010102050200000000834
:103824007060707030F070F87070000010004060CC
:103834007070F070E0F8F87088F8089080888870EC
:10384400F070F070F88888888888F83880702000D4
:103854006000800008003000802008404000000024
:1038640000000000200000000000001820C028080C
:10387400001CE0FC001CE0FC001CE0FC001CE0FC64
:10388400FFFFAFAFFFFFAFAFFFFFAFAFFFFFAFAFC4
:10389400FFDFB7AF0737BFEFEFDFAFDFFFFFFFF7A4
:1038A4008F9F8F8FCF0F8F078F8FFFFFEFFFBF9FEC
:1038B4008F8F0F8F1F07078F7707F76F7F77778FAC
:1038C4000F8F0F8F07777777777707C77F8FDFFFA4
:1038D4009FFF7FFFF7FFCFFF7FDFF7BFBFFFFFFF34
:1038E400FFFFFFFFDFFFFFFFFFFFFFE7DF3FD7F72C
:1038F40000544878F870A870D8A850201870602038
:103904003000202000002020000020200000202083
:10391400002048F8A0D0A020201020200000001093
:1039240098A00808508080088888202020F820105B
:103934008888888890808080882008A080D8C8885B
:103944008888888020888888505010204010500033
:103954009078803808704078F000005040D0F070C3
:10396400F07838F0708888889088F02020205008FB
:10397400001CE0FC001CE0FC001CE0FC001CE0FC63
:10398400CF1FAFAFFFFFAFAFFFFFAFAFFFFFAFAFD3
:10399400FFDFB7075F2F5FDFDFEFDFDFFFFFFFEF43
:1039A400675FF7F7AF7F7FF77777DFDFDF07DFEF5B
:1039B400777777776F7F7F7F77DFF75F7F2737773B
:1039C4007777777FDF777777AFAFEFDFBFEFAFFF43
:1039D4006F877FC7F78FBF870FFFFFAFBF2F0F8F93
:1039E4000F87C70F8F7777776F770FDFDFDFAFF73B
:1039F40000A884FCF8F8F8F888F848F8FCF8FC20EB
:103A040078E020E03CFC3CFC20E020E03CFC3CFC7A
:103A140000200050F82068002010F8F810F800206A
:103A2400A820783090F0F01070780000400010204A
:103A3400B0F8F08088F0F098F82008C080A8A88832
:103A4400F0A8F070208888A820202020201088006A
:103A54006088F04078F8E0888860086040A888882A
:103A6400888840C0208888A8608830C0201800104A
:103A7400001CE0FC001CE0FC001CE0FC001CE0FC62
:103A840087FFAF2FC303A323FF0FAF2F8303A3230A
:103A9400FFDFFFAF07DF97FFDFEF0707EF07FFDF6A
:103AA40057DF87CF6F0F0FEF8F87FFFFBFFFEFDF6A
:103AB4004F070F7F770F0F6707DFF73F7F57577762
:103AC4000F570F8FDF777757DFDFDFDFDFEF77FF0A
:103AD4009F770FBF87071F77779FF79FBF5777772A
:103AE4007777BF3FDF7777579F77CF3FDFE7FFEFEA
:103AF400005484FCF8F8A8F8A8D8D020182060F85E
:103B04007800000000000000202020202020202039
:103B1400000000F8285890002010202010003040A9
:103B2400C8208008F80888208808002020F8200091
:103B34008088888890808088882088A08088988859
:103B440080989008208850A8502040201010000031
:103B540000888840888040788820086040A8888849
:103B6400F0784030208850A86078C020202000A041
:103B7400000000001C1C1C1CE0E0E0E0FCFCFCFC61
:103B8400871FAFEFFFFFBFFFAFEFAFEFBFFFBFFF79
:103B9400FFFFFF07D7A76FFFDFEFDFDFEFFFCFBF29
:103BA40037DF7FF707F777DF77F7FFDFDF07DFFF21
:103BB4007F7777776F7F7F7777DF775F7F77677739
:103BC4007F676FF7DF77AF57AFDFBFDFEFEFFFFF41
:103BD400FF7777BF777FBF8777DFF79FBF57777709
:103BE4000F87BFCFDF77AF579F873FDFDFDFFF5FF1
:103BF40000A848787070202088F8C05010202070E9
:103C04003000000000000000202020202020202080
:103C140000200050F89868001020502020003080C8
:103C240070F8F87010F07040707020401000402060
:103C34007088F070E0F8807088F87090F888887068
:103C4400807088F0207020508820F83808700000B8
:103C54000078F038787840088870485020A8887038
:103C6400800840F0187820509008F01820C00040D8
:103C7400000000001C1C1C1CE0E0E0E0FCFCFCFC60
:103C8400CFFFFF0FC3038303AF2FAF2FA323A323C0
:103C9400FFDFFFAF076797FFEFDFAFDFDFFFCF7F08
:103CA4008F07078FEF0F8FBF8F8FDFBFEFFFBFDF50
:103CB4008F770F8F1F077F8F77078F6F0777778F28
:103CC4007F8F770FDF8FDFAF77DF07C7F78FFFFFB8
:103CD400FF870FC78787BFF7778FB7AFDF57778F18
:103CE4007FF7BF0FE787DFAF6FF70FE7DF3FFFBF58
:103CF4000054303020207070707000880020002044
:103D040000000000000000002020202020202020AF
:103D1400000000000000000000000000000000009F
:103D2400000000000000000000000000000000008F
:103D3400000000000000000000000000000000007F
:103D4400000000000000000000000000000000FC73
:103D540000000000000000700000300000000000BF
:103D64008008000000000000007000000000000057
:103D7400000000001C1C1C1CE0E0E0E0FCFCFCFC5F
:103D8400FFFFFFFFFFFFFFFFAFAFAFAFAFAFAFAFBF
:103D9400FFFFFFFFFFFFFFFFFFFFFFFFFFFFFFFF2F
:103DA400FFFFFFFFFFFFFFFFFFFFFFFFFFFFFFFF1F
:103DB400FFFFFFFFFFFFFFFFFFFFFFFFFFFFFFFF0F
:103DC400FFFFFFFFFFFFFFFFFFFFFFFFFFFFFF03FB
:103DD400FFFFFFFFFFFFFF8FFFFFCFFFFFFFFFFF8F
:103DE4007FF7FFFFFFFFFFFFFF8FFFFFFFFFFFFFD7
:103DF40000D0020000EE0700009C0B00007E0E00C5
:103E040000C41000004A1200008E1300F4370000B2
:103E140000366E0100366E0100F4010000366E01BA
:103E240000127A0000093D000000000000000000BC
:103E3400370600400C4A485281990CCA9386218D5A
:103E44009422ADCA2A851D890605170600001306AB
:103E5400E600329502850100010001000100010025
:103E6400010001000100138541908323050013051F
:103E7400001063DCA3041387C18F1843B7370140D4
:103E8400C146010008230507C8C719467D167DFEF3
:103E9400FD16EDFA23A607008D4533F5B30063152F
:103EA400B5001386C18F18C2170500E01305050F6E
:103EB400028501009385419083A305001305000446
:103EC400970500E0938565068285170500E01305D4
:0C3ED400A50502850000000000000000B1
:00000001FF
