:100000006F00000A000000009C0000009C0000003F
:1000100000000000000000000000000000000000E0
:1000200000000000000000000000000000000000D0
:100030009C000000000000009C0000000000000088
:100040009C0000009C0000009C0000009C00000040
:100050009C0000009C0000009C0000009C00000030
:100060009C0000009C0000009C0000009C00000020
:100070009C0000009C0000009C0000009C00000010
:100080009C0000009C0000009C0000009C00000000
:100090009C0000009C0000004000002001A0010026
:1000A000970100209381017A138101FB174500001D
:1000B000130505DE970500209385C5F4170600207B
:1000C0001306060763FAC5008322050023A0550026
:1000D00011059105E3EAC5FE1385C18E938581DF85
:1000E0006377B500232005001105E36DB5FE896235
:1000F00093820288739002308D42739042809702FF
:100100000000938222F093E2320073905230EF00AD
:10011000105D971200009382421E73901234730098
:08012000203001000000000086
:100128001145B71601409305A01763C5B30693059B
:10013800B01763C07506C8CA639EB3049385C1909F
:100148000395050021C913864191373701401307EC
:1001580007C06347A00093860191944214C239A056
:100168007D158AA105E91442910614C28A228AA142
:1001780019C9B62289CA54D7858234C308538565FC
:100188004D8D08D301A80853FD75FD156D8D08D355
:1001980011A088CA85031306D02063CFC30081430A
:1001A800138581930C4185050CC1170500201305A3
:1001B800E5FC9385419388C11385C193232075007D
:1001C8009383419083D703003723014013030340EF
:1001D8000325C304930500406390F50493820190BE
:1001E80083A502002E9523A0A200138781900C23DB
:1001F80085050CA31306000263CAC5002300070087
:1002080023A002009382C18F23A0A20023900300A1
:10021800938591908C21D1A89395F7018507239018
:10022800F30063DC050A9382018F83A502002E95F3
:1002380023A0A20093050040E39CF5FC23A0020044
:100248009382C18E23A0A200814597020020938249
:10025800E2DA03A6C2006345C50093E58500C10242
:1002680003A642006345C50093E54500A10203A625
:1002780002006344C50093E525009382818F03A59E
:10028800020023A002009382418F23A0A2009702BC
:1002980000209382A2D603A6C2006345C50093E559
:1002A8000502C10203A642006345C50093E50504A3
:1002B800A10203A602006344C50093E505019382E9
:1002C800719003C502002380B2006316B5009382C3
:1002D80061902380A200A14509A89382818F83A5FC
:1002E80002002E9523A0A2008145232AB302B70558
:1002F8004000032583004D8D2324A3007300203084
:100308002A86014593F6150091C232958581060625
:10031800F5F9828000000000634E050263C30504FE
:100328002E86AA857D5515C285466378B600635624
:10033800C00006068606E36CB6FE014563E4C50008
:10034800918D558D85820582F5FA82808682C93F16
:100358002E8582823305A0406347B000B305B040C4
:10036800C1B7B305B0408682653F3305A04082829D
:10037800868263C70500634905005D372E85828242
:10038800B305B040E35B05FE3305A040513F33059C
:10039800B040828200002A8309CA838305002300B3
:1003A80073007D16050385056DFA82802A8311C6C0
:1003B8002300B3007D16050365FE82802147B71729
:1003C800014011469145CCCB93168501E18609433E
:1003D80063C406003703020023A867000100010078
:1003E80001008CCB01000100010006057D17137583
:1003F800F50F71FB3717014050CB89450CCB94435F
:1004080093F6F6F093E6060894C301000100010094
:1004180010CB01000100010050CB010001000100D8
:100428004CCB98431377F7F01367070198C3828082
:1004380083C7A19089EFB71701400947D8CB0100BE
:10044800010001001147D8CB0100010001008280A2
:1004580083C7A19089EFB7170140114798CB0100D6
:1004680001000100094798CB0100010001008280CA
:1004780083C7A190511122C206C42A849DEB4D3F27
:1004880013058007253F0145153F13757400136553
:10049800050B2D3701451D3741450D37553F493F60
:1004A80013058007213F1244A240130500043101BF
:1004B80031B7A2401244A388A19223880192310146
:1004C800828083C7A19091E3D5BD511122C483C511
:1004D8000193AA8603C511933703002093D23540B0
:1004E80093177500BE929307031826C2969713C6F2
:1004F800F5FF1D8A84230547130303183317C70024
:100508001376F70F1AC093F3160033E3C40063960B
:1005180003001343F7FF33F364008244A692238059
:10052800620083C3070193F2260033637600639663
:1005380002001343F7FF33F3630083C307022388E2
:10054800670093F2460033E3C30063960200134347
:10055800F7FF33F3630083C307032380670293F233
:10056800860033E3C300639602001343F7FF33F3B7
:10057800630083C307042388670293F2060133E309
:10058800C300639602001343F7FF33F3630083C38A
:1005980007052380670493F2060233E3C3006396DA
:1005A80002001343F7FF33F3630083C3070623886E
:1005B800670493F2060433E3C3006396020013430F
:1005C800F7FF33F363002380670603C30707E206D8
:1005D800E1863366C30063C606001347F7FF337628
:1005E800E3002388C70685059307F00763D6B7009D
:1005F8000505A388A192814522442388B19292449B
:1006080031018280B5B503C7A190511106C422C239
:1006180026C08547631EF70A23AE0192B70700205C
:100628009387071823AAF192B7170240984F1367C8
:10063800170098CF984F1367470098CF984F1367C4
:10064800070198CF984F1367070298CF8D45494502
:100658008D2DAD454545B5258D4505459D25370766
:1006680001405C439306A02F054693F7F7CF93E725
:1006780007205CC3854581471307C005370500403F
:10068800EF007027B70700401307300798DF984F2F
:10069800E576FD16758F98CF984F85669386068008
:1006A800558F98CF98531367070198D3984B6D9B34
:1006B80098CBD84713674700D8C7A2401244B7E77A
:1006C80000E01307000423A2E7108244310182806E
:1006D800B7170140094798CB114798CB8545454541
:1006E800CD2385454945F12B29458D64EF00F0065A
:1006F80001443D3B9384C41DB3079400882305043B
:100708007539E547E31AF4FEA1330945EF00F00413
:100718001306F031854537050040EF00301971BFE9
:1007280083C7A190D5EB111122CA3704002026C82F
:1007380006CC13040418814426851D3BA287930523
:100748000401A146130700088823902B798D798E20
:100758003335A00019C21365250003C60702798E38
:1007680019C21365450003C60703798E19C21365BC
:10077800850003C60704798E19C21365050103C6EF
:100788000705798E19C21365050203C60706798E17
:1007980019C21365050403C60707798E19C21365C4
:1007A80005082EC63AC43EC236C0093982462247D9
:1007B8009247FD16B2450587C1FA8507E393B7F856
:1007C80041398504A14713040408E397F4F6E2408D
:1007D8005244C24471018280828037050020511141
:1007E8001306004081451305051806C4C136A2400A
:1007F80023A6019223A401922382019231018280CF
:1008080093573540920537070020AE97130707180E
:100818003E971345F5FF14231D898547B397A70015
:1008280093C7F7FFF58F1CA382801307F007636750
:10083800A7001307F0036363B700D9B78280935703
:10084800354092053387B700B7070020938707180C
:10085800BA9794231345F5FF1D8905473317A70059
:10086800558F98A382801307F0076367A7001307C3
:10087800F0036363B700E1B78280B707002003A7DE
:10088800C701011126CAB304A700938704602EC0CC
:1008980006CE22CCB2853EC283C64192802089C64C
:1008A8009347F4FF13F4F70F8247024599073EC4B4
:1008B80093168401E1862EC82AC663D806026537D6
:1008C8003245C2459317140013F4F70FA2470505E4
:1008D800E310F5FE9247938404108505E39E97FA8A
:1008E800F2406244D244056182808137C245324574
:1008F800D1BF411122C426C206C62A84AE8408206C
:10090800050411E5B2402244924441018280A68543
:1009180032C0A53702469904DDB703C6A1911D4729
:100928009307160093F7F70F6373F700814703C720
:1009380091916308F7001387C191329708A3238D1B
:10094800F190828083C76190311193F7F70F83C6C6
:10095800819122C626C406C8238CF1908944054497
:1009680033F7970019CB33F7960001EB1375F40FA3
:1009780036C23EC05D379246824705041D4786044D
:10098800E310E4FEC2403244A24451018280511176
:1009980022C206C42A847D3783C76190A24033D51A
:1009A80087401244058931018280511106C4593F9C
:1009B80083C7919103C7A1910145630FF70013877E
:1009C800C1913E978507082393F7F70F1D47637377
:1009D800F7008147A38CF190A24031018280511128
:1009E80006C48D3703C56190A24013351500310147
:1009F8008280511106C4E5377DDDA2403101828035
:100A0800511122C2371402401C4C06C493E7170048
:100A18001CCC1C4C93E707011CCCA545514555241B
:100A2800370701405C4393F7F7F35CC31C4C056739
:100A380013070780D98F1CCC5C44D98F5CC4010094
:100A48005C44FD769386F67FF58F5CC4B73701402A
:100A5800938707C0944765767D16E19A94C7DD466B
:100A680094D79306803ED4D79306401FB4C39443CB
:100A7800A2401244BD9A94C3D44B93E61600D4CB3B
:100A8800944393E6060894C3D44FF18E1966D18E29
:100A9800D4CFD44F558FD8CFF843A166558FF8C31C
:100AA80098431367170098C331018280B737014014
:100AB800938707C0C8D70581A8C398538566558F03
:100AC80098D3828023960190B7370140938707C057
:100AD8009853FD76FD16758F98D3828083A5C18FB4
:100AE80051113705580206C4EFF09F83A240310127
:100AF800828051111305800C06C422C226C0B12978
:100B0800B7060140DC4261777D17F98F3725014030
:100B1800DCC213050540AD210147B72201401D4342
:100B280085466D46138502400C49B317E30093C709
:100B3800F7FFED8FB395E600CD8F1CC90D07E313C2
:100B4800C7FE13060040A145B9229357A540960752
:100B580023AEF18E9355254099473705C012A384DB
:100B6800F19023850190EFF02FFB85678D0763DFF8
:100B7800A70485469547A384F1902385D190B7179C
:100B88000240984F1367170098CF984F13670702D2
:100B980098CF9305800479452D2229457D2EB717D6
:100BA8000140938707409C4793F70704FDF7B70672
:100BB8000140DC42370700F97D17F98F3707000439
:100BC800D98FDCC283C7A190754591E379458145EA
:100BD800CD2881450945F52003C691903724014069
:100BE8008545130504400D20130404401C443707B1
:100BF80040007D45D98F1CC49926193529341244E3
:100C0800A24082443101D1BE994763C2B702FD15A3
:100C18001397250054592E97FD47B397E70093C7BC
:100C2800F7FFF58F3317E600D98F5CD98280B1477B
:100C380063C3B702E5151397250014592E97FD478E
:100C4800B397E70093C7F7FFF58F3317E60033E64E
:100C5800E70010D98280CD151397250054552E979B
:100C6800FD47B397E70093C7F7FFF58F3316E60004
:100C78005D8E50D582805C5937074000819BCD8FAF
:100C88005CD91C45D98F1CC51C41898BF5DF68458B
:100C9800420541818280311122C626C406C82AC075
:100CA8003284814463488000C24032442685A2448D
:100CB8005101828002452EC27D14753F9245AA9447
:100CC800D5B7B707100013573540938727043E97C9
:100CD8002A0793767500104313952600BD47B397EE
:100CE800A70093C7F7FFF18F13F6F5003316A60098
:100CF800D18F1CC39307700263DBB70005459307C8
:100D080080023315D5006393F500420508CB828035
:100D1800B7F7FF1F83C7477D1307F00F6393E700FB
:100D2800C147B71602409842FD8B8E07137777F0BC
:100D3800D98F9CC28280371702405C43511122C26E
:100D480089833704002006C426C08D8B854613048A
:100D580004026384D70489466383D704084048C4DF
:100D6800B7140240D8408D67938707230D83798B8A
:100D7800BA978E23EFF0CFDA08C8D8408D679387EB
:100D880007212D837D8BBA978C23EFF06FD9A24072
:100D980048C812448244310182804840C9B75C4344
:100DA800C183858B81E70840060555BF4840EDBFE4
:100DB800372702401C43511106C4F19B93E71700E3
:100DC8001CC3B937371702401C4393E717001CC3ED
:100DD800B71702409843098B75DFD843719BD8C376
:100DE800B7170240D84309830D8B6DFFD843B70668
:100DF80000F9FD16758FD8C39843B706F7FEFD16A0
:100E0800758F98C39843B706FCFFFD16758F98C376
:100E18009847F9769386F62F758F98C79847B7063F
:100E28009D006146558F98C7D8431377F7F0D8C30C
:100E38008D679386871F2D479387871FEC2A6375D5
:100E4800B6007D17F9167DFB060737160240BA97DC
:100E580054429C3341771307F77F758FAE07D98FBC
:100E68005CC2D13DB7070020938707029C4B372609
:100E780002401842B7C68C01938606A8B3B7D700BC
:100E8800A24093C71700719BD98F1CC23101828081
:100E9800B7F700E09843799B98C39843759B98C32C
:100EA80098431367470098C398430607058398C378
:100EB8000D6723A407001307F7ED98CBD843799B58
:100EC800D8C398435D9B98C323A001D49843136764
:100ED800170098C38280B7170240D853511123A234
:100EE800E1D4856706C422C226C0938787380100EB
:100EF800FD17F5FF753DB7170240D84B136757002C
:100F0800D8CB984F8566938656A3558F98CFD84FE0
:100F1800B70620108506558FD8CF116491648D3F90
:100F28001304C4E89384C4E8636794001244A2409D
:100F3800824431017DBE1C4011048297F5B737F712
:100F480000E0931715001447AA978E0737F600E0BC
:100F58001846158FE36EF7FE8280996551119385C7
:100F680005DC06C4EFF0CFB9B7F700E09847B7F64D
:100F780000E09C46998FE3EEA7FEA24031018280F3
:100F88005111B727014006C4938707406311F50242
:100F9800B7170240984F1367072098CFD8471367B1
:100FA8000720D8C70100D8471377F7DFD8C71C45F3
:100FB8003707F2FF7D17F98F37070E00D98F1CC549
:100FC8001C4537071000D98F1CC55C55370710FF23
:100FD8007D17F98F5CD51C4593E717001CC505459F
:100FE800AD3FB727014093870740D843B70600FABB
:100FF800FD16758FB7060002558FD8C39847B726D8
:1010080001401367870098C7938706409847218B4C
:1010180065FF98471367470098C73727014093072C
:1010280007409C47918BE5FFA24031018280B7378A
:101038000140938707C06312F502B7170240D847EB
:10104800856693860680558FD8C70100D847FD76F8
:101058009386F67F758FD8C78280B7070040E31D57
:10106800F5FEB7170240984B1367170098CB01009D
:10107800984B799B98CBCDB7B7370140938707C07A
:10108800631BF500B71602409C4E056713070780DF
:10109800D98F9CCE8280B7070040E31DF5FE371735
:1010A80002405C4F93E717005CCFEDB7411106C6CD
:1010B80022C426C22A8432C0AE847D3F2285853F61
:1010C8001C440246FD14E19B1CC404D450D45C4863
:1010D800B240924493E717005CC81C48F99B1CC8AF
:1010E8005C4493E717005CC41C4093E717001CC0DE
:1010F800224441018280111132C636C43AC23EC030
:1011080006CC22CA26C82A84AE84BD372285053774
:101118000C443246A246E1990CC47D1610D454D42E
:10112800144082471247BD9A14C0144093B7170061
:10113800990793E6060814C08D466381D40A63C9EB
:1011480096028546638AD40489466387D4067C4020
:101158002167E240D98F7CC05C48C24493E71700FE
:101168005CC81C4093E717001CC052447101828080
:101178009146E39ED4FC38C0584CE576FD16758F31
:10118800B207D98F5CCC5C4C056793060780D58F76
:101198005CCC1C50D98F39A858D8184C92071377B3
:1011A800F7F8D98F1CCC1C4C93E787001CCC1C503B
:1011B80093E717001CD061BF18DC184CE576FD16C4
:1011C800758FB207D98F1CCC1C4C05671307078095
:1011D800D98F1CCC1C5093E70701E9BF58DC584C49
:1011E80092071377F7F8D98F5CCC5C4C93E78700AC
:1011F8005CCC1C5093E7071075BF130181FC22D803
:1012080006DA26D62AC42EC0A30401028146014765
:10121800130491020245A94532CC36CA3AC8EFF008
:101228002F902AC202459307F4FFA9453EC6EFF066
:10123800EF914247D246824513050503A30FA4FE4A
:101248002545B24762469304170085068D43636FB0
:10125800B500224513062700BE85EFF0CF93D25084
:1012680042542685B254130181038280639A760022
:1012780001CAA38FC7FE930427009307E4FF8146A2
:1012880012473E843AC0268771B763C30500B5B7D5
:10129800511106C49306D00214A1B305B040050548
:1012A800A93FA240050531018280511126C006C41C
:1012B80022C2AE8419E51244A24082442E8531012F
:1012C80069B91304F00F098C06041305F4FFEFF055
:1012D800EFFDA2852685EFF0AF82935715403E9526
:1012E800B9391244A240824431016FF0AFFD83C77F
:1012F800A190511106C422C226C089EBEFF0EFCDB0
:10130800FD54EFF08FEA09CDEFF0AFEEEF00303784
:10131800EF105049A24012448244014531018280B5
:10132800EFF0CFFB13042503E38D84FC1306E002E2
:10133800A2851385C1D4913F1375F50F95476310A6
:10134800F5029387C1D4130760057546930510030A
:101358001385C1D4D8A3EFF0CFD9EFF06FBCA28426
:101368004DB7511122C206C42A84082131151375BC
:10137800F50FEF10A06601C5EF10A01828B0A24025
:10138800124431018280030505008280030515009F
:1013980082800305450082804CA1828003052500D8
:1013A80082800305350082801C229821E1173117BD
:1013B800E2071377F70FE187098398A189871CA2B1
:1013C8008280682582806CA58280083582800CB571
:1013D800828048258280282582804CB582804835C5
:1013E80082802CB582800305B5008280511106C425
:1013F80022C226C085473CB50CA110B1A302050046
:1014080023030500A3030500230405002A84B684EA
:10141800EF10200F28A0EF10C00E854728B05CA061
:10142800A304040024A423070400A2401244824415
:101438003101828089C58547638BF5008280030767
:10144800250085476313F700FD573CA18280830779
:1014580035006395B700FD573CB182802CB182807E
:1014680089C585476384F5008280E5BD511122C294
:1014780006C42A840831EF10605601C5EF106008D1
:1014880028A0A240124431018280211106CA22C834
:1014980026C61C211306B1009305A1009D075C8593
:1014A8001C312A848544DC8501378307A1003EC0AE
:1014B8009C85024593958701E1853EC2EF00B07B8C
:1014C8009247631495003C3419A893851700024588
:1014D800E205E185EF00307A8147E30695FED240C8
:1014E8004244B2443E8561018280311122C606C859
:1014F80026C403075500614683067500830405006A
:101508002A849377F70F6353E6049D175CB193879A
:1015180014001CA122853AC236C0853F8246124774
:1015280019E5030604009307400663D4C70258B0C0
:101538000307240074B004A085476313F700FD5720
:101548003CA0C2403244A24451018280E5075CB10C
:10155800D1B7228539350307040085473CA0E3024B
:1015680097FE5CA4F9BF211106CA22C826C61C2111
:101578001306B1009305A1005C851C312A848544BB
:10158800DC851D358307A1003EC09C8502459395E7
:101598008701E1853EC2EF00106E92476314950003
:1015A8003C3419A8938517000245E205E185EF0050
:1015B800906C8147E30695FED2404244B2443E8592
:1015C80061018280311122C606C826C4030755006E
:1015D800215683067500830405002A849377F70F44
:1015E8006352C704E5075CB19387F4FF1CA1228509
:1015F8003AC236C08D3F8246124711E50306040001
:10160800CD4763C4C70258B00307240074B004A0D0
:1016180085476313F700FD573CA0C2403244A244FB
:10162800510182809D175CB1D9B722851D3BFD57BA
:101638003CA083070400E38297FE23060400F1BF61
:10164800311106C822C626C41C2113067100930551
:1016580061005C831C312A84DC83B93304838305ED
:1016680071001395840161852EC0EF00D060054795
:1016780082456314E5003C3419A8138514006205FB
:101688006185EF00505F05478147E306E5FEC240EC
:101698003244A2443E8551018280311122C606C8D7
:1016A80026C48304650021568306850003071500B8
:1016B8002A8493F7F40F63DCC402E5077CA193073F
:1016C800F7FF1CB122853AC236C09D3F82461247B9
:1016D80009E58307140063DF070014A418B064A0A9
:1016E80022853244C240A24485455101A1B39D17C9
:1016F8007CA1C9BF22858545A533FD573CB0C240B2
:101708003244A24451018280311106C822C626C43F
:101718001C2113067100930561005C831C312A8427
:101728009D07DC835131048383057100139584017F
:1017380061852EC0EF003054054782456314E500EB
:101748003C3419A81385140062056185EF00B05276
:1017580005478147E306E5FEC2403244A2443E8580
:1017680051018280311122C606C826C4830465004F
:10177800614683068500030715002A8493F7F40F52
:10178800635E96029D177CA1930717001CB1228502
:101798003AC236C0953F8246124719E5030614003F
:1017A8009307000363DFC70014A418B064A0228560
:1017B8003244C240A24485455101ADB9E5077CA138
:1017C800F9B722858545693985473CB0C24032441E
:1017D800A244510182809307C0031CA19307000211
:1017E8001CB185475CA1A30105003CA1A30205002B
:1017F80023030500A30305002304050082802111AB
:1018080006CA22C826C618211C311306B1001D07B6
:101818009305A1005885DC85413E80858307A1009A
:1018280093158401E1853E852EC23EC0EF00B04489
:101838000547924505046302E50202456204618496
:10184800A285EF0050430547631FE502EF10E04211
:101858000245A285EF0070460DA0AA842EC2EF10A3
:10186800C0419245024562046184EF00104502457B
:10187800A285EF005040E30B95FC4244D240B244AD
:1018880061016F00007FD2404244B244610182800E
:10189800511122C206C4B70700208306550083C72A
:1018A80087031306100313F7F60FBE962A84635EA8
:1018B800D6029387E7FC3E971C2158B185071CA1E7
:1018C8000145EF007046030704009307400663D7FD
:1018D800E7001CA0A3030400A302040085473CA062
:1018E80022851244A240310119BFBA975CB1C9BF21
:1018F800211106CA22C826C618211C311306B100B8
:101908009305A1005885DC85EFF01FAA8085830721
:10191800A10093158401E1853E852EC23EC0EF00EB
:1019280090350547924505046302E50202456204C5
:101938006184A285EF0030340547631FE502EF108C
:10194800C0330245A285EF0050370DA0AA842EC2ED
:10195800EF10A0329245024562046184EF00F03531
:101968000245A285EF003031E30B95FC4244D2409A
:10197800B24461016F00E06FD2404244B244610159
:101988008280511122C2B707002006C483C687038C
:10199800030755001306F0FC2A849377F70F158F79
:1019A800958F635DC702938727035CB11C21FD17E0
:1019B8001CA10945EF00503703070400CD4763C851
:1019C800E700D1471CA0A3030400A3020400FD57AD
:1019D8003CA022851244A240310119BF5CB1D1BF9D
:1019E800211106CA22C826C618211C311306B100C7
:1019F8009305A1005885DC85EFF01F9B00859317A0
:101A08008401E1873EC28307B10013158401618513
:101A1800BE853EC0EF003026854605046302D50228
:101A28008245620461842285EF00F0248546631DA7
:101A3800D502EF10802482452285EF00102805A0EA
:101A4800AA84EF1080238245124562046184EF0066
:101A5800D02682452285EF001022E30C95FC4244F3
:101A6800D240B244610131A5D2404244B24461013E
:101A78008280511122C2B707002006C483C687039B
:101A8800030765001306F0FC2A849377F70F158F78
:101A9800958F635CC702938727037CA11C31FD17D0
:101AA8001CB10D45EF0050288307140063D80700C8
:101AB800A30004002304040023030400FD573CB0E2
:101AC80022851244A240310121BF7CA1D9BF511106
:101AD80022C206C42A84082131151375F50FEF00B8
:101AE800F06F11E522851244A240310159B78307EE
:101AF80024007D57638AE7000547639CE700228539
:101B08001244A240310169B322851244A240310136
:101B18008DBDA240124431018280211106CA22C81B
:101B280026C61C3118211306B1009D079305A10094
:101B38005885DC85EFF05F87008593178401E1877E
:101B48003EC28307B100131584016185BE853EC07E
:101B5800EF007012854605046302D50282456204CF
:101B680061842285EF0030118546631DD502EF1090
:101B7800C01082452285EF00501405A0AA84EF10FA
:101B8800C00F8245124562046184EF00101382453C
:101B98002285EF00500EE30C95FC4244D240B2443B
:101BA8006101C1A9D2404244B2446101828051110D
:101BB80022C206C4B70700208306650083C78703CF
:101BC8001306100313F7F60FBE962A84635ED60237
:101BD8009387E7FC3E971C3178A185071CB1054522
:101BE800EF009014030714009307000363D7E7007E
:101BF8001CB0230404002303040085473CB022855D
:101C08001244A240310111BFBA977CA1C9BF51113A
:101C180022C206C42A840831EF00505C11E52285EF
:101C28001244A2403101ADB1830734007D57638A65
:101C3800E7000547639CE70022851244A240310172
:101C4800BDB722851244A240310125B5A2401244F5
:101C580031018280511122C206C42A840831EF0062
:101C6800F05711E522851244A240310119BB8307C0
:101C780034007D57638AE7000547639CE7002285A7
:101C88001244A240310125B722851244A2403101F5
:101C9800CDB3A240124431018280511122C206C440
:101CA8002A84082131151375F50FEF00305311E51B
:101CB80022851244A2403101DDBD830724007D57EF
:101CC800638BE7000547639DE70022851244A24025
:101CD80031016FF0FFBB22851244A240310155B19A
:101CE800A240124431018280230205008280211122
:101CF80006CA22C826C61C211306B1009305A100F6
:101D080089075C851C312A84B6848907DC85EFF055
:101D1800AFE98305B1000305A100EF00C075854751
:101D28006315F50099C023020400D2404244B2442E
:101D380061018280311122C626C42A84AE8413052B
:101D48004006854506C8EFF04FD6B1451305800C0F
:101D5800EFF0AFD583C781D809476382E704636B87
:101D6800F7008DE7A30204009C20A1071CA09C306B
:101D7800890725A00D476389E702228532448245F9
:101D88001246C240A2448146510195B785475CB0CE
:101D98009C2089071CA09C30A1071CB0F9BFA30296
:101DA80004009C20F117D9B785475CB09C208907AF
:101DB8001CA09C30F117D5B72E8783C581D88947D9
:101DC800638FF50463EEB70214221C32A9E1B10651
:101DD800890793F6F60F93F7F70F4CB114A11CB1CE
:101DE80014331C232C33A206DD8E3C235023583396
:101DF800C207D58FE20522078546DD8D598EC5BD00
:101E08008D476387F502814781468145F9B7890681
:101E180093F6F60FB10793F7F70F85457DBF1422A8
:101E28001C32E116890793F6F60F93F7F70FF1BF07
:101E380014221C32890693F6F60FE117E9BF4831E0
:101E48008280511122C206C4054422859145EFF0D3
:101E5800CFC5BD450145EFF04FC51345F4FF894592
:101E68001375F50FEFF06FC429041374F40F93077B
:101E7800B00FE31CF4FCA24012443101828082803E
:101E880099655111938505DC06C4EFE06FC703A679
:101E980001DAB7F500E09845B306C740E3EDA6FEC2
:101EA800A24023A0E1DA31018280130700102390B9
:101EB800E1D8938701D80547BAA323870700238869
:101EC8000700A382070023930700238407002386C3
:101ED800070082805111138501DE06C43135A24006
:101EE800138561DE310109B5311122C626C411649A
:101EF80006C8138541DA130404E50147938401D821
:101F080081453AC22AC0EFF02FC9DC3412479166E6
:101F18008A07BA979386C6E5B6979C23024599CB5C
:101F2800830624000306140083050400EFF00FCC99
:101F380012470245050791473D050D04E312F7FCDA
:101F4800C2403244A2445101828093173500AA97B7
:101F580091658A07938545D5511113064002BE95B0
:101F68001385C1D506C4EFE00FC3A24031018280BA
:101F7800938701D813072002B8AB114798BB130702
:101F880080FC23950700A3860700D8A382801387C7
:101F980001D858233146938701D8A9466375E600CE
:101FA80059179376F70FD837D4A315468946636532
:101FB800E60005079376F70FD4B78280938701D898
:101FC800B833D42305071377F70FB8B363F6E604DD
:101FD800511122C226C006C4138441DAA381070026
:101FE8009304C4032285EFF0CFBA19CD2285EFF010
:101FF8008FBF8547631AF50022851244A2408244A8
:10200800814531016FF0EFBD3D04E31D94FCA24012
:1020180012448244310182808280511122C206C456
:1020280085472A84630AF50089476306F50205E1B6
:102038001244A240310131B522859145EFF0EFA657
:1020480015041374F40F93075006E317F4FEA24027
:10205800124431018280930560095145EFF0EFA4E5
:102068001244A240930560091305400631016FF040
:10207800CFA385451305800C6FF02FA31305803E71
:102088006FE0BFED411122C426C206C68144014754
:10209800014493974400858F138541DA3E953AC0F1
:1020A800EFF02FAF85470247138641DA6317F50033
:1020B800050413F7F40F1374F40F85049147E39A9A
:1020C800F4FC85476310F40293174700998F330592
:1020D800F60081453AC0EFF0CFB00247938701D8A8
:1020E800E0A7F8B7B240224492444101828003033A
:1020F80001003A936341A3022A960145634EE60024
:10210800030741003E976349B700AE96B3A7F600B0
:1021180013C51700828001458280011122CC1384E7
:1021280041DA26CA06CE9304C4032285EFF06FA6CF
:102138008547631AF5062285EFF0AFA82DE51385CC
:10214800C1DEEFF04FA42AC81385C1DEEFF00FA45B
:102158002AC62285EFF02FA32AC42285EFF00FA309
:10216800B24542432247850505039D46AA87E205F5
:102178001315830136C236C015469546E18561853B
:10218800BD3715C11305800C85452AC4EFF0EF91C2
:10219800224571151375F50F65F92D3B938701D805
:1021A800982B050798AB3D04E31194F8F24062447C
:1021B800D24405618280938701D8982B954663E5C0
:1021C800E60019C72D0719A89946630BD700828026
:1021D8009827931617003697F4233697D8B382803A
:1021E8004147EDBF938701D89823854663E5E6000C
:1021F800050798A38280511122C226C006C4138401
:1022080041DA238007009304C4032285EFF06F9B13
:10221800AA8501C92285EFF0CF9A9305F5FF93F5BA
:10222800F50F22853D04EFF00F9AE31094FEA240CB
:102238001244824431018280130181FD26CE22D0CE
:1022480006D2138441DA02C6938441DA2685EFF078
:10225800CF9785476313F5003EC6BD04938701DE1B
:10226800E396F4FE02C4938401DE2685EFF06F92B4
:1022780041C92285EFF0EF9141C52285EFF0AF907B
:102288002AC82285EFF08F902ACC2685EFF0AF8FF1
:102298002ACA2685EFF08F8F524793071500E2452B
:1022A800050742458546E207620736C236C0E18720
:1022B80061879D461D46253D21C5B24789E785456D
:1022C8002285EFF0CF902285EFF02F9015C9914528
:1022D800138501DEEFF04F8CA2478DE32285EFF0E6
:1022E8004F8EF54763EFA7022285EFF08F8D930598
:1022F800150093F5F50F2285EFF0EF8C85473EC466
:1023080099049387C1DEE39297F63D04938701DE33
:10231800E31BF4F492500254F24401451301810284
:1023280082802285EFF0EF89AA85F1B7411122C496
:1023380013144500098C938741DAA2973E853EC065
:1023480006C626C2EFF02F8A85476319F500224496
:102358000245B240924441016FF04F840245EFF0CC
:102368008F8231159377F50F1375850FE391A7FECB
:102378000245EFF04F81938701D8F4272A8493848C
:1023880001D8D14791E61385C1DEEFE0DFFFAA87C8
:1023980005456341F4020245EFE0FFFEFC242A8470
:1023A800514589E71385C1DEEFE0FFFD3325850040
:1023B8003305A040B2402244924441018280411139
:1023C80022C413144500098C938741DAA2973E85ED
:1023D8003EC006C626C2EFF00F8185476319F50097
:1023E80022440245B240924441016FE09FFB0245FE
:1023F800EFE0DFF99377F50F1375850FE392A7FEEA
:102408000245EFE0BFF8938701D8F4272A84938424
:1024180001D8814791E61385C1DEEFE03FF7AA872F
:1024280005456341F4020245EFE05FF6FC242A8487
:10243800014589E71385C1DEEFE05FF533258500A7
:102448003305A040B2402244924441018280751570
:102458001375F50FA547654763EAA700930790240E
:10246800B3D7A700858B354791E36547B7070020A9
:10247800238CE70282809376F50F5546AA872E872C
:10248800636BD6022D4605456348B602014563C510
:1024980005029D8A130500083355D5409316170089
:1024A80036979385C1D58D87BA95BE959C217D8D2C
:1024B8003335A0008280054582801377F50FD54615
:1024C800AA8763EEE60293F6F50F2D460545636984
:1024D800D60213D5374093961500AE969387C1D58B
:1024E800B697AA9793767700130700083357D74013
:1024F80094231347F7FF0145758F98A382800545FC
:1025080082800387D1D9394681476346E6000507AB
:1025180093178701E1871167130747D4A38EF1D872
:10252800BA97038507008280138701D878338D46D0
:10253800938701D863E6E6000507F8B388A7828089
:10254800F823A3830700054681466365E60005076F
:102558009376F70FF4A3DDB7130181FD06D222D0DD
:1025680026CE3AC498233AC07D172A976341C70EEE
:1025780032CC2A8401476345A60C93D33540AE84F8
:1025880063C0760C88333ECA1EC8B305750036C6CC
:1025980063C8D50A82459D88EFD09FD6931505015B
:1025A800C18113871500224593170701C1833EC2D5
:1025B800EFD01FD5C243B246624693170501B386D2
:1025C800764033048640024593958601090493F3C7
:1025D800F60FC183E18542043EC41EC82EC6418061
:1025E800EFD01FD22295924642054181B245C2439F
:1025F800D247014763EAA60022473E972A97182345
:10260800331797001377F70F3EC8635BB002024594
:102618009385F3FF3AC6EFD0BFCE2A94924742047F
:102628004180324763EE8700A246C247B697A29719
:102638009C23A146858EB3D7D740D98F13F7F70FC0
:1026480092500254F2443A85130181028280014774
:10265800C5BF138701D8183B9146938701D863EB10
:10266800E60091660A07938686E73697184302873D
:102678004D47B8AB82805D47EDBF6D47DDBF7D47F5
:10268800CDBF13072002F5B7111106CC22CA26C800
:10269800C93703D4A1D88965938505712285EFD000
:1026A8003FC81376F50FF97542059385058F41816B
:1026B800238DC1D832C6EFD0BFC4AA869305803E09
:1026C800229536C0EFD05FC59374F50FA38C91D8CF
:1026D8009377F50F139557001D8D0A0582463E9591
:1026E8000E053303A0403305A440930540063695F4
:1026F8001AC436C2EFD05FC21377F50F1375F50F02
:10270800238CE1D893171500AA978E072243AA971E
:1027180092468A07B307F4409A973385D700A945AC
:102728003AC0EFD07FBF02471375F50F3246A38B2F
:10273800A1D893971400BE9493172700BA9712064E
:102748008E078E04118C998F26948A073E949317CE
:1027580025003E950605098CE240238B81D852441A
:10276800C2447101828099472A8763F2B702CD4734
:10277800014563FFE70083C721D963EBE700916751
:102788009387C78F3385E7000345C5FE82800145DF
:1027980082809307D5FE93F7F70F130790056361BF
:1027A800F70213971500BA95139745000D8F916797
:1027B8000607938747A7BA973E950345D5FE8280BB
:1027C800014582809307C5FE93F7F70F130770053D
:1027D8006373F7007DBF311122C606C826C42E8454
:1027E80091E53244C240A2445101EDB75D379947A3
:1027F800AA8463E387048387B1D99305F4FF860528
:1028080013F7F50FE205E1853E853AC23EC0EFF0C9
:102818009FC6854612473D446303D500014493058E
:1028280017000245E205E185EFF0FFC40547631490
:10283800E5001364040FE18CC24032442685A244AB
:1028480051018280311126C42AC21385C1DE06C80F
:1028580022C62EC0EFE03FB32A841385C1DEEFE025
:10286800FFB2AA852285324482461246C240A2445B
:1028780003C751D891679387879E51016FF0DFCDC9
:10288800111122CA26C806CC2AC02EC2138441DAE6
:1028980081442285EFE0FFAF0DC92285EFE0BFAE8E
:1028A8002AC42285EFE09FAE2AC62285EFE03FB317
:1028B8002A8792460246B2452245916793878791B7
:1028C800EFF09FC9458D9374F50F3D04938701DEA2
:1028D800E311F4FCE24052442685C244710182802F
:1028E800111122CA2AC0138501DE06CC26C82EC2C1
:1028F800EFE03FAA01E98144E24052442685C24400
:1029080071018280138501DEEFE0BFA89547E304DB
:10291800F5FE138501DEEFE01FA7AA84138501DE0B
:10292800EFE0DFA62AC4138501DEEFF04FD192460F
:102938000246A24591672A879387C7902685EFF0BC
:10294800BFC1AA84138561DEEFE0BFA455D5138506
:1029580061DEEFE05FA32AC4138561DEEFE01FA309
:102968002AC6138501DEEFF08FCD2A8792460246EC
:10297800B245224591679387C790EFF0FFBD458D1B
:102988009374F50F95BF411106C622C426C22AC00A
:10299800AE84EFF03FE32A840245A685EFF09FEA74
:1029A800B367A4000245A68513F4F70FD13DB367BA
:1029B800A4000245A68513F4F70F1D37B367A400DA
:1029C8000245A68513F4F70FEFF0FFD9B240418D09
:1029D800224492441375F50F410182801D8982803B
:1029E800011122CC06CE26CA3E849C233AC0138706
:1029F800F7FF2A97634EC704AA8432C80145634487
:102A08009604AE8263C1B60418309305F7FF3AC640
:102A1800969563CAD50233855640BE853EC4EFD02D
:102A28003F8E3247A2474246BA852AC23E85B30442
:102A38009640EFD0FF8C8245EFD09F8C924636941B
:102A480026942A942820F2406244D2440561828068
:102A58000145D5BF9D47AE8663EBC70091672A86BF
:102A680093870785014799451305300395BF0145AD
:102A78008280211106CA22C826C62AC02EC2930700
:102A8800460563DBA70E2A879307C606014563C080
:102A9800E70E994763FDB70C1374F60F03C7A1D966
:102AA80002461305540591646205AE869387C49B5C
:102AB8009D456185353703C791D9924602462AC498
:102AC8001305940562059387C49B9D456185093F5D
:102AD800224303C781D9924602463363A3001305F4
:102AE800D40562051373F30F9387C49B9D456185D5
:102AF8001AC4FD35224303C771D99246024633638F
:102B0800A3001305140662051373F30F9387C49B80
:102B18009D4561851AC4EFF0BFEC224303C761D914
:102B2800924602463363A3001305540662051373E5
:102B3800F30F9387C49B9D4561851AC4EFF05FEA44
:102B48002243924602463363A300130594066205A6
:102B58001373F30F9387C49B01479D4561851AC47E
:102B6800EFF01FE822433365A3001375F50FD24039
:102B78004244B244610182800145D5BF1301C1FDC1
:102B8800238E01D822CE06D026CC2AC42EC832C61F
:102B98003ACA0144A38D01D836C21C8252473EC0AE
:102BA80063E8E70082507244E244130141028280E4
:102BB80012458144EFD01FA5238E01D8A38D01D8DB
:102BC800B247638CF402C94763E997000145EFD027
:102BD8005F8F850493F4F40FE5B7A2478DC72247AA
:102BE80085476300F7062285EFD0BF8DCD476395F3
:102BF800F406B247D144E39297FEEFD07F8592471F
:102C080085073EC259BF82451306F0FD2685EFF0C1
:102C18005FE6824691672A84268689459387C78618
:102C280001471305E002EFF0BFDB42468245498CBD
:102C380026851374F40FEFF0FFE1498C1374F40F39
:102C48005DB7824501462685EFF0BFE282452A84BA
:102C58002685EFF05FD3D5B783C7C1D90947636627
:102C6800F7008507238EF1D8ADB7238E01D883C727
:102C7800B1D98507A38DF1D8A9BF938701D8BA2701
:102C8800511106C40507BAA7EFF01FA0A2402147BB
:102C98009D461306D0068145054531016FF01FEEAC
:102CA800511106C4EFF05F9EEFF02FA0EFF08FA256
:102CB8001385C1DEEFE03FB2EFF00FA39545138512
:102CC80001DEEFE06FEDA24021479D461306D006D6
:102CD8008145054531016FF07FEA511122C206C4D2
:102CE80026C0938701D8E42799C88547638CF400E8
:102CF8008144A24012442685824431018280EFF04B
:102D08006FB8FDB7138401D87C34139747001D8F23
:102D1800138541DA3A95EFE00FE75147938741DA97
:102D2800630DE502783413154700198D3E95EFE0E1
:102D38004FE6938741DA4DFD7834814513154700F6
:102D4800198D3E95EFE04FE51D4781461306D006E5
:102D580081450545EFF09FE269BF783413154700B8
:102D6800198D3E95EFE08FE2938741DA45FDE9B78B
:102D7800511122C213144500098C938741DA3E94FD
:102D8800228526C006C4EFE00FE6814419E52285B6
:102D9800EFE02FE39334150086042285EFE06FE21D
:102DA8004D47AA876361A702254705456368F70071
:102DB800BDEF83C741D9BE9413F5F40FA240124466
:102DC80082443101828075476375A7067947630994
:102DD800E50022851244A240824431016FE02FE0D1
:102DE80081452285EFE02FDE81452285EFE0CFDAAD
:102DF80081461306D0061D4781450545EFF01FD8CB
:102E08000545EFF08FA19545138501DEEFE0CFD89A
:102E1800938701D8BA271507BAA7EFF0FF8621478D
:102E28009D461306D00681450545EFF03FD501457F
:102E380071B7114561B7411126C293144500898CB9
:102E4800138741DABA942AC0268522C406C6EFE061
:102E58008FD88247294411E12A843E85EFF05FF13B
:102E680022951374F50F2685EFE0AFD605479547F1
:102E78006313E5008147B2403305F40022449244CD
:102E88001375F50F41018280511126C022C206C474
:102E9800938441DA01442285EFF0FFF9AA8526855B
:102EA800EFE0AFD305041374F40F9147BD04E314A6
:102EB800F4FEA2401244824431018280511122C2A0
:102EC80026C006C4138441DA81442285EFE06FCC22
:102ED80025C52285EFE0EFCE25E12285EFE00FCB77
:102EE8009377F50F1375850F6390A70213958401E7
:102EF8006185EFF0AFC3FD576307F5068547631596
:102F0800F5002285EFE06FDE2285EFE0CFC73115AF
:102F18009377F50F1375850F6390A70213958401B6
:102F28006185EFF0CFC9FD576303F5048547631545
:102F3800F5002285EFE01F83850493F4F40F914791
:102F48003D04E394F4F883C751D9894663E5F60252
:102F5800850793F7F70F1244A2408244A38AF1D859
:102F680031016FF07FF22285EFE0CFE571BF228556
:102F7800EFE0AFF2D1B783C741D993B71700238ADF
:102F8800F1D88147C9BF411106C62AC0EFF0CFEF7B
:102F98008245B24021478146130600080145410198
:102FA8006FF0DFBD511106C422C226C0014422853C
:102FB800EFF07FFD5145EFD05FFAB9476308F4148D
:102FC80005041374F40F1545EFD07F9C09E51945E6
:102FD800EFD0FF9B69DD1545EFD07F9B6DFD19454F
:102FE800EFD0FF9A6DF90945EFF02F83EFE05FF816
:102FF800938701D8C837138401D8EFE01FF5EFF0A5
:103008003FCAB7F700E0984723A0E1DA944783A7BF
:1030180081D4B69723A4F1D40428639F040A1385A6
:1030280001DEEFE00FB701C59547631CF5020545C2
:10303800EFD0FF95630E050CEFF0AFCC1385C1DE22
:10304800EFE0FFBC85440945EFD07F946300050E8F
:10305800EFF02FCB1385C1DEEFE07FA7A10493F437
:10306800F40F2685EFF0AFBEEFF05FE51545EFD022
:103078001F92630A050C85473CA0138501DEEFE02B
:103088004FB1914763CAA704138501DEEFE06FB023
:1030980093051500E205138501DEE185EFE0CFAF6A
:1030A800138501DE9385C1DEEFE0DFC8138501DEFD
:1030B800EFE02FAE894763DFA700138561DE854502
:1030C800EFE08FAD938501DE1386C1DE138561DEE7
:1030D800EFE09FCEEFF04F96EFF0CF905C24C9CF92
:1030E8000547638DE70CEFF05FBF8547631DF50C5F
:1030F8001D4781461306D0068145EFF03FA8EFE053
:103108005FD4EFE0BFF7EFE09FE8DDB5014465BDB0
:103118000D45EFD0DF87AA84E30705F2EFF06FBE15
:103128001385C1DEEFE01FB3914431BF1145EFD0E5
:103138001F86E30805F2EFF0CFBC1385C1DEEFE090
:10314800DFB5890429BF1945EFD07F84E31505F25F
:1031580038208547E312F7F8EFE0DFD7938441DAA8
:103168002301040026858145EFE06FA6BD049387FF
:1031780001DEE399F4FE8DB7EFF0EF831D4781463A
:103188001306D00681450545EFF05F9F130520041F
:10319800EFE01FCF183085476316F700EFE01FEE0A
:1031A800A300040018289947E31FF7F2EFE01FED8A
:1031B8001C38E38D07DEFD171CB891B5EFE01FE062
:1031C800EFE0BFF50DB75C2493B717005CA4EFF0F0
:1031D8004FB399B57800AED580A83FD300408D1481
:1031E800A0C0DA128120D9F1DB402000AF00000036
:1031F80002000404061008050C1410061815200710
:103208003016400F6017801F0202020204081020C7
:103218000404040408102040060606060C18306052
:10322800080808081020408001000200030004007C
:10323800050006000700080002000400080010004E
:10324800200040008000000100A83030502070208D
:1032580070706070102020200000202000002020C6
:10326800000020200000202000204850F8C840100E
:1032780010205020000000087060707030F070F866
:1032880070700000100040607070F070E0F8F87026
:1032980088F8089080888870F070F070F8888888BE
:1032A8008888F838807020006000800008003000AE
:1032B80080200840400000000000000020000000BE
:1032C8000000001820C02808001CE0FC001CE0FCDE
:1032D800001CE0FC001CE0FCFFFFAFAFFFFFAFAF3E
:1032E800FFFFAFAFFFFFAFAFFFDFB7AF0737BFEFEE
:1032F800EFDFAFDFFFFFFFF78F9F8F8FCF0F8F07B6
:103308008F8FFFFFEFFFBF9F8F8F0F8F1F07078FD5
:103318007707F76F7F77778F0F8F0F8F077777771D
:10332800777707C77F8FDFFF9FFF7FFFF7FFCFFF0D
:103338007FDFF7BFBFFFFFFFFFFFFFFFDFFFFFFFDD
:10334800FFFFFFE7DF3FD7F700544878F870A87011
:10335800D8A85020187060203000202000002020BD
:103368000000202000002020002048F8A0D0A02045
:10337800201020200000001098A008085080800825
:103388008888202020F8201088888888908080806D
:10339800882008A080D8C88888888880208888885D
:1033A80050501020401050009078803808704078B5
:1033B800F000005040D0F070F07838F070888888BD
:1033C8009088F02020205008001CE0FC001CE0FC45
:1033D800001CE0FC001CE0FCCF1FAFAFFFFFAFAF4D
:1033E800FFFFAFAFFFFFAFAFFFDFB7075F2F5FDFB5
:1033F800DFEFDFDFFFFFFFEF675FF7F7AF7F7FF7F5
:103408007777DFDFDF07DFEF777777776F7F7F7F8C
:1034180077DFF75F7F2737777777777FDF7777777C
:10342800AFAFEFDFBFEFAFFF6F877FC7F78FBF8704
:103438000FFFFFAFBF2F0F8F0F87C70F8F777777DC
:103448006F770FDFDFDFAFF700A884FCF8F8F8F834
:1034580088F848F8FCF8FC2078E020E03CFC3CFCCC
:1034680020E020E03CFC3CFC00200050F8206800F4
:103478002010F8F810F80020A820783090F0F0100C
:103488007078000040001020B0F8F08088F0F098C4
:10349800F82008C080A8A888F0A8F070208888A81C
:1034A80020202020201088006088F04078F8E088EC
:1034B8008860086040A88888888840C0208888A8D4
:1034C800608830C020180010001CE0FC001CE0FCE4
:1034D800001CE0FC001CE0FC87FFAF2FC303A32304
:1034E800FF0FAF2F8303A323FFDFFFAF07DF97FF94
:1034F800DFEF0707EF07FFDF57DF87CF6F0F0FEF0C
:103508008F87FFFFBFFFEFDF4F070F7F770F0F6733
:1035180007DFF73F7F5757770F570F8FDF777757BB
:10352800DFDFDFDFDFEF77FF9F770FBF87071F77CB
:10353800779FF79FBF5777777777BF3FDF777757C3
:103548009F77CF3FDFE7FFEF005484FCF8F8A8F837
:10355800A8D8D020182060F87800000000000000EB
:103568002020202020202020000000F8285890004B
:103578002010202010003040C8208008F80888203B
:103588008808002020F8200080888888908080881B
:10359800882088A08088988880989008208850A8DB
:1035A8005020402010100000008888408880407813
:1035B8008820086040A88888F0784030208850A883
:1035C8006078C020202000A0000000001C1C1C1CEB
:1035D800E0E0E0E0FCFCFCFC871FAFEFFFFFBFFF73
:1035E800AFEFAFEFBFFFBFFFFFFFFF07D7A76FFF2B
:1035F800DFEFDFDFEFFFCFBF37DF7FF707F777DFDB
:1036080077F7FFDFDF07DFFF7F7777776F7F7F77DA
:1036180077DF775F7F7767777F676FF7DF77AF57FA
:10362800AFDFBFDFEFEFFFFFFF7777BF777FBF87A2
:1036380077DFF79FBF5777770F87BFCFDF77AF5712
:103648009F873FDFDFDFFF5F00A84878707020208A
:1036580088F8C050102020703000000000000000E2
:10366800202020202020202000200050F8986800EA
:10367800102050202000308070F8F87010F0704052
:1036880070702040100040207088F070E0F8807062
:1036980088F87090F8888870807088F020702050C2
:1036A8008820F838087000000078F03878784008EA
:1036B8008870485020A88870800840F018782050FA
:1036C8009008F01820C00040000000001C1C1C1CC2
:1036D800E0E0E0E0FCFCFCFCCFFFFF0FC30383034A
:1036E800AF2FAF2FA323A323FFDFFFAF076797FFFA
:1036F800EFDFAFDFDFFFCF7F8F07078FEF0F8FBFC2
:103708008F8FDFBFEFFFBFDF8F770F8F1F077F8F91
:1037180077078F6F0777778F7F8F770FDF8FDFAF11
:1037280077DF07C7F78FFFFFFF870FC78787BFF7C9
:10373800778FB7AFDF57778F7FF7BF0FE787DFAF99
:103748006FF70FE7DF3FFFBF005430302020707065
:1037580070700088002000200000000000000000B9
:103768002020202020202020000000000000000051
:103778000000000000000000000000000000000041
:103788000000000000000000000000000000000031
:103798000000000000000000000000000000000021
:1037A80000000000000000FC0000000000000070A5
:1037B8000000300000000000800800000000000049
:1037C8000070000000000000000000001C1C1C1C11
:1037D800E0E0E0E0FCFCFCFCFFFFFFFFFFFFFFFF79
:1037E800AFAFAFAFAFAFAFAFFFFFFFFFFFFFFFFF61
:1037F800FFFFFFFFFFFFFFFFFFFFFFFFFFFFFFFFD1
:10380800FFFFFFFFFFFFFFFFFFFFFFFFFFFFFFFFC0
:10381800FFFFFFFFFFFFFFFFFFFFFFFFFFFFFFFFB0
:10382800FFFFFFFFFFFFFF03FFFFFFFFFFFFFF8F0C
:10383800FFFFCFFFFFFFFFFF7FF7FFFFFFFFFFFF48
:10384800FF8FFFFFFFFFFFFF19018092A5A992805C
:1038580081BF8181BE8585BE80BF8585BA8081BFD5
:1038680081818000230400FCFAFA02FAFAFEFEEED7
:103878000AFEFEFE06F6F6F60EFE06FEFEFE06FE44
:10388800FC00000000000000000001C3C3A2E343E5
:103898004303FBFE0FEFEFDE3FFF0FEEEFDF36F6E1
:1038A80036F8FFFB38F818E8E8E8D8F00203030711
:1038B80007070702000F9FD0D7D7DB9C1F101717E9
:1038C8001B1C1F18171717905FD857D696180F008C
:1038D800000000000000000000030F07070F0600AB
:1038E80002020101020404020000090F030B0F0188
:1038F80000000000383838003838380038383800C8
:1039080038383800040102020404000C03000000E7
:10391800080100187C743C745800000C7E5A1E7A0A
:103928004C000018343C1C341800001C323E1E3277
:103938001C000EFFFDD91FFDF9CE0058743C747CA5
:103948001800004C7A1E5A7E0C000018343C1C34B7
:103958001800001C323E1E321C00CEF9FD1FD9FD96
:10396800FF0E20303C7C7A7E742420303E7E7577B2
:1039780072224729321414322947385652A4A452C5
:103988005638787EFEF5F7F3F25224747E7A7C3C42
:103998003020227277757E3E302047293214143247
:1039A8002947385652A4A452563852F2F3F7F5FE76
:1039B8007E78000004017C447C00007C0000745484
:1039C8005C0044547C001C107C005C5474007C54E3
:1039D800740004740C007C547C005C547C0000006F
:1039E8000801001C7E3E3E7E3400001C3E7E3E7E6A
:1039F8003400001C3E7E3E3E7400003C7E3E7E7CD1
:103A08002400003C7E3E7E7C2800003C7E3E7E7C7E
:103A1800480000347E3E3E7E1C0000347E3E7E3EE2
:103A28001C0000743E3E7E3E1C00003C7E7C7E3EB8
:103A38002400003C7E7C7E3E1400003C7E7C7E3E62
:103A48001200003C7E7E7E7E3C00003C78707078E0
:103A58003C000038706060703800002040404040F2
:103A6800200000000000000000000000FF800100AE
:103A78000100010001800100010001000180010036
:103A88000100010001800100010001000180010026
:103A98000100010001800100010001000180010016
:103AA8000100010001800100010001000180010006
:103AB80001000100018001000100010001800100F6
:103AC8000100010001FFFFDBDBDBDBDBDBDBDBDB3A
:103AD800DBDBDBDBDBDBDBDBDBDBDBDBDBDBDBDB2E
:103AE800DBDBDBDBDBDBDBDBDBDBDBDBDBDBDBDB1E
:103AF800DBDBDBDBDBDBDBDBDBDBDBDBDBDBDBDB0E
:103B0800DBDBDBDBDBDBDBDBDBDBDBDBDBDBDBDBFD
:103B1800DBDBDBDBDBDBDBDBDBDBDBDBDBDBDBFFC9
:103B2800FFB656B6A6B656B6A6B656B6A6B656B694
:103B3800A6B656B6A6B656B6A6B656B6A6B656B6DD
:103B4800A6B656B6A6B656B6A6B656B6A6B656B6CD
:103B5800A6B656B6A6B656B6A6B656B6A6B656B6BD
:103B6800A6B656B6A6B656B6A6B656B6A6B656B6AD
:103B7800A6B656B6A6B656B6A6FFFF6D556D2A6D03
:103B8800556D2A6D556D2A6D556D2A6D556D2A6DC9
:103B9800556D2A6D556D2A6D556D2A6D556D2A6DB9
:103BA800556D2A6D556D2A6D556D2A6D556D2A6DA9
:103BB800556D2A6D556D2A6D556D2A6D556D2A6D99
:103BC800556D2A6D556D2A6D556D2A6D556D2A6D89
:103BD800556D2AFFFF8A518A518A518A518A518A22
:103BE800518A518A518A518A518A518A518A518AF5
:103BF800518A518A518A518A518A518A518A518AE5
:103C0800518A518A518A518A518A518A518A518AD4
:103C1800518A518A518A518A518A518A518A518AC4
:103C2800518A518A518A518A518A518A51FFFF8299
:103C380014821482148214821482148214821482CC
:103C480014821482148214821482148214821482BC
:103C580014821482148214821482148214821482AC
:103C6800148214821482148214821482148214829C
:103C7800148214821482148214821482148214828C
:103C880014821482148214FFFF20042004200420CC
:103C980004200420042004200420042004200420FC
:103CA80004200420042004200420042004200420EC
:103CB80004200420042004200420042004200420DC
:103CC80004200420042004200420042004200420CC
:103CD80004200420042004200420042004200420BC
:103CE80004FF0101010101010101010101010101BB
:103CF80001010101010101010101010101010101AC
:103D0800010101010101010101010101010101019B
:103D1800010101010101010101010101010101018B
:103D2800010101010101010101010101010101017B
:103D3800010101010101010101010101FFFF01FF71
:103D48000101FFFFFF010101FF01FF01FFCFFFFF9D
:103D5800CFFF83CFFF83CFFFFFCFFFFFCFFFFF034F
:103D6800FFFF03CFFFFFCFFFFFCFFFFFCFFFFFFF17
:103D7800FFCFFFFFCFFF83CE0F83CE0FFFCFFFFF15
:103D8800CFFFFF03FFFF03CFFFFFCFFFFFCFFFFFF3
:103D9800CFFFFFFFFFCFFFFFCFFFCFCF83CFCF8373
:103DA800CFCFFFCFCFFFCF03FFFF03CFFFFFCFFF63
:103DB800FFCFE0FFCFE0FFFFFFCF9FFFCF9FCFCF29
:103DC80083CFCF83C1CFFFC1CFFFCF000FFF000F3D
:103DD800FFFFCFFFFFCFE0FFCFE0FFFFFFCFFFFFE9
:103DE800CFFF83CF8383CF83CFCFFFCFCFFFCF0347
:103DF800FFCF03CFCF3FCFCF3FCFC03FCFC03FFF95
:103E0800CFCFFFCFCFFF83CF8383CF83FFCFCFFF2A
:103E1800CFCFFC03CFFC03CFFCFFCFFCFFCFC0FF0D
:103E2800CFC0FFFFFFFFF3FFFFF3800FC3800FC377
:103E3800FFCFFFFFCFFF0303CF0303CF3FFF033FB6
:103E4800FF03003FCF003FFF1C10005C28015C10FF
:103E580000243001010100000101010001010101FC
:103E6800010101010101010101010101010101013A
:103E7800782600007E2600008226000086260000A4
:043E88008A26000086
:103E8C0000B4000080FB010000E70200809F0300EB
:103E9C00003104008092040080E3040050320000E2
:103EAC0000366E0100366E0100F4010000366E0122
:103EBC0000127A0000093D0019000000000000000B
:103ECC00370600400C4A485281990CCA9386A1903F
:103EDC009422CDC605051D8906051706000013069C
:103EEC00E60032950285010001000100010001008D
:103EFC000100010001001385C19383230500130504
:103F0C00001063D8A308138741931843B7170140D7
:103F1C0093870780C14608239352650023A6570058
:103F2C00050793555500CCC7935545009352350062
:103F3C00CCC7102323A65700010093552500CCC7EE
:103F4C00FD1693551500CCC79315150093526600BA
:103F5C00C8C701003285CCC7F1F2010023A60700C7
:103F6C008D4533F5B3006315B5001386419318C224
:103F7C00170500E01305C50A028501009385C1935E
:103F8C0083A3050013050004970500E09385250223
:103F9C008285170500E0130565010285000000000D
:0C3FAC0000000000000000000000000009
:00000001FF
