:100000006F00800A00000000A4000000A4000000AF
:1000100000000000000000000000000000000000E0
:1000200000000000000000000000000000000000D0
:10003000A400000000000000A40000000000000078
:10004000A4000000A4000000A4000000A400000020
:10005000A4000000A4000000A4000000A400000010
:10006000A4000000A4000000A4000000A400000000
:10007000A4000000A4000000A4000000A4000000F0
:10008000A4000000A4000000A4000000A4000000E0
:10009000A4000000A400000040000020A400000014
:1000A000A400000001A001009701002093810179C4
:1000B00017210020130101F4173500001305858373
:1000C00097050020938505F41706002013064602C5
:1000D00063FAC5008322050023A055001105910590
:1000E000E3EAC5FE1385418B938541DA6377B5005A
:1000F000232005001105E36DB5FE89629382028815
:10010000739002308D427390428097020000938278
:1001100062EF93E2320073905230EF10C066971294
:100120000000938242237390123473002030010048
:0401300000000000CB
:100134001145B71601409305A01763C5B30693058F
:10014400B01763C07506C8CA639EB3049385418D16
:100154000395050021C91386C18D37370140130764
:1001640007C06347A0009386818D944214C239A0CE
:100174007D158AA105E91442910614C28A228AA136
:1001840019C9B62289CA54D7858234C308538565F0
:100194004D8D08D301A80853FD75FD156D8D08D349
:1001A40011A088CA85031306D02063CFC3008143FE
:1001B400138501900C4185050CC11705002013051A
:1001C40025F89385C18F88C113854190232075003C
:1001D4009383C18C83D70300372301401303034067
:1001E4000325C304930500406390F5049382818C36
:1001F40083A502002E9523A0A2001387018D0C2352
:1002040085050CA31306000263CAC500230007007A
:1002140023A002009382418C23A0A2002390030018
:100224009385118D8C21D1A89395F701850723908F
:10023400F30063DC050A9382818B83A502002E956B
:1002440023A0A20093050040E39CF5FC23A0020038
:100254009382418B23A0A2008145970200209382C0
:1002640022DA03A6C2006345C50093E58500C102F6
:1002740003A642006345C50093E54500A10203A619
:1002840002006344C50093E525009382018C03A515
:10029400020023A002009382C18B23A0A200970234
:1002A40000209382E2D503A6C2006345C50093E50E
:1002B4000502C10203A642006345C50093E5050497
:1002C400A10203A602006344C50093E505019382DD
:1002D400F18C03C502002380B2006316B50093823B
:1002E400E18C2380A200A14509A89382018C83A5F7
:1002F40002002E9523A0A2008145232AB302B7054C
:100304004000032583004D8D2324A3007300203077
:10031400634E050263C305042E86AA857D5515C266
:1003240085466378B6006356C00006068606E36C0D
:10033400B6FE014563E4C500918D558D8582058225
:10034400F5FA82808682C93F2E8582823305A040D9
:100354006347B000B305B040C1B7B305B04086826F
:10036400653F3305A0408282868263C705006349E6
:1003740005005D372E858282B305B040E35B05FE40
:100384003305A040513F3305B040828200002A83E8
:1003940009CA83830500230073007D1605038505C0
:1003A4006DFA82802A8311C62300B3007D160503EB
:1003B40065FE82802147B717014011469145CCCB99
:1003C40093168501E186094363C4060037030200DE
:1003D40023A867000100010001008CCB010001008B
:1003E400010006057D171375F50F71FB37170140E2
:1003F40050CB89450CCB944393F6F6F093E606086C
:1004040094C301000100010010CB010001000100B0
:1004140050CB0100010001004CCB98431377F7F057
:100424001367070198C3828083C7218D89EFB717AB
:1004340001400947D8CB0100010001001147D8CB86
:10044400010001000100828083C7218D89EFB71765
:100454000140114798CB010001000100094798CBE6
:10046400010001000100828083C7218D511122C245
:1004740006C42A849DEB4D3F13058007253F0145A3
:10048400153F137574001365050B2D3701451D3792
:1004940041450D37553F493F13058007213F12441D
:1004A400A24013050004310131B7A2401244A38CC9
:1004B400A18E238C018E3101828003C7218D5111BD
:1004C40006C422C226C085476310F71423A20190F4
:1004D400B7070020371402409387071423AEF18E28
:1004E4001C4C93E717001CCC1C4C93E747001CCC16
:1004F4001C4C93E707011CCC1C4C93E707021CCC53
:1005040085454945EF104007A5454545EF10C00610
:100514001C4C8564C58F1CCC5C44C58F5CC4010035
:100524005C44FD761387F6FFF98F5CC4B73701404E
:1005340098439386F67F37040140137777FC13675B
:10054400870098C39843A5457945758F98C3984308
:10055400A166938404801377F7F798C398431367CD
:10056400072098C398431367071098C3D8436D9B1B
:10057400D8C39843558F98C398439166558F98C3B1
:1005840098431367470098C398431367070498C3B5
:100594005C44E19B93E747005CC4EF00F07D5C445E
:1005A40011777D17F98F3167D98F5CC41307C005A4
:1005B40081479306A02F0546854537050040EF1077
:1005C400C038B70700401307B00798DF984FE576A7
:1005D400FD16758F98CF984F458F98CF9853136712
:1005E400070198D3984B6D9B98CBD8471367470066
:1005F400D8C7A2401244B7E700E01307000423A2BF
:10060400E710824431018280B7170140094798CB33
:10061400114798CB85454545EF00107685454945FA
:10062400EF00907529458964EF10E01D0144ED3B0E
:10063400938444B2B307940088230504A53BE5479B
:10064400E31AF4FE11350945EF10E01B1306F031EF
:10065400854537050040EF10A02A61BF83C7218D6F
:10066400D5EB111122CA3704002026C806CC130486
:10067400041481442685CD3BA28793050401A14639
:10068400130700088823902B798D798E3335A000C9
:1006940019C21365250003C60702798E19C21365B2
:1006A400450003C60703798E19C21365850003C686
:1006B4000704798E19C21365050103C60705798EEF
:1006C40019C21365050203C60706798E19C213659C
:1006D400050403C60707798E19C2136505082EC6DB
:1006E4003AC43EC236C0F931824622479247FD16CB
:1006F400B2450587C1FA8507E393B7F8B13385049A
:10070400A14713040408E397F4F6E2405244C244B8
:100714007101828082803705002051111306004048
:1007240081451305051406C4B539A24023AA018ED8
:1007340023A8018E2386018E310182809357354090
:10074400920537070020AE97130707143E97134509
:10075400F5FF14231D898547B397A70093C7F7FFB7
:10076400F58F1CA382801307F0076367A7001307A4
:10077400F0036363B700D9B782809357354092057D
:100784003387B700B707002093870714BA979423D9
:100794001345F5FF1D8905473317A700558F98A307
:1007A40082801307F0076367A7001307F0036363EE
:1007B400B700E1B78280B707002003A7C701011182
:1007C40026CAB304A700938704602EC006CE22CCA9
:1007D400B2853EC283C6C18E802089C69347F4FF8A
:1007E40013F4F70F8247024599073EC49316840118
:1007F400E1862EC82AC663D8060265373245C2454B
:100804009317140013F4F70FA2470505E310F5FE40
:100814009247938404108505E39E97FAF24062445C
:10082400D244056182808137C2453245D1BF41112E
:1008340022C426C206C62A84AE840820050411E513
:10084400B2402244924441018280A68532C0A53739
:1008540002469904DDB71301C1FC22D626D406D87A
:100864002EC632C836CA3ACC3EC49304150001449D
:10087400C247A2973EC0E2476348F400C2503254D4
:10088400A25413014103828083C7F4FF2683130714
:1008940000083EC20146B2473385C700D2476346CB
:1008A400F600A2470504BE94E1B792471AD23AD0A3
:1008B400B3F5E70032CE85E18245E535724602574D
:1008C4001253058719E7834703001307000805033C
:1008D4003EC20506C9B7824579351253025772469E
:1008E400CDB703C6218E1D479307160093F7F70F64
:1008F4006373F700814703C7118E6308F7001387FA
:10090400418E329708A32381F18E828083C7E18CC4
:10091400311193F7F70F83C6018E22C626C406C889
:100924002380F18E8944054433F7970019CB33F7BC
:10093400960001EB1375F40F36C23EC05D37924644
:10094400824705041D478604E310E4FEC240324496
:10095400A24451018280511106C44D3F83C7118EB8
:1009640003C7218E0145630FF7001387418E3E971D
:100974008507082393F7F70F1D476373F700814733
:10098400A380F18EA24031018280511106C4E13767
:100994007DFDA24031018280511122C237140240F0
:1009A4001C4C06C493E717001CCC1C4C93E70701AE
:1009B4001CCCA5455145EF00303CB7060140DC4650
:1009C40071771307F73FF98FDCC61C4C05671307D3
:1009D4000780D98F1CCC5C44D98F5CC401005C4473
:1009E400FD769386F67FF58F5CC4B7370140938715
:1009F40007C0944765767D16E19A94C7DD4694D77F
:100A04009306803ED4D79306401FB4C39443A240B8
:100A14001244BD9A94C3D44B93E61600D4CB9443AA
:100A240093E6060894C3D44FF18E1966D18ED4CFC1
:100A3400D44F558FD8CFF843A166558FF8C3984348
:100A44001367170098C331018280B7370140938739
:100A540007C0C8D70581A8C398538566558F98D316
:100A64008280239A018CB7370140938707C098533B
:100A7400FD76FD16758F98D3828023ACA18C7D57AB
:100A8400239AE18C828083A5418C5111370560093A
:100A940006C4EFF07F88A240310182805111130512
:100AA400800C06C422C226C0EF00F055B7060140F0
:100AB400DC4601777D17F98F37250140DCC6130525
:100AC4000540EF0030560147B72201401D438546DB
:100AD4006D46138502400C49B317E30093C7F7FF33
:100AE400ED8FB395E600CD8F1CC90D07E313C7FE48
:100AF40013060040A145EF0070259357A5409607C3
:100B040023A2F18C9355254099473705004BA388C0
:100B1400F18C2389018CEFF0AFFF85678D0763D1DA
:100B2400A70685469547A388F18C2389D18CB717EE
:100B34000240984F1367170098CF984F1367070226
:100B440098CF930580047945EF0010232945EF00E1
:100B5400904BB7170140938707409C4793F70704CE
:100B6400F5F7B7060140DC46370700F97D17F98F22
:100B740037070004D98FDCC683C7218D754591E3FF
:100B840079458145EF00501F81450945EF00D01E8E
:100B940003C6118D37240140854513050440EF0039
:100BA4003012130404401C44370740007D45D98F9C
:100BB4001CC4EF00B043CD33EFF03F901244A24089
:100BC4008244310189BE311122C606C826C40144BB
:100BD400938381D7096313162400B3027400C144BC
:100BE400130383F903C50200930700034147330548
:100BF400F502A6858D47E14616C232C0E1041A9576
:100C0400993992420967130387F99307000702464B
:100C14008502938381D7E397F4FC1104C147E31B56
:100C2400F4FA3244C240A24451010DBC83C571D7C9
:100C3400E147511113D625008D89B385F5021206BB
:100C44001506214506C4E505BD36A240310139B477
:100C540083C571D7E147511113D625008D89B3851A
:100C6400F50212061506254506C4E505A936A24077
:100C74003101EDB283C571D713030048E14713D6A0
:100C840025008D89330366020965130585F9511121
:100C94004147E146120606C4B385F5021A958D470D
:100CA400C105553EA240310155BA5111938781D6F1
:100CB40022C426C2814501450146138381D73D44A0
:100CC400938241D43EC0B307660094239373F60F16
:100CD400638B860213F736009377360093D426008D
:100CE400998F13572640058FB384D200842091C472
:100CF4006383D30005058A070A07B387F70233071E
:100D0400E702BA97BE9582470506BE962380760011
:100D1400C147E31AF6FA22442382A1D623A0B1D410
:100D2400924431018280611122C226C0938781D608
:100D3400EC37938781D73387A5001377F70FBA97DA
:100D44009423938741D4B69783C20700138581D631
:100D5400138681D793773700935327006317D706F9
:100D64006397020493F4F70F13F4F30F814781435D
:100D7400B3837302B387F7029E9783A301D4B3832B
:100D8400F340B307B60094A393F73500B387F44058
:100D940093D42500058C6395D5046385020483C22E
:100DA40041D6FD12238251D68A070A0425A803C31B
:100DB40041D693F4F70F81470503238261D613F4D8
:100DC400F30F81438A078A0365B793F4360013D47B
:100DD4002600B387F440B3037440E38B02F8DDB715
:100DE400E39402FC33048402AA968CA23A9678B562
:100DF400B387F702A2979E9723A0F1D4BD471CA204
:100E04001244824421018280511106C4EFF0BF9044
:100E1400938741D585454146138541D423A00700D6
:100E240023A2070023A4070023A60700EFF08FD70F
:100E34008147938681D7138781D6C14513F6F70F6F
:100E44003385D70010A13385E70010A18507E39708
:100E5400B7FEA24023A001D4238201D63101A5B359
:100E6400511122C226C0056406C4130484BB9384B2
:100E740081D6EF00D048218193178501E187058948
:100E840063D50704FC348D8B1DE97D558DEF937775
:100E9400F40F89EF0D3B3D45EF00F0160565130592
:100EA400853865361D45EF001016653E7D14F13C0E
:100EB40069F0113B1244A24082443101F9B40D4758
:100EC4000545E386E7FC8535D9B7FC34898301E51C
:100ED4007155D5DFCDBF0947E36BF7FA1145E5B787
:100EE400511126C083A401D406C422C2638F041006
:100EF40003A781D003A481D263C8E4006391E40210
:100F040003A7C1D0635DE40022869385C1D2138513
:100F140001D1EFF0CFC723A681D023A491D083A71A
:100F240041D26354F40E9307140023A4F1D293879F
:100F340081D6F437938481D693F736008DC713870F
:100F440081D736970347F7FF938741D5BA979C23F8
:100F540099EB7D55C93B9387C1D2A2977D5798A33E
:100F640041370545C933FC340D4793F63700638890
:100F7400E6028507938681D793F7F70FB6979423F4
:100F8400938741D5B6979C2399EB0545693B938795
:100F9400C1D2A297054798A3A1377D556933F4348C
:100FA40093D726008DC7138781D736970347C7FF8A
:100FB400938741D5BA979C2399EB7155AD339387A9
:100FC400C1D2A297715798A3213F1145A93BFC3484
:100FD400094793D627006368D7029107938681D780
:100FE40093F7F70FB6979423938741D5B6979C232D
:100FF40099EB11450D3B9387C1D2A297114798A352
:10100400C53571550D3323A481D2A24012448244C4
:101014003101828083C741D699E30545828041111D
:1010240022C483A741D203A481D206C626C2635038
:10103400F4049307140023A4F1D2938781D6F437E0
:10104400938481D693F736008DE7FC340D4793F6ED
:101054003700639DE604F43493D72600D1E3FC34CF
:10106400094793D627006376D70A23A481D2014582
:101074000DA8138781D736970347F7FF938741D588
:10108400BA979C23F9F37D5579399387C1D2A297F6
:101094007D5798A341372AC0054571318247D5D77A
:1010A4000545B240224492444101828085079386DB
:1010B40081D793F7F70FB6979423938741D5B697C3
:1010C4009C23D1FB054585319387C1D2A29705475F
:1010D40098A389372AC07D55B9318247ADDFC9B796
:1010E400138781D736970347C7FF938741D5BA97AC
:1010F4009C23B5F7715505399387C1D2A2977157CF
:1011040098A3093F2AC0114539398247E38907F476
:1011140041BF9107938681D793F7F70FB69794232E
:10112400938741D5B6979C23E39107F41145E53E97
:101134009387C1D2A297114798A3E93DAA84715518
:10114400DD36E38404F2A9BF011122CC26CA06CEFF
:10115400938741D523A0070023A2070023A40700F7
:1011640023A60700938741D423A0070023A20700E6
:1011740023A4070023A60700138741D58967A94440
:101184001D44938787B53AC223A401D2054601477B
:10119400C146938541D4BA958C2181C59245BA95AF
:1011A40090A10507E317D7FE138717009C233AC8BD
:1011B4003EC43EC0638F071485461C23138641D466
:1011C400B297A38FD7FE82470507FD173EC0F5F7F8
:1011D400EFF0BFADEFF09FA523A601D003A701D484
:1011E40023A4E1D0B947818F23A2F1D2D53983A7B3
:1011F400C1D005473AC66350F002EFF0BFA781475C
:1012040003A7C1D063CAE704EFF05FA2A94702C6EF
:101214006383F4008504EFF00FF463150512EFF017
:101224003FA323A201D283A741D2850723A2F1D2EF
:10123400D5333DE103A741D2C547858FE345F7FE8A
:1012440083C741D6B1CBB247D1D7635380007D1455
:10125400E35290F8FD14BDBF138701D13E970305F7
:1012640007003EC6EFF03FAC0965130505B9EFF082
:10127400DF80EFF05F95130540067123EFF0AFEDCB
:101284006312050C13054006BD2BEFF0CFEC631B76
:10129400050AB2478507ADB783A781D26352F0062A
:1012A400EFF05F9D83A781D20247634CF700EFF014
:1012B4003F9A9D476303F4000504C2472247BA9747
:1012C400E1B502479387C1D2BA9703850700EFF0CF
:1012D4009FA50965130505B9EFF02FFAEFF0BF8E4E
:1012E400130540060D23EFF00FE729ED1305400623
:1012F400192BEFF04FE639E5824785073EC05DB70D
:10130400B247C5DF635380007D14E35890FAFD149F
:101314006DB792474146854523A0070023A20700E5
:1013240023A4070023A60700138541D4EFF08F8779
:10133400EFF05F94EFF07F976244F240D24405618E
:101344006FF07F88F2406244D2440561828051117B
:1013540006C422C226C0130540067521EFF0EFE251
:101364000965C14713070004930600080146814537
:10137400130585B9EFF02FCEFD54EFF02FAEEFF04B
:101384008FDD15CDEFF02FB9EFF01FA8B7F700E010
:10139400944783A701D90964B69723A8F1D8EFF03D
:1013A4003FACEFF04FDB7D151375F50F954763E404
:1013B400A706930704B40A053E951C418287EFF003
:1013C4008FEC13042503E38C84FA1306E002A28550
:1013D400138541D9EF00A0701375F50F954763107D
:1013E400F502938741D9130760050146930520064A
:1013F400138541D9D8A3EFF08FC3EFF02FA6A284B1
:10140400BDBF83C771D77D558D8BB9EF09651305B2
:1014140085B8EFF08FE683C741D6C1F70965130598
:1014240045B7EFF08FE5154413056009E92EEFF099
:101434008FAEEFF0AFA2130560097D14E926EFF03B
:101444008FF87DF0EFF06FD4EFF0EFD075DD13057A
:10145400800C552EEFF06FD3FDBD83C771D70D47B8
:1014640005458D8BE384E7FAEFF0FF8B09651305DF
:1014740005B9EFF08FE0EFF00FF571BF83C771D7B7
:1014840009478983E364F7F81145F9BF83C771D726
:1014940071558983F1FB9DBF4539938741D54146F9
:1014A4008545138541D423A0070023A2070023A464
:1014B400070023A60700EFE0FFEEEFF00FFFA1BF48
:1014C400994763C2B7029547FD15B385F50258598C
:1014D400FD47B397B70093C7F7FFF98FB315B6006D
:1014E400CD8F5CD98280B14763C2B7029547E515B9
:1014F400B385F5021859FD47B397B70093C7F7FFB3
:10150400F98FB315B600CD8F1CD982809547CD15C0
:10151400B385F5025855FD47B397B70093C7F7FF56
:10152400F98F3316B6005D8E50D582805C5937072B
:101534004000819BCD8F5CD91C45D98F1CC51C41B3
:10154400898BF5DF6845420541818280311122C6CD
:1015540026C406C82AC03284814463488000C2403D
:1015640032442685A2445101828002452EC27D1454
:10157400753F9245AA94D5B7B70710001357354065
:10158400938727043E972A07937675001043139593
:101594002600BD47B397A70093C7F7FFF18F13F653
:1015A400F5003316A600D18F1CC39307700263DBCA
:1015B400B7000545930780023315D5006393F50002
:1015C400420508CB8280371702405C43511122C286
:1015D40089833704002006C426C08D8B85461304F6
:1015E40004026388D70489466387D7040840B71484
:1015F400024048C4D84089679387072D0D83798BAF
:10160400BA978E23EFE05FD108C8D84089679387E3
:10161400072B2D837D8BBA978C23DC4063C3070093
:101624008545EFE07FCFA24048C81244824431018F
:10163400828048406DBF5C43C183858B81E708404D
:10164400060575B74840EDBF372702401C435111CA
:1016540006C4F19B93E727001CC3371702401C43C1
:1016640093E717001CC3B71702409843098B75DF33
:10167400D843719BD8C3B7170240D84309830D8B55
:101684006DFFD843B70600F9FD16758FD8C398438C
:10169400B706F7FEFD16758F98C39843B706FCFF8F
:1016A400FD16758F98C39847F9769386F60F758F54
:1016B40098C79847B7069D006146558F98C7D84389
:1016C4001377F7F0D8C38967938687292D479387C3
:1016D4008729EC2A6375B6007D17F9167DFB06078A
:1016E400B7160240BA97D0429C3341771307F77F6D
:1016F400718FAE07D98FDCC2DC4286078583DCC2DA
:10170400D935B7070020938707029C4B37C78C0154
:101714001307F7A78946636AF70037B7120113075F
:101724000788B3B7E70093C61700372702401C4366
:10173400A240F19BD58F1CC331018280B7F700E032
:101744009843799B98C39843759B98C398431367B0
:10175400470098C398430607058398C30D6723A4DD
:1017640007001307F7ED98CBD843799BD8C3984368
:101774005D9B98C323A401D898431367170098C3AB
:101784008280B7170240D853511123A6E1D8856748
:1017940006C422C226C0938787380100FD17F5FFCF
:1017A4006535B7170240D84B13675700D8CB984F0D
:1017B40085669386D6A3558F98CFD84FB706201049
:1017C4008506558FD8CF0D648D648D3F1304048F27
:1017D4009384048F636894001244A24082443101CC
:1017E4006FF0CFAB1C4011048297EDB7E14733058E
:1017F400F502B7F700E09847B7F600E09C46998FEA
:10180400E3EEA7FE82809967938707DC3305F50230
:10181400B7F700E09847B7F600E09C46998FE3EEEF
:10182400A7FE8280B7270140938707406311F50222
:10183400B7170240984F1367072098CFD84713670C
:101844000720D8C70100D8471377F7DFD8C71C454E
:101854003707F2FF7D17F98F37070E00D98F1CC5A4
:101864001C4537071000D98F1CC55C55370710FF7E
:101874007D17F98F5CD51C4593E717001CC50545FA
:1018840059B7B7370140938707C06312F502B717FA
:101894000240D847856693860680558FD8C70100D5
:1018A400D847FD769386F67F758FD8C78280B707B1
:1018B4000040E31DF5FEB7170240984B136717006D
:1018C40098CB0100984B799B98CBCDB7B7370140A3
:1018D400938707C0631BF500B71602409C4E05674B
:1018E40013070780D98F9CCE8280B7070040E31D81
:1018F400F5FE371702405C4F93E717005CCFEDB756
:10190400411106C622C426C22A8432C0AE847D3F59
:101914002285853F1C440246FD14E19B1CC404D46B
:1019240050D45C48B240924493E717005CC81C480A
:10193400F99B1CC85C4493E717005CC41C4093E704
:1019440017001CC0224441018280111132C636C4E2
:101954003AC23EC006CC22CA26C82A84AE84BD3709
:10196400228505370C443246A246E1990CC47D1603
:1019740010D454D4144082471247BD9A14C0144062
:1019840093B71700990793E6060814C08D46638140
:10199400D40A63C996028546638AD4048946638758
:1019A400D4067C402167E240D98F7CC05C48C244A5
:1019B40093E717005CC81C4093E717001CC052440F
:1019C400710182809146E39ED4FC38C0584CE57680
:1019D400FD16758FB207D98F5CCC5C4C05679306F6
:1019E4000780D58F5CCC1C50D98F39A858D8184C97
:1019F40092071377F7F8D98F1CCC1C4C93E7870018
:101A04001CCC1C5093E717001CD061BF18DC184C89
:101A1400E576FD16758FB207D98F1CCC1C4C056773
:101A240013070780D98F1CCC1C5093E70701E9BF2B
:101A340058DC584C92071377F7F8D98F5CCC5C4C80
:101A440093E787005CCC1C5093E7071075BF130124
:101A540081FC22D806DA26D62AC42EC0A3040102A9
:101A640081460147130491020245A94532CC36CA86
:101A74003AC8EFE07F8A2AC202459307F4FFA945DA
:101A84003EC6EFE03F8C4247D2468245130505032C
:101A9400A30FA4FE2545B2476246930417008506AA
:101AA4008D43636FB500224513062700BE85EFE022
:101AB4001F8ED25042542685B25413018103828072
:101AC400639A760001CAA38FC7FE93042700930785
:101AD400E4FF814612473E843AC0268771B763C348
:101AE4000500B5B7511106C49306D00214A1B3057D
:101AF400B0400505A93FA24005053101828003A538
:101B040001D9B74703009387D73F3305F502B7A739
:101B14002600938737EC3E9523A8A1D84181828083
:101B24007800AED580A83FD300408D14A0C0DA124F
:101B34008120D9F1DB402000AF0000000614000032
:101B4400801400005E140000901400009C14000037
:101B54005A130000010101020105010602030402F7
:101B6400070802090D020A0E030B0C0F0000000007
:101B7400100076071000EC051000FB042000BB03E6
:101B8400000000000400DC1D000000000100BB0395
:101B940000000000FFFFFFFFFFFFFFFFFFFFFFFF4D
:101BA400FFFFFFFFFFFFFFFFFFFFFFFFFFFFFFFF41
:101BB400FFFFFFFFE0078E007001C00F003CFF1F16
:101BC400FFFFFFFFE0078E007001C00F003C7F1F86
:101BD400FFFFFFFFE0078E007001C00F003C3F1FB6
:101BE400FFFFFFFFE3FF8E3FFF1FC7FF1FFC1F1F09
:101BF400FFFFFFFFE3FF8E3FFF1FC7FF1FFC0F1F09
:101C0400FFFFFFFFE3FF8E3FFF1FC7FF1FFC071F00
:101C1400FFFFFFFFE00F8E00FF1FC01F007C031FAC
:101C2400FFFFFFFFE00F8E00FF1FC01F007C411F5E
:101C3400FFFFFFFFE00F8E00FF1FC7FF1FFC601FA9
:101C4400FFFFFFFFE3FF8E3FFF1FC7FF1FFC701F57
:101C5400FFDFFFFFE3FF8E3FFF1FC7FF1FFC781F5F
:101C6400FF87FFFFE3FF8E3FFF1FC00F003C7C1F79
:101C7400FF03CFFFE3FF8E3FFF1FC00F003C7E1F1B
:101C8400FF81C7FFE3FF8E3FFF1FC00F003C7F1F94
:101C9400FFE0E3FFFFFFFFFFFFFFFFFFFFFFFFFF8B
:101CA400FFF8F3FFFFFFFFFFFFFFFFFFFFFFFF0052
:101CB40007FC71FFFFFC00000000001FFFFFF8009D
:101CC400043E71FFFFFC00000000001FFFFFF00056
:101CD400040F31FFFFFCFFFFFFFFFF9FFFFFE0004A
:101CE4000707B1FFFFFCFFFFFFFFFF9FFFFF80001F
:101CF40007C3B1FFFFFCFDFFE7FF3F9FFFFF0000AD
:101D040003E191FFFFFCF9FFDFFFDF9FFFFE0F0000
:101D140000F181FFFFFCFDFFC7FFBF9FFFFC3FC039
:101D24003F3801FFFFFCFDFFDBFFDF9FFFFC7FE48B
:101D3400FFB800FFFFFCFDFFDBFFDF9FFFF860E55E
:101D4400FF9C00FFFFFCF8FFE7FF3F9FFFF000054B
:101D540081DC00FFFFFCFFFFFFFFFF9FFFF01F0080
:101D640000DC00FFFFFCFFFFFFFFFF9FFFE07F8021
:101D7400FE0E00FFFFFCFFFFFFFFFF9FFFE0E1C33C
:101D8400FF0E00FFFFFCFFFFFFFFFF9FFFE1C0E727
:101D9400038600FFFFFCF8FFE7FFBF9FFFC18076CB
:101DA40001C600FFFFFCFBFFDBFF7F9FFFC31C7C22
:101DB40000C3007FFFFCF8FFE7FEBF9FFFC33E3870
:101DC400E0C3807FFFFCFF7FDBFE1F9FFFC33E3924
:101DD400F041E03FFFFCFF7FDBFFBF9FFFC33E39C5
:101DE400F041F03FFFFCF8FFE7FFBF9FFFC31C3942
:101DF400F040783FFFFCFFFFFFFFFF9FFFC38078A9
:101E0400E0C01C1FFFFCFFFFFFFFFF9FFFC1C07C62
:101E140000C00E1FFFFCFFFFFFFFFF9FFFC1E1E6B5
:101E240001C00E1FFFFCF7BFDDFD9F9FFFC0FFC772
:101E340003800F1FFFFCE73F99F9EF9FFFC00003EA
:101E4400FE000F0FFFFCF7BFDDFDDF9FFFC00000AA
:101E5400FC000F0FFFFCF7BFDDFDEF9FFFE000006C
:101E640000000F07FFFCF7BFDDFDEF9FFFE0000060
:101E740000000F87FFFCE31F88F89F9FFFE001FF2E
:101E8400F0000F87FFFCFFFFFFFFFF9FFFF00FFF36
:101E9400FC001F87FFFCFFFFFFFFFF9FFFF00FFF0A
:101EA400FE001FC7FFFCFFFFFFFFFF9FFFF81FFFA0
:101EB400FF001FC7FFFCFFFFFFFFFF9FFFFC1FFF8B
:101EC400FF803F87FFFCF73FB1FF3F9FFFFC1FFDF3
:101ED4007FC07F87FFFCE6DF37FEDF9FFFFE1FFA30
:101EE400AFC0FF07FFFCF7DFB1FEDF9FFFFF0FFD71
:101EF40057C1F607FFFCF7BFBEFF1F9FFFFF8FFF11
:101F0400ABC1E00FFFFCF77FBEFFDF9FFFFFC3C342
:101F1400FFC3C00FFFFCE21F11FF3F9FFFFFF00054
:101F24003F0FF03FFFFCFFFFFFFFFF9FFFFFF800A5
:101F34000C1FFFFFFFFCFFFFFFFFFF9FFFFFFE00E3
:101F4400003FFFFFFFFCFFFFFFFFFF9FFFFFFFC0FE
:101F540000FFFFFFFFFC00000000001FFFFFFFF871
:101F640003FFFFFFFFFC00000000001FFFFFFFFF57
:101F7400FFFFFFFFFFFFFFFFFFFFFFFFFFFFFFFF6D
:101F8400FFFFFFFFFFFFFFFFFFFFFFFFFFFFFFFF5D
:101F9400FFFFFFFFFFFFFE800001800000801801AB
:101FA4008038008078018018008018018018008033
:101FB4001801801800807E018000008000018000EC
:101FC40000555555FFFFFE800001800000803C0154
:101FD400806600800601800600800C018018008065
:101FE4003001806000807E0180000080000180005C
:101FF40000555555FFFFFE800001800000803C0124
:10200400806600800601800600801C018006008036
:102014000601806600803C01800000800001800091
:1020240000555555FFFFFE800001800000800C0123
:10203400801C00803C01806C0080CC0180CC00803E
:10204400FE01800C00800C018000008000018000F3
:1020540000555555FFFFFE800001800000807E0181
:10206400806000806001807C008006018006008022
:102074000601806600803C01800000800001800031
:1020840000555555FFFFFE800001800000801C01B3
:10209400803000806001806000807C018066008068
:1020A4006601806600803C018000008000018000A1
:1020B40000555555FFFFFE800001800000807E0121
:1020C400800600800601800600800C0180180080D4
:1020D4001801801800801801800000800001800031
:1020E40000555555FFFFFE800001800000803C0133
:1020F400806600806601806600803C018066008006
:102104006601806600803C01800000800001800040
:1021140000555555FFFFFE800001800000803C0102
:10212400806600806601806600803E018006008033
:102134000601800C008038018000008000018000CE
:1021440000555555FFFFFE8000018000008183C1CA
:102154008386608786618186E08187E181876081EB
:10216400866181866087E3C1800000800001800071
:1021740000555555FFFFFE800001800000818181DC
:10218400838380878781818180818181818180812E
:10219400818181818087E7E18000008000018000E7
:1021A40000555555FFFFFE8000018000008183C16A
:1021B4008386608780618180608180C18181808124
:1021C400830181860087E7E18000008000018000B0
:1021D40000555555FFFFFE8000018000008183C13A
:1021E4008386608780618180608181C18180608114
:1021F400806181866087E3C18000008000018000E7
:1022040000555555FFFFFE8000018000008180616C
:102214008380E08781E1818360818661818660813A
:1022240087F181806087E061800000800001800088
:1022340000555555FFFFFE8000018000008187E1B5
:102244008386008786018187C08180618180608167
:10225400806181866087E3C1800000800001800086
:1022640000555555AAAAAA555555AAAAAA55555571
:10227400AAAAAA555555AAAAAA555555AAAAAA550D
:102284005555AAAAAA555555AAAAAA555555AAAA52
:10229400AA55555502000404061008050C1410062E
:1022A400181520073016400F6017801F0202020223
:1022B400040810200404040408102040060606063E
:1022C4000C18306008080808102040800100020043
:1022D40003000400050006000700080002000400D3
:1022E40008001000200040008000000100A83030E9
:1022F400502070207070607010202020000020207A
:102304000000202000002020000020200020485051
:10231400F8C8401010205020000000087060707051
:1023240030F070F870700000100040607070F07051
:10233400E0F8F87088F8089080888870F070F07081
:10234400F88888888888F8388070200060008000C9
:102354000800300080200840400000000000000019
:10236400200000000000001820C02808001CE0FC29
:10237400001CE0FC001CE0FC001CE0FCFFFFAFAF15
:10238400FFFFAFAFFFFFAFAFFFFFAFAFFFDFB7AFF1
:102394000737BFEFEFDFAFDFFFFFFFF78F9F8F8FB1
:1023A400CF0F8F078F8FFFFFEFFFBF9F8F8F0F8F91
:1023B4001F07078F7707F76F7F77778F0F8F0F8F41
:1023C40007777777777707C77F8FDFFF9FFF7FFFD9
:1023D400F7FFCFFF7FDFF7BFBFFFFFFFFFFFFFFF69
:1023E400DFFFFFFFFFFFFFE7DF3FD7F70054487829
:1023F400F870A870D8A850201870602030002020F1
:10240400000020200000202000002020002048F8A8
:10241400A0D0A020201020200000001098A00808C0
:10242400508080088888202020F820108888888898
:1024340090808080882008A080D8C8888888888078
:1024440020888888505010204010500090788038A0
:1024540008704078F000005040D0F070F07838F008
:10246400708888889088F02020205008001CE0FCA8
:10247400001CE0FC001CE0FC001CE0FCCF1FAFAF24
:10248400FFFFAFAFFFFFAFAFFFFFAFAFFFDFB70798
:102494005F2F5FDFDFEFDFDFFFFFFFEF675FF7F740
:1024A400AF7F7FF77777DFDFDF07DFEF7777777748
:1024B4006F7F7F7F77DFF75F7F2737777777777F48
:1024C400DF777777AFAFEFDFBFEFAFFF6F877FC700
:1024D400F78FBF870FFFFFAFBF2F0F8F0F87C70F78
:1024E4008F7777776F770FDFDFDFAFF700A884FC94
:1024F400F8F8F8F888F848F8FCF8FC2078E020E0D0
:102504003CFC3CFC20E020E03CFC3CFC0020005077
:10251400F82068002010F8F810F80020A82078307F
:1025240090F0F0107078000040001020B0F8F080B7
:1025340088F0F098F82008C080A8A888F0A8F07067
:10254400208888A820202020201088006088F0405F
:1025540078F8E0888860086040A88888888840C047
:10256400208888A8608830C020180010001CE0FC77
:10257400001CE0FC001CE0FC001CE0FC87FFAF2F0B
:10258400C303A323FF0FAF2F8303A323FFDFFFAFF7
:1025940007DF97FFDFEF0707EF07FFDF57DF87CF7F
:1025A4006F0F0FEF8F87FFFFBFFFEFDF4F070F7F27
:1025B400770F0F6707DFF73F7F5757770F570F8F57
:1025C400DF777757DFDFDFDFDFEF77FF9F770FBF3F
:1025D40087071F77779FF79FBF5777777777BF3F37
:1025E400DF7777579F77CF3FDFE7FFEF005484FC17
:1025F400F8F8A8F8A8D8D020182060F878000000CF
:10260400000000002020202020202020000000F8CE
:10261400285890002010202010003040C820800846
:10262400F80888208808002020F8200080888888FE
:1026340090808088882088A08088988880989008D6
:10264400208850A8502040201010000000888840A6
:10265400888040788820086040A88888F0784030D6
:10266400208850A86078C020202000A0000000002E
:102674001C1C1C1CE0E0E0E0FCFCFCFC871FAFEF32
:10268400FFFFBFFFAFEFAFEFBFFFBFFFFFFFFF07CE
:10269400D7A76FFFDFEFDFDFEFFFCFBF37DF7FF7B6
:1026A40007F777DF77F7FFDFDF07DFFF7F777777DE
:1026B4006F7F7F7777DF775F7F7767777F676FF7E6
:1026C400DF77AF57AFDFBFDFEFEFFFFFFF7777BFF6
:1026D400777FBF8777DFF79FBF5777770F87BFCFA6
:1026E400DF77AF579F873FDFDFDFFF5F00A84878C2
:1026F4007070202088F8C050102020703000000036
:102704000000000020202020202020200020005055
:10271400F8986800102050202000308070F8F8707D
:1027240010F0704070702040100040207088F070ED
:10273400E0F8807088F87090F8888870807088F06D
:10274400207020508820F838087000000078F03895
:10275400787840088870485020A88870800840F035
:10276400187820509008F01820C0004000000000A5
:102774001C1C1C1CE0E0E0E0FCFCFCFCCFFFFF0F99
:10278400C3038303AF2FAF2FA323A323FFDFFFAF25
:10279400076797FFEFDFAFDFDFFFCF7F8F07078F7D
:1027A400EF0F8FBF8F8FDFBFEFFFBFDF8F770F8FED
:1027B4001F077F8F77078F6F0777778F7F8F770F4D
:1027C400DF8FDFAF77DF07C7F78FFFFFFF870FC705
:1027D4008787BFF7778FB7AFDF57778F7FF7BF0F45
:1027E400E787DFAF6FF70FE7DF3FFFBF00543030FD
:1027F400202070707070008800200020000000000D
:1028040000000000202020202020202000000000C4
:1028140000000000000000000000000000000000B4
:1028240000000000000000000000000000000000A4
:102834000000000000000000000000000000000094
:102844000000000000000000000000FC0000000088
:10285400000000700000300000000000800800004C
:1028640000000000007000000000000000000000F4
:102874001C1C1C1CE0E0E0E0FCFCFCFCFFFFFFFF78
:10288400FFFFFFFFAFAFAFAFAFAFAFAFFFFFFFFFD4
:10289400FFFFFFFFFFFFFFFFFFFFFFFFFFFFFFFF44
:1028A400FFFFFFFFFFFFFFFFFFFFFFFFFFFFFFFF34
:1028B400FFFFFFFFFFFFFFFFFFFFFFFFFFFFFFFF24
:1028C400FFFFFFFFFFFFFFFFFFFFFF03FFFFFFFF10
:1028D400FFFFFF8FFFFFCFFFFFFFFFFF7FF7FFFF2C
:0C28E400FFFFFFFFFF8FFFFFFFFFFFFF64
:1028F00000D0020000EE0700009C0B00007E0E00DE
:1029000000C41000004A1200008E1300F0220000E4
:1029100000366E0100366E0100F4010000366E01D3
:1029200000127A0000093D000000000000000000D5
:10293000370600400C4A485281990CCA9386218D73
:102940009422ADCA2A851D890605170600001306C4
:10295000E60032950285010001000100010001003E
:102960000100010001001385419083230500130538
:10297000001063DCA3041387C18F1843B7370140ED
:10298000C146010008230507C8C719467D167DFE0C
:10299000FD16EDFA23A607008D4533F5B300631548
:1029A000B5001386C18F18C2170500E01305050F87
:1029B000028501009385419083A30500130500045F
:1029C000970500E0938565068285170500E01305ED
:0C29D000A50502850000000000000000CA
:00000001FF
