:100000006F00800A00000000A4000000A4000000AF
:1000100000000000000000000000000000000000E0
:1000200000000000000000000000000000000000D0
:10003000A400000000000000A40000000000000078
:10004000A4000000A4000000A4000000A400000020
:10005000A4000000A4000000A4000000A400000010
:10006000A4000000A4000000A4000000A400000000
:10007000A4000000A4000000A4000000A4000000F0
:10008000A4000000A4000000A4000000A4000000E0
:10009000A4000000A400000040000020A400000014
:1000A000A400000001A001009701002093810179C4
:1000B00017210020130101F417450000130505DB8B
:1000C00097050020938505F41706002013064602C5
:1000D00063FAC5008322050023A055001105910590
:1000E000E3EAC5FE1385418B938541E16377B50053
:1000F000232005001105E36DB5FE89629382028815
:10010000739002308D427390428097020000938278
:1001100062EF93E2320073905230EF10E05A971280
:1001200000009382C2B0739012347300203001003B
:0401300000000000CB
:100134001145B71601409305A01763CBB30093058F
:10014400B01763C67500C8CA6394B30011A088CA07
:1001540085031306D02063CFC30081431385418FE9
:100164000C4185050CC1170500201305A5FC9385DA
:10017400018F88C11385818F232075009383C18CDF
:1001840083D7030037230140130303400325C3042B
:10019400930500406390F5049382818C83A502004B
:1001A4002E9523A0A2001387018D0C2385050CA393
:1001B4001306000263CAC5002300070023A002003F
:1001C4009382418C23A0A200239003009385118D78
:1001D4008C21D1A89395F70185072390F30063DC64
:1001E400050A9382818B83A502002E9523A0A20089
:1001F40093050040E39CF5FC23A002009382418B0D
:1002040023A0A200814597020020938262DF03A607
:10021400C2006345C50093E58500C10203A6420000
:100224006345C50093E54500A10203A602006344AB
:10023400C50093E525009382018C03A5020023A049
:1002440002009382C18B23A0A20097020020938214
:1002540022DB03A6C2006345C50093E50502C10283
:1002640003A642006345C50093E50504A10203A665
:1002740002006344C50093E505019382F18C03C534
:1002840002002380B2006316B5009382E18C2380C0
:10029400A200A14509A89382018C83A502002E9592
:1002A40023A0A2008145232AB302B70540000325F9
:1002B40083004D8D2324A30073002030634E050278
:1002C40063C305042E86AA857D5515C285466378C9
:1002D400B6006356C00006068606E36CB6FE01450A
:1002E40063E4C500918D558D85820582F5FA82807F
:1002F4008682C93F2E8582823305A0406347B000C1
:10030400B305B040C1B7B305B0408682653F33053D
:10031400A0408282868263C70500634905005D3779
:100324002E858282B305B040E35B05FE3305A04011
:10033400513F3305B040828200002A8309CA838377
:100344000500230073007D16050385056DFA828080
:100354002A8311C62300B3007D16050365FE82803F
:100364002147B717014011469145CCCB931685011F
:10037400E186094363C406003703020023A867002B
:100384000100010001008CCB010001000100060501
:100394007D171375F50F71FB3717014050CB894555
:1003A4000CCB944393F6F6F093E6060894C301004D
:1003B4000100010010CB01000100010050CB01003D
:1003C400010001004CCB98431377F7F01367070142
:1003D40098C3828083C7218D89EFB71701400947ED
:1003E400D8CB0100010001001147D8CB0100010066
:1003F4000100828083C7218D89EFB717014011471F
:1004040098CB010001000100094798CB01000100CD
:100414000100828083C7218D511122C206C42A841F
:100424009DEB4D3F13058007253F0145153F13758F
:1004340074001365050B2D3701451D3741450D37F4
:10044400553F493F13058007213F1244A24013053D
:100454000004310131B7A2401244A386A18E238641
:10046400018E3101828003C7218D511106C422C23D
:1004740026C085476310F71423AC018EB70700200C
:10048400371402409387471323A8F18E1C4C93E73B
:1004940017001CCC1C4C93E747001CCC1C4C93E766
:1004A40007011CCC1C4C93E707021CCC854549452D
:1004B400EF10A000A5454545EF1020001C4C8564B5
:1004C400C58F1CCC5C44C58F5CC401005C44FD76C4
:1004D4001387F6FFF98F5CC4B737014098439386BE
:1004E400F67F37040140137777FC1367870098C3BE
:1004F4009843A5457945758F98C39843A16693841D
:1005040004801377F7F798C398431367072098C3B9
:1005140098431367071098C3D8436D9BD8C3984377
:10052400558F98C398439166558F98C39843136722
:10053400470098C398431367070498C35C44E19B3E
:1005440093E747005CC4EF0050775C4411777D1754
:10055400F98F3167D98F5CC41307C00581479306AF
:10056400A02F0546854537050040EF102032B70718
:1005740000401307B00798DF984FE576FD16758F96
:1005840098CF984F458F98CF98531367070198D306
:10059400984B6D9B98CBD84713674700D8C7A240A8
:1005A4001244B7E700E01307000423A2E7108244D3
:1005B40031018280B7170140094798CB114798CB86
:1005C40085454545EF00706F85454945EF00F06E60
:1005D40029458964EF1040170144ED3B938444A4FA
:1005E400B307940088230504A53BE547E31AF4FE0A
:1005F40011350945EF1040151306F03185453705CF
:100604000040EF10002461BF83C7218DD5EB111189
:1006140022CA3704002026C806CC1304441381449C
:100624002685CD3BA28793050401A1461307000844
:100634008823902B798D798E3335A00019C21365E8
:10064400250003C60702798E19C21365450003C647
:100654000703798E19C21365850003C60704798ED2
:1006640019C21365050103C60705798E19C21365FE
:10067400050203C60706798E19C21365050403C66D
:100684000707798E19C2136505082EC63AC43EC2FF
:1006940036C0F931824622479247FD16B245058796
:1006A400C1FA8507E393B7F8B1338504A14713046E
:1006B4000408E397F4F6E2405244C2447101828094
:1006C400828037050020511113060040814513052F
:1006D400451306C4B539A24023A4018E23A2018E7A
:1006E4002380018E310182809357354037070020E3
:1006F4009205BE951345F5FF930747131D8985465B
:10070400AE979C23B396A6001307471319E693C626
:10071400F6FFF58F2E971CA38280D58F93F7F70FE2
:10072400D5BF1307F0076367A7001307F0036363DC
:10073400B7005DBF8280935735409205370700208C
:10074400AE97130747133E971345F5FF14231D89EE
:100754008547B397A70093C7F7FFF58F1CA3828043
:100764001307F0076367A7001307F0036363B70079
:10077400D9B782809357354092053387B700B707BE
:10078400002093874713BA9794231345F5FF1D89D7
:1007940005473317A700558F98A382801307F007E6
:1007A4006367A7001307F0036363B700E1B78280B0
:1007B4001301C1FD3AC006D022CE26CC3307C500B2
:1007C400635005029307000863C5E7023A83814436
:1007D4006344600282507244E24413014102828005
:1007E400328313060008AA84E354E6FE3303A640CA
:1007F400C5B71303000881443387D50063D00504CB
:100804009306000463D5E60481453384D500B3051B
:10081400D44033079300268502461ACA36C83AC61E
:100824002EC42AC2D13512453247A2450505C24617
:100834005243E313A7FEFD16F9FA69BF1306000439
:100844006354E600B306B640E341D0FC61B7BA8610
:100854008145DDBF1301C1FD3707002026CC832469
:10086400C701AE8736C0AA9406D022CEB2851387BC
:10087400046003C6018E802009C61344F4FF137478
:10088400F40F138367003E85131684016186635E4B
:10089400060002463ECA1AC83AC62EC42AC25135B8
:1008A400D24742433247A245124506040505137454
:1008B400F40FE31B65FC938404108505E31B97FA8E
:1008C40082507244E244130141028280B70700203F
:1008D40003A7C701011126CAB304A70093870460C4
:1008E4002EC006CE22CCB2853EC283C6018E8020A5
:1008F40089C69347F4FF13F4F70F8247024599071B
:100904003EC493168401E1862EC82AC663D8060223
:1009140071353245C2459317140013F4F70FA247FB
:100924000505E310F5FE9247938404108505E39EC4
:1009340097FAF2406244D244056182801535C2457B
:100944003245D1BF311122C626C406C82A84AE84DA
:100954000820050411E5C2403244A24451018280BA
:10096400A68536C232C0FD35924602469904CDB7FB
:10097400411122C426C206C62A84AE840820050476
:1009840011E5B2402244924441018280A68532C0DE
:10099400353F02469904DDB71301C1FC22D626D4A3
:1009A40006D82EC632C836CA3ACC3EC493041500C3
:1009B4000144C247A2973EC0E2476348F400C250D4
:1009C4003254A25413014103828083C7F4FF268367
:1009D400130700083EC20146B2473385C700D24719
:1009E4006346F600A2470504BE94E1B792471AD2C3
:1009F4003AD0B3F5E70032CE85E1824545337246FD
:100A040002571253058719E78347030013070008A9
:100A140005033EC20506C9B78245993312530257EE
:100A24007246CDB703C6518D1D479307160093F741
:100A3400F70F6373F700814703C7418D6308F7001D
:100A44001387818D329708A3A38AF18C828083C790
:100A5400E18C311193F7F70F83C6318D22C626C47A
:100A640006C8A389F18C8944054433F7970019CB50
:100A740033F7960001EB1375F40F36C23EC05D37B1
:100A84009246824705041D478604E310E4FEC240F3
:100A94003244A24451018280511106C44D3F83C7A0
:100AA400418D03C7518D0145630FF7001387818D75
:100AB4003E978507082393F7F70F1D476373F700E5
:100AC4008147238AF18CA24031018280511106C4EE
:100AD400E1377DFDA2403101828083A5418C511113
:100AE4003705600906C4EFF0EFFDA24031018280B2
:100AF40051111305800C06C422C226C0EF00D04455
:100B0400B7060140DC4601777D17F98F3725014090
:100B1400DCC613050540EF0010450147B72201402C
:100B24001D4385466D46138502400C49B317E30007
:100B340093C7F7FFED8FB395E600CD8F1CC90D0762
:100B4400E313C7FE13060040A145EF00501493576A
:100B5400A540960723A2F18C935525409947370564
:100B6400004BA388F18C2389018CEFF02FF5856766
:100B74008D0763D1A70685469547A388F18C238901
:100B8400D18CB7170240984F1367170098CF984F2E
:100B94001367070298CF930580047945EF00F0119D
:100BA4002945EF00703AB7170140938707409C47E7
:100BB40093F70704F5F7B7060140DC46370700F959
:100BC4007D17F98F37070004D98FDCC683C7218DC1
:100BD400754591E379458145EF00300E814509451E
:100BE400EF00B00D03C6118D372401408545130570
:100BF4000440EF001001130404401C443707400074
:100C04007D45D98F1CC4EF009032EFF0DF8512448C
:100C1400A2408244310175B4511106C4B53D7DDD55
:100C2400A24031018280511106C422C226C013059C
:100C34004006EF007031593D0D65C14713070004AC
:100C440093060008014681451305053EB133FD5462
:100C5400653A993519CDB7F700E0944783A701E0C9
:100C6400B69723A0F1E0B13CEF00806869D1492335
:100C7400E5BFA53513042503E38D84FC1306E002C8
:100C8400A285138541E0EF00B0591375F50F954720
:100C94006310F502938741E0130760051306A00370
:100CA40093052006138541E0D8A3D931EFF0DF95F1
:100CB400A28445B71947D5463386E502938741D0C8
:100CC400B385D5027D169946AE973303E5023E956A
:100CD400834205000D651305057E8547B382E20254
:100CE4009305130016954DB9411122C406C626C2B8
:100CF400014481449375F40F13F5F40F2EC05D3F46
:100D04008504D5478245E399F4FE0504AD47E31213
:100D1400F4FE2244B240924441016FF0FF8E5547E5
:100D24003387E502938741D0BA97AA9790A359B71E
:100D3400D1472A8763E0A702A947014563EDB700BD
:100D4400D546B385D502938741D0AE973385E70066
:100D54000821828001458280411122C403C4D1CF7D
:100D640083C5C1CF228506C62EC0D937894782459F
:100D740019466303F5001D4622852244B240410111
:100D840079BF411122C403C4D1CF83C5C1CF228509
:100D940006C62EC0713F9947824509466303F50094
:100DA4000D4622852244B240410195BF511106C42B
:100DB40022C226C089476308F5028547933415008B
:100DC4007D546313F502753F83C7D1CFA240A69724
:100DD400A38EF1CE83C7C1CF8244A2971244238E3F
:100DE400F1CE310195BFFD54751513341500E1BFE3
:100DF4001306700E8145138541D06FF06FD503A79C
:100E040041DF8D679387871B931637000E07BE96C5
:100E1400BA97D843904223A6E1DE23A8C1DE8547D2
:100E2400A38FF1CE238F01CE814713051002130344
:100E3400C0070C22050689ED03C6F1CF635DF602F7
:100E4400A38FF1CE83C7E1CF8507238FF1CE2DA0E9
:100E54006384A500639F650083C5E1CF8505238F67
:100E6400B1CE83C5F1CF63D4F500A38FF1CE814712
:100E7400C9B785077DBFF9F703C6F1CFD54763F43A
:100E8400C700A38FF1CE83C6E1CFAD4763F4D7008B
:100E9400238FF1CE8280411106C622C426C2853733
:100EA40083C7F1CF5547B307F74093D4F701BE94F6
:100EB40083C6E1CFAD478584958F13D4F7013E9463
:100EC400053F058455473307E402A947A38EF1CEB5
:100ED4009547238EF1CE03A501DF938641D0269753
:100EE400938741D08963239001D0369726863EC0EC
:100EF400938303A61C21050581EBB93DF5332244F8
:100F0400B24092444101D9B6930610026386D700D9
:100F14009306C007639ED7000504A947E3CF87FC67
:100F2400D5473307F4028247268626973E97D9B7DA
:100F3400D146E3C1C6FC93060004638ED70463E282
:100F4400F6029387D7FD93F7F70FAD4663EFF602EA
:100F54008A079E979C438287854614A30506050746
:100F640051BF930600076388D70263E2F602930633
:100F740000056387D702930020069146E38F17FC90
:100F8400930020049546E38A17FC8946F9B7930039
:100F940080078146CDBFA38EC1CE238E81CEF5B707
:100FA400A38EC1CE238E81CE83D701D08D468507F3
:100FB400C207C1832390F1D04DB7954679BF9146BE
:100FC40069BF511106C4AD33A24079151375F50FED
:100FD4001335250031018280511106C4913BA24092
:100FE40071151375F50F13352500310182805111E8
:100FF40022C226C006C42A84AE841D3B95470946F6
:101004006318F50083D701D00D4685072390F1D0EE
:1010140022851244A240A6858244310109B35111AC
:1010240022C226C006C42A84AE8419338D471146D1
:101034006318F50083D701D01546FD172390F1D02E
:1010440022851244A240A68582443101C9B92111E6
:1010540006CA22C826C60D47AA87630BE50C930669
:10106400F5FF094693B616007D576314C50C3EC4BC
:101074003306D700014545CA93F7F60F3EC003C4B3
:10108400D1CF82473E949377F70F3EC283C4C1CF3A
:1010940092471374F40F2285BE9493F4F40FA6853B
:1010A400253FA24739C19247B3859700824793F5FC
:1010B400F50F338587001375F50F2137A24715C542
:1010C400A68522852D3792479395170003C7C1CF74
:1010D4008247BA951395170003C7D1CF93F5F50F3F
:1010E4003A951375F50F253FA2470D470944638BC5
:1010F400E700054701446387E70009470D4463930C
:10110400E700054483C7C1CF1247B305F70083C77F
:10111400D1CF024793F5F50F3305F7001375F50F9B
:101124004D3509ED0545D2404244B2446101828007
:10113400FD561387C7FF1337170015BF2285BD312E
:10114400EFF08FCC130540060125E9BF83D701D00A
:10115400D1EF411126C206C622C49544014415A804
:101164003E85A2853EC0E936154782476317E500F0
:101174003E850D46A28565368247850793F7F70FAE
:101184005547E39FE7FC05041374F40FAD4763046C
:10119400F4008147F1B7EFF02FC7130540066D2324
:1011A4008145014422852EC061368D4782456316F0
:1011B400F50015462285A536824505041374F40FFF
:1011C400D547E311F4FE850593F5F50FAD47E39A92
:1011D400F5FCEFF06FC313054006FD14B523BDFC09
:1011E400B2402244924405454101828001458280F7
:1011F400411106C64D31EFF03F8A75DD99472AC08B
:101204006304F504EFF09F8C02459135813765D571
:10121400EFF08FBF1305800C052BD93EEFF0CFBE46
:10122400130540061523EFF07F8AEFF0FF9E83A796
:1012340041DF896683A606A9850723AAF1DEE3CBED
:10124400D7FA23AA01DE7DB7B240410182800111A1
:101254009D4506CE22CC26CA2AC2EFF02F86994796
:10126400B307F5021247C9460146930517003AC46D
:1012740089073EC093173500B307F540BA97B38486
:10128400D7026800938714003EC2EF00607983A7F9
:1012940041DF22472AC213844400639BE70282454C
:1012A40005479946494613851400EFF06FD012475D
:1012B400854763C4E7001384740081460246A2850F
:1012C4006800EFF02FE8F2406244D2440561828066
:1012D400824501479946494613851400EFF04FCDE6
:1012E4001247854763C4E700138474008546F9B741
:1012F400411122C426C206C6EFF0AFBC096703241D
:1013040007A9814463C584028D679387873C3EC0E7
:10131400EFF08FAFEFF05F907D151375F50F154764
:10132400E368A7FE82470A053E9518410287268591
:10133400393F8504C1BF83A441DFFD5723AAF1DEF1
:1013440026853137E51463D60402A6869D04E3CED0
:1013540084FE63C00602B68429A883A441DFFD5736
:1013640023AAF1DE2685E535FD1463D40400930435
:10137400F4FF268523AA91DED93D0D671307871B49
:1013840093963400BA96904223A8C1DE9396340013
:101394003697584323A6E1DEA5BF83A441DFFD575A
:1013A40023AAF1DE268565359D04E3C484FCA68664
:1013B400E514E3DE04FEE3DE86FA71BF83A441DFB5
:1013C400FD5723AAF1DE268559358504E3C384FA43
:1013D400814445B70D671307871B93973400939691
:1013E4003400BA963E979042584323A8C1DE23A600
:1013F400E1DE0545B2402244924441018280014528
:10140400D5BF994763C2B7029547FD15B385F50269
:101414005859FD47B397B70093C7F7FFF98FB31532
:10142400B600CD8F5CD98280B14763C2B7029547BD
:10143400E515B385F5021859FD47B397B70093C76F
:10144400F7FFF98FB315B600CD8F1CD9828095476D
:10145400CD15B385F5025855FD47B397B70093C72B
:10146400F7FFF98F3316B6005D8E50D582805C5934
:1014740037074000819BCD8F5CD91C45D98F1CC593
:101484001C41898BF5DF6845420541818280311119
:1014940022C626C406C82AC0328481446348800018
:1014A400C24032442685A2445101828002452EC2A4
:1014B4007D14753F9245AA94D5B7B707100013570A
:1014C4003540938727043E972A0793767500104387
:1014D40013952600BD47B397A70093C7F7FFF18F75
:1014E40013F6F5003316A600D18F1CC393077002C0
:1014F40063DBB7000545930780023315D50063937A
:10150400F500420508CB8280371702405C43511135
:1015140022C289833704002006C426C08D8B8546E9
:10152400130404026388D70489466387D7040840F8
:10153400B714024048C4D8409167938787840D83C9
:10154400798BBA978E23EFE0FFD708C8D84091670C
:10155400938787822D837D8BBA978C23DC4063C36A
:1015640007008545EFE01FD6A24048C812448244D4
:101574003101828048406DBF5C43C183858B81E724
:101584000840060575B74840EDBF372702401C43A5
:10159400511106C4F19B93E727001CC3371702407F
:1015A4001C4393E717001CC3B71702409843098BE9
:1015B40075DFD843719BD8C3B7170240D84309835A
:1015C4000D8B6DFFD843B70600F9FD16758FD8C390
:1015D4009843B706F7FEFD16758F98C39843B70670
:1015E400FCFFFD16758F98C39847F9769386F60F1E
:1015F400758F98C79847B7069D006146558F98C761
:10160400D8431377F7F0D8C39167938607812D47A2
:1016140093870781EC2A6375B6007D17F9167DFB65
:101624000607B7160240BA97D0429C334177130796
:10163400F77F718FAE07D98FDCC2DC4286078583C2
:10164400DCC2D935B7070020938707029C4B37C704
:101654008C011307F7A78946636AF70037B71201AD
:1016640013070788B3B7E70093C61700372702406C
:101674001C43A240F19BD58F1CC331018280B7F774
:1016840000E09843799B98C39843759B98C398430B
:101694001367470098C398430607058398C30D67EB
:1016A40023A407001307F7ED98CBD843799BD8C33D
:1016B40098435D9B98C323AC01DE984313671700DE
:1016C40098C38280B7170240D853511123AEE1DE8C
:1016D400856706C422C226C0938787380100FD1798
:1016E400F5FF6535B7170240D84B13675700D8CBC1
:1016F400984F85669386D6A3558F98CFD84FB70653
:1017040020108506558FD8CF116491648D3F130442
:1017140084E6938484E6636894001244A24082447D
:1017240031016FF0EFBC1C4011048297EDB7E14723
:101734003305F502B7F700E09847B7F600E09C469A
:10174400998FE3EEA7FE82809967938707DC3305C0
:10175400F502B7F700E09847B7F600E09C46998F8A
:10176400E3EEA7FE8280B727014093870740631109
:10177400F502B7170240984F1367072098CFD84750
:1017840013670720D8C70100D8471377F7DFD8C7F6
:101794001C453707F2FF7D17F98F37070E00D98FE5
:1017A4001CC51C4537071000D98F1CC55C5537076D
:1017B40010FF7D17F98F5CD51C4593E717001CC5F6
:1017C400054559B7B7370140938707C06312F5023F
:1017D400B7170240D847856693860680558FD8C7C9
:1017E4000100D847FD769386F67F758FD8C782802F
:1017F400B7070040E31DF5FEB7170240984B136787
:10180400170098CB0100984B799B98CBCDB7B7378D
:101814000140938707C0631BF500B71602409C4E36
:10182400056713070780D98F9CCE8280B7070040D5
:10183400E31DF5FE371702405C4F93E717005CCFBA
:10184400EDB7411106C622C426C22A8432C0AE8432
:101854007D3F2285853F1C440246FD14E19B1CC448
:1018640004D450D45C48B240924493E717005CC857
:101874001C48F99B1CC85C4493E717005CC41C40DB
:1018840093E717001CC0224441018280111132C623
:1018940036C43AC23EC006CC22CA26C82A84AE84C4
:1018A400BD37228505370C443246A246E1990CC463
:1018B4007D1610D454D4144082471247BD9A14C0E4
:1018C400144093B71700990793E6060814C08D4691
:1018D4006381D40A63C996028546638AD40489461F
:1018E4006387D4067C402167E240D98F7CC05C4882
:1018F400C24493E717005CC81C4093E717001CC060
:101904005244710182809146E39ED4FC38C0584C05
:10191400E576FD16758FB207D98F5CCC5C4C0567F4
:1019240093060780D58F5CCC1C50D98F39A858D822
:10193400184C92071377F7F8D98F1CCC1C4C93E7FB
:1019440087001CCC1C5093E717001CD061BF18DC27
:10195400184CE576FD16758FB207D98F1CCC1C4C3C
:10196400056713070780D98F1CCC1C5093E7070128
:10197400E9BF58DC584C92071377F7F8D98F5CCC41
:101984005C4C93E787005CCC1C5093E7071075BF51
:10199400130181FC22D806DA26D62AC42EC0A30459
:1019A400010281460147130491020245A94532CC44
:1019B40036CA3AC8EFE01F912AC202459307F4FFE2
:1019C400A9453EC6EFE0DF924247D2468245130561
:1019D4000503A30FA4FE2545B247624693041700EE
:1019E40085068D43636FB500224513062700BE8527
:1019F400EFE0BF94D25042542685B25413018103C0
:101A04008280639A760001CAA38FC7FE93042700DD
:101A14009307E4FF814612473E843AC0268771B794
:101A240063C30500B5B7511106C49306D00214A1CF
:101A3400B305B0400505A93FA240050531018280E8
:101A44007800AED580A83FD300408D14A0C0DA1230
:101A54008120D9F1DB402000AF0000005C0F0000C2
:101A6400C20F00008E0F00008E0F00008E0F0000CA
:101A74008E0F00008E0F0000BE0F0000A40F0000A8
:101A84008E0F00008E0F0000AC0F0000420000001B
:101A9400787823232323237821232323202020231E
:101AA40078212320242023202323212320232020C2
:101AB4002E20232123202020202320232123232000
:101AC400232020202321782340202023232321782E
:101AD400232323232378780078782323232323784C
:101AE4002123232320202023782123202420232082
:101AF40023232123202320202E20232123202020C0
:101B04002023202321232324232E20202321782350
:101B140040202023232321782323232323787800A0
:101B2400787823232323237821232323202020238D
:101B34007821232024202320232321232023202031
:101B44002E20232123202E2020232023212323245D
:101B5400232E24202321782340202023232321788B
:101B64002323232323787800787878782323232366
:101B74002123232323232020232123202020242046
:101B84002023212320202E2320202321232320232C
:101B9400232023232123202020202020232123202D
:101BA40040232020202321232020232323232321F7
:101BB40023232323787878780000000078787878D5
:101BC40023232323212323232323202023212320EE
:101BD4002020242020232123202A2E2320202321D7
:101BE40023232023232023232123202020202020DB
:101BF40023212320402320202023212320202323AA
:101C040023232321232323237878787800000000DA
:101C14007878787823232323212323232323202044
:101C24002321232020202A2020232123202A2E237D
:101C34002020232123232023232023232123202482
:101C4400202020202321232040232020202321235F
:101C54002020232323232321232323237878787804
:101C6400000000007823232323237878217823207D
:101C740020202323782123232023242023232123EA
:101C84002024202020202321232E202E2320202323
:101C94002123232320402023232178782320232059
:101CA400237821787823202020237821787823230F
:101CB4002323237800000000782323232323787828
:101CC4002178232020202323782123232E2324203A
:101CD400232321232024202020202321232E202ECF
:101CE4002324202321232323204020232321787805
:101CF400232023202378217878232020202378216F
:101D040078782323232323780000000078232323D7
:101D140023237878217823202020237878212323F3
:101D24002423202323232123202020244020232173
:101D34002320232020232023212320232E202E2070
:101D4400232123202020232323232123232323236C
:101D54007878780078232323232378782178232024
:101D640020202378782123232423202323232123A1
:101D740020202E244020232123202320202320231D
:101D8400212320232E2E242023212320202023231B
:101D940023232123232323237878780078232323E0
:101DA40023237878782123232020202323237821B8
:101DB40023202E202E202023782123202320232398
:101DC40020232321232020202024244023212323D3
:101DD400232023202020232178782320202023233C
:101DE400232178782323232323787800782323233B
:101DF4002323787878212323202020232323782168
:101E040023202E202E202E23782123202320232339
:101E14002023232123202020202424402321232382
:101E240023202320242023217878232020202323E7
:101E340023217878232323232378780078787878EB
:101E44002323232378217823232323202023782169
:101E5400232320242020202378212320202320230F
:101E640024237821232E402E2020202323212323C2
:101E740020232023202023217823202020202020F9
:101E8400232178232020232323232321782323237E
:101E940023787878780000007878787823232323CF
:101EA400782178232323232020237821232320240B
:101EB4002020202378212320202320232423782159
:101EC400232E402E2E2020232321232320232023AE
:101ED400202023217823202020242020232178233C
:101EE4002020232323232321782323232378787872
:101EF4007800000078787823232323782123232370
:101F04002320202378212320242020202378212308
:101F140020202E2320232321232320232E2020238B
:101F24002123204020202420232123202020232378
:101F34002323212323232323787878007878782394
:101F440023232378212323232320202378212320C0
:101F5400242024202378212320202E2320232321FE
:101F6400232320232E20202321232040202024202B
:101F74002321232E2020232323232123232323232C
:101F84007878780078787878232323232378217845
:101F94007878232320202023232178782323202EBC
:101FA40023202023217823232020204020202321A4
:101FB4002323202020202320202321232020242009
:101FC40023232323232123202A202323787878788A
:101FD400212320202323787878787821232323232E
:101FE40078787878787800007878787823232323B1
:101FF40023782178787823232020202323217878BC
:102004002323202E23202023217823232020204033
:1020140020202321232320202A202320202321239E
:102024002020242023232323232123202A20232385
:102034007878787821232020232378787878782179
:1020440023232323787878787878000023232323A4
:1020540078787878212320202323232378212320B0
:1020640020202020237821232020202020237821B1
:1020740023232320232323782123202424202023E3
:10208400232123202E202E402023212323232320F9
:1020940020202321787878232323232300000000A1
:1020A40023232323787878782123202023232323B0
:1020B4007821232020202020237821232020202061
:1020C400202378212323232023232378212320243E
:1020D40024242023232123202E2E2E402023212399
:1020E40023232320202023217878782323232323C8
:1020F4000000000023232323237878212320202099
:1021040023232321232020202020232123232020B4
:102114002020232123232323242323212320202499
:102124002023232123204020202023212323232E66
:10213400202E2321787823232323230023232323DE
:1021440023787821232020202323232123202E20B9
:10215400202023212323202420202321232323235D
:10216400242323212320202420232321232040202F
:10217400202023212323232E202E23217878232378
:1021840023232300787878787878232323237821ED
:1021940023232323232323202023782123202020C7
:1021A40020202020202378212320202420232E23B4
:1021B40020237821232020242323202320232321A8
:1021C4002323232020204020202023217878232328
:1021D40023202023202023217878787823232E207D
:1021E40020232321787878787823232323237800E5
:1021F400787878787878232323237821232323235A
:102204002323232020237821232020202020202062
:10221400202378212320202420232E2320237821E7
:102224002320242423232023202323212323232086
:102234002E204020202023217878232323202023AC
:10224400202023217878787823232E20202323210B
:10225400787878787823232323237800787878781B
:1022640078232323232178787823232320202321F0
:1022740078232323202E2E20232178232024242373
:102284002020232123232023202340232321232010
:102294002020202020202321232020202320202030
:1022A40023212323232323232020232178787878B0
:1022B4007823232323000000787878787823232355
:1022C4002321787878232323202023217823232390
:1022D400202E2E2023217823202424232020232170
:1022E400232320232023402323212320202A2020AA
:1022F40020202321232020202320202023212323C6
:1023040023232323202023217878787878232323F8
:10231400230000007823232323787878217823204E
:1023240020232323232178232020202020232178E5
:102334002320232E2020232123232A232324232361
:10234400212320202020202023212320232040205B
:10235400202321232020202023232321232323235C
:1023640023237878000000007823232323787878C7
:102374002178232020232323232178232020202095
:10238400202321782320232E2020232123232A23C2
:10239400232423232123202020202A202321232017
:1023A40023204020202321232020202023232321F5
:1023B40023232323232378780000000023232323CB
:1023C40023232323212320202023202023212320EF
:1023D40020202020202321232320232E20202321DA
:1023E400232020202023232321232023202E2023C5
:1023F400782123202424232023782123232320200D
:1024040040237821787823232323237800000000B5
:102414002323232323232323212320202023202099
:102424002321232020202020202321232320232E86
:10243400202E232123202020202323232123202373
:10244400202A2023782123202424232023782123B5
:1024540023232020402378217878232323232378DF
:102464000000000023232323237878212320202025
:10247400232378212320232020232321232E2023D8
:10248400242023212320204020202321232E232302
:1024940024232321232020202023782123232323C2
:1024A40023237800232323237878782123202023CF
:1024B40023237821232020202023232123202E239B
:1024C40024202321232320402020232178232E236A
:1024D40024232321782320202023782178232323D5
:1024E4002323780078232323232323237821782389
:1024F40020202320202323212323202A2A242E20A2
:1025040023212320202023202020232123202020B6
:1025140040202323232123202023232323787821CD
:1025240023232323787878787800000078232323E2
:1025340023232323782123232020232020237821CD
:102544002320202A2A242E23232123202020232051
:102554002020232123232320402020202321787896
:102564002323232320202321787878787823232396
:10257400230000007878232323237878212323233E
:10258400202023232321232020202A242023212325
:102594002023202023402321232023202A2E2023EC
:1025A40021232020202323232321232323232378AF
:1025B400787800002323232323787878212320208C
:1025C400202323787821232023202023232321233D
:1025D4002020202A242023212323232020234023B6
:1025E40021787823202A2E20232178782320202361
:1025F40023232178782323232378780078782323CE
:1026040023237821782323202023782123232020A7
:10261400202323212320202A242023212320232094
:10262400234023212320202A2E2023212323232057
:1026340020232321787823202023782178782323CA
:102644002323780078782323232378782178782328
:10265400202023232321782323202E2020232123F9
:10266400234024242420232123202E202E2023230E
:10267400212320202023232378212320202323788F
:102684007878212323232378787878007878232393
:10269400232323782123232320202023782123206C
:1026A40020202020237821232020232E23232321AC
:1026B40023234024242420232178232E232E232063
:1026C4002321782320202020202321782320202345
:1026D4002323232178232323237878780000000000
:1026E4007878232323237821782323202023782117
:1026F4002323202E20232321234024242420232188
:10270400232E202E23202321232023202020232195
:102714002320202023232321232323232378780009
:1027240078232323232378787821782320202023D7
:1027340023232321782320202023202023217823CE
:1027440023202020202E2321232323202323232E50
:102754002321232024202378232E232123202424EF
:102764002378232323212340202023787878782179
:10277400232323232378787878210000787823236F
:102784002323232323782178782320202020202327
:1027940078217878232024204020237821232323A0
:1027A40023232023202378212320242020202020B9
:1027B4002378212320202324232320232321232E91
:1027C4002E2420202320202321232E2E20202020CD
:1027D40020202321232323232323232323232100F2
:1027E40023232323232321232E2E2A2E2321232E86
:1027F40024202023212323202420232123232420B5
:1028040023232123402420237821232320202378D9
:10281400217823232323782100000000232323236A
:102824002323232321232E20202024202321232E6D
:1028340024202023202321232E232023202023216E
:10284400232323202320232321782320242020230F
:1028540078217823402023232378217823232323DA
:1028640023787821000000007823232323232323C3
:1028740023782123232E2E23202020237821232074
:102884002E2E2320242023232123204020242020F3
:1028940024202321232324232323202020232178BD
:1028A40023202020202023232321782323232323B0
:1028B40023237878210000002323232323232323A5
:1028C400237821232E2E2E2E2E20202378212323FD
:1028D4002320242023202323217878232024232326
:1028E40020202321787823242024202420232178C5
:1028F40078232020202320202321787823232020BC
:10290400232040232178787823232323232323217E
:102914000000000078787878232323232378212368
:1029240023232323202020237821232E2E20242018
:102934002420232321232E2E24202420204023213D
:1029440023232E20242323202323217823232320FD
:1029540020202023782178787823232323232378A5
:1029640021000000232323232323232323232321A0
:102974002320202020202320402023212320242022
:102984002024202024202321232320232E2E2E2301
:1029940020232321782320232E2E2E232023782145
:1029A4007823242023232320242378217823202000
:1029B4002024202020237821782320202323202052
:1029C40020237821782323232323232323237821DB
:1029D40000000000787878232323237821232323FD
:1029E4002320202378212320242E2E2E2323212349
:1029F4004020242E2E202321232323242424202377
:102A0400217878232020202023217878232323234E
:102A140023232100782323232323232323232378FD
:102A2400212323202020202320402023232123206E
:102A340020242E2E2E2E2024202321232024202344
:102A440023232324202023212323202023787823B5
:102A5400202020232178232323237878232323234E
:102A64002321000078787878232323232323232326
:102A7400787878787878787821787878782320202E
:102A84002020202023232323232323232321232320
:102A94002323232023232323202340232320202EE6
:102AA4002E23212320242020242020202020202005
:102AB400202020202E2E23212320202023202323E6
:102AC4002320232323232320202E2E2321232323C7
:102AD40020232023232320237878782323232323CC
:102AE4002321787823202024202024202378787818
:102AF4007878787878782178782323232020242301
:102B04002323787878787878787878217878787842
:102B140023242020237878787878787878787878DF
:102B2400217878787823202020237878787878782A
:102B34007878787878217878787823232323237811
:102B4400787878787878787878782100787823237A
:102B5400232323782178782320202023232123234F
:102B640023202A242023212320202E242E20232125
:102B7400232020242E202323212323232020402309
:102B8400782178782323232323782100787823233A
:102B940023232323232378787878787878787878AF
:102BA400217878232020202020202378787823235C
:102BB40023232323782178782324202420242023EA
:102BC4007878782320202E2E237821232323202075
:102BD40024202024232323232320202E2E232321B7
:102BE40023202024242420202024202020202020CE
:102BF4002E2E2E232123202320202420232323238D
:102C040040232320202E2E2323212320232020246D
:102C1400202378782323232320202E2E2378212376
:102C240020202020232323787878787823232323D3
:102C3400232378212323232323237878787878780F
:102C44007878787878787878210000002323232313
:102C54002323232321232020402020202321232039
:102C64002023242420232123232024202023232140
:102C740078232020242E237821782323202E232315
:102C840078217878232E2E237878217878232323AB
:102C940023787821000000007878782323232323E5
:102CA40023232178787823202040202023212323E4
:102CB400232320232024202321232E2E2E242324C7
:102CC40020232321232E2E2E2024202020232123C1
:102CD4002323202420232320232178782320242025
:102CE400202020232178782320202020232323211F
:102CF400787823232323232378782100787878781D
:102D040078782323232321232323232323234020CD
:102D1400232123202020232020202023212320209E
:102D24002024202024202321232320232324232080
:102D3400232321782320202420232A2E23217823AF
:102D4400232020242E2E2E23217878232020202394
:102D54002E202321787823232323232323232100B4
:102D64007823232323232323232178232040202073
:102D740020202321232320202E2E2420232123201E
:102D840020232E2E232323212320242424232378A9
:102D940078212320202020237878782123232323BB
:102DA4002323787878210000232323232323232338
:102DB400212320202320202023212320242E2E24DD
:102DC4002023212340242E2A202323212320242EA0
:102DD4002E242023212320202320202023212323C9
:102DE40023232323232321007878782323232323D5
:102DF40078782123232323204020232323212320E5
:102E040020202023202020232123202424202023A9
:102E1400242023212320202423242024202321238D
:102E240023232E2E2E242323232178232E2E2E2ECD
:102E340020237878217823232323232323787821BC
:102E440000000000232323232323232123202023E2
:102E54004020232123202424242023212320202430
:102E6400202023212320242424202321232E2E2325
:102E74002E2E2321232E2E242E2E232123232323DF
:102E840023232321000000007878232323232323F2
:102E9400217878232020402023217878232024209F
:102EA40020232123232323202420232123202E23F2
:102EB4002420232321232E2E232024237821232E70
:102EC4002E242020232321232E2E202420202321BE
:102ED40023232323242020232178787823202020CF
:102EE4002321787878232323232321007823232381
:102EF400232323232321782320202320204023213C
:102F040078232420202420202321782320232320F5
:102F14002420232123232E2E2E2420232321232067
:102F24002E2E2E2320237821232023242420202303
:102F340078212320202020202023782123232323C9
:102F44002323232378210000787823232323232396
:102F54007878217878232E2E2E2E2378782178786D
:102F64002320202E2E237878212323232424232373
:102F74002323232123202420202024204023212311
:102F84002020202420242020232123232320202028
:102F94002323232321787823232323237878782158
:102FA40000000000787823232323232323232323CF
:102FB4002323217878232020202023202020202050
:102FC4002321787823202420202420242024202333
:102FD40021232323232323202323242024202321C8
:102FE400232E2E20202320232020242023232123AA
:102FF4002E2E202020204020232320202321232E76
:103004002E202023242323232320202321232E2E78
:10301400202023202420202420202321232E2E207E
:103024002023202020202023232321232323232380
:1030340023232323232323787821000078787878A6
:1030440023232323237878787878787878787821FC
:10305400787878782320202023787878787878789E
:1030640078787821787878782324202023787878E1
:103074007878787878787821787823232320202426
:10308400232378787878787878787821787823206A
:103094002024202420237878787878787878782108
:1030A40023232320232023232023787878232323F6
:1030B40023232321232020202320232320232323ED
:1030C400232320202E2E23212320242020242020CB
:1030D40020202020202020202E2E232123232323C0
:1030E4002320232323202340232320202E2E232187
:1030F4007878787823202020202023232323232357
:1031040023232321787878782323232323232378E4
:1031140078787878787878210000000023232323B6
:103124002323232323232323787821232E2E2020B3
:1031340023202020202023232321232E2E2020235C
:10314400202420202420202321232E2E2020232449
:103154002323232320202321232E2E20202020401C
:1031640020232320202321232E2E2020232023202C
:103174002024202323212323232323232023232424
:103184002024202321787823202420202420242074
:10319400242023217878232020202023202020206D
:1031A4002023217878232323232323232323232346
:1031B40023210000941A0000882E0000DC1A00006D
:1031C400882E0000241B0000882E00006C1B0000C9
:1031D400882E0000C01B0000882E0000141C000074
:1031E400882E0000681C0000882E0000BC1C000013
:1031F400882E0000101D0000882E0000581D0000BD
:10320400882E0000A01D0000882E0000F01D000084
:10321400882E0000401E0000882E00009C1E000026
:10322400882E0000F81E0000882E0000401F0000B9
:10323400882E0000881F0000882E0000EC1F00006C
:10324400882E000050200000882E0000A4200000DA
:10325400882E0000F8200000882E00004021000085
:10326400882E000088210000882E0000F421000030
:10327400882E000060220000882E0000BC2200007E
:10328400882E000018230000882E00006C23000004
:10329400882E0000C0230000882E000014240000A3
:1032A400882E000068240000882E0000A824000056
:1032B400882E0000E8240000882E0000302500003D
:1032C400882E000078250000882E0000B825000014
:1032D400882E000000260000882E000048260000EA
:1032E400882E000090260000882E0000E4260000AE
:1032F400882E000024270000882E0000802700006C
:10330400882E0000E4270000882E000020280000FA
:10331400882E00006C280000882E0000BC280000C5
:10332400882E000018290000882E0000682900005B
:10333400882E0000D8290000882E0000182A0000DA
:10334400882E0000682A0000882E0000502B000000
:10335400882E0000902B0000882E0000502C0000C6
:10336400882E00009C2C0000882E0000002D0000F8
:10337400882E0000642D0000882E0000AC2D000073
:10338400882E0000EC2D0000882E0000482E00003E
:10339400882E00008C2E0000882E0000F02E0000E5
:1033A400882E00004C2F0000882E0000A82F00005B
:1033B400882E000040300000882E000020310000DC
:1033C400882E0000C01300003A1300005E130000B2
:1033D4009E130000D813000002140000C00FE00781
:1033E400E0FC3F007E000FFE03FE0FE08007C003F9
:1033F400E0F83E003E0007FE03FE07E00003800104
:10340400E0F03C001E0003FC01FE03E0078383C1DF
:10341400E0F07C1C1E0F03FC01FE03E0078383C164
:10342400E0E0FC1C1E0F83FC01FE01E007FF83C1EA
:10343400E0C1FC1C1E0F83F800FE00E003FF83C103
:10344400E081FC1C1E0F83F870FE006080FF83C1C6
:10345400E003FC1C1E0F07F870FE0060C03F83C130
:10346400E007FC1C1E000FF0707E0020F00F83C1EB
:10347400E007FC1C1E000FF0707E0800FC0783C1EF
:10348400E003FC1C1E0F07F0007E0C00FF8383C1C9
:10349400E081FC1C1E0F83E0003E0C00FF8383C10F
:1034A400E081FC1C1E0F83E0003E0E00078383C1F5
:1034B400E0C0FC1C1E0F83E0003E0F00078383C1A5
:1034C400E0E07C1C1E0F03C1FC1E0F800003800182
:1034D400E0F03C001E0003C1FC1E0F808007C00307
:1034E400E0F83E003E0007C1FC1E0FC0C00FE0071D
:1034F400E0F83F007E000FC1FC1E0FE0FFFFFFFF5E
:10350400FFFFFFFFFFFFFFFFFFFFFFFFFFFFFFFFC7
:10351400FFFFFFFFFFFFFFFFFFFFFFFFFFFFFFFFB7
:10352400FFFFFFFFFFFFFFFFFFFFFFFFFFFFFFFFA7
:10353400FFFFFFFFFFFFFFFFFFFFFFFFFFFFFFFF97
:10354400FFFFFFFFFFFFFFFFFFFFFFFFFFFFFFFF87
:10355400FFFFFFFFFFFFFFFFFFFFFFFFFFFFFFFF77
:10356400FFFFFFFFFFFFFFFFFFFFFFFFFFFFFFFF67
:10357400FFFFFFFFFFFFFFFFFFFFFFFFFFFFFFFF57
:10358400FFFC1FFFFFFFFFFFFFFFFFFFFFFFFFFF2A
:10359400FFF007FFFFFFFFFFFFFFFFFFFFFFFFFF3E
:1035A400FFC003FFFFFFFFFFFFFFFFFFFFFFFFFF62
:1035B400FFC003FFFFFFFFFFFFFFFFFFFFFFFFFF52
:1035C400FF8001FFFFFFFFFFFFFFFFFFFFFFFFFF84
:1035D400FF8001FFFFFFFFFFFFFFFFFFFFFFFFFF74
:1035E400FF8001FFFFFFFFFFFFFFFFFFFFFFFFFF64
:1035F400FF8001FFFFFFFFFFFFFFFFFFFFFFFFFF54
:10360400FFC003FFFFFFFFFFFFFFFFFFFFFFFFFF01
:10361400FFC003FFFFFFFFFFFFFFFFFFFFFFFFFFF1
:10362400FFE007FFFFFFFFFFFFFFFFFFFFFFFFFFBD
:10363400FE300FFFFFFFFFFFFFFFFFFFFFFFFFFF56
:10364400FC1FFFFFFFFFFFFFFFFFFFFFFFFFFFFF69
:10365400F80FFFFFFFFFFFFFFFFFFFFFFFFFFFFF6D
:10366400F003FFFFFFFFFFFFFFFFFFFFFFFFFFFF71
:10367400F0003FFFFFFFFFFFFFFFFFFFFFFFFFFF24
:10368400E0001FFFFFFFFFFFFFFFFFFFFFFFFFFF44
:10369400E03007FFFFFFFFFFFFFFFFFFFFFFFFFF1C
:1036A400C0180118003F0000FFFFFFFFFFFFFFFFEE
:1036B400C00F0018003F0000FFFFFFFFFFFFFFFFE8
:1036C400800FE018003F0000FFFFFFFFFFFFFFFF38
:1036D400800FF91FFE3F0000FFFFFFFFFFFFFFFF0A
:1036E400801FFF1FFE3F0000FFFFFFFFFFFFFFFFE4
:1036F400001FFF18063F0000FFFFFFFFFFFFFFFF53
:10370400000FFF18063F0000FFFFFFFFFFFFFFFE53
:10371400060FFF18063F0000FFFFFFFFFFFFFFFE3D
:103724000F07FF18063F0000FFFFFFFFFFFFFFFE2C
:103734000F83FF18063F0000FFFFFFFFFFFFFFFCA2
:103744000FC3FF18063F0000FFFFFFFFFFFFFFF856
:103754001FC3FFFFFE3F0000FFFFFFFFFFFFFFF05F
:103764003FC3FFFFFE3F0000FFFFFFFFFFFFFFE03F
:103774007F87FF00063F0000FFFFFFFFFFFFFFE022
:10378400FF83FF00063F0000FFFFFFFFFFFFFFF086
:10379400FF81FF00063F0000FFFFFFFFFFFFFFFF69
:1037A400FFFFFFFFFFFFFFFFFFFFFFFFFFFFFFFF25
:1037B400FFFFFFFFFFFFFFFFFFFFFFFFFFFFFFFF15
:1037C400FFFFFFFFFFFFFFFFFFFFFFFFFFFFFFFF05
:1037D400FFFFFFFFFFFFFFFFFFFFFFFFFCFEFCFCFF
:1037E400FCFC0406FC2020FCFCFCDCFCFCFCFCCC0B
:1037F4008484CCFC0070685B380000400000080042
:10380400CCCC8449CCB4303078B4334802000404BE
:10381400061008050C141006181520073016400F62
:103824006017801F0202020204081020040404042A
:1038340008102040060606060C1830600808080820
:10384400102040800100020003000400050006006F
:1038540007000800020004000800100020004000D7
:103864008000000100A8303050207020707060701B
:103874001020202000002020000020200000202014
:103884000000202000204850F8C84010102050208C
:10389400000000087060707030F070F87070000004
:1038A400100040607070F070E0F8F87088F80890CC
:1038B40080888870F070F070F88888888888F83874
:1038C40080702000600080000800300080200840E4
:1038D400400000000000000020000000000000186C
:1038E40020C02808001CE0FC001CE0FC001CE0FCDC
:1038F400001CE0FCFFFFAFAFFFFFAFAFFFFFAFAFB8
:10390400FFFFAFAFFFDFB7AF0737BFEFEFDFAFDFCB
:10391400FFFFFFF78F9F8F8FCF0F8F078F8FFFFFD3
:10392400EFFFBF9F8F8F0F8F1F07078F7707F76FEB
:103934007F77778F0F8F0F8F07777777777707C723
:103944007F8FDFFF9FFF7FFFF7FFCFFF7FDFF7BF93
:10395400BFFFFFFFFFFFFFFFDFFFFFFFFFFFFFE7EB
:10396400DF3FD7F700544878F870A870D8A85020E3
:10397400187060203000202000002020000020204B
:1039840000002020002048F8A0D0A02020102020F3
:103994000000001098A00808508080088888202023
:1039A40020F820108888888890808080882008A04B
:1039B40080D8C888888888802088888850501020BB
:1039C400401050009078803808704078F000005023
:1039D40040D0F070F07838F0708888889088F020B3
:1039E40020205008001CE0FC001CE0FC001CE0FC53
:1039F400001CE0FCCF1FAFAFFFFFAFAFFFFFAFAFC7
:103A0400FFFFAFAFFFDFB7075F2F5FDFDFEFDFDF62
:103A1400FFFFFFEF675FF7F7AF7F7FF77777DFDFB2
:103A2400DF07DFEF777777776F7F7F7F77DFF75F6A
:103A34007F2737777777777FDF777777AFAFEFDFDA
:103A4400BFEFAFFF6F877FC7F78FBF870FFFFFAF52
:103A5400BF2F0F8F0F87C70F8F7777776F770FDFA2
:103A6400DFDFAFF700A884FCF8F8F8F888F848F826
:103A7400FCF8FC2078E020E03CFC3CFC20E020E06A
:103A84003CFC3CFC00200050F82068002010F8F8B2
:103A940010F80020A820783090F0F0107078000022
:103AA40040001020B0F8F08088F0F098F82008C0AA
:103AB40080A8A888F0A8F070208888A8202020205A
:103AC400201088006088F04078F8E08888600860FA
:103AD40040A88888888840C0208888A8608830C02A
:103AE40020180010001CE0FC001CE0FC001CE0FCA2
:103AF400001CE0FC87FFAF2FC303A323FF0FAF2FEE
:103B04008303A323FFDFFFAF07DF97FFDFEF070781
:103B1400EF07FFDF57DF87CF6F0F0FEF8F87FFFFB1
:103B2400BFFFEFDF4F070F7F770F0F6707DFF73F09
:103B34007F5757770F570F8FDF777757DFDFDFDF39
:103B4400DFEF77FF9F770FBF87071F77779FF79F79
:103B5400BF5777777777BF3FDF7777579F77CF3F29
:103B6400DFE7FFEF005484FCF8F8A8F8A8D8D020C9
:103B7400182060F8780000000000000020202020B9
:103B840020202020000000F8285890002010202039
:103B940010003040C8208008F808882088080020D9
:103BA40020F820008088888890808088882088A0D9
:103BB4008088988880989008208850A850204020B9
:103BC40010100000008888408880407888200860B1
:103BD40040A88888F0784030208850A86078C020B9
:103BE400202000A0000000001C1C1C1CE0E0E0E001
:103BF400FCFCFCFC871FAFEFFFFFBFFFAFEFAFEF95
:103C0400BFFFBFFFFFFFFF07D7A76FFFDFEFDFDFB8
:103C1400EFFFCFBF37DF7FF707F777DF77F7FFDFF8
:103C2400DF07DFFF7F7777776F7F7F7777DF775FD8
:103C34007F7767777F676FF7DF77AF57AFDFBFDFD8
:103C4400EFEFFFFFFF7777BF777FBF8777DFF79FC0
:103C5400BF5777770F87BFCFDF77AF579F873FDF98
:103C6400DFDFFF5F00A848787070202088F8C0501C
:103C740010202070300000000000000020202020D0
:103C84002020202000200050F898680010205020A8
:103C94002000308070F8F87010F070407070204090
:103CA400100040207088F070E0F8807088F8709000
:103CB400F8888870807088F0207020508820F83848
:103CC400087000000078F038787840088870485010
:103CD40020A88870800840F0187820509008F018C8
:103CE40020C00040000000001C1C1C1CE0E0E0E0C0
:103CF400FCFCFCFCCFFFFF0FC3038303AF2FAF2FEC
:103D0400A323A323FFDFFFAF076797FFEFDFAFDF37
:103D1400DFFFCF7F8F07078FEF0F8FBF8F8FDFBF3F
:103D2400EFFFBFDF8F770F8F1F077F8F77078F6FAF
:103D34000777778F7F8F770FDF8FDFAF77DF07C747
:103D4400F78FFFFFFF870FC78787BFF7778FB7AF5F
:103D5400DF57778F7FF7BF0FE787DFAF6FF70FE787
:103D6400DF3FFFBF00543030202070707070008837
:103D7400002000200000000000000000202020207F
:103D840020202020000000000000000000000000AF
:103D9400000000000000000000000000000000001F
:103DA400000000000000000000000000000000000F
:103DB40000000000000000000000000000000000FF
:103DC400000000FC00000000000000700000300053
:103DD40000000000800800000000000000700000E7
:103DE40000000000000000001C1C1C1CE0E0E0E0DF
:103DF400FCFCFCFCFFFFFFFFFFFFFFFFAFAFAFAF1B
:103E0400AFAFAFAFFFFFFFFFFFFFFFFFFFFFFFFFFE
:103E1400FFFFFFFFFFFFFFFFFFFFFFFFFFFFFFFFAE
:103E2400FFFFFFFFFFFFFFFFFFFFFFFFFFFFFFFF9E
:103E3400FFFFFFFFFFFFFFFFFFFFFFFFFFFFFFFF8E
:103E4400FFFFFF03FFFFFFFFFFFFFF8FFFFFCFFF1A
:103E5400FFFFFFFF7FF7FFFFFFFFFFFFFF8FFFFF66
:043E6400FFFFFFFF5E
:103E680000D0020000EE0700009C0B00007E0E0050
:103E780000C41000004A1200008E130068380000C9
:103E880000366E0100366E0100F4010000366E0146
:103E980000127A0000093D00000000000000000048
:103EA800370600400C4A485281990CCA9386218DE6
:103EB8009422ADCA2A851D89060517060000130637
:103EC800E6003295028501000100010001000100B1
:103ED8000100010001001385818F8323050013056C
:103EE800001063DCA3041387018F1843B737014020
:103EF800C146010008230507C8C719467D167DFE7F
:103F0800FD16EDFA23A607008D4533F5B3006315BA
:103F1800B5001386018F18C2170500E01305C509FF
:103F2800028501009385818F83A305001305000492
:103F3800970500E0938565068285170500E013055F
:0C3F4800A505028500000000000000003C
:00000001FF
