:100000006F00800A00000000A4000000A4000000AF
:1000100000000000000000000000000000000000E0
:1000200000000000000000000000000000000000D0
:10003000A400000000000000A40000000000000078
:10004000A4000000A4000000A4000000A400000020
:10005000A4000000A4000000A4000000A400000010
:10006000A4000000A4000000A4000000A400000000
:10007000A4000000A4000000A4000000A4000000F0
:10008000A4000000A4000000A4000000A4000000E0
:10009000A4000000A400000040000020A400000014
:1000A000A400000001A00100970100209381817944
:1000B00017210020130101F417450000130545C066
:1000C00097050020938505F41706002013064602C5
:1000D00063FAC5008322050023A055001105910590
:1000E000E3EAC5FE1385C18A938501D86377B5001D
:1000F000232005001105E36DB5FE89629382028815
:10010000739002308D427390428097020000938278
:1001100062EF93E2320073905230EF0070639712F7
:1001200000009382C21E73901234730020300100CD
:0401300000000000CB
:100134001145B71601409305A01763C5B30693058F
:10014400B01763C07506C8CA639EB3049385C18C97
:100154000395050021C91386418D373701401307E4
:1001640007C06347A0009386018D944214C239A04E
:100174007D158AA105E91442910614C28A228AA136
:1001840019C9B62289CA54D7858234C308538565F0
:100194004D8D08D301A80853FD75FD156D8D08D349
:1001A40011A088CA85031306D02063CFC3008143FE
:1001B4001385818F0C4185050CC11705002013059B
:1001C40025F89385418F88C11385C18F232075003D
:1001D4009383418C83D703003723014013030340E7
:1001E4000325C304930500406390F5049382018CB6
:1001F40083A502002E9523A0A2001387818C0C23D3
:1002040085050CA31306000263CAC500230007007A
:1002140023A002009382C18B23A0A2002390030099
:100224009385918C8C21D1A89395F7018507239010
:10023400F30063DC050A9382018B83A502002E95EB
:1002440023A0A20093050040E39CF5FC23A0020038
:100254009382C18A23A0A200814597020020938241
:1002640022DA03A6C2006345C50093E58500C102F6
:1002740003A642006345C50093E54500A10203A619
:1002840002006344C50093E525009382818B03A596
:10029400020023A002009382418B23A0A2009702B4
:1002A40000209382E2D503A6C2006345C50093E50E
:1002B4000502C10203A642006345C50093E5050497
:1002C400A10203A602006344C50093E505019382DD
:1002D400718C03C502002380B2006316B5009382BB
:1002E400618C2380A200A14509A89382818B83A5F8
:1002F40002002E9523A0A2008145232AB302B7054C
:100304004000032583004D8D2324A3007300203077
:10031400634E050263C305042E86AA857D5515C266
:1003240085466378B6006356C00006068606E36C0D
:10033400B6FE014563E4C500918D558D8582058225
:10034400F5FA82808682C93F2E8582823305A040D9
:100354006347B000B305B040C1B7B305B04086826F
:10036400653F3305A0408282868263C705006349E6
:1003740005005D372E858282B305B040E35B05FE40
:100384003305A040513F3305B040828200002A83E8
:1003940009CA83830500230073007D1605038505C0
:1003A4006DFA82802A8311C62300B3007D160503EB
:1003B40065FE82802147B717014011469145CCCB99
:1003C40093168501E186094363C4060037030200DE
:1003D40023A867000100010001008CCB010001008B
:1003E400010006057D171375F50F71FB37170140E2
:1003F40050CB89450CCB944393F6F6F093E606086C
:1004040094C301000100010010CB010001000100B0
:1004140050CB0100010001004CCB98431377F7F057
:100424001367070198C3828083C7A18C89EFB7172C
:1004340001400947D8CB0100010001001147D8CB86
:10044400010001000100828083C7A18C89EFB717E6
:100454000140114798CB010001000100094798CBE6
:10046400010001000100828083C7A18C511122C2C6
:1004740006C42A849DEB4D3F13058007253F0145A3
:10048400153F137574001365050B2D3701451D3792
:1004940041450D37553F493F13058007213F12441D
:1004A400A24013050004310131B7A2401244A388CD
:1004B400A18E2388018E3101828083C7A18C91E3B0
:1004C400D5BD511122C483C5018FAA8603C5118FDE
:1004D4003703002093D2354093177500BE929307DB
:1004E400031426C2969713C6F5FF1D8A8423054775
:1004F400130303143317C7001376F70F1AC093F3CB
:10050400160033E3C400639603001343F7FF33F389
:1005140064008244A6922380620083C3070193F29D
:10052400260033637600639602001343F7FF33F328
:10053400630083C307022388670093F2460033E312
:10054400C300639602001343F7FF33F3630083C3CE
:1005540007032380670293F2860033E3C3006396A4
:1005640002001343F7FF33F3630083C307042388B4
:10057400670293F2060133E3C30063960200134358
:10058400F7FF33F3630083C307052380670493F203
:10059400060233E3C300639602001343F7FF33F309
:1005A400630083C307062388670493F2060433E3D6
:1005B400C300639602001343F7FF33F36300238001
:1005C400670603C30707E206E1863366C30063C612
:1005D40006001347F7FF3376E3002388C706850533
:1005E4009307F00763D6B7000505A388A18E81455C
:1005F40022442388B18E924431018280B5B503C769
:10060400A18C511106C422C226C08547631FF7126C
:1006140023AE018EB70700203714024093870714D6
:1006240023AAF18E1C4C93E717001CCC1C4C93E7B7
:1006340047001CCC1C4C93E707011CCC1C4C93E7D3
:1006440007021CCC85454945EF00A06FA5454545EB
:10065400EF00206F1C4C8564C58F1CCC5C44C58F97
:100664005CC401005C44FD761387F6FFF98F5CC41B
:10067400B737014098439386F67F370401401377D8
:1006840077FC1367870098C39843A5457945758F10
:1006940098C39843A166938404801377F7F798C3AB
:1006A40098431367072098C398431367071098C3A8
:1006B400D8436D9BD8C39843558F98C3984391668C
:1006C400558F98C398431367470098C3984313679B
:1006D400070498C35C44E19B93E747005CC49525F9
:1006E4005C4411777D17F98F3167D98F5CC4130788
:1006F400C00581479306A02F054685453705004070
:10070400EF003021B70700401307B00798DF984F78
:10071400E576FD16758F98CF984F458F98CF9853EF
:100724001367070198D3984B6D9B98CBD8471367F1
:100734004700D8C7A2401244B7E700E013070004FB
:1007440023A2E710824431018280B7170140094790
:1007540098CB114798CB85454545E52385454945C3
:10076400CD2329458D64EF009006014475399384A7
:1007740004AAB3079400882305042D39E547E31A36
:10078400F4FED9310945EF0090041306F031854594
:1007940037050040EF00501371BF83C7A18CD5EB20
:1007A400111122CA3704002026C806CC13040414ED
:1007B400814426855539A28793050401A146130770
:1007C40000088823902B798D798E3335A00019C2C7
:1007D4001365250003C60702798E19C21365450007
:1007E40003C60703798E19C21365850003C607047F
:1007F400798E19C21365050103C60705798E19C2DE
:100804001365050203C60706798E19C2136505042C
:1008140003C60707798E19C2136505082EC63AC4A4
:100824003EC236C0413E824622479247FD16B2453B
:100834000587C1FA8507E393B7F839318504A147E1
:1008440013040408E397F4F6E2405244C2447101ED
:1008540082808280370500205111130600408145B3
:100864001305051406C43D3EA24023A6018E23A40D
:10087400018E2382018E3101828093573540920587
:1008840037070020AE97130707143E971345F5FF6B
:1008940014231D898547B397A70093C7F7FFF58FE6
:1008A4001CA382801307F0076367A7001307F003F4
:1008B4006363B700D9B78280935735409205338775
:1008C400B700B707002093870714BA9794231345FA
:1008D400F5FF1D8905473317A700558F98A382801C
:1008E4001307F0076367A7001307F0036363B700F8
:1008F400E1B78280B707002003A7C701011185670C
:1009040026CA93870780B304A700A6972EC006CEF5
:1009140022CCB2853EC283C6418E802089C69347CD
:10092400F4FF13F4F70F82470245A1073EC4931660
:100934008401E1862EC82AC663D80602553732459B
:10094400C2459317140013F4F70FA2470505E310EB
:10095400F5FE9247938404108505E39E97FAF240CE
:100964006244D24405618280353FC2453245D1BFDD
:10097400411122C426C206C62A84AE840820050476
:1009840011E5B2402244924441018280A68532C0DE
:1009940095370246A104DDB703C6A18D1D47930711
:1009A400160093F7F70F6373F700814703C7918D20
:1009B4006308F7001387C18D329708A3238DF18C48
:1009C400828083C7618C311193F7F70F83C6818DC1
:1009D40022C626C406C8238CF18C8944054433F707
:1009E400970019CB33F7960001EB1375F40F36C259
:1009F4003EC05D379246824705041D478604E310D6
:100A0400E4FEC2403244A24451018280511122C208
:100A140006C42A847D3783C7618CA24033D58740BE
:100A24001244058931018280511106C4593F83C79C
:100A3400918D03C7A18D0145630FF7001387C18D05
:100A44003E978507082393F7F70F1D476373F70055
:100A54008147A38CF18CA24031018280511106C4DC
:100A64008D3703C5618CA240133515003101828096
:100A7400511106C4E5377DDDA24031018280511158
:100A840022C2371402401C4C06C493E717001CCC46
:100A94001C4C93E707011CCCA54551455D24B706C2
:100AA4000140DC4671771307F73FF98FDCC61C4C15
:100AB400056713070780D98F1CCC5C44D98F5CC4AD
:100AC40001005C44FD769386F67FF58F5CC4B737EE
:100AD4000140938707C0944765767D16E19A94C7D1
:100AE400DD4694D79306803ED4D79306401FB4C303
:100AF4009443A2401244BD9A94C3D44B93E6160087
:100B0400D4CB944393E6060894C3D44FF18E19666C
:100B1400D18ED4CFD44F558FD8CFF843A166558FFB
:100B2400F8C398431367170098C331018280B7371D
:100B34000140938707C0C8D70581A8C39853856629
:100B4400558F98D382802396018CB73701409387C1
:100B540007C09853FD76FD16758F98D3828083A5C0
:100B6400C18B51113705600906C4EFF0EFFAA240BA
:100B74003101828051111305800C06C422C226C0A3
:100B8400B921B7060140DC4601777D17F98F372577
:100B94000140DCC61305054091290147B7220140F5
:100BA4001D4385466D46138502400C49B317E30087
:100BB40093C7F7FFED8FB395E600CD8F1CC90D07E2
:100BC400E313C7FE13060040A145B1229357A54085
:100BD400960723AEF18A9355254099473705004B74
:100BE400A384F18C2385018CEFF08FF285678D0748
:100BF40063DFA70485469547A384F18C2385D18CB4
:100C0400B7170240984F1367170098CF984F136790
:100C1400070298CF93058004794525222945452E5E
:100C2400B7170140938707409C4793F70704FDF7E4
:100C3400B7060140DC46370700F97D17F98F3707FF
:100C44000004D98FDCC683C7A18C754591E379452F
:100C54008145C52881450945ED2003C6918C37247B
:100C640001408545130504400D20130404401C4431
:100C7400370740007D45D98F1CC42D2E09354132DC
:100C84001244A24082443101F1B6994763C2B702CB
:100C94009547FD15B385F5025859FD47B397B7003D
:100CA40093C7F7FFF98FB315B600CD8F5CD9828057
:100CB400B14763C2B7029547E515B385F5021859E4
:100CC400FD47B397B70093C7F7FFF98FB315B60085
:100CD400CD8F1CD982809547CD15B385F502585523
:100CE400FD47B397B70093C7F7FFF98F3316B600E4
:100CF4005D8E50D582805C5937074000819BCD8F33
:100D04005CD91C45D98F1CC51C41898BF5DF68450E
:100D1400420541818280311122C626C406C82AC0F8
:100D24003284814463488000C24032442685A24410
:100D34005101828002452EC27D14753F9245AA94CA
:100D4400D5B7B707100013573540938727043E974C
:100D54002A0793767500104313952600BD47B39771
:100D6400A70093C7F7FFF18F13F6F5003316A6001B
:100D7400D18F1CC39307700263DBB700054593074B
:100D840080023315D5006393F500420508CB8280B9
:100D9400371702405C43511122C289833704002073
:100DA40006C426C08D8B8546130404026388D704C9
:100DB40089466387D7040840B714024048C4D84022
:100DC4008D67938747AF0D83798BBA978E23EFF0A6
:100DD400AFD408C8D8408D67938747AD2D837D8BEA
:100DE400BA978C23DC4063C307008545EFF0CFD26C
:100DF400A24048C8124482443101828048406DBFF9
:100E04005C43C183858B81E70840060575B748407C
:100E1400EDBF372702401C43511106C4F19B93E7F1
:100E240027001CC3371702401C4393E717001CC359
:100E3400B71702409843098B75DFD843719BD8C319
:100E4400B7170240D84309830D8B6DFFD843B7060B
:100E540000F9FD16758FD8C39843B706F7FEFD1643
:100E6400758F98C39843B706FCFFFD16758F98C31A
:100E74009847F9769386F60F758F98C79847B70603
:100E84009D006146558F98C7D8431377F7F0D8C3B0
:100E94008D679386C7AB2D479387C7ABEC2A6375E1
:100EA400B6007D17F9167DFB0607B7160240BA9700
:100EB400D0429C3341771307F77F718FAE07D98FE8
:100EC400DCC2DC4286078583DCC2D935B707002043
:100ED400938707029C4B37C78C011307F7A78946F2
:100EE400636AF70037B7120113070788B3B7E7003F
:100EF40093C61700372702401C43A240F19BD58FAD
:100F04001CC331018280B7F700E09843799B98C3F2
:100F14009843759B98C398431367470098C39843B5
:100F24000607058398C30D6723A407001307F7ED8D
:100F340098CBD843799BD8C398435D9B98C323A08F
:100F440001D098431367170098C38280B7170240F3
:100F5400D853511123A2E1D0856706C422C226C00A
:100F6400938787380100FD17F5FF6535B7170240F1
:100F7400D84B13675700D8CB984F85669386D6A372
:100F8400558F98CFD84FB70620108506558FD8CFE8
:100F9400116491648D3F1304C4CB9384C4CB636701
:100FA40094001244A24082443101E9B61C40110469
:100FB4008297F5B7E1473305F502B7F700E09847A4
:100FC400B7F600E09C46998FE3EEA7FE828099670E
:100FD400938707DC3305F502B7F700E09847B7F6C7
:100FE40000E09C46998FE3EEA7FE8280B72701407C
:100FF400938707406311F502B7170240984F1367B0
:10100400072098CFD84713670720D8C70100D847CF
:101014001377F7DFD8C71C453707F2FF7D17F98F21
:1010240037070E00D98F1CC51C4537071000D98F10
:101034001CC55C55370710FF7D17F98F5CD51C451F
:1010440093E717001CC5054559B7B7370140938787
:1010540007C06312F502B7170240D8478566938626
:101064000680558FD8C70100D847FD769386F67F52
:10107400758FD8C78280B7070040E31DF5FEB71708
:101084000240984B1367170098CB0100984B799B4B
:1010940098CBCDB7B7370140938707C0631BF500E2
:1010A400B71602409C4E056713070780D98F9CCE64
:1010B4008280B7070040E31DF5FE371702405C4FFE
:1010C40093E717005CCFEDB7411106C622C426C2D0
:1010D4002A8432C0AE847D3F2285853F1C4402466B
:1010E400FD14E19B1CC404D450D45C48B240924427
:1010F40093E717005CC81C48F99B1CC85C4493E741
:1011040017005CC41C4093E717001CC02244410133
:101114008280111132C636C43AC23EC006CC22CAFD
:1011240026C82A84AE84BD37228505370C4432464E
:10113400A246E1990CC47D1610D454D414408247BD
:101144001247BD9A14C0144093B71700990793E649
:10115400060814C08D466381D40A63C99602854685
:10116400638AD40489466387D4067C402167E240BD
:10117400D98F7CC05C48C24493E717005CC81C400C
:1011840093E717001CC05244710182809146E39E8C
:10119400D4FC38C0584CE576FD16758FB207D98F4C
:1011A4005CCC5C4C056793060780D58F5CCC1C50E7
:1011B400D98F39A858D8184C92071377F7F8D98FD4
:1011C4001CCC1C4C93E787001CCC1C5093E71700E5
:1011D4001CD061BF18DC184CE576FD16758FB2077C
:1011E400D98F1CCC1C4C056713070780D98F1CCCE6
:1011F4001C5093E70701E9BF58DC584C920713775A
:10120400F7F8D98F5CCC5C4C93E787005CCC1C501E
:1012140093E7071075BF130181FC22D806DA26D69E
:101224002AC42EC0A304010281460147130491027B
:101234000245A94532CC36CA3AC8EFF0EF8D2AC22E
:1012440002459307F4FFA9453EC6EFF0AF8F42472E
:10125400D246824513050503A30FA4FE2545B247D4
:1012640062469304170085068D43636FB5002245DB
:1012740013062700BE85EFF08F91D2504254268585
:10128400B254130181038280639A760001CAA38F4A
:10129400C7FE930427009307E4FF814612473E8468
:1012A4003AC0268771B763C30500B5B7511106C4A8
:1012B4009306D00214A1B305B0400505A93FA2408E
:1012C400050531018280511122C206C426C02E8434
:1012D40019E51244A24082442E853101CDB993040C
:1012E400F00F898C8604330494021385F4FFEFF025
:1012F4001F8413551440229575391244A240824428
:1013040031016FF05F8483C7A18C511106C422C2DE
:1013140026C089EBEFF00FD4FD54EFF0EFF009CDC8
:10132400EFF00FF5EF00100FEF102064A24012440D
:101334008244014531018280EFF07F82130425034A
:10134400E38D84FC1306E002A285138581D0A13FBE
:101354001375F50F95476310F502938781D0130732
:10136400600571469305C002138581D0D8A3EFF0C0
:101374002FE0EFF08FC2A2844DB79D4710A114B1A6
:10138400230105004CA1A30105005CB17CA182806E
:10139400283182802CB182800305050082800305F8
:1013A40015008280483182806821828028218280D1
:1013B4004CA18280482182802CA182804CB1828001
:1013C4006CA182800CA182800CB182803C21854674
:1013D400014763E5F600850713F7F70F38A182800C
:1013E400483582804CB582800305750082806CB1DB
:1013F40082800305950082800CB582802835828026
:101404002CB58280482582804CA5828003079500F4
:10141400F546F94763C6E600090793178701E18794
:1014240013D777401CB5B98F998F3825BA973CA547
:10143400828023050500A30405008280DC31942109
:1014440003060500F917B697E207E1872A8763C107
:10145400C7045C318506E206B297E207E187E186BC
:10146400014563C8D7029C31F42103061700BE96D8
:10147400E206E18663CFC60068239507E20732954A
:101484006205E18761853325F500134515008280E7
:10149400014582800303410063CEA700014563CC6C
:1014A400E500634AC30083070100B3A6F60013C531
:1014B4001600828001458280631205149307A003FD
:1014C40063CAB704634B0610C54763D2D7029307B8
:1014D400500263C0C70AF14763D4B70E93070003F1
:1014E40063D6B7109307D00363C9D70E25A2B947B3
:1014F40063C1E7149307400463CEC71093075002F7
:1015040063DAC710F14763D7B7109307000363D3B7
:10151400B710C9BF9307400463D6C704C54763C265
:10152400D702B94763C7E7109307900563D5B7108F
:101534009307200663C0C70E9307E00463CFC70474
:10154400D1A89307900563DDB70A9307200663D4F7
:10155400C7069307400263C9D7069307100263CAFC
:10156400E70C4DA89307900563DBB70A63470606AB
:1015740095BFFD4763C6D702F14763CCE70A63DB37
:10158400B7089307200663C7C7089307000363D20D
:10159400B7069307E004E3D7C7F49307D002C1B7B3
:1015A400F147E3D8B7FA9307200663C9C702930744
:1015B400000363DDB7029307E00463C7C7001DB7E8
:1015C4009307400263D5D7009307000305A0930750
:1015D400100263C0E706635F06028280930740023D
:1015E400E3DDD7F693070003E3C0B7FEE3D7D7FAEA
:1015F400D5BD9307E00463CFC700F1BF01458280E6
:10160400FD47E3C4D7F4F14763C5E7029307200617
:10161400E3D1C7F81327D703134517008280930734
:101624005002E3D5C7F4FD47E3CED7EAF147E3DB45
:10163400E7EA0545828093072006E3CDC7FC9307BC
:10164400E004E3CCC7F41DB7311122C606C826C492
:10165400030775007C31A9461D87B98F998F18251A
:101664002A84BA9713F7F70FE207E18763C8F600F5
:101674001CA5C2403244A24451018280930767FFF3
:101684001CA583070500130710076341F70493F5AE
:10169400F70F9384150093F4F40F04A12EC03EC2F7
:1016A4003533503083061400782082457D163697F2
:1016B40026968905283062076206E20561876186FD
:1016C400E185DD3B5DD592471CA065B7A147EDBF21
:1016D400030705009307D00663D1E702030715004B
:1016E4009307400363DBE700E1471CA1F5571CB1F6
:1016F40023050500A30405008280A3050500A9B7FE
:10170400411122C406C626C2030775007C31A946CE
:101714001D87B98F998F18252A84BA9713F7F70F65
:10172400E207E18763C8F6001CA5B2402244924454
:101734004101828083050500930767FF1CA5A1472B
:1017440063DCB7029384F5FF93F4F40F04A12EC075
:10175400B5395C30830614007820FD173386F40015
:101764003697824528306207620661876186A9330D
:101774004DDD82450CA055BF930720071CA175B70A
:101784008307750063D5070085077CB195BF81C7C2
:10179400FD177CB155BD8280511122C206C4830756
:1017A4007500A30505002A8463D80700D13F22856C
:1017B4001244A2403101A9B725476345F7008507C4
:1017C400E207E1877CB022851244A2403101ADBD1D
:1017D400511122C206C48D473CB5830775002A8483
:1017E4006358F000713F22851244A2403101A9BD23
:1017F4005D5763C5E700FD17E207E1877CB02285EA
:101804001244A2403101EDBD03070500AD4763C298
:10181400E702030715009307400363DCE70093071F
:1018240010061CA1F5571CB123050500A3040500EF
:1018340082808D473CB5E9B5830775006353F0009A
:1018440041BDD9B71301C1FD06D022CE26CC582103
:101854002EC8630407102A84553E030794002946C2
:1018640063530708A9455D55830614000306A400C5
:1018740013F7F60F63C9C50E3C3064203EC48307DA
:101884000400269722453EC61086620761879305A9
:101894001600939785014C30E1873EC0FD152E96C6
:1018A400931786018245E1873E863EC2313155C594
:1018B400830614001246824513F3F60F3307930090
:1018C4002245620761871ACAC53E52434DC90503C2
:1018D400A300640023050400A3040400D1BF85060B
:1018E400591714B038A40307A4001430E349E6FEE2
:1018F400583004203C307D1793851400BA94139615
:1019040084016420E2053EC0E185618683061400FB
:10191400024532C413F3F60F33079300620761875D
:1019240036C61AC82EC2493EB24615C1424358248F
:10193400230504007D13A3006400A304040085436D
:101944009245224663137700094758A4C1B7130789
:10195400F0036354D7002302040082507244E2442B
:1019640013014102828063C7A6007D17591618B07F
:1019740030A4DDBD23050400A3040400F5B593875A
:1019840081D1D82379FBC2460547E398E6FC324768
:101994006113A380670098A313071070DAA31D478F
:1019A40023910700F8A355BF5C25A9E7511122C272
:1019B40006C4782150310C211431854705077D1662
:1019C40036972E962A845CA58506850528316207FC
:1019D400E2066206E2056187E1866186E185EFF051
:1019E400BFAD09C59D571CB4A9473CA4A2401244ED
:1019F40031018280828083C7F1D17146814663655B
:101A0400F600850793F6F70FA38FD1D0828051118A
:101A140006C4D53703C7F1D1A24091679387C7B5F0
:101A2400BA9788233101828083C30700AA82138571
:101A3400F3FF16956341C50A01456340560A6111D7
:101A440022C226C013D4354063C3860803C31700DB
:101A5400B304830063CDD40633836302818E13F40D
:101A6400F60FE206E1869D891373F30F93041300C6
:101A74003303E30213072600330757401377F70FA6
:101A840093F4F40F330674021373F30F3A96137638
:101A9400F60F63EAC400338567002A9608223315DB
:101AA400B5001375F50F6354D0027D14B38383021C
:101AB4001E971377F70F63ECE4009A97BA979C2369
:101AC40021470D8FB3D7E740C98F13F5F70F1244A1
:101AD40082442101828001458280828003C3070001
:101AE400AA821305F3FF16956341C50401456340BB
:101AF400560463CEB60283C31700711122C0138447
:101B0400F3FF2E946340D4028D8EB38666023306AF
:101B14005640330373023303E3023387D70032970B
:101B24001A97282302441101828001458280828011
:101B34000D8D158F3305E5025111B305B64022C250
:101B440006C43684EFE0CFFCA240229512441375FC
:101B5400F50F31018280011122CC06CE26CA2AC299
:101B64002EC421445145EFF08FC6A247A5E3930745
:101B7400F00FB397870093F7F70F3EC08144268593
:101B8400EFE0DFA79247139774003E978147B306AF
:101B9400F70088223EC882473AC67D8DEFE0FF9168
:101BA400C2479306000832478507E392D7FEEFE069
:101BB400BF898504A147E394F4FC7D14FD57E31326
:101BC400F4FAF2406244D244056182802147018FD5
:101BD4009307F00FB397E70079BF411122C426C2DF
:101BE40006C618212A84AA8489049387F4FF818F66
:101BF40093F7F70F63E7E700B240224492444101B0
:101C040082808C2003C5F4FF3AC0EFF0CFEB02478B
:101C1400E1BF8280FDBF914763E4A710916793877A
:101C240087CA0A053E951C41411106C622C426C234
:101C34008287930580022945EFF0EFE8930580023F
:101C44001305C003EFF02FE8930580021305E006A7
:101C5400EFF06FE7930580021305A00AEFF0AFE6FB
:101C64002244B2409244930580021305C00D410101
:101C74006FF06FE5014413071400930744061377CC
:101C8400F70F93F7F70F9304400663F3E7008544D7
:101C94001345F4FF1375F50F89452AC0EFF0AFE241
:101CA4000245FD1493F4F40F7D151375F50FEDF44F
:101CB40051041374F40F93074006E31EF4FAB24080
:101CC40022449244410182802685A285EFF0AFDF51
:101CD400950493F4F40F9307800CE397F4FE9304B4
:101CE40040062685ED14A28593F4F40FEFF0AFDDE2
:101CF400EDF87D141374F40F8547E302F4FC9304A8
:101D04004006D9B72944E5BF1165130505C7224428
:101D1400B24092444101D1B51165130585C2C5BFD6
:101D24008280938781D6D827A14663E5E60005071C
:101D3400D8A78280D8372386070063E4E600050726
:101D4400D8B78280511126C006C422C2938481D69A
:101D5400BC30C1C38145138581D5EFF06FEA9D4541
:101D6400138581D5EFF08FE59D45138581D5EFF07F
:101D74002FE5138581D5EFF0CFEB8145138581D510
:101D8400EFF0EFE6814601468145138581D1EFF0FE
:101D9400CFDE982085476312F7029306500313069B
:101DA400A0028545138581D5EFF02FDD2380040043
:101DB400A2401244824431018280138581D51244A9
:101DC400A24082449D4613065003894531016FF0B9
:101DD400CFDA89479CB0E9BF511122C226C006C49C
:101DE400C547AA84138481D663EEA704B7570200BB
:101DF40093874792B3D7A700858BA9C73C30930537
:101E0400F00F1305800C85073CB0EFF0CFCB9305A2
:101E1400F00F0145EFF02FCB9305F00F1305800C65
:101E2400EFF06FCA9305F00F0145EFF0CFC99305AA
:101E3400F00F1305800CEFF00FC99305F00F014567
:101E4400EFF06FC85147A68763739700D14793F4A7
:101E5400F70F29478D46514681452685D13948B02B
:101E640013078002A146514681452685D13168A0D9
:101E740013078002930600055146814526854D3996
:101E840068B01307C00326859306F00F51468145B9
:101E9400453128B41244A2408244310165B5511140
:101EA40022C2138581D506C4EFF0CFD089476317CA
:101EB400F5008545138581D5EFF08FCF1244A240FC
:101EC40031016FF05FB3511122C2138401D226C0D5
:101ED40006C4930484032285EFF0CFCD19E53904B9
:101EE400E31B94FE0547A384E1D6A2401244824436
:101EF40031018280511122C2138401D226C006C44A
:101F0400930484032285EFF0EFCA05E58545228515
:101F1400EFF00FCA81452285EFF0CFC7EFF03FAF56
:101F240009CD8547630EF502A24012448244310173
:101F340082803904E31894FCC5BFE1452285EFF0A3
:101F44006FC8F5552285EFF02FC8938481D6838519
:101F540054002285EFF0AFC9FC20FD17FCA0E9B7BF
:101F6400930510062285EFF0EFC5F5552285EFF0B5
:101F7400AFC5938481D6CC30B305B040E205E1858A
:101F8400C9BF83C7E1D691C3B5B735BF938781D69F
:101F9400D823F4336375D7000507D8A3828023823E
:101FA4000700C5B7511126C003C5E1D7B94722C2FE
:101FB4003305F502138401D206C42295EFF04FBD18
:101FC4000DE9894513054006EFF0EFAF8945130588
:101FD400000FEFF04FAF03C5E1D7B9473305F50262
:101FE4002295EFF02FBD0547630AE5000947630B0F
:101FF400E502A24012448244310182802939938748
:1020040081D6B83385457D17138581D5B8B3EFF0F4
:102014006FB8B955138581D51244A2408244310169
:102024006FF08FBD03C5E1D7B94785453305F50288
:102034002295EFF02FB603C5E1D7B947B95533055B
:10204400F5022295D1BF511122C2138581D506C450
:1020540026C0EFF02FB68547631AF504138581D5A2
:10206400EFF00FB321E583C7E1D7894663E5F600B6
:10207400850713F5F70FB947238FA1D63305F5026A
:10208400938401D22695EFF0EFB2B94705C183C519
:10209400E1D7138581D5B385F502A695EFF00FBA84
:1020A40011C51244A24082443101EDBDA240124444
:1020B400824431018280411106C622C48547638966
:1020C400F50089476385F504B240224441018280CA
:1020D400B9473305F502938701D23304F50083C56C
:1020E40031D72285EFF00FB089452285EFF04FAC50
:1020F40099452285EFF0CFB081452285EFF0CFAB33
:10210400C95522852244B24041016FF0EFAEB94770
:102114003305F502938701D281453E952AC0EFF03D
:102124006FAC02458545EFF0AFA80245C955D9BF4C
:102134004111938701D226C206C622C481443EC0FF
:1021440039443384840282473E942285EFF06FAA97
:10215400A94763CEA7002285EFF06FA46359A000BE
:102164002285EFF02FA5AA8513F5F40FA93785046E
:102174009147E397F4FCB2402244924441018280A7
:102184003971138581D106DE22DC26DAEFF08FA2C5
:102194008547631DF50E938701D201443EC6B947B6
:1021A400B307F4023247BA973E853EC4EFF08FA0DE
:1021B4006309050C138581D1EFF00F9E2AC813859E
:1021C40081D1EFF06F9D2AD8138581D1EFF02F9D37
:1021D4002AD6138581D1EFF08F9C2AD4138581D11F
:1021E400EFF08F9C2AD22245EFF00F9B2AD0224594
:1021F400EFF08F9A2ACE2245EFF0CF9AAA84224597
:10220400F914EFF0CF992ACC2245EFF04F992ACA5E
:102214002245EFF06F99F247D2430257A6979256A0
:1022240022533256C255C2441E95E242620561856C
:1022340005079A960D068D058D042AC2E2076207EA
:10224400E2066206E2051395840116C0E187618700
:10225400E1866186E1856185EFF0CFA31DC122454A
:10226400EFF04F95AA851375F40FB135A945130501
:10227400000FEFF04F858945138581D1EFF04F931F
:10228400C9A805049147E31CF4F0F5B7938781D6F8
:1022940083878700938481D663CD070A138581D50C
:1022A400EFF00F8F5DE5138581D5EFF08F946352C6
:1022B400050A138581D5EFF02F8E2ACA138581D59F
:1022C400EFF08F8D2AC8138581D5EFF0AF8D2AC624
:1022D400138581D5EFF0AF8C2AC4138581D5EFF037
:1022E4000F8CB247C2465247F9172246B697930657
:1022F40015000507E206E186E207620736C232C02E
:10230400E18761879306E0021306E0029305F00378
:102314001305F003EFF00F980DCD138581D5EFF081
:102324000F8893051500E205E185138581D5EFF04B
:10233400AF89138581D5EFF0CF8F838784007D57D4
:102344006385E700FD17E207E1879CA4A1479CB4DD
:10235400C533F2506254D254014521618280511137
:1023640022C2138401D226C006C4930484032285A6
:102374008146014681453904EFF02F80E31994FE2C
:10238400A2401244824431018280370700208347EF
:1023940087039306F00963E6F6008507230CF7022A
:1023A4008280511126C022C203C4C1D7B947230C6D
:1023B40007023304F402938701D206C43E942285B3
:1023C400EFF08F82B305A040E205E1852285EFF0AE
:1023D4000F8283C7C1D70947636AF7008507238E35
:1023E400F1D6A2401244824431018280238E01D668
:1023F400CDBF5111B94722C23304F502938701D2EC
:1024040026C006C485443E942285EFE07FFD631E0A
:10241400950022858145EFE0FFFC22851244A2400D
:102424008244854531016FE0BFF82285EFE05FFB10
:1024340063F0A4022285EFE0BFFA9305F5FF22853D
:102444001244A240824493F5F50F31016FE09FF9E5
:10245400A2401244824431018280411126C206C640
:1024640022C42537938701D281443EC03944338442
:10247400840282473E942285EFE0DFF305C922857A
:10248400EFE05FF38547631CF5022285EFE05FF020
:1024940001E52285EFF04FBA2285EFE05FF0F557B2
:1024A4006303F50281452285EFF0CFB98504914796
:1024B400E39EF4FAB240224492444101828013F52F
:1024C400F40F053FD1BF2285EFE01FEDF547E3DFB1
:1024D400A7FC2285EFE05FEC9307B005E3D4A7FCEB
:1024E400F1B7511106C422C226C0AA84EFE01FEC42
:1024F4002A842685EFE09FF0A2402295124482446C
:102504001375F50F31018280211122C826C6AA84D1
:10251400138581D506CA2EC0EFE0DFE9894763152C
:10252400F50083C7D1D7A1E79387E4FE93F7F70FAC
:102534001307B005636DF702138581D5EFE0DFE57E
:102544002AC2138581D5EFE09FE52AC4138581D57E
:10255400493F42448246A245D2402A8726861245F4
:10256400B2449167938707BB61016FF0EFCBD24010
:102574004244B2440145610182801301C1FC9307C6
:10258400E5FE22D693F7F70F26D406D82AC42EC622
:10259400138401D281443EC842479307B00563EDDA
:1025A400E70A2285EFE01FE145C92285EFE0DFDE7F
:1025B4002ACA2285EFE05FDE2AD22285EFE09FDE81
:1025C4002AD02285EFE0BFDD2ACE2285EFE03FDD71
:1025D4002ACC2285EFE05FDD3247E24682550E07C2
:1025E4001377F70FAA9612531305870062056185C6
:1025F400830781009A952AC2620772465245618711
:10260400E206E2053AC0E1863E87E185EFE09FE815
:1026140009ED3904938781D5E315F4F8C250325497
:102624002685A2541301410382802285EFE0DFD680
:102634002ACA2285EFE0BFD62ACC22855D352A87B7
:10264400B2462246E245524591679387C7B7EFF0F9
:10265400AFBD458D9374F50F3904938781D5E31D80
:10266400F4F26DBF038701D72A86634E07009546AF
:10267400639BD5009167938787B41377F70F13058E
:10268400D0036FF0AFC501458280311106C822C660
:1026940026C42A84AE848D3D8D67939674009387F7
:1026A4008774B6972AC2A2979C23A68522853EC02A
:1026B400553F12478247A685498FD98F93F7F70F65
:1026C40022853EC05D3D8247C24032445D8DA244B6
:1026D4001375F50F51018280211122C826C69387F4
:1026E40081D606CA9C37AA84138481D699CB8545A2
:1026F4002945EFE05FBD1C34FD171CB43C2493B79F
:1027040017001307E0063CA43AC085476395F4001C
:10271400930700083EC0814493F7F40F26853EC218
:10272400EFD0DFED8147014592453EC4B93FEFD07C
:10273400DFD8A2470247850793F7F70F631DF70019
:10274400EFD09FD08504A147E398F4FCD2404244E3
:10275400B2446101828041473E85E377F7FC282437
:102764003E951375F50FC9B78D671111938787349B
:1027740022CA06CC26C82AC401443EC69377F40F65
:1027840022853EC2EFD09FE73247931774008144FD
:10279400BA973EC02247854701456310F702924627
:1027A4008D6793874731014713F6F40F9545130559
:1027B4006002EFF0AFB2620561858247A6979C2361
:1027C40085045D8D1375F50FEFD03FCF9307000897
:1027D400E392F4FCEFD05FC70504A147E310F4FAD9
:1027E400E2405244C24471018280511126C08D647A
:1027F40081451385843422C206C40144EFF0AFB589
:102804001335440195371545EFE04FA019E91945F3
:10281400EFE0CF9F19E5930780026319F4022A843D
:10282400C5B71545EFE08F9E6DFD1945EFE00F9E8E
:102834006DF9EFF04FBE138584348545EFF0AFB1E9
:10284400A24012448244014531018280050413757B
:10285400F40FF1B7211126C622C806CA0144938495
:1028640081D69377F40F22853EC0EFD03FD901463D
:10287400824691679387C7BD01478D451305C00202
:1028840032C2EFF0AFA5D8348246124691629387E4
:10289400C2BF2AC48D451305B004EFF02FA4224310
:1028A4001246D824824691623363A3001373F30F54
:1028B4009387C2BF8D45130500051AC4EFF00FA21C
:1028C40022433365A3001375F50FEFD01FBF1246E3
:1028D4009307000805061376F60FE31BF6F8EFD00E
:1028E400BFB60504A147E31EF4F64244D240B24405
:1028F40061016FF00FC3938781D6094723820700D4
:102904009AA7238507008280511106C4938781D634
:1029140013070030BAA30547DAA7EFF05FA4A2407B
:102924003101E1B55111854722C206C42394F1D681
:10293400D937138481D62820EFF00FCA1305A00FCE
:10294400EFE0EFE8013F1165130585C2EFF0EFA852
:102954001305A00FEFE0AFE71244A2400D658145D7
:102964001305857431016FF00F9F411126C206C60D
:1029740022C48D64513F7D37B7F700E09C4723ACF8
:10298400F1D6138581D5EFE0BFA05DE10545EFE009
:10299400EF873DCDEFF0AFD0138581D5EFE0DFDFDA
:1029A400EFF0BFAB8545138581D5EFE0BFE9EFF0CC
:1029B4002FFD1545EFE08F8541C5EFF04FCE138510
:1029C40081D5EFE07FFEEFF00FE8EFF0CF82EFF07C
:1029D400EFDB0145EFF05FD083C7D1D7854693B7CE
:1029E4001700A38EF1D6938781D69C33138781D6A3
:1029F4006386D7080947E396E7F81165130505C709
:102A0400EFF0AF9D854513858474EFF0CF949DB7A7
:102A14000D45EFD0BFFF01C9EFF06FC8138581D515
:102A2400EFE01FDBB5BF138581D5EFE07FD58DBF08
:102A3400138581D5EFE01F9825F5EFF0AFB08DB782
:102A44001945EFD0BFFC35F9138581D5EFE09F9B85
:102A54000947E31AE5F62AC08145138581D5EFE0DD
:102A6400BF9A138581D1EFE0FF948247E31DF5F40B
:102A74008145138581D1EFE0BF93B1B73C23930621
:102A8400000663E5F600850793F7F70F8545138580
:102A940084743CA3EFF02F8CF9BD00007800AED510
:102AA40080A83FD300408D14A0C0DA128120D9F150
:102AB400DB402000AF0000000200040406100805FB
:102AC4000C141006181520073016400F6017801FCD
:102AD4000202020204081020040404040810204026
:102AE400060606060C183060080808081020408006
:102AF40001000200030004000500060007000800AE
:102B040002000400080010002000400080000001C2
:102B140000AA00006C1010103C3C3038000000008B
:102B24000000101000001010000010100000101021
:102B340000186C6C186038180C300000000000039A
:102B44003C183C3C1C7E1C7E3C3C00000C00603C61
:102B54003C187C3C787E7E3C667E066360C6C63C40
:102B64007C3C7C3C7E6666C6C3C37E3CC03C18008D
:102B74003800600006001C0060180C60380000007B
:102B840000000000300000000000001C1838760629
:102B9400000FF0FF000FF0FF000FF0FF000FF0FF39
:102BA400FFFFD7D7FFFFD7D7FFFFD7D7FFFFD7D771
:102BB400FFE79393E79FC7E7F3CFFFFFFFFFFFFC18
:102BC400C3E7C3C3E381E381C3C3FFFFF3FF9FC331
:102BD400C3E783C3878181C39981F99C9F3939C332
:102BE40083C383C3819999393C3C81C33FC3E7FFC5
:102BF400C7FF9FFFF9FFE3FF9FE7F39FC7FFFFFFB7
:102C0400FFFFFFFFCFFFFFFFFFFFFFE3E7C789F9E8
:102C140000551818FE383838427E2838081010102D
:102C24000000101000001010000010100000101020
:102C340000186C6C7E666C1818186C18000000067E
:102C4400663866663C6030066666000018003066CA
:102C54006E3C66666C6060666618066660EEE666E4
:102C640066666666186666C666660630600C3C0074
:102C74006C00600006003000600000601800000076
:102C8400000000003000000000000030180CDC06DA
:102C9400000FF0FF000FF0FF000FF0FF000FF0FF38
:102CA400FFFFD7D7FFFFD7D7FFFFD7D7FFFFD7D770
:102CB400FFE79393819993E7E7E793E7FFFFFFF932
:102CC40099C79999C39FCFF99999FFFFE7FFCF99C6
:102CD40091C39999939F9F9999E7F9999F1119998C
:102CE40099999999E79999399999F9CF9FF3C3FFDC
:102CF40093FF9FFFF9FFCFFF9FFFFF9FE7FFFFFFBA
:102D0400FFFFFFFFCFFFFFFFFFFFFFCFE7F323F935
:102D140000AA243CFE7C547CA5DB24100C38301023
:102D24001800101000001010000010100000101007
:102D340000186CFED80C3830300C38180000000C29
:102D44006E7806066C7C600666661818307E180677
:102D54006E666660666060606618066C60FEF666A5
:102D640066666660186666C63C3C0C30300C6600CD
:102D7400383C7C3C3E3C7C3E7C381C6618CC7C3C1D
:102D84007C3E7C3E7E6666C6C6667E30180C000EAF
:102D9400000FF0FF000FF0FF000FF0FF000FF0FF37
:102DA400E70FD717E000D010FF07D717C000D010E7
:102DB400FFE7930127F3C7CFCFF3C7E7FFFFFFF385
:102DC4009187F9F993839FF99999E7E7CF81E7F917
:102DD4009199999F999F9F9F99E7F9939F010999C9
:102DE4009999999FE7999939C3C3F3CFCFF399FF81
:102DF400C7C383C3C1C383C183C7E399E73383C311
:102E040083C183C181999939399981CFE7F3FFF15E
:102E14000055427EFEFEFEFE81FF247C7E7C7E10F9
:102E24003CF010F01FFF1FFF10F010F01FFF1FFFFA
:102E34000018006C7C187600300CFE7E007E0018B2
:102E440076180C1CCC067C0C3C3E181860000C0C4C
:102E54006C667C60667C7C6E7E18067860D6DE6666
:102E64007C667C3C186666D618181830180C00006E
:102E7400000666606666306666180C6C18FE666648
:102E840066666660306666C66C660C60180600CCC2
:102E9400000FF0FF000FF0FF000FF0FF000FF0FF36
:102EA400C3FFD7F7FFFFDFFFD7F7D7F7DFFFDFFF5A
:102EB400FFE7FF9383E789FFCFF30181FF81FFE7FA
:102EC40089E7F3E333F983F3C3C1E7E79FFFF3F340
:102ED4009399839F9983839181E7F9879F29219906
:102EE400839983C3E7999929E7E7E7CFE7F3FFFFDE
:102EF400FFF9999F9999CF9999E7F393E7019999E4
:102F04009999999FCF9999399399F39FE7F9FF3349
:102F140000AA427E7C7C54FEA5FF28100C10307C55
:102F24003C000000000000001010101010101010E1
:102F3400001800FE3630DC00300C38180000003079
:102F440066183806FE06661866060000307E1818F5
:102F5400607E6660666060666618066C60C6CE66F3
:102F640060666C06186666FE3C1830300C0C000077
:102F7400003E6660667E306666180C7818D6666613
:102F84006666603C306666D638661830180C00DC1D
:102F9400000000000F0F0F0FF0F0F0F0FFFFFFFF35
:102FA400C30FFF07E000C000D717D717D010D01009
:102FB400FFE7FF01C9CF23FFCFF3C7E7FFFFFFCF31
:102FC40099E7C7F901F999E799F9FFFFCF81E7E795
:102FD4009F81999F999F9F9999E7F9939F39319977
:102FE4009F9993F9E7999901C3E7CFCFF3F3FFFFD3
:102FF400FFC1999F9981CF9999E7F387E729999917
:1030040099999FC3CF999929C799E7CFE7F3FF23EC
:103014000055243C3838101099DBE028081010388B
:103024001800000000000000101010101010101004
:103034000000006CFC66CC0018186C1818001860AE
:10304400661860660C666618660C1818180030005E
:10305400666666666C6060666618666660C6C666A6
:10306400606C666618663CEE66186030060C0000FC
:10307400006666606660303E66180C6C18D666663C
:103084007C3E600630663C7C6C3E3030180C00F8A8
:10309400000000000F0F0F0FF0F0F0F0FFFFFFFF34
:1030A400E7FFFFFFFFFFFFFFD7D7D7D7D7D7D7D784
:1030B400FFFFFF93039933FFE7E793E7E7FFE79FFA
:1030C40099E79F99F39999E799F3E7E7E7FFCFFF2A
:1030D40099999999939F9F9999E799999F393999C2
:1030E4009F939999E799C31199E79FCFF9F3FFFF4C
:1030F400FF99999F999FCFC199E7F393E7299999EC
:1031040083C19FF9CF99C38393C1CFCFE7F3FF075F
:1031140000AA1818101038384266C0440010001075
:10312400000000000000000010101010101010101B
:103134000018006C300676000C300000180018C02F
:103144003C7E7E3C0C3C3C183C3818180C00601843
:103154003C667C3C787E603C667E3C637EC6C63CB6
:103164006036663C183C18C6C3187E3C033C00001D
:10317400003E7C3C3E3C3006663C6C663CC6663C8D
:103184006006607C1E3E186CC6067E1C18380070F3
:10319400000000000F0F0F0FF0F0F0F0FFFFFFFF33
:1031A400FFFFFFFFFFFFFFFFD7D7D7D7D7D7D7D76B
:1031B400FFE7FF93CFF989FFF3CFFFFFE7FFE73F77
:1031C400C38181C3F3C3C3E7C3C7E7E7F3FF9FE743
:1031D400C39983C387819FC39981C39C813939C3B0
:1031E4009FC999C3E7C3E7393CE781C3FCC3FFFF29
:1031F400FFC183C3C1C3CFF999C39399C33999C399
:103204009FF99F83E1C1E79339F981E3E7C7FF8F12
:1032140000550000000000003C3C000000000000DD
:10322400000000000000000010101010101010101A
:10323400000000000000000000000000300000005A
:10324400000000000000000000000030000000004A
:10325400000000000000000000000000000000006A
:10326400000000000000000000000000000000FF5B
:10327400000000000000003C0000380000000000D6
:103284006006000000000000003C00000000000098
:10329400000000000F0F0F0FF0F0F0F0FFFFFFFF32
:1032A400FFFFFFFFFFFFFFFFD7D7D7D7D7D7D7D76A
:1032B400FFFFFFFFFFFFFFFFFFFFFFFFCFFFFFFF4A
:1032C400FFFFFFFFFFFFFFFFFFFFFFCFFFFFFFFF3A
:1032D400FFFFFFFFFFFFFFFFFFFFFFFFFFFFFFFFFA
:1032E400FFFFFFFFFFFFFFFFFFFFFFFFFFFFFF00E9
:1032F400FFFFFFFFFFFFFFC3FFFFC7FFFFFFFFFF4E
:103304009FF9FFFFFFFFFFFFFFC3FFFFFFFFFFFF6B
:1033140032014C9292620008FE080068A8A8F000EE
:10332400F008080008FE888000000000384482B2DB
:1033340092740068A8A8F000F808103008F800702B
:10334400F8A8B8B0FFFF794949CF4949794949CF2D
:103354004949794949CF494949FF0703797D7D1C8A
:103364006C2C2C2C2C005E5E000000000000000081
:1033740000000818A060E040000000000000000009
:10338400000000000000000000000000000040E019
:1033940060A0180800000000000000000000000009
:1033A4005E5E002C2C2C2C6C1C7D7D790307FF4960
:1033B4004949CF4949794949CF4949794949CF4987
:1033C4004979FFFFFFFF9E9292F392929E9292F3AD
:1033D40092929E9292F3929292FF0003FBFBFB0364
:1033E400F8030000000000FEFF07337B7B33030378
:1033F4000303030303030303030303030303030399
:103404000303030303030303030303030303030388
:103414000303030303030303337B7B3305ABFE0086
:1034240000000000000003F803FBFBFB0300FF9215
:103434009292F392929E9292F392929E9292F3922D
:10344400929EFFFFFFFFE724243C2424E724243C2E
:103454002424E724243C242424FF0000FFFFFF004D
:10346400FF000000000000FFFF0000000000000259
:1034740002FE020200FA0000F80808F0000830C05A
:10348400780820202000FE12120C0000FA0000F838
:103494008888700070A8A8B00000000000AAFF008F
:1034A40000000000000000FF00FFFFFF0000FF24F9
:1034B40024243C2424E724243C2424E724243C24FA
:1034C40024E7FFFFFFFF794949CF4949794949CFAB
:1034D4004949794949CF494949FF0000FFFFFF00A5
:1034E400FF000000000000FFFF0060F0F06000003B
:1034F40000000000000000000000000000020201C3
:1035040000000000000000000000000000000003B4
:10351400000000000000000060F0F06000AAFF005E
:1035240000000000000000FF00FFFFFF0000FF4953
:103534004949CF4949794949CF4949794949CF4905
:103544004979FFFFFFFF7E32323332323E3232336B
:1035540032323E32323332321A0FE0F0F777B7B0FC
:10356400B7B0B00078780003060506040604060424
:1035740006040604060406040604060406040604F7
:1035840006040604060406040604060406040604E7
:1035940006040604060406040604060407060300DB
:1035A4000000787800B0B0B7B0B777F7F0E00F1A42
:1035B40032323332323E32323332323E32323332CC
:1035C400327EFFFFFFFF7060606266786C6C78602B
:1035D4006060606060606060606C6D6D6D8CE10C5B
:1035E40000000000010100000000000000000000D5
:1035F40000000000000000000000000000000000C7
:1036040000000000000000000000000000000000B6
:1036140000000000000000000000000000000000A6
:1036240000000101000000000CE18C6D6D6D6C6008
:1036340060606060606060786C6C78666260606036
:103644006070FFFFFFFF030101010101010101019E
:103654000101010101010101010101010101000058
:10366400808000C040000018C018D8D8D8180000C6
:103674000000000000000000000000000000000046
:103684000000000000000000000000000000000036
:10369400000000000000000000000018C018D8D886
:1036A400D818000040C00080800001010101010120
:1036B40001010101010101010101010101010101F6
:1036C4000103FFFF27273E2424E424243C2424E48C
:1036D40024243C2424E424243C2424E424243C27DB
:1036E40025E725243C2424E427243F2727E4242415
:1036F4003C2424E424243C2424E424243C2424E4FE
:1037040024243C2424E424243C2424E424243C24AD
:1037140024E424243C2424E424243C2427E42727EC
:103724003F2424E424243D2725E724243C2424E4C2
:1037340024243C2424E424243C2424E424243C247D
:1037440024E62727FFFFFF00FFFF0100FEFFFFFF26
:10375400014879FF00FF80BCBEBE8E369616161651
:10376400002F2F00000000000000000000000000F7
:103774000000000000000000000000000000000045
:103784000000000000000000000000000000000035
:103794000000000000000000000000000000000025
:1037A40000000000002F2F0016161696368EBEBE9F
:1037B400BC80FF00FF794801FFFFFFFE0001FFFF0F
:1037C40000FFFFFFFFFF0FF0FF3F00F0FFFFFF01CF
:1037D40092929EFF00FFA9ADADADB19C8180808027
:1037E40080808080808080808080808080808080D5
:1037F4008080808080808080808080808080800045
:103804000000000000000000008080808080808034
:1038140080808080808080808080808080808080A4
:103824008080808080808080808080819CB1ADADEC
:10383400ADA9FF00FF9E929201FFFFFFF0003FFF42
:10384400F00FFFFFFFFFFCFF0F00FCFFFF7F013CB9
:103854002424E7FF00FF030203020302030203021E
:10386400030203020302030203020302030203022C
:10387400030203020302030203020302030203001E
:103884000000000000000000000302030203020322
:1038940002030203020302030203020302030203FC
:1038A40002030203020302030203020302030203EC
:1038B4000203FF00FFE724243C017FFFFFFC000F0D
:1038C400FFFCFFFFFFFFFFFFFC7E3F1F43484FC984
:1038D400494979FF00FF00000000000000000000DB
:1038E40000000000000000000000E0A0E0A0E0A054
:1038F400E0A0E0A0E0A0E0A0E0A0E0A0E0A0E0A0C4
:10390400E0A0E0A0A0E0A0E0A0E0A0E0A0E0A0E0B3
:10391400A0E0A0E0A0E0A0E0A0E0A0E0A0E0000023
:103924000000000000000000000000000000000093
:103934000000FF00FF794949C94F48431F3F7EFCFF
:10394400FFFFFFFFE7F3F379F8E082129E92F29310
:1039540092929EFF00FF1C141C141C141C141C14B3
:103964001C00000000000000000000000000000037
:103974000000000000000000000000000000000043
:103984000000000000000000000000000000000033
:103994000000000000000000000000000000000023
:1039A400000000000000001C141C141C141C141C37
:1039B400141CFF00FF9E929293F2929E1282E0F8F2
:1039C40079F3F3E7FFFFFFFCE31FFFFEF004243C61
:1039D4002424E7FF00FFC040C040C040C040C040B6
:1039E400C040C040C040C040C040C040C040C040D3
:1039F400C040C040C0000000000000000000000003
:103A040000000000000000000000000000000000B2
:103A1400000000C040C040C040C040C040C040C0E2
:103A240040C040C040C040C040C040C040C040C092
:103A340040C0FF00FFE724243C2404F0FEFF1FE302
:103A4400FCFFFFFFFFFF1FFFFFFE01FFFFFC01C99B
:103A5400494979FF00FFC1C1C1C101E1E10101018F
:103A64000101010101010101010101010101010142
:103A7400010101010100000000000000000000003D
:103A84000000000000000000000000000000000032
:103A94000000000101010101010101010101010115
:103AA4000101010101010101010101E1E101C1C1C2
:103AB400C1C1FF00FF794949C901FCFFFF01FEFFB5
:103AC400FF1FFFFFFFFF1FE0FFFF00FFFFFF00F3EB
:103AD40092929EFF00FF25A585E520AB8BE020A0F8
:103AE40080E020A080E020A080E020A080E020A052
:103AF40080E020A080E020A080E020A080E020A042
:103B040080E020A080E020A080E020A080E020A031
:103B140080E020A080E020A080E020A080E020A021
:103B240080E020A080E020A080E020AB8BE025A5F1
:103B340085E5FF00FF9E9292F300FFFFFF00FFFF69
:103B4400E01FFFFF060140E0A0A0E04060F090D03D
:103B5400F06070F888C8F8700000010001000001EE
:103B64000100010000000100010100010001010148
:103B74000100010001000000070100C060E04030C6
:103B8400100040E060A0180800C06060C030101051
:103B94003040E060C0000818A060E040001030C071
:103BA4006060C0000040C0C0C040000007010E9F1C
:103BB400FF7FDB0E021CBE7EFE361C041C3EFE7E16
:103BC400B61C04020EDB7FFF9F0E041C36FE7EBE75
:103BD4001C041CB67EFE3E1C1C017C4040007C5430
:103BE40054003C403C007C5454007C4040005C54F5
:103BF400740000006C6C000004017C447C00007CB8
:103C0400000074545C0044547C001C107C005C5420
:103C140074007C54740004740C007C547C005C5468
:103C24007C0000004460FF00325AFF0032323264EC
:103C34003232326432323200C83232643232326466
:103C440032323200C83232643232326432323200BA
:103C5400C85AFF00C8603274326032743260326015
:103C64003274326032743260320000003666FF0013
:103C7400FF5AFF00FF50FF00FF48323E3248323EF9
:103C84003248323E3248323E3248323E3248323E88
:103C94003248323E3248323E3248323E3248323E78
:103CA40032483200361C0000781C00001C1D000045
:083CB4000C1D0000081D0000BA
:103CBC0000D0020000EE0700009C0B00007E0E00FE
:103CCC0000C41000004A1200008E1300142B0000D8
:103CDC0000366E0100366E0100F4010000366E01F4
:103CEC0000127A0000093D000100000000000000F5
:103CFC00370600400C4A485281990CCA9386A18C15
:103D0C009422ADCA2A851D890605170600001306E4
:103D1C00E60032950285010001000100010001005E
:103D2C000100010001001385C18F832305001305D9
:103D3C00001063DCA3041387418F1843B73701408D
:103D4C00C146010008230507C8C719467D167DFE2C
:103D5C00FD16EDFA23A607008D4533F5B300631568
:103D6C00B5001386418F18C2170500E01305050F27
:103D7C00028501009385C18F83A305001305000400
:103D8C00970500E0938565068285170500E013050D
:0C3D9C00A50502850000000000000000EA
:00000001FF
