:100000006F00000A000000009C0000009C0000003F
:1000100000000000000000000000000000000000E0
:1000200000000000000000000000000000000000D0
:100030009C000000000000009C0000000000000088
:100040009C0000009C0000009C0000009C00000040
:100050009C0000009C0000009C0000009C00000030
:100060009C0000009C0000009C0000009C00000020
:100070009C0000009C0000009C0000009C00000010
:100080009C0000009C0000009C0000009C00000000
:100090009C0000009C0000004000002001A0010026
:1000A0009701002093818179138181FB173500002E
:1000B000130585F1970500209385C5F417060020E8
:1000C0001306060763FAC5008322050023A0550026
:1000D00011059105E3EAC5FE1385418F938581EBF8
:1000E0006377B500232005001105E36DB5FE896235
:1000F00093820288739002308D42739042809702FF
:100100000000938222F093E2320073905230EF109D
:10011000B034971200009382227D739012347300E2
:08012000203001000000000086
:100128001145B71601409305A01763C5B30693059B
:10013800B01763C07506C8CA639EB304938541911E
:100148000395050021C91386C1913737014013076C
:1001580007C06347A00093868191944214C239A0D6
:100168007D158AA105E91442910614C28A228AA142
:1001780019C9B62289CA54D7858234C308538565FC
:100188004D8D08D301A80853FD75FD156D8D08D355
:1001980011A088CA85031306D02063CFC30081430A
:1001A800138501940C4185050CC117050020130522
:1001B800E5FC9385C19388C113854194232075007C
:1001C8009383C19083D7030037230140130303406F
:1001D8000325C304930500406390F504938281903E
:1001E80083A502002E9523A0A200138701910C235A
:1001F80085050CA31306000263CAC5002300070087
:1002080023A002009382419023A0A2002390030020
:10021800938511918C21D1A89395F7018507239097
:10022800F30063DC050A9382818F83A502002E9573
:1002380023A0A20093050040E39CF5FC23A0020044
:100248009382418F23A0A2008145970200209382C8
:10025800E2DA03A6C2006345C50093E58500C10242
:1002680003A642006345C50093E54500A10203A625
:1002780002006344C50093E525009382019003A51D
:10028800020023A002009382C18F23A0A20097023C
:1002980000209382A2D603A6C2006345C50093E559
:1002A8000502C10203A642006345C50093E50504A3
:1002B800A10203A602006344C50093E505019382E9
:1002C800F19003C502002380B2006316B500938243
:1002D800E1902380A200A14509A89382019083A5FB
:1002E80002002E9523A0A2008145232AB302B70558
:1002F8004000032583004D8D2324A3007300203084
:100308002A86014593F6150091C232958581060625
:10031800F5F9828000000000634E050263C30504FE
:100328002E86AA857D5515C285466378B600635624
:10033800C00006068606E36CB6FE014563E4C50008
:10034800918D558D85820582F5FA82808682C93F16
:100358002E8582823305A0406347B000B305B040C4
:10036800C1B7B305B0408682653F3305A04082829D
:10037800868263C70500634905005D372E85828242
:10038800B305B040E35B05FE3305A040513F33059C
:10039800B040828200002A8309CA838305002300B3
:1003A80073007D16050385056DFA82802A8311C6C0
:1003B8002300B3007D16050365FE82802147B71729
:1003C800014011469145CCCB93168501E18609433E
:1003D80063C406003703020023A867000100010078
:1003E80001008CCB01000100010006057D17137583
:1003F800F50F71FB3717014050CB89450CCB94435F
:1004080093F6F6F093E6060894C301000100010094
:1004180010CB01000100010050CB010001000100D8
:100428004CCB98431377F7F01367070198C3828082
:1004380083C7219189EFB71701400947D8CB01003D
:10044800010001001147D8CB0100010001008280A2
:1004580083C7219189EFB7170140114798CB010055
:1004680001000100094798CB0100010001008280CA
:1004780083C72191511122C206C42A849DEB4D3FA6
:1004880013058007253F0145153F13757400136553
:10049800050B2D3701451D3741450D37553F493F60
:1004A80013058007213F1244A240130500043101BF
:1004B80031B7A2401244A38CA192238C019231013E
:1004C800828003C72191511106C422C226C08547E4
:1004D8006311F70C23A20194B7070020938707182C
:1004E80023AEF192B7170240984F1367170098CFC1
:1004F800984F1367470098CF984F1367070198CF15
:10050800984F1367070298CF8D454945EF10005360
:10051800AD454545EF1080528D450545EF10005219
:10052800370701405C439306A02F054693F7F7CFA2
:1005380093E707205CC3854581471307C005370546
:100548000040EF101013B70700401307300798DF7B
:10055800984FE576FD16758F98CF984F85669386E8
:100568000680558F98CF98531367070198D3984BF7
:100578006D9B98CBD84713674700D8C7A240124451
:10058800B7E700E01307000423A2E7108244310113
:100598008280B7170140094798CB114798CB85450A
:1005A8004545EF10A04985454945EF1020492945A3
:1005B8008964EF1040720144A53D9384441FB3073A
:1005C800940088230504DD3BE547E31AF4FE49352A
:1005D8000945EF1040701306F03185453705004096
:1005E800EF10900461BF83C72191D5EB111122CA86
:1005F8003704002026C806CC130404188144268535
:10060800853DA28793050401A146130700088823A6
:10061800902B798D798E3335A00019C2136525008A
:1006280003C60702798E19C21365450003C607037E
:10063800798E19C21365850003C60704798E19C21D
:100648001365050103C60705798E19C213650502EE
:1006580003C60706798E19C21365050403C6070782
:10066800798E19C2136505082EC63AC43EC236C033
:10067800B133824622479247FD16B2450587C1FA33
:100688008507E393B7F8E9338504A1471304040801
:10069800E397F4F6E2405244C244710182808280BA
:1006A8003705002051111306004081451305051830
:1006B80006C4ED39A24023AA019223A801922386F9
:1006C8000192310182809357354092053707002007
:1006D800AE97130707183E971345F5FF14231D8996
:1006E8008547B397A70093C7F7FFF58F1CA38280B0
:1006F8001307F0076367A7001307F0036363B700E6
:10070800D9B782809357354092053387B700B7072A
:10071800002093870718BA9794231345F5FF1D897E
:1007280005473317A700558F98A382801307F00752
:100738006367A7001307F0036363B700E1B782801C
:100748003307C500635B05009307000863CFE70024
:100758003A868147634EC0008280AA871305000845
:10076800E35AE5FE3306F540F5B71306000881475E
:100778003387D50063D805049306000463DDE604D7
:100788008145011122CC26CA06CE3684B384D50011
:10079800B38584403307F6003E8532C83EC63AC466
:1007A8002EC22AC00D370245224792450505B24799
:1007B8004246E314A7FE7D1461FCF2406244D24431
:1007C80005618280130500046354E500B306B54053
:1007D800E349D0FA8280BA868145DDBFB707002099
:1007E80003A7C701011126CAB304A70093870460B1
:1007F8002EC006CE22CCB2853EC283C6C1928020CE
:1008080089C69347F4FF13F4F70F82470245990707
:100818003EC493168401E1862EC82AC663D8060210
:1008280031373245C2459317140013F4F70FA24726
:100838000505E310F5FE9247938404108505E39EB1
:1008480097FAF2406244D244056182805535C24528
:100858003245D1BF411122C426C206C62A84AE84BD
:100868000820050411E5B2402244924441018280E7
:10087800A68532C0A53702469904DDB71301C1FC2D
:1008880022D626D406D82EC632C836CA3ACC3EC49A
:10089800930415000144C247A2973EC0E24763484B
:1008A800F400C2503254A25413014103828083C71A
:1008B800F4FF2683130700083EC20146B24733857A
:1008C800C700D2476346F600A2470504BE94E1B7C5
:1008D80092471AD23AD0B3F5E70032CE85E1824585
:1008E800B135724602571253058719E7834703004B
:1008F8001307000805033EC20506C9B78245CD3B6C
:10090800125302577246CDB703C621921D4793076B
:10091800160093F7F70F6373F700814703C7119227
:100928006308F70013874192329708A32381F19255
:10093800828083C7E190311193F7F70F83C6019244
:1009480022C626C406C82380F1928944054433F799
:10095800970019CB33F7960001EB1375F40F36C2E5
:100968003EC05D379246824705041D478604E31062
:10097800E4FEC2403244A24451018280511106C4AF
:100988004D3F83C7119203C721920145630FF700BA
:10099800138741923E978507082393F7F70F1D4762
:1009A8006373F7008147A380F192A24031018280EE
:1009B800511106C4E1377DFDA240310182805111F9
:1009C80022C2371402401C4C06C493E717001CCC03
:1009D8001C4C93E707011CCCA5455145EF100006B8
:1009E800370701405C4393F7F7F35CC31C4C05677A
:1009F80013070780D98F1CCC5C44D98F5CC40100D5
:100A08005C44FD769386F67FF58F5CC4B73701406A
:100A1800938707C0944765767D16E19A94C7DD46AB
:100A280094D79306803ED4D79306401FB4C394430B
:100A3800A2401244BD9A94C3D44B93E61600D4CB7B
:100A4800944393E6060894C3D44FF18E1966D18E69
:100A5800D4CFD44F558FD8CFF843A166558FF8C35C
:100A680098431367170098C33101828023ACA19083
:100A78007D57239AE190828083A5419051113705D3
:100A8800580206C4EFF0DF89A2403101828051117B
:100A98001305800C06C422C226C0EF10C023B70677
:100AA8000140DC4261777D17F98F37250140DCC2B0
:100AB80013050540EF1080240147B72201401D436C
:100AC80085466D46138502400C49B317E30093C76A
:100AD800F7FFED8FB395E600CD8F1CC90D07E31323
:100AE800C7FE13060040A145EF0090729357A5403A
:100AF800960723A2F1909355254099473705C012D0
:100B0800A388F19023890190EFF01F8185678D07F5
:100B180063D1A70685469547A388F1902389D1908C
:100B2800B7170240984F1367170098CF984F13676D
:100B3800070298CF930580047945EF003070294566
:100B4800EF106019B7170140938707409C4793F748
:100B58000704F5F7B7060140DC42370700F97D17AF
:100B6800F98F37070004D98FDCC283C721917545F7
:100B780091E379458145EF00706C81450945EF00A7
:100B8800F06B03C6119137240140854513050440D5
:100B9800EF00305F130404401C44370740007D45D4
:100BA800D98F1CC4EF106011193DEFF09F911244CA
:100BB800A24082443101EDB493964500938741D514
:100BC80013571500B697BA97137715009C2311E3AE
:100BD800918713F7F7000A058A05A18B1375F50F9E
:100BE80093F5F50F99EB09CF2E86AA850D658547F4
:100BF800114791461305458651B1A5476305F7008E
:100C08009146114635BE2E86AA850D658547114742
:100C1800914613058586CDB7411122C406C626C262
:100C2800014481449375F40F13F5F40F2EC069370E
:100C38008504930700028245E398F4FE0504C14742
:100C4800E311F4FEB240224492444101828093971A
:100C58004500135715003E97938641D5BA969C22B6
:100C680093761500138341D591EA1206BD8BD18F77
:100C780013F6F70FB307E30090A33DBFC19B5D8E4A
:100C8800D5BF9205938741D513571500AE97BA97EC
:100C980005899C2311E1918713F5F7008280511192
:100CA80022C226C02A84AE84138581D4B285014627
:100CB80006C4EF10403593172500B307F540B385F8
:100CC80087001244A240138614008244138581D4FD
:100CD800310149B6411122C426C22AC0AE84138507
:100CE80081D4B285014606C6EF10E031138581D460
:100CF80022448245B240138614009244410199BEB1
:100D0800511122C226C02A84AE84138581D4B285AB
:100D1800014606C4EF10202F93172500B307F540AE
:100D28008607B38587001244A240138614008244C4
:100D3800138581D4310139BE096551115146954554
:100D48001305052106C43936096513064002A14575
:100D5800130585210136A240096513064003954510
:100D6800130505223101FDB403A6C1E85111E5457B
:100D7800514506C42D3703A6C1E793059002514596
:100D8800393FA24003C6A1E99305900351453101BB
:100D980039B7511126C0938741E590438D45130516
:100DA800D00622C206C405443537938441E593171B
:100DB8002400A69790439315340093771400910567
:100DC80089EF13055006393705049D47E311F4FEF2
:100DD800A24012448244310182801305B0060D37C7
:100DE800E5B783C771E90967211192071307472CF3
:100DF80026C606CA22C8BA978144139724003E978C
:100E0800014493F5F40FB3068700902213053400CC
:100E18001375F50F3EC43AC22EC0153D0504914620
:100E280082451247A247E310D4FE8504E39784FC69
:100E3800D2404244B24461018280511106C4E93B68
:100E4800E53D1D37B937713FA24031016FF0AFF969
:100E580089660111931746009386462C26CA06CE4A
:100E680022CC2A832E87B697814493962400BE9677
:100E78000144B302970033868600102215C2330559
:100E8800830093F5F20F1375F50F3AC836C63EC4C2
:100E98001AC216C06D3B4247B246A247124382426D
:100EA80005041146E319C4FC8504E39084FCF24070
:100EB8006244D24405618280896601119317460015
:100EC8009386462C26CA06CE22CC2A832E87B6972E
:100ED800814493962400BE960144B302970033865A
:100EE800860010221DC23305830093F5F20F2146B8
:100EF8001375F50F3AC836C63EC41AC216C0813BF0
:100F08004247B246A2471243824205041146E318FB
:100F1800C4FC8504E39F84FAF2406244D24405612C
:100F280082802111896726C69387472C931446002F
:100F38001387450006CA22C8AA86BE941377F70FFE
:100F48003D469142814713F4F50F8C20850485C5F1
:100F58003AC4636F86023385F600A2851375F50FD0
:100F68003EC236C0393B21438246924722473D461E
:100F78009142631F65008507E39957FC05049315A3
:100F880084019377F40FE185E31EF7FA054511A074
:100F98000145D2404244B2446101828009677971B7
:100FA800931746001307472C26D2B384E70093779C
:100FB800F50F138717003EC69377F70F22D406D68E
:100FC8002EC0014402C23ECC82452E85EFF04FB3BD
:100FD8001C80E2462ACA938517003EC493F7F50F92
:100FE80001473EC801A89C3005078506D5C7AE84D1
:100FF80093F6F60F8C20DDC1D24709463E9482470E
:10100800635EF60835466347F602B247C24536D0F6
:101018003385E7001375F50F3ACEA531A145724720
:1010280082566319B50092478D456384B700CC207A
:1010380091E15914A2451385E6FF1375F50F3AD0CF
:1010480036CE8131A145F24602576317B50001C774
:1010580083C5F4FF91E17914A24536853AD036CE9E
:101068000D31A145F2460257631AB5020D45938525
:101078001400E31AA7F67914AE8483070101114717
:101088003EC0924785073EC2E390E7F4B2502285FE
:101098002254925445618280791491BF85060507D0
:1010A8009147850493F6F60FE316F7F4F9B7411163
:1010B80022C42A8409651305054406C626C2EFF032
:1010C800FF9A83A7C1E7850723AEF1E67139A947DF
:1010D800AD44A28526853EC06D362A861385F4FF69
:1010E800A2851375F50FA536850493F4F40F5147BF
:1010F8008247E390E4FE2146A2854D45893EEFF004
:101108008FCE13052003EF00103D8247FD1793F79C
:10111800F70FDDFF0DE02944228521468145053E74
:1011280005041374F40FD147E318F4FEB2402244C7
:101138009244410182809307F4FFA94493F7F70F83
:10114800BE8526853EC0353E2A86A285268501367F
:10115800850493F4F40F51478247E393E4FE3E84F9
:1011680055BF311126C406C822C6BD47294493F588
:10117800F70F22853EC22EC02936214692476303C7
:10118800C50205041374F40F51478245E313E4FEC6
:101198002E853EC0293F03A741E782477D1723AA32
:1011A800E1E6E9B7FD177D57E392E7FC83A741E73E
:1011B800634AF00683C7A1E925476365F70603C7B5
:1011C80001E72DE38507238DF1E8793E03C7A1E9FF
:1011D8008967938707267D170A07BA979C4309658D
:1011E8001305453F23AAF1E6EFF05F88096513066A
:1011F80000029305700213058522EFF0AFE5EFF0CA
:101208008FBE1305803EEF00102D0539EFF04FFA21
:10121800EFF06FBD3244C240A2441305800C510167
:101228006F00702BC2403244A24451018280511198
:1012380022C203C771E906C4238CE1E80A07938731
:1012480041E5BA979843050798C3A1361945EF00B9
:101258007060A38BA1E871363947238BE1E803C797
:10126800A1E9A38A01E87D1789670A079387872878
:10127800BA979843A24023A8E1E803A741E812449B
:1012880023A0E1E8238A01E831018280411122C4C8
:1012980026C206C62AC0AE843284613101C982479B
:1012A800238BF1E8A38A91E8238C81E8B240224499
:1012B800924441018280411122C426C206C62A8472
:1012C8002EC0B284E13731E51374F40F1305F4FF2F
:1012D8008245620526866185553F05ED1305140094
:1012E8008245620526866185553705E51305E4FFC5
:1012F8008245620526866185513F01ED130524006C
:1013080022448245B24026869244620561854101A5
:10131800B5BFB24022449244054541018280411143
:1013280022C426C206C62AC02E84B284693715E5AF
:101338001374F40F930514000245E2052686E1852F
:101348009D3F01ED9305240022440245B2402686C4
:101358009244E205E1854101B9BFB240224492447A
:101368000545410182808965511113060010938556
:10137800450F138541D506C422C2EFF0CF81EFF0A7
:10138800BF89EFF07F9BA38B01E80547238DE1E838
:10139800294723AAE1E623A601E8138441E51307B8
:1013A800803E23AE01E623A2E1E8232004002322A5
:1013B8000400232404002326040023280400232AED
:1013C8000400232C0400A5351C40FD171CC08535DE
:1013D800EFF09F9903C681E9838551E91244A24041
:1013E800038561E931016FF0BFA603C681E98385F2
:1013F80051E9038561E9411122C406C626C2EFF00E
:101408005FB205444DE183C701E72A849DEB03C71A
:10141800A1E983C691E963F4E600A38CE1E803A798
:10142800C1E883A681E863F4E60023A4E1E803A702
:10143800C1E783A681E763D4E60023ACE1E6EFF0D9
:10144800BF9209651305C542EFF04FE2A947096746
:101458001305072313060002930540023EC0EFF070
:101468006FBFEFF04F9813054006EF00D006EFF07E
:10147800DF9C13054006EF00100682470967FD1739
:10148800E1FB83C701E785E31306000293054002E9
:1014980013050723EFF00FBCEFF08FD1EFF00FCE5D
:1014A80075DDEFF09F99B2402285224492444101B4
:1014B8008280511122C22A8409651306000293050D
:1014C800D0021305C52306C4EFF0CFB8EFF0AF91F3
:1014D800EFF00FCE05C413044006EFF02FCA19E54C
:1014E800130540067D14EF00007F65F8EFF0FF94C8
:1014F800A2403325800012443101828037D49A3BC0
:10150800130404A0D9BF111106CC22CA26C8A13DD4
:101518000545453759C9EFF00F8D2945EF00A07BE8
:1015280083A701E8D91723A0F1E8634EF00803C6A2
:1015380081E9038561E9838551E9EFF0FF978387A6
:1015480051E9038761E9938517003EC603C681E91F
:10155800E205E1853A8532C42EC23AC0EFF07F9C9D
:101568009245224635E5B2470245BE85EFF05F8ECB
:1015780083A7C1E883A601E9B69723A6F1E8EFF0AF
:10158800AFFE09651305C545EFF04FCEEFF07FBDFF
:10159800EFF06F8513052003EF00E0734939B1358B
:1015A80019E9D1330545313719ED0145E240524477
:1015B800C2447101828003C681E9838551E90385AC
:1015C80061E9EFF0FF8883C741E9E39607F40DA0CE
:1015D8000245A38AB1E8EFF0BF8783C741E98DE7E9
:1015E80083A741E823A0F1E883A701E96342F00259
:1015F800EFF0CFB8994763E1A70C89679387472431
:101608000A053E951C418287A94723A0F1E821B726
:10161800FD1723A8F1E8E9BF038561E903C681E95D
:10162800838551E9EFF05F8983C461E98504838587
:1016380051E903C681E9E204E184268532C22EC05D
:10164800EFF03F8E8245124619C1238B91E803853E
:1016580061E9EFF0EFFFC1B5038561E903C681E9F0
:10166800838551E9EFF05F8583C461E9FD14C1B753
:101678000547238AE1E803A701E8A947E3DDE7E88E
:1016880069B703C681E9838551E9038561E9EFF00C
:10169800BF8203C681E989679387072BB297838541
:1016A80051E99023038561E99D3903C681E9838562
:1016B80051E9038561E971BFEFF08FAFA9BD054519
:1016C800F5B51301C1FC22D6838761E906D826D473
:1016D8003EC6838751E932453EC883C781E9C24582
:1016E8003E863ECAEFF04FFD91473ECC02C403C789
:1016F80081E989679387072BBA97838551E99023F6
:10170800038561E9EFF0BFC1838551E903C681E92B
:1017180083C461E932C22EC0FD14E204E184268547
:10172800EFF03F808245124635ED838761E93EC080
:10173800838751E93ECE83C781E93EC2838751E959
:101748001246024593851700E205E1853ED22ED068
:10175800EFF02FFD8255925729E912460245BE85C2
:10176800EFF0DF83F2472A87A38AF1E8A24763D123
:10177800A70482473AC43EC6F2473EC892473ECACB
:1017880083C761E903C681E98507838551E9E207D3
:10179800E1873E853EC0EFF0CFF81DC98247238B15
:1017A800F1E861B7238B91E8A5B7A38AB1E879B7C7
:1017B800A247E397A7FC2AD0EF00F00693578500CD
:1017C800C207C1839306F0040257E3F4F6FA4DBF4B
:1017D800E247FD173ECCE39C07F00305C1008305F3
:1017E800010103464101238BA1E83254C250A38A68
:1017F800B1E8A254238CC1E8130141036FF04FE50F
:101808001111854706CC22CA26C82388F1E6EFF0D5
:101818009FB5453DEFE03FDD1305800C6D29EFF0E6
:10182800EF956316050AEFE01FDC13052003652119
:1018380003C681E9838551E9038561E9EFF0CFE7C4
:10184800838751E9038761E9938517003EC603C67C
:1018580081E9E205E1853A8532C43AC02EC2EFF04B
:101868004FEC2246B24701C992450245A38AB1E826
:10187800EFF00FDE4DBF0245BE85EFF06FDD83A7A9
:10188800C1E883A601E9B69723A6F1E8EFF0CFCD2A
:1018980009651305C545EFF06F9DEFF09F8CEFE0EC
:1018A8009FD41305800C0529EFF07F98EFF0FFB364
:1018B80019CD038561E903C681E9838551E9EFF014
:1018C8002FD9EFE05FD21305800C312199B7E240A0
:1018D8005244238801E6C24471018280511106C432
:1018E80022C226C013054006FD26EFF06F8C09655D
:1018F800C1471307000493060008014681451305F4
:101908004546EFE0BFF7FD54EFE0FFCDEFF00F875E
:101918001DC5B7F700E0944783A741EAB69723A20D
:10192800F1EA0547A38CE1E823A401E823AC01E62A
:10193800238801E6EFF03FBD55F5D935E5BFEFF057
:10194800AF9313042503E38384FC1306E002A28506
:10195800138581EA4D2D1375F50F95476311F5022F
:10196800938781EA130760051306A00393052006F1
:10197800138581EAD8A3EFE0FFEDEFE0DFC6A2848C
:1019880071B7994763C2B702FD15139725005459DB
:101998002E97FD47B397E70093C7F7FFF58F3317E7
:1019A800E600D98F5CD98280B14763C3B702E515D9
:1019B8001397250014592E97FD47B397E70093C74F
:1019C800F7FFF58F3317E60033E6E70010D982807A
:1019D800CD151397250054552E97FD47B397E7006B
:1019E80093C7F7FFF58F3316E6005D8E50D58280DA
:1019F8005C5937074000819BCD8F5CD91C45D98F36
:101A08001CC51C41898BF5DF6845420541818280F0
:101A1800311122C626C406C82AC0328481446348CC
:101A28008000C24032442685A2445101828002458A
:101A38002EC27D14753F9245AA94D5B7B7071000FA
:101A480013573540938727043E972A0793767500E6
:101A5800104313952600BD47B397A70093C7F7FF18
:101A6800F18F13F6F5003316A600D18F1CC3930728
:101A7800700263DBB7000545930780023315D50074
:101A88006393F500420508CB8280B7F7FF1F83C731
:101A9800477D1307F00F6393E700C147B71602406D
:101AA8009842FD8B8E07137777F0D98F9CC282807E
:101AB800371702405C43511122C289833704002042
:101AC80006C426C08D8B8546130404026384D7049C
:101AD80089466383D704084048C4B7140240D840F5
:101AE8008D679387478A0D83798BBA978E23EFE0AA
:101AF8003F8308C8D8408D67938747882D837D8B9F
:101B0800BA978C23EFE0DF81A24048C81244824490
:101B1800310182804840C9B75C43C183858B81E726
:101B28000840060555BF4840EDBF372702401C4313
:101B3800511106C4F19B93E717001CC3B937371737
:101B480002401C4393E717001CC3B7170240984391
:101B5800098B75DFD843719BD8C3B7170240D843A8
:101B680009830D8B6DFFD843B70600F9FD16758FF5
:101B7800D8C39843B706F7FEFD16758F98C39843E8
:101B8800B706FCFFFD16758F98C39847F9769386BC
:101B9800F62F758F98C79847B7069D006146558FF1
:101BA80098C7D8431377F7F0D8C38D679386C7864D
:101BB8002D479387C786EC2A6375B6007D17F916FB
:101BC8007DFB060737160240BA9754429C3341778B
:101BD8001307F77F758FAE07D98F5CC2D13DB70762
:101BE8000020938707029C4B372602401842B7C64D
:101BF8008C01938606A8B3B7D700A24093C71700F5
:101C0800719BD98F1CC231018280B7F700E09843DD
:101C1800799B98C39843759B98C39843136747006B
:101C280098C398430607058398C30D6723A4070044
:101C38001307F7ED98CBD843799BD8C398435D9B9E
:101C480098C323AE01E898431367170098C38280AE
:101C5800B7170240D853511123A0E1EA856706C49B
:101C680022C226C0938787380100FD17F5FF753D0E
:101C7800B7170240D84B13675700D8CB984F8566E3
:101C8800938656A3558F98CFD84FB7062010850650
:101C9800558FD8CF0D648D648D3F130444FC938415
:101CA80044FC636894001244A240824431016FE00E
:101CB8001FDE1C4011048297EDB737F700E0931739
:101CC80015001447AA978E0737F600E01846158FB7
:101CD800E36EF7FE828099655111938505DC06C491
:101CE800EFE00FE2B7F700E09847B7F600E09C4650
:101CF800998FE3EEA7FEA240310182805111B727E8
:101D0800014006C4938707406311F502B7170240E4
:101D1800984F1367072098CFD84713670720D8C76D
:101D28000100D8471377F7DFD8C71C453707F2FFFC
:101D38007D17F98F37070E00D98F1CC51C4537074B
:101D48001000D98F1CC55C55370710FF7D17F98F18
:101D58005CD51C4593E717001CC50545AD3FB72763
:101D6800014093870740D843B70600FAFD16758FE0
:101D7800B7060002558FD8C39847B72601401367A6
:101D8800870098C7938706409847218B65FF984737
:101D98001367470098C737270140930707409C47B8
:101DA800918BE5FFA24031018280B73701409387CC
:101DB80007C06312F502B7170240D84785669386B5
:101DC8000680558FD8C70100D847FD769386F67FE1
:101DD800758FD8C78280B7070040E31DF5FEB71797
:101DE8000240984B1367170098CB0100984B799BDA
:101DF80098CBCDB7B7370140938707C0631BF50071
:101E0800B71602409C4E056713070780D98F9CCEF2
:101E18008280B7070040E31DF5FE371702405C4F8C
:101E280093E717005CCFEDB7411106C622C426C25E
:101E38002A8432C0AE847D3F2285853F1C440246F9
:101E4800FD14E19B1CC404D450D45C48B2409244B5
:101E580093E717005CC81C48F99B1CC85C4493E7CF
:101E680017005CC41C4093E717001CC022444101C2
:101E78008280111132C636C43AC23EC006CC22CA8C
:101E880026C82A84AE84BD37228505370C443246DD
:101E9800A246E1990CC47D1610D454D4144082474C
:101EA8001247BD9A14C0144093B71700990793E6D8
:101EB800060814C08D466381D40A63C99602854614
:101EC800638AD40489466387D4067C402167E2404C
:101ED800D98F7CC05C48C24493E717005CC81C409B
:101EE80093E717001CC05244710182809146E39E1B
:101EF800D4FC38C0584CE576FD16758FB207D98FDB
:101F08005CCC5C4C056793060780D58F5CCC1C5075
:101F1800D98F39A858D8184C92071377F7F8D98F62
:101F28001CCC1C4C93E787001CCC1C5093E7170073
:101F38001CD061BF18DC184CE576FD16758FB2070A
:101F4800D98F1CCC1C4C056713070780D98F1CCC74
:101F58001C5093E70701E9BF58DC584C92071377E8
:101F6800F7F8D98F5CCC5C4C93E787005CCC1C50AD
:101F780093E7071075BF130181FC22D806DA26D62D
:101F88002AC42EC0A304010281460147130491020A
:101F98000245A94532CC36CA3AC8EFE06FB82AC222
:101FA80002459307F4FFA9453EC6EFE02FBA424722
:101FB800D246824513050503A30FA4FE2545B24763
:101FC80062469304170085068D43636FB50022456A
:101FD80013062700BE85EFE00FBCD2504254268579
:101FE800B254130181038280639A760001CAA38FD9
:101FF800C7FE930427009307E4FF814612473E84F7
:102008003AC0268771B763C30500B5B7511106C436
:102018009306D00214A1B305B0400505A93FA2401C
:10202800050531018280511122C203A541EAB74555
:1020380003009385D53F06C4EFE08FACB7A7260011
:10204800938737EC3E9523A2A1EAA240124441812E
:102058003101828015C5511122C226C006C42A84C6
:10206800FD540D20B3D4A40093F4F40F6D3F2181E7
:10207800658DE36DA4FEA240124482443101828042
:1020880001458280C1676375F5029337051093C7D0
:1020980017008E07130700021D8F3355F500971799
:1020A80000009387E7E1AA9788233305A740828039
:1020B800B7070001637FF500C1473355F50097174F
:1020C80000009387E7DFAA97882341473305A74095
:1020D8008280E1473355F50097170000938747DE64
:1020E800AA97882321473305A740828090000000E3
:1020F80009888888888890000000000990000000FE
:1021080009888888888890011110000990000000CB
:1021180009888888888890000000000990000000DD
:1021280009888888888890000002200999999999D7
:10213800998888888888900000022009900000000B
:10214800098888888888903330000009900000004A
:10215800098888888888903000000009900000006D
:102168000988888888889000000444099999999971
:1021780099888888888890000000040990000000E9
:102188000988888888889055000000099000000018
:102198000988888888889005500000099000000008
:1021A8000988888888889000000066099999999913
:1021B8009988888888889000000660099000000047
:1021C8000988888888889077700000099000000046
:1021D8000988888888889007000000099000000016
:1021E8000988888888889000000000097800AED5A2
:1021F80080A83FD300408D14A0C0DA128120D9F105
:10220800DB402000AF00000053434F524500000060
:102218004C494E45000000004C4556454C00000016
:102228004C4556454C55500047414D454F56455233
:102238000000000050415553450000001E150000E5
:10224800201600008A1600006016000078160000AC
:102258008A160000C61600000A00000014000000DC
:10226800320000006400000096000000FA00000040
:1022780090010000F4010000BC02000000CA9A3B73
:102288000A00000014000000320000006400000092
:10229800C8000000F4010000E8030000D0070000B7
:1022A80088130000102700000701080B0E0F10000C
:1022B800090A020C0D0304051112060000000000B3
:1022C8000101010100000000000000000000000002
:1022D80000020200000202000000000000000000EE
:1022E80003030300030000000000000000000000DA
:1022F80004040400000004000000000000000000C6
:1023080005050000000505000000000000000000B1
:10231800000606000606000000000000000000009D
:102328000707070000070000000000000001000088
:10233800000100000001000000010000000300008F
:10234800000300000003030000000000000000007C
:102358000000030003030300000000000303000063
:102368000003000000030000000000000004040057
:10237800000400000004000000000000000000004D
:102388000400000004040400000000000004000031
:102398000004000004040000000000000005000024
:1023A8000505000005000000000000000006000010
:1023B80000060600000006000000000000070000FC
:1023C80000070700000700000000000000000000F0
:1023D80000070000070707000000000000070000D2
:1023E8000707000000070000000000000400ED0ED1
:1023F8000400E8070400170E0400600804004C0DF0
:102408000400E00804008D0C040067090400D90BDF
:102418000400F60904002E0B04008E0A08002E0B97
:10242800000000000800E0080800D90B0800ED0EC5
:102438001000C011000000000100DC1D01009A1A04
:102448000100B31701005E160100ED130100C01171
:10245800000000000100DC1D000000008000018079
:10246800000C00000800003E03F8007F8000018097
:10247800000C00000800000E03C0001F800001804F
:10248800000C00000800000603000007FF00FF80A2
:10249800FFFFF80FF807FE060300FF07FF00FF80A5
:1024A800FFFFF80FF807FE060300FFFFFF00FF809D
:1024B80001FFF80FF800000E0380003FFF00FF80C7
:1024C80001FFF80FF800007E03E00007FF00FF801F
:1024D800FFFFF80FF800001E03FFFE03FF00FF8058
:1024E800FFFFF80FF807FC060301FE03FF00FF805B
:1024F800000FF80FF807FE0603000003FF00FF8037
:10250800000FF80FF807FE0603800007FF00FF80A2
:10251800000FF80FF807FE0603E0001FFFFFFFFF9C
:10252800FFFFFFFFFFFFFFFFFFFFFFFFFFFFFFFFB3
:10253800FFFFFFFFFFFFFFFFF8FFFFFFFFFFFFFFAA
:10254800FFFFFFFFFFFFFFFFE1FFFFFFFFFFFFFFB1
:10255800FFFFFFFFFFFFFFFFC7FFFFFFFFFFFFFFBB
:10256800FFFFFFFFFFFFFFFFCFFFFFFFFFFFFFFFA3
:10257800FFFFFFFFFFFFFFFFCFFFFFFFFFFFFF8111
:10258800FFFFFFFFFFFFFFFF803FFFFFFFFFFFBDD4
:10259800FFFFFFFFFFFF7FFC000FFFFFFFFFFFA50F
:1025A800FFC003FFFFFF7FF8000FFFFFFFFFFFA53E
:1025B800FFDE7BFFFFFE3FE00007FFFFFFFFFFBDE1
:1025C800FFD24BFFFFFE3FC00003FFFFFFFFFF816D
:1025D800FFD24BFFFFFF1FC00003FFFFFFFFFF817C
:1025E800FFDE7BFFFFFF00000001FFFFFFFFFFBDD5
:1025F800FFC003FFFFFF80000001FFFFFFFFFFA5F3
:10260800F000FFFFFFFFE078F001FFFFFFFFFFA5ED
:10261800F79EFFFFFFFFE058B001FFFFFFFFFFBD80
:10262800F492FFFFFFFFFE78F001FFFFFFFFFF813D
:10263800F492FFFFFFFFFC000003FFFFFFFFFF8195
:10264800F79EFFFFFFFFFC000003FFFFFFFFFFBD3A
:10265800F000FFFFFFFFFC000003FFFFFFFFFFA5E7
:10266800FFFFFFFFFFFFFC00000FFFFFFFFFFFA5BD
:10267800FFFFFFFFFFFFFC00000FFFFFFFFFFFBD95
:10268800FC0000FFFFFFE3C7800007FFFFFFFF819B
:10269800FDE79EFFFFFFE3C7800003FFFFFFFF8109
:1026A800FD2492FFFFFFE3C7800003FFFFFFFFBD8C
:1026B800FD2492FFFFFFE000000000FFFFC003A51C
:1026C800FDE79EFFFFFFF0000000007FFFDE7BA517
:1026D800FC0000FFF03FFC000000007FFFD24BBD74
:1026E800FFF03FFFF7BFFFFF0001E07FFFD24B8104
:1026F800FFF7BFFFF4B87FFC0001E07FFFDE7BFF40
:10270800FFF4BFFFF4B83FF80001E07FFFC003FF0C
:10271800FFF4BFFFF7B01FC00003C07FFFFF0380B7
:1027280007F7BFFFF03000000003007FFFFF7BBC0E
:10273800F7F03F0000380000000600FFFFFF4BA441
:1027480097FFFF79E7BF0000000603FFFFFF4BA4D8
:1027580097FFFF4924BF8000000703FFFFFF7BBCF2
:10276800F7FFFF4924BFFFFF0007CFFFFFFF0380EC
:1027780007F03F79E7BFFFFF0003FFFFFFFF03FEFE
:102788000017BF00003FFFFF0001FFFFFFFF7BFEB8
:10279800F3D4BFFFFFFFFFF80001FFFFFFFF4BFE71
:1027A8009254BFFFFFFFFFF00000FFFFFFFF4BFE4B
:1027B8009257BFFFFFFFFFE000007FFFFFFF7BFE98
:1027C800F3D03FFFFFFFFFC00F801FFFFFFF03FE97
:1027D80000100003FFFFFFC07FE00FFFFFFFFFFFB8
:1027E800FFF79E7BFFFFFFC1FFFE03FFFFFFFFFF19
:1027F800FFF4924BFFFFFFC1FFFE03FFFFFF000046
:1028080000F4924BFFFFFFC1FFFE03FFFFFF79E7D4
:102818009EF79E7BFFFFFC01FFF007FFFFFF4924A7
:1028280092F00003FFFFFC01FFF007FFFFFF4924C0
:1028380092FFFFFFFFFFF801FFF07FFFFFFF79E73F
:102848009EFFFFFFFFFFF803FFFFFFFFFFFF0000F2
:1028580000FFFFFFFFFFFC07FFFFFFFF0866600C9C
:1028680010F640F002000404061008050C141006C7
:10287800181520073016400F6017801F0202020249
:102888000408102004040404081020400606060664
:102898000C18306008080808102040800100020069
:1028A80003000400050006000700080002000400F9
:1028B80008001000200040008000000100A830300F
:1028C80050207020707060701020202000002020A0
:1028D8000000202000002020000020200020485078
:1028E800F8C8401010205020000000087060707078
:1028F80030F070F870700000100040607070F07078
:10290800E0F8F87088F8089080888870F070F070A7
:10291800F88888888888F8388070200060008000EF
:10292800080030008020084040000000000000003F
:10293800200000000000001820C02808001CE0FC4F
:10294800001CE0FC001CE0FC001CE0FCFFFFAFAF3B
:10295800FFFFAFAFFFFFAFAFFFFFAFAFFFDFB7AF17
:102968000737BFEFEFDFAFDFFFFFFFF78F9F8F8FD7
:10297800CF0F8F078F8FFFFFEFFFBF9F8F8F0F8FB7
:102988001F07078F7707F76F7F77778F0F8F0F8F67
:1029980007777777777707C77F8FDFFF9FFF7FFFFF
:1029A800F7FFCFFF7FDFF7BFBFFFFFFFFFFFFFFF8F
:1029B800DFFFFFFFFFFFFFE7DF3FD7F7005448784F
:1029C800F870A870D8A85020187060203000202017
:1029D800000020200000202000002020002048F8CF
:1029E800A0D0A020201020200000001098A00808E7
:1029F800508080088888202020F8201088888888BF
:102A080090808080882008A080D8C888888888809E
:102A180020888888505010204010500090788038C6
:102A280008704078F000005040D0F070F07838F02E
:102A3800708888889088F02020205008001CE0FCCE
:102A4800001CE0FC001CE0FC001CE0FCCF1FAFAF4A
:102A5800FFFFAFAFFFFFAFAFFFFFAFAFFFDFB707BE
:102A68005F2F5FDFDFEFDFDFFFFFFFEF675FF7F766
:102A7800AF7F7FF77777DFDFDF07DFEF777777776E
:102A88006F7F7F7F77DFF75F7F2737777777777F6E
:102A9800DF777777AFAFEFDFBFEFAFFF6F877FC726
:102AA800F78FBF870FFFFFAFBF2F0F8F0F87C70F9E
:102AB8008F7777776F770FDFDFDFAFF700A884FCBA
:102AC800F8F8F8F888F848F8FCF8FC2078E020E0F6
:102AD8003CFC3CFC20E020E03CFC3CFC002000509E
:102AE800F82068002010F8F810F80020A8207830A6
:102AF80090F0F0107078000040001020B0F8F080DE
:102B080088F0F098F82008C080A8A888F0A8F0708D
:102B1800208888A820202020201088006088F04085
:102B280078F8E0888860086040A88888888840C06D
:102B3800208888A8608830C020180010001CE0FC9D
:102B4800001CE0FC001CE0FC001CE0FC87FFAF2F31
:102B5800C303A323FF0FAF2F8303A323FFDFFFAF1D
:102B680007DF97FFDFEF0707EF07FFDF57DF87CFA5
:102B78006F0F0FEF8F87FFFFBFFFEFDF4F070F7F4D
:102B8800770F0F6707DFF73F7F5757770F570F8F7D
:102B9800DF777757DFDFDFDFDFEF77FF9F770FBF65
:102BA80087071F77779FF79FBF5777777777BF3F5D
:102BB800DF7777579F77CF3FDFE7FFEF005484FC3D
:102BC800F8F8A8F8A8D8D020182060F878000000F5
:102BD800000000002020202020202020000000F8F5
:102BE800285890002010202010003040C82080086D
:102BF800F80888208808002020F820008088888825
:102C080090808088882088A08088988880989008FC
:102C1800208850A8502040201010000000888840CC
:102C2800888040788820086040A88888F0784030FC
:102C3800208850A86078C020202000A00000000054
:102C48001C1C1C1CE0E0E0E0FCFCFCFC871FAFEF58
:102C5800FFFFBFFFAFEFAFEFBFFFBFFFFFFFFF07F4
:102C6800D7A76FFFDFEFDFDFEFFFCFBF37DF7FF7DC
:102C780007F777DF77F7FFDFDF07DFFF7F77777704
:102C88006F7F7F7777DF775F7F7767777F676FF70C
:102C9800DF77AF57AFDFBFDFEFEFFFFFFF7777BF1C
:102CA800777FBF8777DFF79FBF5777770F87BFCFCC
:102CB800DF77AF579F873FDFDFDFFF5F00A84878E8
:102CC8007070202088F8C05010202070300000005C
:102CD800000000002020202020202020002000507C
:102CE800F8986800102050202000308070F8F870A4
:102CF80010F0704070702040100040207088F07014
:102D0800E0F8807088F87090F8888870807088F093
:102D1800207020508820F838087000000078F038BB
:102D2800787840088870485020A88870800840F05B
:102D3800187820509008F01820C0004000000000CB
:102D48001C1C1C1CE0E0E0E0FCFCFCFCCFFFFF0FBF
:102D5800C3038303AF2FAF2FA323A323FFDFFFAF4B
:102D6800076797FFEFDFAFDFDFFFCF7F8F07078FA3
:102D7800EF0F8FBF8F8FDFBFEFFFBFDF8F770F8F13
:102D88001F077F8F77078F6F0777778F7F8F770F73
:102D9800DF8FDFAF77DF07C7F78FFFFFFF870FC72B
:102DA8008787BFF7778FB7AFDF57778F7FF7BF0F6B
:102DB800E787DFAF6FF70FE7DF3FFFBF0054303023
:102DC8002020707070700088002000200000000033
:102DD80000000000202020202020202000000000EB
:102DE80000000000000000000000000000000000DB
:102DF80000000000000000000000000000000000CB
:102E080000000000000000000000000000000000BA
:102E18000000000000000000000000FC00000000AE
:102E28000000007000003000000000008008000072
:102E3800000000000070000000000000000000001A
:102E48001C1C1C1CE0E0E0E0FCFCFCFCFFFFFFFF9E
:102E5800FFFFFFFFAFAFAFAFAFAFAFAFFFFFFFFFFA
:102E6800FFFFFFFFFFFFFFFFFFFFFFFFFFFFFFFF6A
:102E7800FFFFFFFFFFFFFFFFFFFFFFFFFFFFFFFF5A
:102E8800FFFFFFFFFFFFFFFFFFFFFFFFFFFFFFFF4A
:102E9800FFFFFFFFFFFFFFFFFFFFFF03FFFFFFFF36
:102EA800FFFFFF8FFFFFCFFFFFFFFFFF7FF7FFFF52
:102EB800FFFFFFFFFF8FFFFFFFFFFFFF0001020281
:102EC80003030303040404040404040405050505BA
:102ED8000505050505050505050505050606060696
:102EE800060606060606060606060606060606067A
:102EF8000606060606060606060606060707070766
:102F08000707070707070707070707070707070749
:102F18000707070707070707070707070707070739
:102F28000707070707070707070707070707070729
:102F38000707070707070707070707070808080815
:102F480008080808080808080808080808080808F9
:102F580008080808080808080808080808080808E9
:102F680008080808080808080808080808080808D9
:102F780008080808080808080808080808080808C9
:102F880008080808080808080808080808080808B9
:102F980008080808080808080808080808080808A9
:102FA8000808080808080808080808080808080899
:0C2FB800080808080808080808080808AD
:102FC40000B4000080FB010000E70200809F0300C2
:102FD400003104008092040080E30400C42800004F
:102FE40000366E0100366E0100F4010000366E01F9
:102FF40000127A0000093D000000000000000000FB
:10300400370600400C4A485281990CCA9386219194
:103014009422CDC605051D89060517060000130672
:10302400E600329502850100010001000100010063
:103034000100010001001385419483230500130559
:10304400001063D8A3081387C1931843B71701402E
:1030540093870780C14608239352650023A657002F
:10306400050793555500CCC7935545009352350039
:10307400CCC7102323A65700010093552500CCC7C5
:10308400FD1693551500CCC7931515009352660091
:10309400C8C701003285CCC7F1F2010023A607009E
:1030A4008D4533F5B3006315B5001386C19318C27B
:1030B400170500E01305C50A0285010093854194B4
:1030C40083A3050013050004970500E093852502FA
:1030D4008285170500E013056501028500000000E4
:0C30E400000000000000000000000000E0
:00000001FF
