:100000006F00800A00000000A4000000A4000000AF
:1000100000000000000000000000000000000000E0
:1000200000000000000000000000000000000000D0
:10003000A400000000000000A40000000000000078
:10004000A4000000A4000000A4000000A400000020
:10005000A4000000A4000000A4000000A400000010
:10006000A4000000A4000000A4000000A400000000
:10007000A4000000A4000000A4000000A4000000F0
:10008000A4000000A4000000A4000000A4000000E0
:10009000A4000000A400000040000020A400000014
:1000A000A400000001A001009701002093810179C4
:1000B00017210020130101F417350000130585CD29
:1000C00097050020938505F41706002013064602C5
:1000D00063FAC5008322050023A055001105910590
:1000E000E3EAC5FE1385418B938541D26377B50062
:1000F000232005001105E36DB5FE89629382028815
:10010000739002308D427390428097020000938278
:1001100062EF93E2320073905230EF101013971297
:1001200000009382A2BC739012347300203001004F
:0401300000000000CB
:100134001145B71601409305A01763C5B30693058F
:10014400B01763C07506C8CA639EB3049385418D16
:100154000395050021C91386C18D37370140130764
:1001640007C06347A0009386818D944214C239A0CE
:100174007D158AA105E91442910614C28A228AA136
:1001840019C9B62289CA54D7858234C308538565F0
:100194004D8D08D301A80853FD75FD156D8D08D349
:1001A40011A088CA85031306D02063CFC3008143FE
:1001B400138501900C4185050CC11705002013051A
:1001C40025F89385C18F88C113854190232075003C
:1001D4009383C18C83D70300372301401303034067
:1001E4000325C304930500406390F5049382818C36
:1001F40083A502002E9523A0A2001387018D0C2352
:1002040085050CA31306000263CAC500230007007A
:1002140023A002009382418C23A0A2002390030018
:100224009385118D8C21D1A89395F701850723908F
:10023400F30063DC050A9382818B83A502002E956B
:1002440023A0A20093050040E39CF5FC23A0020038
:100254009382418B23A0A2008145970200209382C0
:1002640022DA03A6C2006345C50093E58500C102F6
:1002740003A642006345C50093E54500A10203A619
:1002840002006344C50093E525009382018C03A515
:10029400020023A002009382C18B23A0A200970234
:1002A40000209382E2D503A6C2006345C50093E50E
:1002B4000502C10203A642006345C50093E5050497
:1002C400A10203A602006344C50093E505019382DD
:1002D400F18C03C502002380B2006316B50093823B
:1002E400E18C2380A200A14509A89382018C83A5F7
:1002F40002002E9523A0A2008145232AB302B7054C
:100304004000032583004D8D2324A3007300203077
:10031400634E050263C305042E86AA857D5515C266
:1003240085466378B6006356C00006068606E36C0D
:10033400B6FE014563E4C500918D558D8582058225
:10034400F5FA82808682C93F2E8582823305A040D9
:100354006347B000B305B040C1B7B305B04086826F
:10036400653F3305A0408282868263C705006349E6
:1003740005005D372E858282B305B040E35B05FE40
:100384003305A040513F3305B040828200002A83E8
:1003940009CA83830500230073007D1605038505C0
:1003A4006DFA82802A8311C62300B3007D160503EB
:1003B40065FE82802147B717014011469145CCCB99
:1003C40093168501E186094363C4060037030200DE
:1003D40023A867000100010001008CCB010001008B
:1003E400010006057D171375F50F71FB37170140E2
:1003F40050CB89450CCB944393F6F6F093E606086C
:1004040094C301000100010010CB010001000100B0
:1004140050CB0100010001004CCB98431377F7F057
:100424001367070198C3828083C7218D89EFB717AB
:1004340001400947D8CB0100010001001147D8CB86
:10044400010001000100828083C7218D89EFB71765
:100454000140114798CB010001000100094798CBE6
:10046400010001000100828083C7218D511122C245
:1004740006C42A849DEB4D3F13058007253F0145A3
:10048400153F137574001365050B2D3701451D3792
:1004940041450D37553F493F13058007213F12441D
:1004A400A24013050004310131B7A2401244A38CC9
:1004B400A18E238C018E3101828083C7218D91E32B
:1004C400D5BD511122C483C5818FAA8603C5918FDE
:1004D4003703002093D2354093177500BE929307DB
:1004E400031426C2969713C6F5FF1D8A8423054775
:1004F400130303143317C7001376F70F1AC093F3CB
:10050400160033E3C400639603001343F7FF33F389
:1005140064008244A6922380620083C3070193F29D
:10052400260033637600639602001343F7FF33F328
:10053400630083C307022388670093F2460033E312
:10054400C300639602001343F7FF33F3630083C3CE
:1005540007032380670293F2860033E3C3006396A4
:1005640002001343F7FF33F3630083C307042388B4
:10057400670293F2060133E3C30063960200134358
:10058400F7FF33F3630083C307052380670493F203
:10059400060233E3C300639602001343F7FF33F309
:1005A400630083C307062388670493F2060433E3D6
:1005B400C300639602001343F7FF33F36300238001
:1005C400670603C30707E206E1863366C30063C612
:1005D40006001347F7FF3376E3002388C706850533
:1005E4009307F00763D6B7000505A38CA18E814558
:1005F4002244238CB18E924431018280B5B503C765
:10060400218D511106C422C226C085476310F714F8
:1006140023A20190B70700203714024093870714E0
:1006240023AEF18E1C4C93E717001CCC1C4C93E7B3
:1006340047001CCC1C4C93E707011CCC1C4C93E7D3
:1006440007021CCC85454945EF10401FA54545458B
:10065400EF10C01E1C4C8564C58F1CCC5C44C58F38
:100664005CC401005C44FD761387F6FFF98F5CC41B
:10067400B737014098439386F67F370401401377D8
:1006840077FC1367870098C39843A5457945758F10
:1006940098C39843A166938404801377F7F798C3AB
:1006A40098431367072098C398431367071098C3A8
:1006B400D8436D9BD8C39843558F98C3984391668C
:1006C400558F98C398431367470098C3984313679B
:1006D400070498C35C44E19B93E747005CC4EF10B4
:1006E400E0155C4411777D17F98F3167D98F5CC4AD
:1006F4001307C00581479306A02F05468545370596
:100704000040EF10C050B70700401307B00798DF50
:10071400984FE576FD16758F98CF984F458F98CFF3
:1007240098531367070198D3984B6D9B98CBD84780
:1007340013674700D8C7A2401244B7E700E0130785
:10074400000423A2E710824431018280B7170140DC
:10075400094798CB114798CB85454545EF10000EC6
:1007640085454945EF10800D29458964EF10E03532
:1007740001445D39938484DCB30794008823050421
:100784001539E547E31AF4FEC1310945EF10E033AA
:100794001306F031854537050040EF10A04261BFD4
:1007A40083C7218DD5EB111122CA3704002026C836
:1007B40006CC13040414814426857D31A287930555
:1007C4000401A146130700088823902B798D798EA4
:1007D4003335A00019C21365250003C60702798EBC
:1007E40019C21365450003C60703798E19C2136540
:1007F400850003C60704798E19C21365050103C673
:100804000705798E19C21365050203C60706798E9A
:1008140019C21365050403C60707798E19C2136547
:1008240005082EC63AC43EC236C0693682462247FF
:100834009247FD16B2450587C1FA8507E393B7F8D9
:1008440021318504A14713040408E397F4F6E24038
:100854005244C244710182808280370500205111C4
:100864001306004081451305051406C4253EA24025
:1008740023AA018E23A8018E2386018E3101828052
:1008840093573540920537070020AE971307071496
:100894003E971345F5FF14231D898547B397A70099
:1008A40093C7F7FFF58F1CA382801307F0076367D4
:1008B400A7001307F0036363B700D9B78280935787
:1008C400354092053387B700B70700209387071494
:1008D400BA9794231345F5FF1D8905473317A700DD
:1008E400558F98A382801307F0076367A700130747
:1008F400F0036363B700E1B78280B707002003A762
:10090400C7010111856726CA93870780B304A7002E
:10091400A6972EC006CE22CCB2853EC283C6C18E17
:10092400802089C69347F4FF13F4F70F82470245EA
:10093400A1073EC493168401E1862EC82AC663D853
:10094400060255373245C2459317140013F4F70FC6
:10095400A2470505E310F5FE92479384041085052C
:10096400E39E97FAF2406244D24405618280353FA7
:10097400C2453245D1BF411122C426C206C62A84CB
:10098400AE840820050411E5B2402244924441019A
:100994008280A68532C095370246A104DDB703C61E
:1009A400218E1D479307160093F7F70F6373F70023
:1009B400814703C7118E6308F7001387418E32976E
:1009C40008A32381F18E828083C7E18C311193F7D0
:1009D400F70F83C6018E22C626C406C82380F18E73
:1009E4008944054433F7970019CB33F7960001EB9C
:1009F4001375F40F36C23EC05D3792468247050434
:100A04001D478604E310E4FEC2403244A24451016F
:100A14008280511122C206C42A847D3783C7E18CA7
:100A2400A24033D587401244058931018280511197
:100A340006C4593F83C7118E03C7218E0145630F36
:100A4400F7001387418E3E978507082393F7F70F26
:100A54001D476373F7008147A380F18EA2403101E3
:100A64008280511106C48D3703C5E18CA240133531
:100A7400150031018280511106C4E5377DDDA240A5
:100A840031018280511122C2371402401C4C06C429
:100A940093E717001CCC1C4C93E707011CCCA5451D
:100AA4005145EF00B059B7060140DC467177130792
:100AB400F73FF98FDCC61C4C056713070780D98FF5
:100AC4001CCC5C44D98F5CC401005C44FD769386E5
:100AD400F67FF58F5CC4B7370140938707C094470E
:100AE40065767D16E19A94C7DD4694D79306803ED9
:100AF400D4D79306401FB4C39443A2401244BD9A72
:100B040094C3D44B93E61600D4CB944393E60608DF
:100B140094C3D44FF18E1966D18ED4CFD44F558F50
:100B2400D8CFF843A166558FF8C3984313671700CD
:100B340098C331018280B7370140938707C0C8D773
:100B44000581A8C398538566558F98D38280239ACC
:100B5400018CB7370140938707C09853FD76FD1683
:100B6400758F98D3828083A5418C51113705600914
:100B740006C4EFF06FFAA2403101828051111305CF
:100B8400800C06C422C226C0EF003074B7060140B0
:100B9400DC4601777D17F98F37250140DCC6130544
:100BA4000540EF0070740147B72201401D4385469C
:100BB4006D46138502400C49B317E30093C7F7FF52
:100BC400ED8FB395E600CD8F1CC90D07E313C7FE67
:100BD40013060040A145EF00B0439357A540960784
:100BE40023A2F18C9355254099473705004BA388E0
:100BF400F18C2389018CEFF0AFF185678D0763D108
:100C0400A70685469547A388F18C2389D18CB7170D
:100C14000240984F1367170098CF984F1367070245
:100C240098CF930580047945EF0050412945EF00A2
:100C3400D069B7170140938707409C4793F707048F
:100C4400F5F7B7060140DC46370700F97D17F98F41
:100C540037070004D98FDCC683C7218D754591E31E
:100C640079458145EF00903D81450945EF00103DF0
:100C740003C6118D37240140854513050440EF0058
:100C84007030130404401C44370740007D45D98F5D
:100C94001CC4EF00F061FD339D321244A240824433
:100CA400310165BE511122C206C426C02E8401E959
:100CB4001244A24082442E8531016F0010619304D6
:100CC400F00F898C8604330494021385F4FFA53550
:100CD400135514402295EF00B05D1244A2408244A3
:100CE4003101B5B583C7218D511106C422C226C076
:100CF40091E7A536FD54253B19C9B53B8128EF0082
:100D04007009A24012448244014531018280A13D10
:100D140013042503E38184FE1306E002A2851385F0
:100D240041D1EF1000081375F50F9547631EF500C8
:100D3400938741D11307600571469305C00213855B
:100D440041D1D8A30D39A93CA28475B78280511131
:100D540022C209641304043B26C006C49304C405D8
:100D64000C30082009049385C5F993F5F50F1D3F50
:100D7400E31894FEA2401244824431018280AA877F
:100D8400930555001303F00F05459542BE86194798
:100D9400D022630566006303560001457D1713776F
:100DA400F70F950675F78507E392B7FE82805C51CD
:100DB4001CD55C551CD95C591CDD5C5D3CC1828032
:100DC4001C55185DBA971CD538411C59BA971CD9C3
:100DD4008280994763EDA7008967938747DE0A05F8
:100DE4003E951C418287DC599CDDDC5DBCC1828060
:100DF400DC59B307F040CDBFDC599CDDDC5DB307A3
:100E0400F040EDB7DC59B307F040C5BFDC5DB30774
:100E1400F0409CDDDC59E5B7DC512167B8C1BA97D5
:100E24009CD5DC559CD9E1779CDD8280DC5121671F
:100E3400BA979CD5DC559CD9E1779CDD45BF1C5500
:100E44003707210063CEE70237072400014563CB4F
:100E5400E70237072700054563C6E70237072A007C
:100E6400094563C1E70237072D000D4563CCE70050
:100E7400370730001305F00F63D6E7001145828071
:100E84001305F00F82801C593707040063C3E7047D
:100E940037070800014563C0E70437870B000545A1
:100EA40063CBE70237870F00094563C6E7023707BC
:100EB40014000D4563C1E70237071800114563CCE0
:100EC400E70037871B001305F00F63D6E7001545CD
:100ED40082801305F00F8280511106C422C22A8435
:100EE400B93F28A02285453728B0A24012443101D9
:100EF4008280511122C206C42A8426C0F13F3420C4
:100F04001307F00F01456386E6023C300145638216
:100F1400E7029544B3879702A297B697DC23639FB1
:100F24009700930520031305200DAD3B2300040017
:100F34000545A24012448244310182800145E38A7E
:100F4400E7FEA94513056009B13B3C303820B3875F
:100F540097023E943A94FD575CA0D9BF1855B787C1
:100F6400FDFFAA86BA972167636EF702034725053A
:100F7400834735050E073E971C593E07014563C458
:100F8400E702370608003A96634FF600998F130775
:100F9400800CB387E7020545CD879387C7F9238281
:100FA400F6048280014582801855B707350063CD69
:100FB400E70218595111817722C2BA9706C43787BC
:100FC4001B002A846368F700513F11C9A945130522
:100FD400C003C9390545A2401244310182802285EB
:100FE400093F3335A000C5BF054582809387B5FF0F
:100FF40093F7F70F05476365F706411122C41304FD
:10100400B5F806C626C21377F40F9947014563E97C
:10101400E70283464605AE84A945368536C0EFF01F
:10102400AFAF0967154682469377F50F1307C7409C
:10103400639DC4009D463385D7023A9522950821C5
:10104400B24022449244410182805956B387C70278
:10105400B6979D46B387D7023E9722970823CDB70C
:10106400014582809306D5FB13F3F60FF54763EB36
:101074006706FD1513F7F50F9547014563E5E70688
:10108400DD47114763E767008967938707E09A970D
:1010940098231543B38565020145B295BA95DC21C1
:1010A4009305F00F6381B704E9553307B702096567
:1010B40013054545369763906702142219468967DC
:1010C400B386C60293878747B697BA972A97882329
:1010D4007C2F5D8D82809946B387D7023E953A95E1
:1010E4000821828001458280B78703003707FCFF0F
:1010F40063CEA7009357F54063570500A167FD171A
:101104003E959357F54013F5F70F82803A95CDB786
:10111400511122C206C426C02A840305450493053E
:1011240040063E05EFF0CF9E3C403E95A16763D359
:10113400A7002165E1776353F50061751C540458D9
:1011440048DC5CD01C5C617544D45CD82695693F4E
:1011540093D7F4419D8BA6972308A404E55613D78F
:101164003740C98763D6D400A167FD17BA97BD87F6
:10117400A308F404A2401244824431018280511134
:1011840022C226C006C42A8423020504814422857F
:1011940039391C3099CFA2852685253922850D3110
:1011A4002285193519C5850493F4F40F9D47E390FE
:1011B400F4FE22851244A2408244310191BF834649
:1011C400160563EFD50A311126C406C8AE8422C6BB
:1011D40093851600AA87014563C19502585261732D
:1011E4003A93635103021304F7FF3D841374F40F1D
:1011F40033848740BE0763530402C2403244A2448E
:10120400510182801354F3401374F40F33848740E4
:101214000145E34404FEBE07E3C167FE21652A9746
:101224000145E34CF7FC0345060509E9E39796FC01
:10123400896793878749A2978823C1B75C566175EC
:101244002EC23E9536C04D35824692452A87639C10
:101254009600896793878749A29788233315E50009
:101264001375F50F59BF0145E399B4F8896793875E
:1012740087493E940820A147998F3355F540CDB74F
:10128400014582801307D5FF1377F70F8D46AA8790
:1012940063EBE6080347260501459306270063C56B
:1012A400B60863E3E5080345360511ED638EB6061B
:1012B4003387E5408966938606490A073697BA97C5
:1012C40003C5D7FF8280639DE500096713070749BB
:1012D400BA9783C7D7FFB397A70013F5F70F828098
:1012E40005076393E502096713070749BA9703C71C
:1012F400D7FF9C33A146898EB397A7003357D740B5
:101304005D8F1375F70F8280639FB60009678507A9
:101314001307074993F7F70FBA979C232147098FBF
:10132400B3D7E7405DBF01458280AA872E858DC56E
:10133400034766056361B702138797F81377F70FBE
:101344008946014563EAE60009671307C749BA9766
:1013540003C597F882800145828005E9238401D082
:1013640083C781D0354601476365F600850713F7C7
:10137400F70F2384E1D0994763E8B7029DC98967D1
:1013840093878721BA978823828093079006E3F98D
:10139400A7FC5947B385E502896793878722BE95E1
:1013A4002E95034565F982809D476389F5000145C3
:1013B4008280896793874734AA97F1B789679387AF
:1013C400872DDDBF8967130181FD938787E126CED1
:1013D40006D222D02AC42EC281443EC893F7F40F09
:1013E40026853EC0EFF08FA1424793977400BA97C9
:1013F4003EC60147A2471374F70FD1E71246824550
:1014040022853ACC8531124682452ACA2285453B3B
:10141400D24712468245C98F93F7F70F22853ECAF9
:101424009535D2478245C98F93F7F70F22853ECA77
:101434002D37D24712468245C98F93F7F70F22857D
:101444003ECAE535D24712468245C98F93F7F70F56
:1014540022853ECA613ED2475D8D1375F50FEFF0CC
:10146400CF856247930700080507E315F7F8EFE017
:10147400BFFD8504A147E393F4F692500254F2446D
:10148400130181028280A24685476391F602B24726
:101494003ACABA978823EFF04F8252470507930759
:1014A4000008E306F7FC1374F70FF1BFA24689475F
:1014B4000507E396F6FE824522853ACA793DEFE0B8
:1014C400DFFF524793070008E303F7FA1374F70F9B
:1014D400F1BFF9473305F50209671307074AF942D3
:1014E40013035500898DB386A50081473306E500B3
:1014F400B303F60083C3030095079506A38F76FE16
:10150400E39857FE0505E31065FE8280856785072D
:10151400231AF5048D47AA85230BF504230005003F
:10152400014545BF511122C206C42A84034545051D
:10153400914763F6A7006D151375F50FDDBFA285FE
:10154400493FA3000400A240124431018280930762
:1015540020402319F504B70704005CD11CD50347C8
:101564007505B70710005CD51CD9A1675CD91CDDD3
:10157400230005009307000263EAE700916793875D
:1015840087C25CDD3CC1A300050082808D67938720
:10159400A747C5BF1301C1F986D0A2CEA6CCEFF0F0
:1015A400CFAB8A850545393D1545EFF08FC609E572
:1015B4001945EFF00FC66DD91545EFF08FC56DFDD8
:1015C4001945EFF00FC56DF90A8589378A850945F4
:1015D400D53BEFF0CFF7034541058A857D1513759B
:1015E400F50FC53D0A85A53703447105937774004B
:1015F400B9EF1145EFF0EFC10DC10347310599462D
:101604008347210563E0E60A8E07BA979306B00282
:1016140063C5F6000507A309E1040945EFF06FBFB0
:1016240011CD034731058347210559C38E07BA9766
:10163400914663D5F6007D17A309E1049C8081EBF4
:101644001545EFF00FBD630405128547DC80834424
:1016540051052285A685EFE0FFCE1375F50F19E13C
:101664000A85313E9377F40181E78A850145993BE8
:10167400930700036317F40E1C8009476364F700A3
:1016840085075C80925763CC07020A85EFF02FEF41
:101694003DE505041374F40F1305401FA30B8104E7
:1016A400012999B78507A30901042309F104B5B7F2
:1016B4001D47FD17A309E1042309F10441B793056C
:1016C40040061305800CEFF0EFDD9305400613058B
:1016D4006009EFF02FDD9305400613054006EFF097
:1016E4006FDC9305400613052003EFF0AFDB83475F
:1016F4006105E38607EAFD17230BF104E5B59305BD
:1017040040061305C003EFF0EFD993054006130517
:101714000005EFF02FD99305400613054006EFF0BE
:101724006FD89305400613058007EFF0AFD79305F4
:1017340040061305C008EFF0EFD6A14763F5970004
:10174400F914A30A91048A850945AD3913050019D2
:10175400AD2E0A85C13B834741058507230AF10461
:1017640051B59307F003E3F687F2054435B7834791
:101774002105034731058E07BA97A907BE073ED650
:101784003ED8F1B5994763C2B7029547FD15B385B5
:10179400F5025859FD47B397B70093C7F7FFF98F80
:1017A400B315B600CD8F5CD98280B14763C2B7024E
:1017B4009547E515B385F5021859FD47B397B7006A
:1017C40093C7F7FFF98FB315B600CD8F1CD982806C
:1017D4009547CD15B385F5025855FD47B397B70026
:1017E40093C7F7FFF98F3316B6005D8E50D582800C
:1017F4005C5937074000819BCD8F5CD91C45D98F3C
:101804001CC51C41898BF5DF6845420541818280F6
:10181400311122C626C406C82AC0328481446348D2
:101824008000C24032442685A24451018280024590
:101834002EC27D14753F9245AA94D5B7B707100000
:1018440013573540938727043E972A0793767500EC
:10185400104313952600BD47B397A70093C7F7FF1E
:10186400F18F13F6F5003316A600D18F1CC393072E
:10187400700263DBB7000545930780023315D5007A
:101884006393F500420508CB8280371702405C431E
:10189400511122C289833704002006C426C08D8BCF
:1018A4008546130404026388D70489466387D704F2
:1018B4000840B714024048C4D84089679387075743
:1018C4000D83798BBA978E23EFE01FA508C8D84003
:1018D4008967938707552D837D8BBA978C23DC40CA
:1018E40063C307008545EFE03FA3A24048C8124404
:1018F40082443101828048406DBF5C43C183858B43
:1019040081E70840060575B74840EDBF3727024018
:101914001C43511106C4F19B93E727001CC33717DE
:1019240002401C4393E717001CC3B71702409843B7
:10193400098B75DFD843719BD8C3B7170240D843CE
:1019440009830D8B6DFFD843B70600F9FD16758F1B
:10195400D8C39843B706F7FEFD16758F98C398430E
:10196400B706FCFFFD16758F98C39847F9769386E2
:10197400F60F758F98C79847B7069D006146558F37
:1019840098C7D8431377F7F0D8C3896793868753EA
:101994002D4793878753EC2A6375B6007D17F91694
:1019A4007DFB0607B7160240BA97D0429C334177B5
:1019B4001307F77F718FAE07D98FDCC2DC4286072D
:1019C4008583DCC2D935B7070020938707029C4B77
:1019D40037C78C011307F7A78946636AF70037B73F
:1019E400120113070788B3B7E70093C61700372718
:1019F40002401C43A240F19BD58F1CC3310182805D
:101A0400B7F700E09843799B98C39843759B98C3B4
:101A140098431367470098C398430607058398C300
:101A24000D6723A407001307F7ED98CBD843799BE0
:101A3400D8C398435D9B98C323A601D098431367EA
:101A4400170098C38280B7170240D853511123A8B6
:101A5400E1D0856706C422C226C093878738010077
:101A6400FD17F5FF6535B7170240D84B13675700CC
:101A7400D8CB984F85669386D6A3558F98CFD84FE9
:101A8400B70620108506558FD8CF0D648D648D3F21
:101A9400130404D9938404D9636894001244A240C3
:101AA400824431016FF08F8D1C4011048297EDB791
:101AB400E1473305F502B7F700E09847B7F600E0D1
:101AC4009C46998FE3EEA7FE82809967938707DC93
:101AD4003305F502B7F700E09847B7F600E09C46F7
:101AE400998FE3EEA7FE8280B727014093870740D2
:101AF4006311F502B7170240984F1367072098CF78
:101B0400D84713670720D8C70100D8471377F7DFF2
:101B1400D8C71C453707F2FF7D17F98F37070E002A
:101B2400D98F1CC51C4537071000D98F1CC55C55BF
:101B3400370710FF7D17F98F5CD51C4593E7170015
:101B44001CC5054559B7B7370140938707C06312D1
:101B5400F502B7170240D847856693860680558FED
:101B6400D8C70100D847FD769386F67F758FD8C70E
:101B74008280B7070040E31DF5FEB7170240984B7B
:101B84001367170098CB0100984B799B98CBCDB77E
:101B9400B7370140938707C0631BF500B7160240AF
:101BA4009C4E056713070780D98F9CCE8280B707A8
:101BB4000040E31DF5FE371702405C4F93E7170022
:101BC4005CCFEDB7411106C622C426C22A8432C0B6
:101BD400AE847D3F2285853F1C440246FD14E19B73
:101BE4001CC404D450D45C48B240924493E7170018
:101BF4005CC81C48F99B1CC85C4493E717005CC490
:101C04001C4093E717001CC022444101828011113B
:101C140032C636C43AC23EC006CC22CA26C82A847A
:101C2400AE84BD37228505370C443246A246E1997D
:101C34000CC47D1610D454D4144082471247BD9A64
:101C440014C0144093B71700990793E6060814C00C
:101C54008D466381D40A63C996028546638AD40497
:101C640089466387D4067C402167E240D98F7CC0D3
:101C74005C48C24493E717005CC81C4093E7170014
:101C84001CC05244710182809146E39ED4FC38C04A
:101C9400584CE576FD16758FB207D98F5CCC5C4C39
:101CA400056793060780D58F5CCC1C50D98F39A863
:101CB40058D8184C92071377F7F8D98F1CCC1C4CC2
:101CC40093E787001CCC1C5093E717001CD061BF1E
:101CD40018DC184CE576FD16758FB207D98F1CCC2D
:101CE4001C4C056713070780D98F1CCC1C5093E745
:101CF4000701E9BF58DC584C92071377F7F8D98FDE
:101D04005CCC5C4C93E787005CCC1C5093E70710D9
:101D140075BF130181FC22D806DA26D62AC42EC048
:101D2400A304010281460147130491020245A94517
:101D340032CC36CA3AC8EFE02FDE2AC202459307F6
:101D4400F4FFA9453EC6EFE0EFDF4247D2468245A5
:101D540013050503A30FA4FE2545B2476246930469
:101D6400170085068D43636FB500224513062700CF
:101D7400BE85EFE0CFE1D25042542685B254130120
:101D840081038280639A760001CAA38FC7FE9304FD
:101D940027009307E4FF814612473E843AC0268712
:101DA40071B763C30500B5B7511106C49306D002D9
:101DB40014A1B305B0400505A93FA24005053101B2
:101DC400828000007800AED580A83FD300408D14F7
:101DD400A0C0DA128120D9F1DB402000AF0000005E
:101DE400EA0D0000F40D0000FC0D0000080E0000D8
:101DF400100E00001C0E0000300E00000000000059
:101E040000000101010101010202020202020303B6
:101E140003030303AA55AA55AA55AA55AA55AA55B8
:101E2400AA55AA55AA55AA55AA55AA150A050201E2
:101E340000000000000000080000000000C0C08096
:101E4400000000000000000002000000000000008C
:101E5400000000001000000000000000000200006C
:101E6400000000000000327F776363777F71414296
:101E74005A544448485050606040003870F4F0D0E0
:101E8400D0D0D6DA867CF88000FE03C12121A121BE
:101E940021C103FEAA0502FFFF0303C303030303D7
:101EA40083434343438303FFFE55AA00000000001D
:101EB40000000000000020000000000000000D0BE6
:101EC4001B397DF3E1C2CC986808C83060800000FB
:101ED40000000000002000000000000000000000DE
:101EE400010080000000A1B1B1BBBBBF9F8F9191E5
:101EF400A5A5CDCDA5A5A191998F001070F0F0D026
:101F0400D0D0D0D0D1D6D6E300FF0007888B888B01
:101F1400880700FFAA0000FFFF0000030404040474
:101F24000300000000E700FFFF55AA0000020000C4
:101F340000000000000000000000C0F09C84C434D5
:101F44000C0C93600101C1300C0302041820C30C73
:101F540010E080000000000000000002000000000B
:101F64000000000000001010B9B99F9F8F8F8808EF
:101F74001226662A3A12120202030004CCECECFC8C
:101F84009CE4F4D4CCCC8C8400FF0000A9AABAAAA7
:101F9400910000FFAA0000FFFF0000212121212160
:101FA40021E12141418F00FFFF55AA0000000000FC
:101FB400000000066CD8D8D8C8E898103B478707BB
:101FC400060681601807000000E0D8BC72E2C42D48
:101FD40037C100030C10E080000000000001000085
:101FE400004000000000DBDBDBD9D9D9DBDFD851AE
:101FF400515252545458D8D0D041007171F1E1A1DA
:10200400A1A12111D1E9391D00FF0000D454D655F6
:10201400D40000FFAA0000FFFF000024242424A40D
:1020240064E7242222E100FFFF55EA00000000805B
:1020340000000000400001217BA76FAF6EAC68E791
:10204400980E112040800000003DFDFBFB7ABF404C
:10205400C03F80601C0300FF1B260C1000400000E2
:1020640000000000000040C0E0F0F0FCFCFEA3A073
:10207400B8BCB4B2B3B1B0B0A0E00000000000003E
:102084000401010306040D3E00FF00005D04040486
:10209400050000FFAA0000FFFF0000828282818009
:1020A4008081828282F100FFFF55EA000400042E41
:1020B40004000400400000000000010103060D1AA2
:1020C400352B56AC58B061B24C8300030205028133
:1020D400700C0300C0708E816618000000000000C0
:1020E400000000000000F0F8FCFCFEFE1EAFF1A9A9
:1020F400A9F9A9A9F1A2020408F000000000000156
:10210400000000000000100000FF000086810101B3
:10211400860000FFAA00007FFFC0C0C0C0C0C0C0CE
:10212400C0C0C0C0C0C7C0FFFF55AA002000000047
:10213400000000000000000000100000000000008B
:1021440000000000010205060D1A355A74D8B6596C
:10215400A8C4820307030201000000000000000875
:1021640000000000000021232767E7EFFFFEB1B263
:10217400B2B3B2B2B1A8A8A4A3E000000410001046
:10218400BA1000100000080000FF000093A8A9AADC
:10219400910000FFAA54A854A854A854A854A854C1
:1021A400A854A854A854A854AA55AA50A0408008DA
:1021B400000000000000000000000000000000001B
:1021C40000000000000010000000000000000103F7
:1021D40002040103020000000010000000000000DF
:1021E4000000000000000101030307070F0F111195
:1021F40021254D45D5D54D4D21231E0000000080DD
:102204000000000000020000007FC0808C928C92CD
:102214008C80C07F080000010004400000080020FA
:102224000000000005F903FE00000000FEFF0703A4
:1022340003030303030307FFFE00FEABABABFE0087
:102244000000FFFF000000000000000000FFFF008E
:1022540000FF01FF00000000FFFF0000000000007D
:10226400000000FFFF00E0BFB0BFE0000000FFFF80
:10227400000000000000000000FFFF000FFA1AFA3F
:102284000F000000FFFF000000000000000000FF3E
:10229400FF0000FF80FF00000000FFFF06060606A7
:1022A4000606060606FFFF007FD5D5D57F00000091
:1022B400FFFF000000000000000000FFFF00A09FDF
:1022C400C07F000000007FFFE0C0C0C0C0C0C0C02D
:1022D400E0FF7F00A0A0A1A0A4E0F010F810F0108F
:1022E400F0E0A8A0A0A1A0A4A0A0A0A8A0A0A0E005
:1022F400F018F010F110F4E0A0A0A8A0A0A0A0A0F5
:10230400A8A0A0E1F014F010F018F0E0A0A0A0A89C
:10231400A0A0A1A0A4A0A0A0E8F010F010F018F0D4
:10232400E0A1A0A4A0A0A0A8A0A0A0A0E0F810F004
:1023340011F014F0E0A0A8A0A0A0A0A0A8A0A00064
:102344000505050505470F080F082F080F070D059C
:10235400050505054505050D052505070F080F08A5
:102364000F080F4705050D05250505050D0505078E
:102374000F084F080F080F270505050D050505056E
:1023840005450505070F280F080F080F0705050564
:102394004505050D05250505070F080F080F084F0E
:1023A40007050D0525050505050505007DFF7DFFD0
:1023B40000C87DFF7DFF91FF91FF91FF91FF91FF89
:1023C40091FF91FF91FF91FF91FF91FF91FF8CFF8E
:1023D4008CFF8CFF7DFF7DFF7DFF69FF69FF69FF37
:1023E40087FF87FF87FF7DFF7DFF7DFF7DFF7DFFEB
:1023F4007DFF7DFF7DFF007D7DFF7DFF7DFF7DFFF8
:102404007DFF7DFF7DFF7DFFF09090909090F0E048
:10241400404040406040F01010F08080F0F0808038
:10242400E08080F0808080F0909090F08080F010C8
:1024340010F0F09090F01010F0808080808080F098
:10244400F09090F09090F0F08080F09090F0000088
:10245400013F3F3F7F00012D1B377F0001152B15E6
:102464007F00011325097F00010101017F007F41E5
:1024740041417F00003E0000000000003E000000DB
:102484000000003E0000000000000000FE0D0BFEF6
:102494007FB0D07F020502003E413E0000010203EE
:1024A4000400010203040001020304000102030406
:1024B40000010203040001020304000102030500F9
:1024C40001020304050102030505010203040001DE
:1024D40002030500010203040505050505000102C8
:1024E40003040001020304000102030400010203C7
:1024F400040505050505050102030405010203059C
:102504000501020304050102030405010203050594
:10251400010203040505050505000000000005058A
:10252400000505050500050500000000000505057A
:102534000505000002000404061008050C1410062A
:10254400181520073016400F6017801F0202020280
:10255400040810200404040408102040060606069B
:102564000C183060080808081020408001000200A0
:102574000300040005000600070008000200040030
:1025840008001000200040008000000100AA0000A4
:102594006C1010103C3C303800000000000010109B
:1025A40000001010000010100000101000186C6CD7
:1025B400186038180C300000000000033C183C3C44
:1025C4001C7E1C7E3C3C00000C00603C3C187C3CA7
:1025D400787E7E3C667E066360C6C63C7C3C7C3C62
:1025E4007E6666C6C3C37E3CC03C180038006000EB
:1025F40006001C0060180C60380000000000000099
:10260400300000000000001C18387606000FF0FFB0
:10261400000FF0FF000FF0FF000FF0FFFFFFD7D710
:10262400FFFFD7D7FFFFD7D7FFFFD7D7FFE7939396
:10263400E79FC7E7F3CFFFFFFFFFFFFCC3E7C3C379
:10264400E381E381C3C3FFFFF3FF9FC3C3E783C3F6
:10265400878181C39981F99C9F3939C383C383C31B
:10266400819999393C3C81C33FC3E7FFC7FF9FFF72
:10267400F9FFE3FF9FE7F39FC7FFFFFFFFFFFFFFA4
:10268400CFFFFFFFFFFFFFE3E7C789F900551818E5
:10269400FE383838427E2838081010100000101018
:1026A40000001010000010100000101000186C6CD6
:1026B4007E666C1818186C1800000006663866668A
:1026C4003C60300666660000180030666E3C666644
:1026D4006C6060666618066660EEE6666666666648
:1026E400186666C666660630600C3C006C006000C6
:1026F40006003000600000601800000000000000C8
:102704003000000000000030180CDC06000FF0FF61
:10271400000FF0FF000FF0FF000FF0FFFFFFD7D70F
:10272400FFFFD7D7FFFFD7D7FFFFD7D7FFE7939395
:10273400819993E7E7E793E7FFFFFFF999C7999931
:10274400C39FCFF99999FFFFE7FFCF9991C3999957
:10275400939F9F9999E7F9999F1119999999999933
:10276400E79999399999F9CF9FF3C3FF93FF9FFF95
:10277400F9FFCFFF9FFFFF9FE7FFFFFFFFFFFFFF73
:10278400CFFFFFFFFFFFFFCFE7F323F900AA243CAD
:10279400FE7C547CA5DB24100C383010180010107B
:1027A40000001010000010100000101000186CFE43
:1027B400D80C3830300C38180000000C6E7806063F
:1027C4006C7C600666661818307E18066E66666055
:1027D400666060606618066C60FEF6666666666033
:1027E400186666C63C3C0C30300C6600383C7C3CB9
:1027F4003E3C7C3E7C381C6618CC7C3C7C3E7C3E5B
:102804007E6666C6C6667E30180C000E000FF0FFAA
:10281400000FF0FF000FF0FF000FF0FFE70FD717D6
:10282400E000D010FF07D717C000D010FFE79301D6
:1028340027F3C7CFCFF3C7E7FFFFFFF39187F9F97A
:1028440093839FF99999E7E7CF81E7F99199999F44
:10285400999F9F9F99E7F9939F0109999999999F46
:10286400E7999939C3C3F3CFCFF399FFC7C383C3A0
:10287400C1C383C183C7E399E73383C383C183C1DE
:1028840081999939399981CFE7F3FFF10055427E57
:10289400FEFEFEFE81FF247C7E7C7E103CF010F068
:1028A4001FFF1FFF10F010F01FFF1FFF0018006C28
:1028B4007C187600300CFE7E007E001876180C1C06
:1028C400CC067C0C3C3E181860000C0C6C667C60DA
:1028D400667C7C6E7E18067860D6DE667C667C3C00
:1028E400186666D618181830180C000000066660C2
:1028F4006666306666180C6C18FE66666666666008
:10290400306666C66C660C60180600CC000FF0FFDB
:10291400000FF0FF000FF0FF000FF0FFC3FFD7F729
:10292400FFFFDFFFD7F7D7F7DFFFDFFFFFE7FF93F7
:1029340083E789FFCFF30181FF81FFE789E7F3E3B1
:1029440033F983F3C3C1E7E79FFFF3F39399839FBD
:102954009983839181E7F9879F292199839983C377
:10296400E7999929E7E7E7CFE7F3FFFFFFF9999F95
:102974009999CF9999E7F393E70199999999999F2F
:10298400CF9999399399F39FE7F9FF3300AA427ECF
:102994007C7C54FEA5FF28100C10307C3C00000009
:1029A400000000001010101010101010001800FE8D
:1029B4003630DC00300C3818000000306618380659
:1029C400FE06661866060000307E1818607E666093
:1029D400666060666618066C60C6CE6660666C06E5
:1029E400186666FE3C1830300C0C0000003E666031
:1029F400667E306666180C7818D666666666603C35
:102A0400306666D638661830180C00DC000000000A
:102A14000F0F0F0FF0F0F0F0FFFFFFFFC30FFF07E2
:102A2400E000C000D717D717D010D010FFE7FF0180
:102A3400C9CF23FFCFF3C7E7FFFFFFCF99E7C7F95C
:102A440001F999E799F9FFFFCF81E7E79F81999F02
:102A5400999F9F9999E7F9939F3931999F9993F990
:102A6400E7999901C3E7CFCFF3F3FFFFFFC1999F24
:102A74009981CF9999E7F387E729999999999FC300
:102A8400CF999929C799E7CFE7F3FF230055243C51
:102A94003838101099DBE0280810103818000000AE
:102AA4000000000010101010101010100000006C36
:102AB400FC66CC0018186C1818001860661860665C
:102AC4000C666618660C1818180030006666666690
:102AD4006C6060666618666660C6C666606C66662C
:102AE40018663CEE66186030060C000000666660EE
:102AF4006660303E66180C6C18D666667C3E6006CE
:102B040030663C7C6C3E3030180C00F8000000004D
:102B14000F0F0F0FF0F0F0F0FFFFFFFFE7FFFFFFD5
:102B2400FFFFFFFFD7D7D7D7D7D7D7D7FFFFFF935D
:102B3400039933FFE7E793E7E7FFE79F99E79F9957
:102B4400F39999E799F3E7E7E7FFCFFF9999999903
:102B5400939F9F9999E799999F3939999F93999947
:102B6400E799C31199E79FCFF9F3FFFFFF99999F65
:102B7400999FCFC199E7F393E729999983C19FF965
:102B8400CF99C38393C1CFCFE7F3FF0700AA1818E7
:102B9400101038384266C0440010001000000000D5
:102BA4000000000010101010101010100018006C1D
:102BB400300676000C300000180018C03C7E7E3CC5
:102BC4000C3C3C183C3818180C0060183C667C3CE3
:102BD400787E603C667E3C637EC6C63C6036663C5E
:102BE400183C18C6C3187E3C033C0000003E7C3CE5
:102BF4003E3C3006663C6C663CC6663C6006607CC7
:102C04001E3E186CC6067E1C1838007000000000BA
:102C14000F0F0F0FF0F0F0F0FFFFFFFFFFFFFFFFBC
:102C2400FFFFFFFFD7D7D7D7D7D7D7D7FFE7FF9374
:102C3400CFF989FFF3CFFFFFE7FFE73FC38181C3EC
:102C4400F3C3C3E7C3C7E7E7F3FF9FE7C39983C3AE
:102C540087819FC39981C39C813939C39FC999C313
:102C6400E7C3E7393CE781C3FCC3FFFFFFC183C36C
:102C7400C1C3CFF999C39399C33999C39FF99F836A
:102C8400E1C1E79339F981E3E7C7FF8F00550000FD
:102C9400000000003C3C00000000000000000000B8
:102CA40000000000101010101010101000000000A0
:102CB40000000000000000003000000000000000E0
:102CC40000000000000000300000000000000000D0
:102CD40000000000000000000000000000000000F0
:102CE4000000000000000000000000FF00000000E1
:102CF4000000003C000038000000000060060000F6
:102D040000000000003C0000000000000000000083
:102D14000F0F0F0FF0F0F0F0FFFFFFFFFFFFFFFFBB
:102D2400FFFFFFFFD7D7D7D7D7D7D7D7FFFFFFFFEF
:102D3400FFFFFFFFFFFFFFFFCFFFFFFFFFFFFFFFCF
:102D4400FFFFFFFFFFFFFFCFFFFFFFFFFFFFFFFFBF
:102D5400FFFFFFFFFFFFFFFFFFFFFFFFFFFFFFFF7F
:102D6400FFFFFFFFFFFFFFFFFFFFFF00FFFFFFFF6E
:102D7400FFFFFFC3FFFFC7FFFFFFFFFF9FF9FFFF39
:0C2D8400FFFFFFFFFFC3FFFFFFFFFFFF8B
:102D900000D0020000EE0700009C0B00007E0E0039
:102DA00000C41000004A1200008E1300902500009D
:102DB00000366E0100366E0100F4010000366E012F
:102DC00000127A0000093D00000000000000000031
:102DD000370600400C4A485281990CCA9386218DCF
:102DE0009422ADCA2A851D89060517060000130620
:102DF000E60032950285010001000100010001009A
:102E00000100010001001385419083230500130593
:102E1000001063DCA3041387C18F1843B737014048
:102E2000C146010008230507C8C719467D167DFE67
:102E3000FD16EDFA23A607008D4533F5B3006315A3
:102E4000B5001386C18F18C2170500E01305050FE2
:102E5000028501009385419083A3050013050004BA
:102E6000970500E0938565068285170500E0130548
:0C2E7000A5050285000000000000000025
:00000001FF
