:100000006F00800A00000000A4000000A4000000AF
:1000100000000000000000000000000000000000E0
:1000200000000000000000000000000000000000D0
:10003000A400000000000000A40000000000000078
:10004000A4000000A4000000A4000000A400000020
:10005000A4000000A4000000A4000000A400000010
:10006000A4000000A4000000A4000000A400000000
:10007000A4000000A4000000A4000000A4000000F0
:10008000A4000000A4000000A4000000A4000000E0
:10009000A4000000A400000050000020A400000004
:1000A000A400000001A00100970100209381817A43
:1000B0001381017A174500001305C5B39705002089
:1000C000938545F4170600201306860363FAC500DE
:1000D0008322050023A0550011059105E3EAC5FE22
:1000E0001385C18A9385C1DD6377B50023200500A0
:1000F0001105E36DB5FE8962938202887390023028
:100100008D4273904280970200009382A2EF93E2A7
:10011000320073905230EF007063971200009382A8
:10012000E2207390123473002030010000000000C0
:100130001145B71601409305A01763C5B306930593
:10014000B01763C07506C8CA639EB3049385C18C9B
:100150000395050021C91386418D373701401307E8
:1001600007C06347A0009386018D944214C239A052
:100170007D158AA105E91442910614C28A228AA13A
:1001800019C9B62289CA54D7858234C308538565F4
:100190004D8D08D301A80853FD75FD156D8D08D34D
:1001A00011A088CA85031306D02063CFC300814302
:1001B0001385818F0C4185050CC11705002013059F
:1001C00065F99385418F88C11385C18F2320750000
:1001D0009383418C83D703003723014013030340EB
:1001E0000325C304930500406390F5049382018CBA
:1001F00083A502002E9523A0A2001387818C0C23D7
:1002000085050CA31306000263CAC500230007007E
:1002100023A002009382C18B23A0A200239003009D
:100220009385918C8C21D1A89395F7018507239014
:10023000F30063DC050A9382018B83A502002E95EF
:1002400023A0A20093050040E39CF5FC23A002003C
:100250009382C18A23A0A200814597020020938245
:1002600062DA03A6C2006345C50093E58500C102BA
:1002700003A642006345C50093E54500A10203A61D
:1002800002006344C50093E525009382818B03A59A
:10029000020023A002009382418B23A0A2009702B8
:1002A0000020938222D603A6C2006345C50093E5D1
:1002B0000502C10203A642006345C50093E505049B
:1002C000A10203A602006344C50093E505019382E1
:1002D000718C03C502002380B2006316B5009382BF
:1002E000618C2380A200A14509A89382818B83A5FC
:1002F00002002E9523A0A2008145232AB302B70550
:100300004000032583004D8D2324A300730020307B
:10031000634E050263C305042E86AA857D5515C26A
:1003200085466378B6006356C00006068606E36C11
:10033000B6FE014563E4C500918D558D8582058229
:10034000F5FA82808682C93F2E8582823305A040DD
:100350006347B000B305B040C1B7B305B040868273
:10036000653F3305A0408282868263C705006349EA
:1003700005005D372E858282B305B040E35B05FE44
:100380003305A040513F3305B040828200002A83EC
:1003900009CA83830500230073007D1605038505C4
:1003A0006DFA82802A8311C62300B3007D160503EF
:1003B00065FE82802147B717014011469145CCCB9D
:1003C00093168501E186094363C4060037030200E2
:1003D00023A867000100010001008CCB010001008F
:1003E000010006057D171375F50F71FB37170140E6
:1003F00050CB89450CCB944393F6F6F093E6060870
:1004000094C301000100010010CB010001000100B4
:1004100050CB0100010001004CCB98431377F7F05B
:100420001367070198C3828083C7A18C89EFB71730
:1004300001400947D8CB0100010001001147D8CB8A
:10044000010001000100828083C7A18C89EFB717EA
:100450000140114798CB010001000100094798CBEA
:10046000010001000100828083C7A18C511122C2CA
:1004700006C42A849DEB4D3F13058007253F0145A7
:10048000153F137574001365050B2D3701451D3796
:1004900041450D37553F493F13058007213F124421
:1004A000A24013050004310131B7A2401244A388D1
:1004B000A18E2388018E3101828083C7A18C91E3B4
:1004C000D5BD511122C483C5018FAA8603C5118FE2
:1004D0003703002093D2354093177500BE929307DF
:1004E000031526C2969713C6F5FF1D8A8423054778
:1004F000130303153317C7001376F70F1AC093F3CE
:10050000160033E3C400639603001343F7FF33F38D
:1005100064008244A6922380620083C3070193F2A1
:10052000260033637600639602001343F7FF33F32C
:10053000630083C307022388670093F2460033E316
:10054000C300639602001343F7FF33F3630083C3D2
:1005500007032380670293F2860033E3C3006396A8
:1005600002001343F7FF33F3630083C307042388B8
:10057000670293F2060133E3C3006396020013435C
:10058000F7FF33F3630083C307052380670493F207
:10059000060233E3C300639602001343F7FF33F30D
:1005A000630083C307062388670493F2060433E3DA
:1005B000C300639602001343F7FF33F36300238005
:1005C000670603C30707E206E1863366C30063C616
:1005D00006001347F7FF3376E3002388C706850537
:1005E0009307F00763D6B7000505A388A18E814560
:1005F00022442388B18E924431018280B5B503C76D
:10060000A18C511106C422C226C08547631FF71270
:1006100023AE018EB70700203714024093870715D9
:1006200023AAF18E1C4C93E717001CCC1C4C93E7BB
:1006300047001CCC1C4C93E707011CCC1C4C93E7D7
:1006400007021CCC85454945EF00A06FA5454545EF
:10065000EF00206F1C4C8564C58F1CCC5C44C58F9B
:100660005CC401005C44FD761387F6FFF98F5CC41F
:10067000B737014098439386F67F370401401377DC
:1006800077FC1367870098C39843A5457945758F14
:1006900098C39843A166938404801377F7F798C3AF
:1006A00098431367072098C398431367071098C3AC
:1006B000D8436D9BD8C39843558F98C39843916690
:1006C000558F98C398431367470098C3984313679F
:1006D000070498C35C44E19B93E747005CC49525FD
:1006E0005C4411777D17F98F3167D98F5CC413078C
:1006F000C00581479306A02F054685453705004074
:10070000EF003021B70700401307B00798DF984F7C
:10071000E576FD16758F98CF984F458F98CF9853F3
:100720001367070198D3984B6D9B98CBD8471367F5
:100730004700D8C7A2401244B7E700E013070004FF
:1007400023A2E710824431018280B7170140094794
:1007500098CB114798CB85454545E52385454945C7
:10076000CD2329458D64EF009006014475399384AB
:1007700084BDB3079400882305042D39E547E31AA7
:10078000F4FED9310945EF0090041306F031854598
:1007900037050040EF00501371BF83C7A18CD5EB24
:1007A000111122CA3704002026C806CC13040415F0
:1007B000814426855539A28793050401A146130774
:1007C00000088823902B798D798E3335A00019C2CB
:1007D0001365250003C60702798E19C2136545000B
:1007E00003C60703798E19C21365850003C6070483
:1007F000798E19C21365050103C60705798E19C2E2
:100800001365050203C60706798E19C21365050430
:1008100003C60707798E19C2136505082EC63AC4A8
:100820003EC236C0413E824622479247FD16B2453F
:100830000587C1FA8507E393B7F839318504A147E5
:1008400013040408E397F4F6E2405244C2447101F1
:1008500082808280370500205111130600408145B7
:100860001305051506C43D3EA24023A6018E23A410
:10087000018E2382018E310182809357354092058B
:1008800037070020AE97130707153E971345F5FF6E
:1008900014231D898547B397A70093C7F7FFF58FEA
:1008A0001CA382801307F0076367A7001307F003F8
:1008B0006363B700D9B78280935735409205338779
:1008C000B700B707002093870715BA9794231345FD
:1008D000F5FF1D8905473317A700558F98A3828020
:1008E0001307F0076367A7001307F0036363B700FC
:1008F000E1B78280B707002003A7C7010111856710
:1009000026CA93870780B304A700A6972EC006CEF9
:1009100022CCB2853EC283C6418E802089C69347D1
:10092000F4FF13F4F70F82470245A1073EC4931664
:100930008401E1862EC82AC663D80602553732459F
:10094000C2459317140013F4F70FA2470505E310EF
:10095000F5FE9247938404108505E39E97FAF240D2
:100960006244D24405618280353FC2453245D1BFE1
:10097000411122C426C206C62A84AE84082005047A
:1009800011E5B2402244924441018280A68532C0E2
:1009900095370246A104DDB703C6A18D1D47930715
:1009A000160093F7F70F6373F700814703C7918D24
:1009B0006308F7001387C18D329708A3238DF18C4C
:1009C000828083C7618C311193F7F70F83C6818DC5
:1009D00022C626C406C8238CF18C8944054433F70B
:1009E000970019CB33F7960001EB1375F40F36C25D
:1009F0003EC05D379246824705041D478604E310DA
:100A0000E4FEC2403244A24451018280511122C20C
:100A100006C42A847D3783C7618CA24033D58740C2
:100A20001244058931018280511106C4593F83C7A0
:100A3000918D03C7A18D0145630FF7001387C18D09
:100A40003E978507082393F7F70F1D476373F70059
:100A50008147A38CF18CA24031018280511106C4E0
:100A60008D3703C5618CA24013351500310182809A
:100A7000511106C4E5377DDDA2403101828051115C
:100A800022C2371402401C4C06C493E717001CCC4A
:100A90001C4C93E707011CCCA54551455D24B706C6
:100AA0000140DC4671771307F73FF98FDCC61C4C19
:100AB000056713070780D98F1CCC5C44D98F5CC4B1
:100AC00001005C44FD769386F67FF58F5CC4B737F2
:100AD0000140938707C0944765767D16E19A94C7D5
:100AE000DD4694D79306803ED4D79306401FB4C307
:100AF0009443A2401244BD9A94C3D44B93E616008B
:100B0000D4CB944393E6060894C3D44FF18E196670
:100B1000D18ED4CFD44F558FD8CFF843A166558FFF
:100B2000F8C398431367170098C331018280B73721
:100B30000140938707C0C8D70581A8C3985385662D
:100B4000558F98D382802396018CB73701409387C5
:100B500007C09853FD76FD16758F98D3828083A5C4
:100B6000C18B51113705600906C4EFF0EFFAA240BE
:100B70003101828051111305800C06C422C226C0A7
:100B8000B921B7060140DC4601777D17F98F37257B
:100B90000140DCC61305054091290147B7220140F9
:100BA0001D4385466D46138502400C49B317E3008B
:100BB00093C7F7FFED8FB395E600CD8F1CC90D07E6
:100BC000E313C7FE13060040A145B1229357A54089
:100BD000960723AEF18A9355254099473705004B78
:100BE000A384F18C2385018CEFF08FF285678D074C
:100BF00063DFA70485469547A384F18C2385D18CB8
:100C0000B7170240984F1367170098CF984F136794
:100C1000070298CF93058004794525222945452E62
:100C2000B7170140938707409C4793F70704FDF7E8
:100C3000B7060140DC46370700F97D17F98F370703
:100C40000004D98FDCC683C7A18C754591E3794533
:100C50008145C52881450945ED2003C6918C37247F
:100C600001408545130504400D20130404401C4435
:100C7000370740007D45D98F1CC42D2E09354132E0
:100C80001244A24082443101F1B6994763C2B702CF
:100C90009547FD15B385F5025859FD47B397B70041
:100CA00093C7F7FFF98FB315B600CD8F5CD982805B
:100CB000B14763C2B7029547E515B385F5021859E8
:100CC000FD47B397B70093C7F7FFF98FB315B60089
:100CD000CD8F1CD982809547CD15B385F502585527
:100CE000FD47B397B70093C7F7FFF98F3316B600E8
:100CF0005D8E50D582805C5937074000819BCD8F37
:100D00005CD91C45D98F1CC51C41898BF5DF684512
:100D1000420541818280311122C626C406C82AC0FC
:100D20003284814463488000C24032442685A24414
:100D30005101828002452EC27D14753F9245AA94CE
:100D4000D5B7B707100013573540938727043E9750
:100D50002A0793767500104313952600BD47B39775
:100D6000A70093C7F7FFF18F13F6F5003316A6001F
:100D7000D18F1CC39307700263DBB700054593074F
:100D800080023315D5006393F500420508CB8280BD
:100D9000371702405C43511122C289833704002077
:100DA00006C426C08D8B8546130404026388D704CD
:100DB00089466387D7040840B714024048C4D84026
:100DC0008D679387C7C20D83798BBA978E23EFF017
:100DD000AFD408C8D8408D679387C7C02D837D8B5B
:100DE000BA978C23DC4063C307008545EFF0CFD270
:100DF000A24048C8124482443101828048406DBFFD
:100E00005C43C183858B81E70840060575B7484080
:100E1000EDBF372702401C43511106C4F19B93E7F5
:100E200027001CC3371702401C4393E717001CC35D
:100E3000B71702409843098B75DFD843719BD8C31D
:100E4000B7170240D84309830D8B6DFFD843B7060F
:100E500000F9FD16758FD8C39843B706F7FEFD1647
:100E6000758F98C39843B706FCFFFD16758F98C31E
:100E70009847F9769386F60F758F98C79847B70607
:100E80009D006146558F98C7D8431377F7F0D8C3B4
:100E90008D67938647BF2D47938747BFEC2A6375BD
:100EA000B6007D17F9167DFB0607B7160240BA9704
:100EB000D0429C3341771307F77F718FAE07D98FEC
:100EC000DCC2DC4286078583DCC2D935B707002047
:100ED000938707029C4B37C78C011307F7A78946F6
:100EE000636AF70037B7120113070788B3B7E70043
:100EF00093C61700372702401C43A240F19BD58FB1
:100F00001CC331018280B7F700E09843799B98C3F6
:100F10009843759B98C398431367470098C39843B9
:100F20000607058398C30D6723A407001307F7ED91
:100F300098CBD843799BD8C398435D9B98C323A093
:100F400001D098431367170098C38280B7170240F7
:100F5000D853511123A2E1D0856706C422C226C00E
:100F6000938787380100FD17F5FF6535B7170240F5
:100F7000D84B13675700D8CB984F85669386D6A376
:100F8000558F98CFD84FB70620108506558FD8CFEC
:100F9000116491648D3F130404BF938404BF63679D
:100FA00094001244A24082443101E9B61C4011046D
:100FB0008297F5B7E1473305F502B7F700E09847A8
:100FC000B7F600E09C46998FE3EEA7FE8280996712
:100FD000938707DC3305F502B7F700E09847B7F6CB
:100FE00000E09C46998FE3EEA7FE8280B727014080
:100FF000938707406311F502B7170240984F1367B4
:10100000072098CFD84713670720D8C70100D847D3
:101010001377F7DFD8C71C453707F2FF7D17F98F25
:1010200037070E00D98F1CC51C4537071000D98F14
:101030001CC55C55370710FF7D17F98F5CD51C4523
:1010400093E717001CC5054559B7B737014093878B
:1010500007C06312F502B7170240D847856693862A
:101060000680558FD8C70100D847FD769386F67F56
:10107000758FD8C78280B7070040E31DF5FEB7170C
:101080000240984B1367170098CB0100984B799B4F
:1010900098CBCDB7B7370140938707C0631BF500E6
:1010A000B71602409C4E056713070780D98F9CCE68
:1010B0008280B7070040E31DF5FE371702405C4F02
:1010C00093E717005CCFEDB7411106C622C426C2D4
:1010D0002A8432C0AE847D3F2285853F1C4402466F
:1010E000FD14E19B1CC404D450D45C48B24092442B
:1010F00093E717005CC81C48F99B1CC85C4493E745
:1011000017005CC41C4093E717001CC02244410137
:101110008280111132C636C43AC23EC006CC22CA01
:1011200026C82A84AE84BD37228505370C44324652
:10113000A246E1990CC47D1610D454D414408247C1
:101140001247BD9A14C0144093B71700990793E64D
:10115000060814C08D466381D40A63C99602854689
:10116000638AD40489466387D4067C402167E240C1
:10117000D98F7CC05C48C24493E717005CC81C4010
:1011800093E717001CC05244710182809146E39E90
:10119000D4FC38C0584CE576FD16758FB207D98F50
:1011A0005CCC5C4C056793060780D58F5CCC1C50EB
:1011B000D98F39A858D8184C92071377F7F8D98FD8
:1011C0001CCC1C4C93E787001CCC1C5093E71700E9
:1011D0001CD061BF18DC184CE576FD16758FB20780
:1011E000D98F1CCC1C4C056713070780D98F1CCCEA
:1011F0001C5093E70701E9BF58DC584C920713775E
:10120000F7F8D98F5CCC5C4C93E787005CCC1C5022
:1012100093E7071075BF130181FC22D806DA26D6A2
:101220002AC42EC0A304010281460147130491027F
:101230000245A94532CC36CA3AC8EFF0EF8D2AC232
:1012400002459307F4FFA9453EC6EFF0AF8F424732
:10125000D246824513050503A30FA4FE2545B247D8
:1012600062469304170085068D43636FB5002245DF
:1012700013062700BE85EFF08F91D2504254268589
:10128000B254130181038280639A760001CAA38F4E
:10129000C7FE930427009307E4FF814612473E846C
:1012A0003AC0268771B763C30500B5B7511106C4AC
:1012B0009306D00214A1B305B0400505A93FA24092
:1012C00005053101828003A581D0B74703009387CC
:1012D000D73F3305F502B7A72600938737EC3E9535
:1012E00023A4A1D041818280511122C206C426C00C
:1012F0002E8419E51244A24082442E853101C1B9E1
:101300009304F00F898C8604330494021385F4FF50
:10131000EFF0FF8113551440229569391244A24021
:10132000824431016FF03F8283C7A18C511106C402
:1013300022C226C089EBEFF0EFD1FD54EFF0CFEEE3
:1013400001CDEFF0EFF2A92EEF10C078A2401244C9
:101350008244014531018280EFF07F801304250330
:10136000E38E84FC1306E002A2851385C1D0253FDD
:101370001375F50F95476310F5029387C1D01307D6
:10138000600571469305C0021385C1D0D8A3EFF064
:101390002FDEEFF08FC0A28455B79D4710A114B186
:1013A000230105004CA1A30105005CB17CA1828052
:1013B00028218280030505008280030515008280B4
:1013C0004CA18280482182809D4710A113063606D9
:1013D00014B15CB17CA14CA1A30105001376F60FFA
:1013E0009306100A814763E3C6008D473CA178B19C
:1013F000A304050023050500A30505002306050039
:10140000828008358280A304050082800305A50040
:1014100082800305B5008280030705009307C0079B
:10142000BA9563C7B7007C31BA971CA18D473CA120
:1014300082808307050009476357F700783123014D
:101440000500998F1CA182800307150093072003D4
:10145000BA9563C5B7007C31BA971CB18280830707
:10146000150019476355F7007831998F1CB18280B8
:101470007C3113F7F70F91E30547CD8F81CF8307B9
:101480000500BA971307F0076344F7001CA1828098
:101490002302050082807C3113F7F70F91E30547A3
:1014A000D18F99CF83070500BE956355B000998F02
:1014B0001CA182809306C0F9E3CBD7FE230205006E
:1014C0008280542191C63C2199C3B28555B7E1B7BA
:1014D00082801C358DE385471CB51C218581AE9724
:1014E0003CA51C318D073CB53C2199E33306C04037
:1014F0006206618650A582801C3581CF3C25582527
:10150000BA97E207E1873CA5695763D4E700A304D3
:101510000500828083C30700AA821385F3FF169516
:101520006341C50A01456340560A611122C226C0C3
:1015300013D4354063C3860803C31700B304830084
:1015400063CDD40633836302818E13F4F60FE20673
:10155000E1869D891373F30F930413003303E302B1
:1015600013072600330757401377F70F93F4F40F50
:10157000330674021373F30F3A961376F60F63EA89
:10158000C400338567002A9608223315B500137509
:10159000F50F6354D0027D14B38383021E97137733
:1015A000F70F63ECE4009A97BA979C2321470D8FBD
:1015B000B3D7E740C98F13F5F70F124482442101D6
:1015C000828001458280828003C30700AA821305BE
:1015D000F3FF16956341C50401456340560463CE8D
:1015E000B60283C31700711122C01384F3FF2E9437
:1015F0006340D4028D8EB3866602330656403303B1
:1016000073023303E3023387D70032971A972823F4
:101610000244110182800145828082800D85828092
:101620000D8D158F3305E5025111B305B64022C269
:1016300006C43684EFE0DFCDA24022951244137534
:10164000F50F31018280411122C426C206C618213D
:101650002A84AA8489049387F4FF818F93F7F70F74
:1016600063E7E700B24022449244410182808C202B
:1016700003C5F4FF3AC08D390247E9BF82809967FC
:10168000938707DC3305F50203A601DDB7F500E01B
:101690009845B306C740E3EDA6FE23A8E1DC8280AF
:1016A000F1BF93060010938781DA2394D1DA1307F0
:1016B0000030FAA713071010BAAB0547A381070241
:1016C000238207022383070023920700A3860700D3
:1016D00023880700DAABA38B0700A38C0700238DB8
:1016E0000700239E0700238007028280511122C237
:1016F000138401D226C006C493045407228593069E
:1017000000021306A0058145493922853504E539D3
:10171000E31694FEA24012448244310182800947BC
:10172000AA876366A700054599EB0D45828093075C
:10173000D5FF93F7F70F0D453335F5000905828086
:10174000511122C20547E5464146854506C426C0DB
:10175000138481DAAA84E93528B40D4781464146CD
:1017600085452685753D68B02685553F08B41547E3
:101770002685894641468545653548A4A2401244E0
:101780008244310182809947AE8663FBC7008D6732
:101790002A869387C74401479145130560022DB5FA
:1017A000014582808D671301C1FD9387877526CC23
:1017B00006D022CE2AC481443EC693F7F40F268574
:1017C0003EC0EFE0BFE3B247139474008D63A2976D
:1017D0003EC2014482469387834B1376F40F014740
:1017E00089456145D5339247224682453387870034
:1017F00018232ACA1375F40F3AC87137D2474247E3
:101800000504C98F3365F7001375F50FEFE0FFCAC4
:10181000930700088D63E31FF4FAEFE0FFC285042D
:10182000A147E39CF4F882507244E2441301410260
:101830008280511122C206C40144B1476304F402FC
:1018400005041374F40F2285B13F1545EFF00F9C8A
:1018500001ED1945EFF08F9B01E913051002EFF040
:101860000FF7E1BF0144C5B7A240124431018280A5
:10187000938681DA9032BD45938781DA328763F3AC
:10188000C5003D47050798B2795798A7828013870E
:1018900081DA58370546938781DA81466365E60029
:1018A00005079376F70FD4B78280138781DA7827FC
:1018B0000546938781DA81466365E60005079376DE
:1018C000F70FF4A78280511122C206C41544E545E2
:1018D0002945EFF07FA1E54513058002EFF0DFA079
:1018E0007D14E545130500051374F40FEFF0DF9F39
:1018F00079FCA240124431018280511106C4E137C3
:10190000938781DA054798A7238707002388070074
:10191000A2403101828083C741DC91E3F9BF82801C
:10192000938781DA094798A7238707008280854734
:10193000631BF500938781DA982BC1466313D700A8
:10194000C5B7050798AB828083C761DCC5E3511139
:101950000D4506C422C2EFF06F8B09C5138581D9EE
:10196000EFF03FAD0545EFF06F8A01C98D6783C584
:10197000076F138581D9EFF03FAA0945EFF00F8972
:1019800009C5138581D9EFF09FAD1145EFF00F88A0
:1019900011C59945138581D9EFF01FAB1545EFF0BF
:1019A000EF860DCD138581D9EFF0BFA505ED138529
:1019B00081D9EFF09FA0B14763D6A70285451305F3
:1019C000800CEFF07F928D67138581D91244A2407D
:1019D00083C5076F214631016FF0BFAF1945EFF0A6
:1019E000EF8269F1A24012443101828082809387A4
:1019F00081DAB82FB94663E5E6000507B8AF828003
:101A0000B823238D07009306D00363FEE6007D17FD
:101A10001377F70FB8A39306600463F7E600054752
:101A2000D8ABB8BB8280C5BD8280938781DAF823AA
:101A300001C77D17F8A38280F9BD511122C2938797
:101A400081DA06C4B42313076004138481DA85475E
:101A50006364D7021C2C95E778381305400601E72C
:101A600085471305C008A9457CB8EFF0FF87954767
:101A70001CAC7C38054758A83CB8A2401244310140
:101A80008280FD1793F7F70FE5B7138781DA70238C
:101A90009946938781DA0547631DD600F82B01EF3D
:101AA000D83B13371700D8BB1547F8ABD83B854652
:101AB000D4ABB8AB82807D171377F70FFDB71387D0
:101AC00081DA034737023546938781DA81466365B9
:101AD000E60005079376F70FA381D70282805111A4
:101AE00006C4F13F03C7B1DCA2409167938787BD6D
:101AF000BA97882331018280411122C426C206C6CA
:101B00002AC0AE843284E13F824788A3894763E6D6
:101B1000A70019C59CA01CA021A08D476307F50054
:101B2000B240224492444101828088A008A0CDBFE7
:101B3000138781DA034747022546938781DA814676
:101B40006365E60005079376F70F2382D70282804C
:101B5000511122C206C426C0138481DA930740FCC7
:101B60001CB895477CA81CAC09479307E00399462D
:101B7000130670038545138581D93CA02305040015
:101B8000A30D0400232E0400EFF01F84230404009F
:101B9000EFF06FF313548500420441808144639851
:101BA00084001244A240824431016FF03FB48504A6
:101BB000C2043137C180AD3FDDB7511106C48D3F3E
:101BC00003C7C1DCA24091679387C7BCBA9788233B
:101BD000310182808D47B307F502311106C822C654
:101BE00026C423030100AA84A303010093F7F70F7F
:101BF0003EC0E1379167938787BC2A84338597007D
:101C00000421130671009305610013055100ED35A1
:101C1000938781DA9C370947138381DA638FE7065C
:101C20000D476381E70405476396E70A8D47330450
:101C3000F40202479167938787BE8C82C2409396D5
:101C40008401A244138501D23E94B547B307F7023D
:101C500003060400324403077300E18651013E95F8
:101C60006FF08FF6B307F40211671307A7BE8C83DA
:101C700093968401138501D2E186BA9702470386C1
:101C80000700930227003547B382E202030773007F
:101C90001695EFF06FF3138381DA8D47B307F402E3
:101CA0001167130797BE0C8393968401138501D2A5
:101CB000E186BA970247038607009302170035476B
:101CC000B382E202030773001695EFF0EFEF138380
:101CD00081DAA9BFC2403244A2445101828041113D
:101CE00022C40D4433048502B54726C206C62AC065
:101CF00081441374F40F3304F402938701D23E94A9
:101D00002285EFF02FEC0DED2285EFF08FEF0DE93E
:101D10009387140093F4F70F0D473504E392E4FE24
:101D2000938781DAB827B437639AE60023850700E2
:101D300022440245B2409244410169BD0507B8A75B
:101D4000B24022449244410182808947631BF500DE
:101D500083C781DC11671307C7BBBA9703850700E8
:101D6000828001458280138781DA03470702294672
:101D7000938781DA81466365E60005079376F70F5E
:101D80002380D70282802A962A836343E6020306D1
:101D9000010001453297634E6700AE9663CBF600B3
:101DA00003074100BA97B3A5B70013C51500828099
:101DB00001458280311122C6138581D906C826C407
:101DC000EFF04FDFAA84138581D9EFF00FDF914741
:101DD0003EC299473EC0138481DA03071401AA85E5
:101DE000A1479D4641462685793F09C9D9571CB868
:101DF0003244C240A24451016FF03FB0C24032446D
:101E0000A244510182800947AA876308E50015476B
:101E100001456385E7002E8582800145828041115E
:101E200006C622C426C2954763E7A700894763EA2E
:101E3000A702014409A869151375F50F894763E5E1
:101E4000A702A1471944B544B3049402138701D2F1
:101E5000BA94636DF4000145B240224492444101BA
:101E6000828095470D44C5B78147E1B726853EC0BE
:101E7000EFF02FD9B50411E5050482471374F40F70
:101E8000C9BF0545D1BF2111138581D926C606CA10
:101E900022C8EFF06FE6938701D2814402C03EC2B0
:101EA00035443384840293F7F40F3EC492473E9442
:101EB0002285EFF06FE42285EFF0CFD08D476316D7
:101EC000F5022285EFF0EFD382475D8D1375F50F94
:101ED00009ED13F5F40FA13709E903C641DB8D675E
:101EE00083C5C75E2285EFF0CFDE824513F5F40F80
:101EF0008504113F2AC0A547E394F4FAD240424436
:101F0000B24461018280211106CA22C826C62AC0B5
:101F1000B5C99D472E846387F506138581D9EFF0F7
:101F20006FC9824763C0A706138581D9EFF08FC8B8
:101F3000824741056348F504138581D9EFF08FC7C7
:101F40002AC2138581D9EFF04FC72AC4138581D9DE
:101F5000EFF00FC6938681DA9826B70700209387A3
:101F600087030A07BA97F826A28642440246A2458A
:101F7000D240B2442A979C4312451377F70F610170
:101F80006FF04FD9D2404244B24401456101828092
:101F9000311126C422C62A84138581D906C82EC0D1
:101FA000EFF02FC629C5138581D9EFF02FC6634006
:101FB000A404138581D9EFF06FC509056349850233
:101FC000138581D9EFF08FC42AC2138581D9EFF030
:101FD0004FC4228632448246C240A244AA8512459A
:101FE0008D679387475E014751016FF0AFD2C240C2
:101FF0003244A2440145510182800111138781DAE4
:1020000006CE22CC26CA83441702938781DA2AC2DD
:102010002EC402C03EC8C24783C7270263E8F4004B
:10202000F24062440245D2440561828035443384E3
:102030008402938701D23E942285EFF08FBC21C5A4
:102040002285EFF0AFBC924763CFA7022285EFF065
:10205000EFBB924709056348F5022285EFF00FBBFD
:102060002AC62285EFF0EFBAAA85A246124632456B
:102070008D679387C75D0147EFF0CFC982475D8DBC
:102080009377F50F3EC09387140093F4F70F61B771
:10209000914763EAA700894763E0A7020147630607
:1020A000F502A54721A86D151375F50F854719474A
:1020B000E3F9A7FE0147F5B70D479947938681DA03
:1020C000A380E6022381F60282808D47C5BF1301FB
:1020D00081FD26CE138581D906D222D0EFF0EFAD57
:1020E000EFF0CFD31375F50F6537138781DA03430C
:1020F0001702938781DA3EC6B24783C72702636817
:10210000F30092500254F24413018102828035445C
:1021100033048302938701D21ACC3E942285EFF0D8
:10212000EFAE2AC42285EFF0CFAE2ACA138581D93B
:10213000EFF04FA82AC8138581D9EFF00FA8AA871E
:1021400099464247D245224536C2C14636C0094665
:102150008546EFF05FC362430DC122851AC4EFF0DC
:102160004FAA224319C9EFF00FFB22850254925067
:10217000F244130181026FF00FA905031373F30FEB
:10218000A5BF130141FD138781DA06D422D226D0E0
:1021900083441702938781DA2AC42EC802C23EC63E
:1021A000B24783C7270263E9F400A25012541245D4
:1021B00082541301C10282803544338484029387A0
:1021C00001D2A2973E853EC0EFF0CF9F49C10245A4
:1021D000EFF04F9EA24763CCA7060245EFF08F9D1C
:1021E000A2471D056345F5060245EFF0AF9C2ACADC
:1021F0000245EFF08F9C2ACE0245EFF0AF9CEFF046
:10220000DFB42A840245EFF0AF9AB247DC373307D8
:10221000F50002451377F70F3ACCEFF0AF9AF2458D
:102220009306F5FFB70700208A0693874704B69701
:102230009C436247C24622465245A295E205E1858B
:10224000EFF04FAD92475D8D9377F50F3EC29387C8
:10225000140093F4F70FA9B7411106C622C426C291
:102260002AC0854763FEB7021D472E8481476383DA
:10227000E502013FAA840245A285EFF07FD1B3E7D2
:10228000A4000245A28593F4F70F853BB3E7A400B1
:1022900093F7F70FB240224492443E854101828079
:1022A0008147CDBF85472A86639EF500138381DA77
:1022B0000347D300030513018D679387C75E8546E7
:1022C0006FF08FB0014582808D67111193878775FC
:1022D00022CA06CC26C805443EC49377F40F3E8537
:1022E0003EC07D332285EFE06FB122479317740023
:1022F0008144BA973EC2824513F5F40F6537824593
:102300002AC613F5F40F893FB2478245C98F93F768
:10231000F70F13F5F40F3EC6EFF0FFBE9247B386FA
:102320009700B2478504C98F88225D8D1375F50F1C
:10233000EFE0AF9893070008E39FF4FAEFE0CF9047
:1023400005049D47E31BF4F8E2405244C244710186
:1023500082809307D00319C183C7A1DA1305F00F58
:1023600063F8B7009307900563E4B7001305F00C1A
:102370008280138781DA7C238D4663FFF600930702
:1023800020021CA17C232D47B387E7029387A70374
:1023900093F7F70F9CA182802D47B387E702FD17C3
:1023A0001CA193076004FDB783C7E1DAADC34111F7
:1023B00022C4930531002A841305210006C6553F27
:1023C00013070002637E8700930744FA93F7F70F21
:1023D000637BF7001305F00FB24022444101828075
:1023E0001C81E3E987FE9C81E3E687FE83C7D1D1A8
:1023F0000D67130787563E972546082301476365F7
:10240000F600850713F7F70FA38EE1D0F1B7130598
:10241000F00F828083C771DB2A878DCBA546B387F7
:10242000D7021305F00F6355F70283C7C1D10D67BB
:102430001307C7553E971D46082301476365F600FD
:10244000850713F7F70F238EE1D082801305F00F75
:102450008280111126C883D4C1DA896593850571FC
:10246000268506CC22CAEFD03FEB1373F50F238CE1
:1024700061DC93160501F977C1829387078F338456
:10248000F6029305803E1AC633858400EFD05FE8DC
:102490001377F50FA38BE1DC1375F50F930780C15C
:1024A0003306F502930540063AC43385C4002295ED
:1024B00032C2EFD0FFE59377F50F238BF1DC137574
:1024C000F50F9305C0F93305B5021246A9453EC084
:1024D000269532952295EFD0BFE33243224793767B
:1024E000F50FA38AD1DC41563305C302614682470A
:1024F000E24052443307C7022695C2443A95130777
:10250000C0F9B387E7023E95D957B386F6023695F0
:10251000238AA1DC71018280311103C781DD26C4C9
:1025200091642AC02EC2938784B5AE862A868145DF
:102530001305400306C822C6EFF00F8992460246F3
:1025400003C771DD2A84938784B581451305800311
:10255000EFF08F879246024603C761DD3363A40024
:10256000938784B581451305C0031374F30FEFF00F
:10257000AF859246024603C751DD3363A4009387BB
:1025800084B58145130500041374F30FEFF0CF8376
:102590009246024603C741DD3363A400938784B5A6
:1025A0008145130540041374F30FEFF0EF81924659
:1025B00002463363A400938784B501478145130520
:1025C00080041374F30FEFF02F80C240418D32442A
:1025D000A2441375F50F51018280411126C206C62F
:1025E00022C42EC0B28499CA9D476385F6021305A2
:1025F000F00FB24022449244410182803285193D5D
:102600002A8481452685093F1345F5FF618D1375A1
:10261000F50FC5B705477D546318E5003285EFF027
:10262000BFD81314850161840245A685EFF07FD2DF
:10263000F1BF111106CC22CA26C82AC22EC4130724
:10264000F6FF954763F8E704328532C0EFD01FFBF1
:1026500082460D648144939776003EC013048475CE
:10266000A245124513F6F40F36C6853F82473387DD
:102670009700229718238504798DEFD01FE4130764
:102680000008B246E39EE4FC5244E240C2447101B9
:102690006FD09FDBE2405244C244710182805111ED
:1026A00022C2938781DA06C426C0FC23138481DA10
:1026B00099C3FD177CA0894785448145138581D93D
:1026C0007CA404A4EFE0DFCF7C348DCBFD177CB479
:1026D0002C3828280146B13FEFF01FBF11651305C4
:1026E00045B8EFE05FF61305803EEFE05F8EFD57E3
:1026F0001CA4A240124482443101828004A0C9BFBC
:10270000938781DAFC278946138781DA6393D700A0
:1027100079B7854663E5F600850793F7F70F7CA741
:102720008280511122C206C426C09947138481DADF
:102730006313F50C5C2CADEF3C3C91EB85473CBC46
:1027400085475CACA24012448244310182807C20E7
:10275000639DA704282885471D4685457CAC9304C6
:10276000800CC13D26859545EFE01FB8FD1493F41C
:10277000F40FA947E398F4FE2945EFE05F85930441
:10278000800C26859545EFE03FB6FD1493F4F40FD9
:10279000A947E398F4FE2945EFE07F831305800CF9
:1027A000EFE0FF8285477CBC61BFEFF00FA849BF17
:1027B00028209307900563EBA70205051375F50F15
:1027C00028A006058544A9451375E50F64ACEFE024
:1027D000BFB1930710103EA844A81244A2408244FF
:1027E0001D468545054531016FF0BFE48547230F40
:1027F00004005CBC81BF230E0400A9B7938781DA73
:10280000D82B01CBAC3BA82B1D46238A07006FF0C9
:102810005FE28280111122CA06CC26C8138401D23D
:102820002285EFE03FBA31CD138581D9EFE09FB823
:10283000AA84138581D9EFE05FB82AC62285EFE02C
:102840007FB72AC42285EFE05FB799462247B24599
:1028500036C29D46AA8736C0414699462685EFF086
:102860008FD205C12285EFE0FFB58547AA846304B6
:10287000F5029304E5FF93F4F40F63E49700EFF09F
:102880008F893504938751D9E31CF4F8E240524410
:10289000C24471018280938781DAF8239546E3E28E
:1028A000E6FE0507A94513054006F8A3EFE0DFA300
:1028B000A9451305800CEFE03FA3938781DAC4ABF1
:1028C000A4AB2D3F81452285EFE09FAF5DBF411155
:1028D00022C4138781DA5E2326C283C661DD8D0799
:1028E00006C65EA336C0EFF0DFB603C761DD8246E1
:1028F000938781DA630AD700F837914663E5E600EB
:1029000005071377F70FF8B72244B2409244AC3B67
:10291000A82B014641016FF0DFD1130181FD26CEC6
:10292000138581D906D222D0EFE0BFAEEFE01FCFF2
:102930001375F50FEFF0CFF5138781DA0347170210
:10294000938781DA3EC83AC4C247224783C7270229
:102950006368F70092500254F244130181028280AE
:10296000A247354433848702938701D23E9422855F
:10297000EFE05FA5854763FEA704138581D9EFE0EB
:10298000FFA82AC6138581D9EFE0BFA82ACC2285EB
:10299000EFE05FA22ACA2285EFE03FA29946AA870C
:1029A0005247E245324536C29D4636C00946854605
:1029B000EFF06FBD19CD138581D9EFE09FA411C948
:1029C00022858145EFE0DF9F1937138581D9EFE03C
:1029D0009FA3A247850793F7F70F3EC4B5B75111E0
:1029E00022C206C4138481DA7C2091E71244A240FB
:1029F00031016FE0FFE7FD177CA0EFF05FED93077B
:102A000010101D463EA88545854705455CA8EFF09A
:102A10005FC2EFF0BFDE9305F00F13054006EFE055
:102A2000BF8C1305C012EFE08FDA7DBF511106C4D1
:102A300022C226C0EFF0AF88EFF08F8FEFF0EF8467
:102A4000EFE0BFFF938781DAF43FC1E2138581D9BC
:102A5000138481DAEFE07F961375F50FEFF07FCCEA
:102A6000EFF0EF877D151375F50FEFF04FA75C2C96
:102A700089EBEFF03FDAEFF05FEAEFF04FE5EFE0E0
:102A80001FF7583C8547631CF702EFE0FFEBEFF0C0
:102A90008FBF938401D22685EFE0DF9201C98D6755
:102AA000103C83C5C75E2685EFE0BFA1B5049387C0
:102AB00051D9E39297FE1C3C93B717001CBC1244FB
:102AC000A240824431016FF07FD30547DAAFEFF0C7
:102AD0001FF1F5B7411106C622C426C2938781DAD9
:102AE0001547F8A3EFE0FFD4EFE0BFBB9305F00F6D
:102AF00013054006EFE04FFF9305F00F2945EFE087
:102B0000AFFE09479946130660038545138581D9B1
:102B1000EFE09F8B138481DA0830EFE07FC2EFF0A3
:102B20002F83930710103EA8EFF05FCD2C38282894
:102B30000146EFF01FB0EFF02FF913050019EFE099
:102B40000FC937F700E0144783A781D0B69723A4B5
:102B5000F1D0184702C023A8E1DCEFF0EFF61C2407
:102B600089E7EFF02FA5EFF07FEC8247BDC3EFF0D0
:102B70008F9F14300D47930740FC6376D7001C38B5
:102B8000FD17E207E1871CB81C2405476388E700AE
:102B90000947638DE70281EBEFE07FCFEFE0FFD0E5
:102BA0000824EFE0DFD81C241307E00FE386E7F6E4
:102BB0001307F00FE385E7F602C018208547E30FFF
:102BC000F7F01305C003EFE09FAB41BFEFF05FB339
:102BD000D9BF85473EC0D5B77800AED580A83FD3D2
:102BE00000408D14A0C0DA128120D9F1DB40200012
:102BF000AF00000002000404061008050C141006C3
:102C0000181520073016400F6017801F02020202BD
:102C100004081020040404040810204006060606D8
:102C20000C183060080808081020408001000200DD
:102C3000030004000500060007000800020004006D
:102C400008001000200040008000000100AA0000E1
:102C50006C1010103C3C30380000000000001010D8
:102C600000001010000010100000101000186C6C14
:102C7000186038180C300000000000033C183C3C81
:102C80001C7E1C7E3C3C00000C00603C3C187C3CE4
:102C9000787E7E3C667E066360C6C63C7C3C7C3C9F
:102CA0007E6666C6C3C37E3CC03C18003800600028
:102CB00006001C0060180C603800000000000000D6
:102CC000300000000000001C18387606000FF0FFEE
:102CD000000FF0FF000FF0FF000FF0FFFFFFD7D74E
:102CE000FFFFD7D7FFFFD7D7FFFFD7D7FFE79393D4
:102CF000E79FC7E7F3CFFFFFFFFFFFFCC3E7C3C3B7
:102D0000E381E381C3C3FFFFF3FF9FC3C3E783C333
:102D1000878181C39981F99C9F3939C383C383C358
:102D2000819999393C3C81C33FC3E7FFC7FF9FFFAF
:102D3000F9FFE3FF9FE7F39FC7FFFFFFFFFFFFFFE1
:102D4000CFFFFFFFFFFFFFE3E7C789F90055181822
:102D5000FE383838427E2838081010100000101055
:102D600000001010000010100000101000186C6C13
:102D70007E666C1818186C180000000666386666C7
:102D80003C60300666660000180030666E3C666681
:102D90006C6060666618066660EEE6666666666685
:102DA000186666C666660630600C3C006C00600003
:102DB0000600300060000060180000000000000005
:102DC0003000000000000030180CDC06000FF0FF9F
:102DD000000FF0FF000FF0FF000FF0FFFFFFD7D74D
:102DE000FFFFD7D7FFFFD7D7FFFFD7D7FFE79393D3
:102DF000819993E7E7E793E7FFFFFFF999C799996F
:102E0000C39FCFF99999FFFFE7FFCF9991C3999994
:102E1000939F9F9999E7F9999F1119999999999970
:102E2000E79999399999F9CF9FF3C3FF93FF9FFFD2
:102E3000F9FFCFFF9FFFFF9FE7FFFFFFFFFFFFFFB0
:102E4000CFFFFFFFFFFFFFCFE7F323F900AA243CEA
:102E5000FE7C547CA5DB24100C38301018001010B8
:102E600000001010000010100000101000186CFE80
:102E7000D80C3830300C38180000000C6E7806067C
:102E80006C7C600666661818307E18066E66666092
:102E9000666060606618066C60FEF6666666666070
:102EA000186666C63C3C0C30300C6600383C7C3CF6
:102EB0003E3C7C3E7C381C6618CC7C3C7C3E7C3E98
:102EC0007E6666C6C6667E30180C000E000FF0FFE8
:102ED000000FF0FF000FF0FF000FF0FFE70FD71714
:102EE000E000D010FF07D717C000D010FFE7930114
:102EF00027F3C7CFCFF3C7E7FFFFFFF39187F9F9B8
:102F000093839FF99999E7E7CF81E7F99199999F81
:102F1000999F9F9F99E7F9939F0109999999999F83
:102F2000E7999939C3C3F3CFCFF399FFC7C383C3DD
:102F3000C1C383C183C7E399E73383C383C183C11B
:102F400081999939399981CFE7F3FFF10055427E94
:102F5000FEFEFEFE81FF247C7E7C7E103CF010F0A5
:102F60001FFF1FFF10F010F01FFF1FFF0018006C65
:102F70007C187600300CFE7E007E001876180C1C43
:102F8000CC067C0C3C3E181860000C0C6C667C6017
:102F9000667C7C6E7E18067860D6DE667C667C3C3D
:102FA000186666D618181830180C000000066660FF
:102FB0006666306666180C6C18FE66666666666045
:102FC000306666C66C660C60180600CC000FF0FF19
:102FD000000FF0FF000FF0FF000FF0FFC3FFD7F767
:102FE000FFFFDFFFD7F7D7F7DFFFDFFFFFE7FF9335
:102FF00083E789FFCFF30181FF81FFE789E7F3E3EF
:1030000033F983F3C3C1E7E79FFFF3F39399839FFA
:103010009983839181E7F9879F292199839983C3B4
:10302000E7999929E7E7E7CFE7F3FFFFFFF9999FD2
:103030009999CF9999E7F393E70199999999999F6C
:10304000CF9999399399F39FE7F9FF3300AA427E0C
:103050007C7C54FEA5FF28100C10307C3C00000046
:10306000000000001010101010101010001800FECA
:103070003630DC00300C3818000000306618380696
:10308000FE06661866060000307E1818607E6660D0
:10309000666060666618066C60C6CE6660666C0622
:1030A000186666FE3C1830300C0C0000003E66606E
:1030B000667E306666180C7818D666666666603C72
:1030C000306666D638661830180C00DC0000000048
:1030D0000F0F0F0FF0F0F0F0FFFFFFFFC30FFF0720
:1030E000E000C000D717D717D010D010FFE7FF01BE
:1030F000C9CF23FFCFF3C7E7FFFFFFCF99E7C7F99A
:1031000001F999E799F9FFFFCF81E7E79F81999F3F
:10311000999F9F9999E7F9939F3931999F9993F9CD
:10312000E7999901C3E7CFCFF3F3FFFFFFC1999F61
:103130009981CF9999E7F387E729999999999FC33D
:10314000CF999929C799E7CFE7F3FF230055243C8E
:103150003838101099DBE0280810103818000000EB
:103160000000000010101010101010100000006C73
:10317000FC66CC0018186C18180018606618606699
:103180000C666618660C18181800300066666666CD
:103190006C6060666618666660C6C666606C666669
:1031A00018663CEE66186030060C0000006666602B
:1031B0006660303E66180C6C18D666667C3E60060B
:1031C00030663C7C6C3E3030180C00F8000000008B
:1031D0000F0F0F0FF0F0F0F0FFFFFFFFE7FFFFFF13
:1031E000FFFFFFFFD7D7D7D7D7D7D7D7FFFFFF939B
:1031F000039933FFE7E793E7E7FFE79F99E79F9995
:10320000F39999E799F3E7E7E7FFCFFF9999999940
:10321000939F9F9999E799999F3939999F93999984
:10322000E799C31199E79FCFF9F3FFFFFF99999FA2
:10323000999FCFC199E7F393E729999983C19FF9A2
:10324000CF99C38393C1CFCFE7F3FF0700AA181824
:10325000101038384266C044001000100000000012
:103260000000000010101010101010100018006C5A
:10327000300676000C300000180018C03C7E7E3C02
:103280000C3C3C183C3818180C0060183C667C3C20
:10329000787E603C667E3C637EC6C63C6036663C9B
:1032A000183C18C6C3187E3C033C0000003E7C3C22
:1032B0003E3C3006663C6C663CC6663C6006607C04
:1032C0001E3E186CC6067E1C1838007000000000F8
:1032D0000F0F0F0FF0F0F0F0FFFFFFFFFFFFFFFFFA
:1032E000FFFFFFFFD7D7D7D7D7D7D7D7FFE7FF93B2
:1032F000CFF989FFF3CFFFFFE7FFE73FC38181C32A
:10330000F3C3C3E7C3C7E7E7F3FF9FE7C39983C3EB
:1033100087819FC39981C39C813939C39FC999C350
:10332000E7C3E7393CE781C3FCC3FFFFFFC183C3A9
:10333000C1C3CFF999C39399C33999C39FF99F83A7
:10334000E1C1E79339F981E3E7C7FF8F005500003A
:10335000000000003C3C00000000000000000000F5
:1033600000000000101010101010101000000000DD
:10337000000000000000000030000000000000001D
:10338000000000000000003000000000000000000D
:10339000000000000000000000000000000000002D
:1033A0000000000000000000000000FF000000001E
:1033B0000000003C00003800000000006006000033
:1033C00000000000003C00000000000000000000C1
:1033D0000F0F0F0FF0F0F0F0FFFFFFFFFFFFFFFFF9
:1033E000FFFFFFFFD7D7D7D7D7D7D7D7FFFFFFFF2D
:1033F000FFFFFFFFFFFFFFFFCFFFFFFFFFFFFFFF0D
:10340000FFFFFFFFFFFFFFCFFFFFFFFFFFFFFFFFFC
:10341000FFFFFFFFFFFFFFFFFFFFFFFFFFFFFFFFBC
:10342000FFFFFFFFFFFFFFFFFFFFFF00FFFFFFFFAB
:10343000FFFFFFC3FFFFC7FFFFFFFFFF9FF9FFFF76
:10344000FFFFFFFFFFC3FFFFFFFFFFFF3402FE018F
:1034500001912949910109F90901F12929F101F99C
:103460002929D10109F90901010101F10949D10114
:10347000F12929F101F9112111F901F929090101B4
:1034800001FE0708080809090808080908080908CA
:1034900008090809080809080809080808080808A8
:1034A0000909090809080809080908080809080994
:1034B000090908080807000050020F030101FFFF77
:1034C00001010F0010F3F3000030F0E03030F0E0C5
:1034D000001070F0D000D03010C0C0C000C09E39C5
:1034E000393173F7E400C0E0301010E0F00010F064
:1034F000F0000090F0F000C0E0705050706000608C
:1035000050D0D0900010F8FC10100000020303030C
:10351000020000000203030200020303000203038F
:10352000021818110F030000000000000001010143
:1035300002020201000000010302010F0F08000156
:10354000030302010303020001030202030100035B
:10355000020202010000010302010000FF83C7C74D
:10356000C3C1C1C7E7000000FFFFFFDFDF5FBFCFC0
:10357000EFD7DF00080110140A18122020411014A0
:10358000081A10212020101408183250110141206F
:103590002012180A1410202021101A0814100111EA
:1035A00050321808141000000801040A060F0E0417
:1035B0000A11040A060F0E040A12040A0E0F06046A
:1035C0000A09110A040E0F060A04120A040E0F0655
:1035D0000A04090A04060F0E0A0400000301040588
:1035E00001000000030101010100000008010C14AA
:1035F0001F1E1C1C18340C141F1E1C1C182C0C1411
:103600001F1E1C1C181834181C1C1E1F140C2C18F0
:103610001C1C1E1F140C18181C1C1E1F140C000050
:10362000110100000000000808141414080800002C
:1036300000000000000022220808001400080822F0
:103640002200000082828292101000444444001044
:10365000109282828200000000001010282828109A
:1036600010000000000000000022220808001400E2
:103670000808222200000082828292101000444436
:10368000440010109282828211011828283F3F3E88
:103690003E383838383838303068681828283F3F86
:1036A0003E3E38383838383830306868000000001E
:1036B000000000000000000000000000006868300A
:1036C000303838383838383E3E3F3F282818686848
:1036D00030303838383838383E3E3F3F28281800D8
:1036E00000000000000000000000000000000000DA
:1036F00011011828283F3F3E3E38383838383830D6
:103700003068681828283F3F3E3E38383838383807
:10371000303058581828283F3F3E3E38383838381F
:103720003830303030686830303838383838383EE3
:103730003E3F3F2828185858303038383838383805
:103740003E3E3F3F2828183030303038383838383F
:10375000383E3E3F3F282818FFFFFFFFFFFFFFFFD7
:10376000FFFFFFFFFFFFFFFFFFFFFFFFFFFFFFFF69
:10377000FFFFFFFFFFFFFFFFFFFFFFFFFFFFFFFF59
:10378000FFFFFFFFFFFFFFFFFFFFFFFFFFFFFFFF49
:10379000FFFFFFFFFFFFFFFFFFFFFFFFFFFFFFFF39
:1037A000FFFFFFFFFFFFFFFFFFFFFFFFFFFFFFFF29
:1037B000FFFFFFFFFFFFFFFFFFFFFFFFFFFFFFFF19
:1037C000FFFFFFFFFFFFFFFFFFFFFFFFFFFFFFFF09
:1037D000FFFFFFFFFFFFFFFF0212021202120212A1
:1037E0000212021202120212021202120212021239
:1037F0000212021202120212021202120212021229
:103800000212021202120212021202120212021218
:103810000212021202120212021202120212021208
:1038200002120212021202120212021202120212F8
:1038300002120212021202120212021202120212E8
:1038400002120212021202120212021202120212D8
:103850000212021202120212000000000000000018
:103860000000000000000000000000000000000058
:103870000000000000000000000000000000000048
:103880000000000000000000000000000000000038
:103890000000000000000000000000000000000028
:1038A0000000000000000000000000000000000018
:1038B0000000000000000000000000000000000008
:1038C00000000000000000000000000000000000F8
:1038D00000000000000000000000000000000000E8
:1038E00000000000000000000000000000000000D8
:1038F00000000000000000000000000000000000C8
:1039000000000000000000000000000000000000B7
:1039100000000000000000000000000000000000A7
:103920000000000000000000000000000000000097
:103930000000000000000000000000000000000087
:103940000000000000000000000000000000000077
:103950000000000000000000000000000000000067
:103960000000000000000000000000000000000057
:103970000000000000000000000000000000000047
:103980000000000000000000000000000000000037
:103990000000000000000000000000000000000027
:1039A0000000000000000000000000000000000017
:1039B0000000000000000000000000000000000007
:1039C00000000000000000000000000000000000F7
:1039D00000000000000000000000000000000000E7
:1039E00000000000000000000000000000000000D7
:1039F00000000000000000000000000000000000C7
:103A000000000000000000000000000000000000B6
:103A100000000000000000000000000000000000A6
:103A20000000000000000000000000000000000096
:103A30000000000000000000000000000000000086
:103A40000000000000000000000000000000000076
:103A5000000000000000000040A040A040A040A0E6
:103A6000C0A0C0A0C0A040A040A040A040A040A0D6
:103A700040A040A040A0C0A0C0A0C0A040A040A0C6
:103A800040A040A040A040A040A0C0A0C0A0C0A0B6
:103A900040A040A040A040A040A040A040A040A026
:103AA000C0A0C0A0C0A040A040A040A040A040A096
:103AB00040A040A0C0A0C0A0C0A040A040A040A086
:103AC00040A040A040A040A040A0C0A0C0A0C0A076
:103AD00040A040A040A040A0FDFEFDFEFFFFFFFF74
:103AE000FFFFFFFFFFFFFFFFFFFEFFFEFDFEFDFEEE
:103AF000FFFEFFFFFFFFFFFFFFFFFFFF87B787FE10
:103B0000B7CEB7FEE79EE7FF87B797FF87A7B7FF58
:103B100087EFDF86FF86B5B6B5B6B7B6B7B7B7B726
:103B2000B7B7B7B7B7B7B7B7B7B6B7B6B7B6B7B629
:103B3000B7B787FFFFFFFFFFFFFFFFFFFFFEFFFE9F
:103B4000FDFEFDFEFFFEFFFFFFFFFFFFFFFFFFFF8C
:103B5000FFFFFFFEFFFEFFFE04013E223E00003E8F
:103B600000003A2A2E00222A3E000E083E002E2A8D
:103B70003A003E2A3A00023A06003E2A3E002E2A29
:103B80003E0000003666FF00FF5AFF00FF50FF00B6
:103B9000FF48323E3248323E3248323E3248323EB0
:103BA0003248323E3248323E3248323E3248323E6D
:103BB0003248323E3248323E324832000000010183
:103BC00001010000FFFFFFFF111E2B00000100019B
:103BD00001000100000001000302020103010201D3
:103BE0000303020101020300F8ECE0808C9800005E
:103BF00000D0020000EE0700009C0B00007E0E00CB
:103C000000C41000004A1200008E13004C2C00006B
:103C100000366E0100366E0100F4010000366E01C0
:103C200000127A0000093D00F036000088360000DE
:103C30002036000074350000A8350000EC35000087
:103C4000370600400C4A485281990CCA9386A18CD1
:103C50009422ADCA2A851D890605170600001306A1
:103C6000E60032950285010001000100010001001B
:103C70000100010001001385C18F83230500130596
:103C8000001063DCA3041387418F1843B73701404A
:103C9000C146010008230507C8C719467D167DFEE9
:103CA000FD16EDFA23A607008D4533F5B300631525
:103CB000B5001386418F18C2170500E01305C50D26
:103CC000028501009385C18F83A3050013050004BD
:103CD000970500E0938525058285170500E013050B
:0C3CE000650402850000000000000000E8
:00000001FF
