:100000006F00800A00000000A4000000A4000000AF
:1000100000000000000000000000000000000000E0
:1000200000000000000000000000000000000000D0
:10003000A400000000000000A40000000000000078
:10004000A4000000A4000000A4000000A400000020
:10005000A4000000A4000000A4000000A400000010
:10006000A4000000A4000000A4000000A400000000
:10007000A4000000A4000000A4000000A4000000F0
:10008000A4000000A4000000A4000000A4000000E0
:10009000A4000000A400000040000020A400000014
:1000A000A400000001A001009701002093810179C4
:1000B0001381817B173500001305457097050020DB
:1000C000938545F4170600201306860263FAC500DF
:1000D0008322050023A0550011059105E3EAC5FE22
:1000E0001385418B9385C1D56377B5002320050027
:1000F0001105E36DB5FE8962938202887390023028
:100100008D4273904280970200009382A2EF93E2A7
:10011000320073905230EF10905D9712000093827E
:10012000A2BC739012347300203001000000000064
:100130001145B71601409305A01763C5B306930593
:10014000B01763C07506C8CA639EB3049385418D1A
:100150000395050021C91386C18D37370140130768
:1001600007C06347A0009386818D944214C239A0D2
:100170007D158AA105E91442910614C28A228AA13A
:1001800019C9B62289CA54D7858234C308538565F4
:100190004D8D08D301A80853FD75FD156D8D08D34D
:1001A00011A088CA85031306D02063CFC300814302
:1001B000138501900C4185050CC11705002013051E
:1001C00065F89385C18F88C1138541902320750000
:1001D0009383C18C83D7030037230140130303406B
:1001E0000325C304930500406390F5049382818C3A
:1001F00083A502002E9523A0A2001387018D0C2356
:1002000085050CA31306000263CAC500230007007E
:1002100023A002009382418C23A0A200239003001C
:100220009385118D8C21D1A89395F7018507239093
:10023000F30063DC050A9382818B83A502002E956F
:1002400023A0A20093050040E39CF5FC23A002003C
:100250009382418B23A0A2008145970200209382C4
:1002600062DA03A6C2006345C50093E58500C102BA
:1002700003A642006345C50093E54500A10203A61D
:1002800002006344C50093E525009382018C03A519
:10029000020023A002009382C18B23A0A200970238
:1002A0000020938222D603A6C2006345C50093E5D1
:1002B0000502C10203A642006345C50093E505049B
:1002C000A10203A602006344C50093E505019382E1
:1002D000F18C03C502002380B2006316B50093823F
:1002E000E18C2380A200A14509A89382018C83A5FB
:1002F00002002E9523A0A2008145232AB302B70550
:100300004000032583004D8D2324A300730020307B
:10031000634E050263C305042E86AA857D5515C26A
:1003200085466378B6006356C00006068606E36C11
:10033000B6FE014563E4C500918D558D8582058229
:10034000F5FA82808682C93F2E8582823305A040DD
:100350006347B000B305B040C1B7B305B040868273
:10036000653F3305A0408282868263C705006349EA
:1003700005005D372E858282B305B040E35B05FE44
:100380003305A040513F3305B040828200002A83EC
:1003900009CA83830500230073007D1605038505C4
:1003A0006DFA82802A8311C62300B3007D160503EF
:1003B00065FE82802147B717014011469145CCCB9D
:1003C00093168501E186094363C4060037030200E2
:1003D00023A867000100010001008CCB010001008F
:1003E000010006057D171375F50F71FB37170140E6
:1003F00050CB89450CCB944393F6F6F093E6060870
:1004000094C301000100010010CB010001000100B4
:1004100050CB0100010001004CCB98431377F7F05B
:100420001367070198C3828083C7218D89EFB717AF
:1004300001400947D8CB0100010001001147D8CB8A
:10044000010001000100828083C7218D89EFB71769
:100450000140114798CB010001000100094798CBEA
:10046000010001000100828083C7218D511122C249
:1004700006C42A849DEB4D3F13058007253F0145A7
:10048000153F137574001365050B2D3701451D3796
:1004900041450D37553F493F13058007213F124421
:1004A000A24013050004310131B7A2401244A38CCD
:1004B000A18E238C018E3101828083C7218D91E32F
:1004C000D5BD511122C483C5818FAA8603C5918FE2
:1004D0003703002093D2354093177500BE929307DF
:1004E000031426C2969713C6F5FF1D8A8423054779
:1004F000130303143317C7001376F70F1AC093F3CF
:10050000160033E3C400639603001343F7FF33F38D
:1005100064008244A6922380620083C3070193F2A1
:10052000260033637600639602001343F7FF33F32C
:10053000630083C307022388670093F2460033E316
:10054000C300639602001343F7FF33F3630083C3D2
:1005500007032380670293F2860033E3C3006396A8
:1005600002001343F7FF33F3630083C307042388B8
:10057000670293F2060133E3C3006396020013435C
:10058000F7FF33F3630083C307052380670493F207
:10059000060233E3C300639602001343F7FF33F30D
:1005A000630083C307062388670493F2060433E3DA
:1005B000C300639602001343F7FF33F36300238005
:1005C000670603C30707E206E1863366C30063C616
:1005D00006001347F7FF3376E3002388C706850537
:1005E0009307F00763D6B7000505A38CA18E81455C
:1005F0002244238CB18E924431018280B5B503C769
:10060000218D511106C422C226C085476310F714FC
:1006100023A20190B70700203714024093870714E4
:1006200023AEF18E1C4C93E717001CCC1C4C93E7B7
:1006300047001CCC1C4C93E707011CCC1C4C93E7D7
:1006400007021CCC85454945EF10C069A5454545C5
:10065000EF1040691C4C8564C58F1CCC5C44C58F71
:100660005CC401005C44FD761387F6FFF98F5CC41F
:10067000B737014098439386F67F370401401377DC
:1006800077FC1367870098C39843A5457945758F14
:1006900098C39843A166938404801377F7F798C3AF
:1006A00098431367072098C398431367071098C3AC
:1006B000D8436D9BD8C39843558F98C39843916690
:1006C000558F98C398431367470098C3984313679F
:1006D000070498C35C44E19B93E747005CC4EF10B8
:1006E00060605C4411777D17F98F3167D98F5CC4E6
:1006F0001307C00581479306A02F0546854537059A
:100700000040EF10501BB70700401307B00798DFF9
:10071000984FE576FD16758F98CF984F458F98CFF7
:1007200098531367070198D3984B6D9B98CBD84784
:1007300013674700D8C7A2401244B7E700E0130789
:10074000000423A2E710824431018280B7170140E0
:10075000094798CB114798CB85454545EF10805800
:1007600085454945EF10005829458964EF10700010
:1007700001445D399384C426B3079400882305049B
:100780001539E547E31AF4FEC1310945EF10607EE3
:100790001306F031854537050040EF10300D61BF7D
:1007A00083C7218DD5EB111122CA3704002026C83A
:1007B00006CC13040414814426857D31A287930559
:1007C0000401A146130700088823902B798D798EA8
:1007D0003335A00019C21365250003C60702798EC0
:1007E00019C21365450003C60703798E19C2136544
:1007F000850003C60704798E19C21365050103C677
:100800000705798E19C21365050203C60706798E9E
:1008100019C21365050403C60707798E19C213654B
:1008200005082EC63AC43EC236C069368246224703
:100830009247FD16B2450587C1FA8507E393B7F8DD
:1008400021318504A14713040408E397F4F6E2403C
:100850005244C244710182808280370500205111C8
:100860001306004081451305051406C4253EA24029
:1008700023AA018E23A8018E2386018E3101828056
:1008800093573540920537070020AE97130707149A
:100890003E971345F5FF14231D898547B397A7009D
:1008A00093C7F7FFF58F1CA382801307F0076367D8
:1008B000A7001307F0036363B700D9B7828093578B
:1008C000354092053387B700B70700209387071498
:1008D000BA9794231345F5FF1D8905473317A700E1
:1008E000558F98A382801307F0076367A70013074B
:1008F000F0036363B700E1B78280B707002003A766
:10090000C7010111856726CA93870780B304A70032
:10091000A6972EC006CE22CCB2853EC283C6C18E1B
:10092000802089C69347F4FF13F4F70F82470245EE
:10093000A1073EC493168401E1862EC82AC663D857
:10094000060255373245C2459317140013F4F70FCA
:10095000A2470505E310F5FE924793840410850530
:10096000E39E97FAF2406244D24405618280353FAB
:10097000C2453245D1BF411122C426C206C62A84CF
:10098000AE840820050411E5B2402244924441019E
:100990008280A68532C095370246A104DDB703C622
:1009A000218E1D479307160093F7F70F6373F70027
:1009B000814703C7118E6308F7001387418E329772
:1009C00008A32381F18E828083C7E18C311193F7D4
:1009D000F70F83C6018E22C626C406C82380F18E77
:1009E0008944054433F7970019CB33F7960001EBA0
:1009F0001375F40F36C23EC05D3792468247050438
:100A00001D478604E310E4FEC2403244A244510173
:100A10008280511122C206C42A847D3783C7E18CAB
:100A2000A24033D58740124405893101828051119B
:100A300006C4593F83C7118E03C7218E0145630F3A
:100A4000F7001387418E3E978507082393F7F70F2A
:100A50001D476373F7008147A380F18EA2403101E7
:100A60008280511106C48D3703C5E18CA240133535
:100A7000150031018280511106C4E5377DDDA240A9
:100A800031018280511122C2371402401C4C06C42D
:100A900093E717001CCC1C4C93E707011CCCA54521
:100AA0005145EF102024B7060140DC46717713074B
:100AB000F73FF98FDCC61C4C056713070780D98FF9
:100AC0001CCC5C44D98F5CC401005C44FD769386E9
:100AD000F67FF58F5CC4B7370140938707C0944712
:100AE00065767D16E19A94C7DD4694D79306803EDD
:100AF000D4D79306401FB4C39443A2401244BD9A76
:100B000094C3D44B93E61600D4CB944393E60608E3
:100B100094C3D44FF18E1966D18ED4CFD44F558F54
:100B2000D8CFF843A166558FF8C3984313671700D1
:100B300098C331018280B7370140938707C0C8D777
:100B40000581A8C398538566558F98D38280239AD0
:100B5000018CB7370140938707C09853FD76FD1687
:100B6000758F98D3828083A5418C51113705600918
:100B700006C4EFF06FFAA2403101828051111305D3
:100B8000800C06C422C226C0EF10A03EB70601406A
:100B9000DC4601777D17F98F37250140DCC6130548
:100BA0000540EF10E03E0147B72201401D43854656
:100BB0006D46138502400C49B317E30093C7F7FF56
:100BC000ED8FB395E600CD8F1CC90D07E313C7FE6B
:100BD00013060040A145EF10200E9357A54096073D
:100BE00023A2F18C9355254099473705004BA388E4
:100BF000F18C2389018CEFF0AFF185678D0763D10C
:100C0000A70685469547A388F18C2389D18CB71711
:100C10000240984F1367170098CF984F1367070249
:100C200098CF930580047945EF10C00B2945EF104C
:100C30004034B7170140938707409C4793F7070458
:100C4000F5F7B7060140DC46370700F97D17F98F45
:100C500037070004D98FDCC683C7218D754591E322
:100C600079458145EF10000881450945EF1080075F
:100C700003C6118D37240140854513050440EF005C
:100C8000F07A130404401C44370740007D45D98F97
:100C90001CC4EF10602CFD339D321244A2408244EC
:100CA000310165BE511122C206C426C02E8401E95D
:100CB0001244A24082442E8531016F10802B930490
:100CC000F00F898C8604330494021385F4FFA53554
:100CD000135514402295EF1020281244A24082445C
:100CE0003101B5B583C7218D511106C422C226C07A
:100CF00091E7A536FD54253B19C9B53BA520EF006A
:100D0000F04AA24012448244014531018280A13D53
:100D100013042503E38184FE1306E002A2851385F4
:100D2000C1D4EF1080521375F50F9547631EF5007F
:100D30009387C1D41307600571469305C0021385DC
:100D4000C1D4D8A30D39A93CA28475B70E059387E9
:100D5000C1D0AA9798339306100263E4E60009070E
:100D600098B382808280FD57A38DF1D2238BF1D27C
:100D7000A38A01D2238A01D282809387C1D01387AC
:100D8000070223800700A380070023810700A382B6
:100D90000700A38107002382070023830700A383A2
:100DA0000700A107E39FE7FC8280238F01D2A38E77
:100DB00001D21147238101D4A380E1D40567130731
:100DC00057722396E1D009679386C1D01306A78492
:100DD00092A6130647C0130777C79AB21307F0030A
:100DE00098AA03C7C1D392AE9387C1D011C76947F0
:100DF000F8AB194798BB82806947F8BB130780039B
:100E0000D5BF85476314F5002E8589B78E05938776
:100E1000C1D0AE979833D14663F4E600791798B302
:100E200082809D4763EDA70C8D67938707EB0A05CA
:100E30003E951C41511106C422C282877544F94572
:100E40001305C00885357D14F9451305C00D1374CD
:100E5000F40F893D6DF4A240124431018280754443
:100E60009305300251453D3D7D149305D002130595
:100E7000800C1374F40F3D3565F4F1BF95450D45B5
:100E80001535A9452945393D95450D451244A240E2
:100E9000310109BD8945D5BFA9451305800C193518
:100EA000914513050005DDB74D4493050005114537
:100EB000D53B7D1493050005130540061374F40F0C
:100EC000D53365F449BF1304800C130580FC018DF4
:100ED0008D451375F50FF9332285B145E1337D1446
:100EE0001374F40FA947E312F4FEB5B79305A00FEE
:100EF00013054006453B9305A00F514541BF828035
:100F00009967938707DC3305F50203A681D0B7F50F
:100F100000E09845B306C740E3EDA6FE23A4E1D068
:100F200082801387C1D093173500BA979023142B72
:100F30009305460063C2D5028506014563CFC6000E
:100F40009C33183B9386870063C9E6000507B327E7
:100F5000F70013C5170082800145828003C7B1D313
:100F60009307F00F6315F7029387C1D0982B930670
:100F7000F00363E0E6029C2F637BF70009E9054775
:100F8000238BE1D283C751D38507A38AF1D20545CC
:100F9000828083C707028D07E3DBE7FEEDF9238B31
:100FA00001D283C741D38507238AF1D2CDB77D57BC
:100FB000A38DE1D29D4763EEA7028D67938787F5E6
:100FC000AA9798238D67938707F5AA9794238D672F
:100FD000938787F4AA978C238D67938707F4AA9742
:100FE00090239387C1D01145D8ABACBBF4BBF0AB19
:100FF0000DBD0146814581460147E5B783C7B1D3A1
:101000009306F00F1387C1D06381D70485EF83C6A1
:1010100021D48E07BA978C23238DB1D29033939726
:1010200016008D66938606EABE969422A38CC1D2E2
:10103000B6958D66938616EAB6979C230CAB3E96C2
:1010400010BB828083C611D4E9B71C2B238DF1D24B
:101050001C3BA38CF1D282801387C1D00E052A9746
:1010600034339387C1D099C2FD1634B3B386A70039
:10107000D82219C37D17D8A2B386A700F82219C3B6
:101080007D17F8A2AA97F83319C37D17F8B38280A9
:101090009387C1D00E053E957E2113978700A183CB
:1010A000D98F7EA182800E059387C1D0AA97D823BD
:1010B000B433B8B3D4A38280131735009387C1D05B
:1010C000BA97BC3391E3C5B7828013173500938775
:1010D000C1D0BA97DC2391E3F9B78280411122C4D1
:1010E00026C206C689472A849384C1D06305F502C7
:1010F00013173400B385E4009C211146636CF60499
:10110000890793F7F70F269722851CA3693F0D45A2
:10111000093B05451DA80D4529352AC009C50945C6
:10112000613F85473EC01145ED3BAA8501C5094594
:10113000693F85459C383D47A51793F7F70FE3694D
:10114000F7FA0245213D4DD50145B2402244924473
:10115000410182808D66938686E9A29694221305CA
:10116000900786063383D70063546500F91751BF93
:101170009C31636AF600890793F7F70F269722855B
:101180001CB3393769B7BE9613067003E35ED6FA0F
:10119000F917DDB7511122C29387C1D006C4982335
:1011A0009C271384C1D06379F7025C2099E3014541
:1011B000DD3D3C3499E30545FD3518301C3463733F
:1011C000F7027C3099E30145E1357C2495E3124434
:1011D000A240054531016DBD3C3099E30145E13543
:1011E0005C24C9BF7C2099E301455D357C34F9BF9F
:1011F000A240124431018280611122C226C0894777
:101200002A846306F50615438544139735009387B2
:10121000C1D093123400BE92BA970D67130787E9C5
:10122000BA95902183C3070083C602003306960255
:101230009A939A960145B385C30063C6D502229757
:10124000182333079702BA9663CF76009C3383C680
:1012500012009A979A963E966347D6003697B32720
:10126000F70013C51700124482442101828089448B
:10127000014361BF83C7C1D3511106C491EB8145BE
:1012800009459D3F19C1A38D01D2A2403101828041
:1012900085450945953775D90547A38DE1D2F5B741
:1012A00079151375F50FD94763E7A7028D67938703
:1012B00007ED0A053E951C4182870145828009455C
:1012C00082800D45828011458280154582801945B6
:1012D00082801D45828003C521D48280054582809D
:1012E0009387C1D0B837DC279386C1D0114563E41A
:1012F000E7003E874145FC26F036A1466364F600D0
:10130000B287894663F8E7001D8FB54763C3E700DE
:10131000369579B7998F3547E35CF7FE3685D5BFAB
:101320001387C1D00E052A9734339387C1D099C251
:10133000F91634B3AA97D82319C37917D8A3828092
:101340001387C1D00E052A9774239387C1D099C201
:10135000F91674A3AA97F83319C37917F8B38280E2
:101360006379B500898DA947414563D3B7007145BD
:101370008280B305B540C5BF89470D436313F500AF
:1013800015439386C1D00E05AA96AC321387C1D0FF
:10139000C1CDB022A5472E961376F60FB0A263EA10
:1013A000C700FC22E9E7FC3263990712A38206001A
:1013B0003DA88147B302A70083C6020059162381C6
:1013C000C2001306D0076365D60085062380D200CD
:1013D000B306A700F02275CE85EFB307A700D4337C
:1013E00036961376F60FA54663ECC60AD0B385474A
:1013F000B306A70091C5B022A542E3EDC2FA39A019
:10140000D0223DC2B022A54263EBC202F02255C2F7
:10141000B306A700D43225466366D606850793F740
:10142000F70FE39767FC8280D02205C6BC223E9668
:101430001376F60FB0A2A547E3F5C7F68147B302CE
:10144000A70083C6020059162381C200D1D2FD161F
:10145000B5BFF0222381060049F2FC32BDEFB3068E
:10146000A700A38206005DBF2381060045B73306AF
:10147000A7005432BE9654B2A54793F6F60FE3F890
:10148000D7F681473306A700D91654B21432130693
:10149000C003E365D6F83306A700850614B2BDBFC6
:1014A00094335916D0B39307C003E3E2D7F48147CE
:1014B000DDB7F432CDD63306A7005432A542E3FFA0
:1014C000D2F4D91654B21432B1DA3306A700FD169D
:1014D000F1B7F432C9D6E5F3B6873306A700543224
:1014E000B69793F7F70FA54663E4F6005CB201B731
:1014F0001432D9175CB2E38C06EE8147F9B70E05BA
:101500009387C1D0AA97D82309EBB83383C601D4F7
:101510006377D7000907B8B382807917D8A3828090
:101520000E059387C1D0AA97B83309EBD82383C699
:1015300001D46377D7000907D8A382807917B8B39D
:1015400082800E059387C1D0AA97F83309EBF82360
:1015500083C6F1D36377D7000907F8A38280791790
:10156000F8B382800E059387C1D0AA97F82309EBC0
:10157000F83383C6F1D36377D7000907F8B38280C5
:101580007917F8A3828083C6B1D3511106C422C251
:1015900026C085476393F604238C01D2F947A38BB9
:1015A000F1D28D6783C497E99387C1D09C2703C785
:1015B00081D31384C1D0A697054563D7E70281374D
:1015C0001C3403C771D3A697054563D1E702953F45
:1015D0001244A2408244310121B383C7A1D3238C9A
:1015E000F1D283C791D365BF253FD9BFA53FCDB702
:1015F00083C30700AA821385F3FF16956345C50AC6
:1016000001456344560A611193F5F50F22C226C0C5
:1016100013D4350063E5860803C31700B3046400E0
:1016200063CFD40633836302818E93F4F60F0E04E6
:10163000818D93062600B386564093F6F60F93F5F8
:10164000F50F0503338474021373F30F1305F3FFCF
:101650003307A7021374F40F3306D4001376F60F82
:10166000014542074183636AC3003385E7002A9638
:1016700008223315B5001375F50F95C03304744077
:10168000A29693F6F60F636CD300BA97B6979C2395
:1016900021470D8FB3D7E740C98F13F5F70F1244D9
:1016A0008244210182800145828082808D671307F8
:1016B000F0039A05938747916378A700AE97338527
:1016C000A7400345F5078280AA97AE9788238280BA
:1016D000011106CE22CC26CA2EC22AC0C13F938455
:1016E000C1D0924602468385140003C721D42AC87C
:1016F000038504008D67938707CBDD3D9246024644
:10170000838594012AC6038584018D679387C7E882
:101710000147F93D92460246838514012AC4038598
:1017200004018D67938787E70147D93592460246C2
:10173000838514022A84038504028D67938707E852
:1017400001477D35C243924602468385940003C714
:1017500011D4498C038584008D671344F4FF93876B
:1017600047B1337474006935A24232436204618424
:101770001345F5FFF240618D336353006244134318
:10178000F3FF33756500D2441375F50F0561828050
:10179000411122C406C626C201449377F40F228564
:1017A0003EC08144EFE09FE5824526851537EFE096
:1017B000DFD09387140093F4F70F13070008E39525
:1017C000E4FEEFE07FC80504A147E318F4FCB24053
:1017D0002244924441018280311106C822C626C4A7
:1017E00032C2AE842AC0ED35924702462A84A686CC
:1017F0000147ED4513050003E53B9247024633637D
:10180000A400A6860547ED45130500031374F30FE6
:10181000C5331345F5FFC240618D3244A2445101E6
:101820008280896779719387475122D406D626D260
:101830002AC42EC601443ECA9377F40F22853EC2C5
:10184000EFE0DFDBD2479314740002C0BE9422475E
:10185000914763EFE702931727000D671307C7F25D
:10186000BA979C43828703C3040092460246896765
:101870009387474B014793057002130580021AC8EE
:10188000853B4243336565001375F50FEFE0FFC2FA
:1018900082478504850793F7F70F3EC002479307F9
:1018A0000008E316F7FAEFE03FBA0504A147E31595
:1018B000F4F8B25022549254456182809245024518
:1018C000013DB24792460246938577028962E2055E
:1018D000E185938702392AC80147130580022ECC7F
:1018E000013B4243E24592463363A30002469377AD
:1018F000F30F89623EC805479387023913058002BA
:10190000C539B24703C741D3924602469385470380
:101910008D63E205E1859387C3E42AD01305500364
:101920002ECEF93103C751D392460246F2458D635C
:101930002ACC9387C3E4130590045D398252C247D1
:10194000624393C2F2FFB3F257003363A30033E55F
:1019500062001DBF09661306862892450245AD3D0B
:1019600035B709661306C630CDBF882005B75111BB
:1019700022C206C46144A285711405451374F40F94
:101980004D3575F813054038ED231144A285054502
:10199000493D11041374F40F93070002E318F4FE99
:1019A0001244A240130500193101E1A3511122C2D2
:1019B00006C426C01384C1D0EFF0EFBA8144930768
:1019C000F00F639DF41A11456D2381450145913D4A
:1019D00081441545EFF0EF8309E51945EFF06F837A
:1019E00079DD1D45EFF0EFC3130540065923EFF0F5
:1019F000CFB8EFF08FBB693B130580259D2B0145C8
:101A0000EFF02FC2B7F700E0984723A4E1D0F147E9
:101A10002380F1D40945A38FF1D2EFE09FFF630D3E
:101A2000051601458D45EFF0CFBD89470145238F50
:101A3000F1D2EFF03FB30545EFE0BFFD63010518BC
:101A400091470145A38EF1D2EFF07FAB0145EFF056
:101A5000BF9283C7E1D303C5D1D33E951375F50F6C
:101A6000EFF01F842381A1D41545EFE09FFA6308AE
:101A7000051683C7B1D3638A07160145EFF00FE659
:101A80000C2403C581D3EFF0BF8D2380A1D403C5FF
:101A900071D30C34EFF0DF8CA38FA1D2EFF0BFAE87
:101AA000A380A1D4834714021838910763D5E700B7
:101AB0001145EFF0AFA98347140218388D0763C6AC
:101AC000E70091450145EFF0CFB30545EFF0DF8A20
:101AD0000545EFF0AFE085450145EFF0EFF111C5A9
:101AE000EFF04FEB0945EFF0CFB30945EFF0CFD65C
:101AF0000945EFF07F88EFF0EFF7EFF02FD0EFF030
:101B00003FC90945EFF08FDD03C7B1D385476316A1
:101B1000F70218249307F00263E1E70203C511D42A
:101B200009479307D5FF93F7F70F6368F700182865
:101B3000A14763F4E700EFF08FC783C661D3930733
:101B4000F00F638AF60CFD570545238BF1D2EFF0B9
:101B50004FADFD57A38DF1D203C751D3A9476310F1
:101B6000F70A0D45814575391945EFF08FAB13051F
:101B7000803E01211305803EED2E3DBD11458504BB
:101B8000CD2E93F4F40F93070008E394F4E4814519
:101B90001145EFF01FC935BD1145EFE09FE719C9A9
:101BA0000D45EFF0AF9AA1470145238FF1D2EFF039
:101BB0005F9951B5238F01D2EFF08FF8ADBD0D4580
:101BC000EFE03FE501C9C1470145A38EF1D2EFF037
:101BD0003F95ADBDA38E01D2EFF08FF485BD1945C1
:101BE000EFE03FE3E31705E849BD182893076007D6
:101BF000E3E5E7E803C521D4EFF06FBBBDBD03C744
:101C000041D36318F70009458145EFF09FC11545A1
:101C1000A9BFB13BE9BB83C7C1D31305C00393B7C9
:101C20001700238EF1D2EFF0AFADD5B3994763C261
:101C3000B7029547FD15B385F5025859FD47B3978F
:101C4000B70093C7F7FFF98FB315B600CD8F5CD9F6
:101C50008280B14763C2B7029547E515B385F502A7
:101C60001859FD47B397B70093C7F7FFF98FB3151E
:101C7000B600CD8F1CD982809547CD15B385F5026E
:101C80005855FD47B397B70093C7F7FFF98F331641
:101C9000B6005D8E50D582805C5937074000819B2D
:101CA000CD8F5CD91C45D98F1CC51C41898BF5DFB4
:101CB0006845420541818280311122C626C406C88A
:101CC0002AC03284814463488000C2403244268561
:101CD000A2445101828002452EC27D14753F924577
:101CE000AA94D5B7B7071000135735409387270438
:101CF0003E972A0793767500104313952600BD473B
:101D0000B397A70093C7F7FFF18F13F6F5003316CB
:101D1000A600D18F1CC39307700263DBB700054593
:101D2000930780023315D5006393F500420508CB75
:101D30008280371702405C43511122C289833704E5
:101D4000002006C426C08D8B8546130404026388D8
:101D5000D70489466387D7040840B714024048C4B3
:101D6000D8408D67938787F90D83798BBA978E2337
:101D7000EFE08FDA08C8D8408D67938787F72D8307
:101D80007D8BBA978C23DC4063C307008545EFE069
:101D9000AFD8A24048C812448244310182804840F2
:101DA0006DBF5C43C183858B81E70840060575B72D
:101DB0004840EDBF372702401C43511106C4F19B38
:101DC00093E727001CC3371702401C4393E7170013
:101DD0001CC3B71702409843098B75DFD843719B2A
:101DE000D8C3B7170240D84309830D8B6DFFD84382
:101DF000B70600F9FD16758FD8C39843B706F7FEEE
:101E0000FD16758F98C39843B706FCFFFD16758FB6
:101E100098C39847F9769386F60F758F98C79847B9
:101E2000B7069D006146558F98C7D8431377F7F0E2
:101E3000D8C38D67938607F62D47938707F6EC2A5C
:101E40006375B6007D17F9167DFB0607B7160240CD
:101E5000BA97D0429C3341771307F77F718FAE0753
:101E6000D98FDCC2DC4286078583DCC2D935B7074F
:101E70000020938707029C4B37C78C011307F7A7F5
:101E80008946636AF70037B7120113070788B3B7AB
:101E9000E70093C61700372702401C43A240F19B7E
:101EA000D58F1CC331018280B7F700E09843799B3E
:101EB00098C39843759B98C398431367470098C38A
:101EC00098430607058398C30D6723A407001307EB
:101ED000F7ED98CBD843799BD8C398435D9B98C3C3
:101EE00023A201D498431367170098C38280B717C1
:101EF0000240D853511123A4E1D4856706C422C2FD
:101F000026C0938787380100FD17F5FF6535B717A1
:101F10000240D84B13675700D8CB984F85669386FD
:101F2000D6A3558F98CFD84FB70620108506558F6A
:101F3000D8CF0D648D648D3F1304847B9384847BA0
:101F4000636894001244A240824431016FE01FC3D1
:101F50001C4011048297EDB7E1473305F502B7F74E
:101F600000E09847B7F600E09C46998FE3EEA7FEA5
:101F700082809967938707DC3305F502B7F700E0A5
:101F80009847B7F600E09C46998FE3EEA7FE828063
:101F9000B7270140938707406311F502B717024046
:101FA000984F1367072098CFD84713670720D8C7E3
:101FB0000100D8471377F7DFD8C71C453707F2FF72
:101FC0007D17F98F37070E00D98F1CC51C453707C1
:101FD0001000D98F1CC55C55370710FF7D17F98F8E
:101FE0005CD51C4593E717001CC5054559B7B737A5
:101FF0000140938707C06312F502B7170240D84724
:10200000856693860680558FD8C70100D847FD7630
:102010009386F67F758FD8C78280B7070040E31D8F
:10202000F5FEB7170240984B1367170098CB0100D5
:10203000984B799B98CBCDB7B7370140938707C0B2
:10204000631BF500B71602409C4E05671307078017
:10205000D98F9CCE8280B7070040E31DF5FE37176D
:1020600002405C4F93E717005CCFEDB7411106C605
:1020700022C426C22A8432C0AE847D3F2285853F99
:102080001C440246FD14E19B1CC404D450D45C489B
:10209000B240924493E717005CC81C48F99B1CC8E7
:1020A0005C4493E717005CC41C4093E717001CC016
:1020B000224441018280111132C636C43AC23EC068
:1020C00006CC22CA26C82A84AE84BD3722850537AD
:1020D0000C443246A246E1990CC47D1610D454D467
:1020E000144082471247BD9A14C0144093B717009A
:1020F000990793E6060814C08D466381D40A63C924
:1021000096028546638AD40489466387D4067C4058
:102110002167E240D98F7CC05C48C24493E7170036
:102120005CC81C4093E717001CC0524471018280B8
:102130009146E39ED4FC38C0584CE576FD16758F69
:10214000B207D98F5CCC5C4C056793060780D58FAE
:102150005CCC1C50D98F39A858D8184C92071377EB
:10216000F7F8D98F1CCC1C4C93E787001CCC1C5073
:1021700093E717001CD061BF18DC184CE576FD16FC
:10218000758FB207D98F1CCC1C4C056713070780CD
:10219000D98F1CCC1C5093E70701E9BF58DC584C81
:1021A00092071377F7F8D98F5CCC5C4C93E78700E4
:1021B0005CCC1C5093E7071075BF130181FC22D83B
:1021C00006DA26D62AC42EC0A3040102814601479E
:1021D000130491020245A94532CC36CA3AC8EFE051
:1021E000AF932AC202459307F4FFA9453EC6EFE02C
:1021F0006F954247D246824513050503A30FA4FEFF
:102200002545B24762469304170085068D43636FE8
:10221000B500224513062700BE85EFE04F97D25048
:1022200042542685B254130181038280639A76005A
:1022300001CAA38FC7FE930427009307E4FF8146DA
:1022400012473E843AC0268771B763C30500B5B70D
:10225000511106C49306D00214A1B305B040050580
:10226000A93FA24005053101828000007800AED56B
:1022700080A83FD300408D14A0C0DA128120D9F18C
:10228000DB402000AF000000200200FE023AE23AEC
:1022900002FA8A7A02FA827A0202FA82F2827A02D6
:1022A000FA02FA122242FA02FE00000302020202BD
:1022B00002020202020202020202020202020202FE
:1022C00002020202020202020300FF01FDC51DC557
:1022D000FD057585FD057D85FDFD057D0D7D85FD76
:1022E00005FD05EDDDBD05FD01FF0704050505053F
:1022F000050505050505050505050505050505058E
:10230000050505050505050504070000200200FE7A
:10231000023AE23A02FA8A7A02FA827A0202FA82ED
:1023200002728A72029AEA020AFA0A02FE000003A4
:10233000020202020202020202020202020202027D
:102340000202020202020202020202020300FF0172
:10235000FDC51DC5FD057585FD057D85FDFD057D5D
:10236000FD8D758DFD6515FDF505F5FD01FF070476
:10237000050505050505050505050505050505050D
:102380000505050505050505050505050407000006
:102390003003000050F8FC381CD85C589C18DC183E
:1023A0001C189C58DC181C183CF8F83C189C585C0D
:1023B000581CD85C589C18DC181CD81C38FCF850E9
:1023C0000000000055FFFF30200F022221000F28DF
:1023D000280000282F08002030FFFF3020070828A1
:1023E00028000F22220100272808072030FFFF5570
:1023F000000040A055FFFF000000000000000000AA
:10240000000000000000000000FFFF0000000000CE
:1024100000000000000000000000000000FFFF5569
:10242000A040F8FEAE0703C7E327A3A763E723E7AF
:10243000E3E763A723E7E3E7C30707C3E763A7A3CC
:10244000A7E327A3A763E723E7E327E3C70307AED1
:10245000FEF8FFFFAA0000CFDFF0FDDDDEFFF0D7C2
:10246000D7FFFFD7D0F7FFDFCF0000CFDFF8F7D7D8
:10247000D7FFF0DDDDFEFFD8D7F7F8DFCF0000AAE9
:10248000FFFFBF5FAA0000FFFFFFFFFFFFFFFFFF8F
:10249000FFFFFFFFFFFFFFFFFF0000FFFFFFFFFF4A
:1024A000FFFFFFFFFFFFFFFFFFFFFFFFFF0000AA8F
:1024B0005FBF00002F02FE010101010101010101C6
:1024C00001010101010101010101010101010101FC
:1024D00001010101010101010101010101010101EC
:1024E00001010101FE0001010101010101010101E0
:1024F00001010101010101010101010101010101CC
:1025000001010101010101010101010101010101BB
:1025100001010100FF0101010101010101010101AE
:10252000010101010101010101010101010101019B
:10253000010101010101011515151515D5D5D5D5D7
:10254000D555151515150181D5D5D5D5D50101015F
:10255000D5D5D5D555D1D1C18101D5D5D5D5510147
:1025600005151555D5D1D1C1C1D1D1D555151505F3
:10257000010101010101010101010101010101014B
:10258000010101010101010101010101010101013B
:10259000010101FFFF00000000000000000000003A
:1025A000000000000000000000000000000000002B
:1025B0000000000000000000000000001E1E1E1EA3
:1025C0001E1A00000000000A1E1E1E1E1E00000231
:1025D0001E1E1E1E000000020E1E1E1E1E1E1400C9
:1025E00000000000001E1E1E1E1E1E000000000037
:1025F00000000000000000000000000000000000DB
:1026000000000000000000000000000000000000CA
:10261000000000FFFF0000000000000000000000BC
:1026200000000000000000000000000000000000AA
:102630000505050505B5B5B5B5B5050505050100E3
:10264000B5B5B5B5B5B525A5B5B5B4B4940000001C
:1026500000B5B5B5B510000030B4B4B4B405050587
:102660000505050505040400A0B5B5B5B5B5B0B4BC
:10267000B4949585050101000000000000000000F1
:10268000000000000000000000000000000000004A
:10269000000000FFFF00000000000000000000003C
:1026A00000000000000000000000000000808080AA
:1026B0000000E01000E7A70717E700D0507000F017
:1026C00017F707F7077650F001030707F7571400CD
:1026D000F0070707F7551000E011130317F7170766
:1026E000F656D66607E31210E20707F70707001150
:1026F000F31307F75757A6048080800000000000FE
:1027000000000000000000000000000000000000C9
:10271000000000FFFF0000000000000000000000BB
:1027200000000000000000000000000000000FFF9B
:10273000FEFCB8E1B0F85C2C3D0808010101000185
:102740000101000100010101000000000101010080
:102750000101010001010100000101000001000070
:102760000100000100000101000000010109083D15
:102770002D5DF8B1E1B9FCFEFF0F00000000000084
:102780000000000000000000000000000000000049
:10279000000000FFFF6C7E56FCAAFCB4DCF854F885
:1027A000A8F0D870D070E0B070D070D87C6C9E0B60
:1027B000BFFFFFFDC0000000000000000000042A71
:1027C0002A1000023E02003C0A0A3C003E0A340085
:1027D000023E020000001C222A18003C0A0A3C00AB
:1027E0003E0408043E003E2A2200000000000000D3
:1027F000000000C0FDFFFFBF0B9E6C7CD870D07046
:10280000B0E070D070D8F0A8F854F8DCB4FCAAFCA2
:10281000567E6CFFFF000000000000010081018176
:102820000281828381010301810101000100000313
:1028300000070F3F7FFFFEFCF8E8F0E0C0C0C0805B
:102840008000000000000000000000000000000008
:102850000000000000000000000000000000000078
:10286000000000000000008080C0C0C0E0F0E8F878
:10287000FCFEFF7F3F0F0700030000010001018104
:102880000103018183828102810181000100000036
:10289000000000FFFF80808080808082808A80AA84
:1028A0008AAAAAA0809E9DBDBAF8F5F9F2EAE8F4DA
:1028B00088808080808080818383878F8F9F9FBF67
:1028C000BFFFFFFEFC9C80808080808080808080B5
:1028D00080808080808080808080808080808080F8
:1028E00080809CFCFEFFFFBFBF9F9F8F8F878383ED
:1028F0008180808080808088F4E8EAF2F9F5F8BA77
:10290000BD9D9E80A0AAAA8AAA808A80828080809B
:10291000808080FFF01C86E233D9E9EDE9EDE1EF3C
:10292000E9EDE9EDE9EDE9EDE1EFE9EDE9EDE9EDFD
:10293000E9EDE1EFE9EDE9EDE9ED09ED010FE9ED93
:10294000E9EDE9EDE9EDE1EFE9EDE9EDE9EDE9EDDD
:10295000E10FE94DFF08AAEF00FFFFFFFFFFFFFFB8
:10296000FFFFFFFFFFFFFFFFFFFFFFFFFFFFFFFF77
:10297000FFFFFFFFFFFFFFFFFFFF00FF0000FFFF64
:10298000FFFFFFFFFFFFFFFFFFFFFFFFFFFFFFFF57
:10299000FF00FF44BF806A6F007F7F7F7F7F7FFFE4
:1029A000FFFFFFFFFFFFFFFFFFFFFFFFFFFFFFFF37
:1029B000FFFFFFFFFFFFFFFFFFFF00FF0000FFFF24
:1029C000FFFFFFFFFFFFFF7F3F1F0F87C7C3E3E34B
:1029D000F100FF44FF006699FFFFFFFFFFFF00FFCC
:1029E000FFFFFFFFFFFFFFFFFFFFFFFFFFFFFFFFF7
:1029F000FFFFFFFFFFFFFFFFFFFF00FF0000FFFFE4
:102A0000FFFFFFFF1F0301E0F8FCFFFFFFFFFFFFD9
:102A1000FF00FF44FF006699FFFFFFFFFFFF00FF7D
:102A2000FFFFFFFFFFFFFFFFFFFFFFFFFFFFFFFFB6
:102A3000FFFFFFFFFFFFFFFFFFFF00FF0000FFFFA3
:102A4000FFFFFFFFF8C080071F3FFFFFFFFFFFFFF3
:102A5000FF00FF22FD0156F600FEFEFEFEFEFEFF19
:102A6000FFFFFFFFFFFFFFFFFFFFFFFFFFFFFFFF76
:102A7000FFFFFFFFFFFFFFFFFFFF00FF0000FFFF63
:102A8000FFFFFFFFFFFFFFFEFCF8F0E1E3C3C7C756
:102A90008F00FF22FF1055F700FFFFFFFFFFFFFF32
:102AA000FFFFFFFFFFFFFFFFFFFFFFFFFFFFFFFF36
:102AB000FFFFFFFFFFFFFFFFFFFF00FF0000FFFF23
:102AC000FFFFFFFFFFFFFFFFFFFFFFFFFFFFFFFF16
:102AD000FF00FF220F386147CC9B97B797B787F766
:102AE00097B797B797B797B787F797B797B797B746
:102AF00097B787F797B797B797B790B780F097B71B
:102B000097B797B797B787F797B797B797B797B725
:102B100087F097B21103000000000000E0F070F0B1
:102B2000204080000000000000000000001F3C3B2F
:102B30003F130C0306F870000000000000000000C6
:102B40000000000000000000000000000000000085
:102B500080C0E0E0C00000000000000000000C1E8B
:102B60001F141697D83F000000000000000000006E
:102B700000000001010000000000000000000080D3
:102B8000C0C0C04040C0C0C080000000000040C0C5
:102B9000C3C74B2A3717120B0703000000000000C1
:102BA0000000000000000000000000000000000025
:102BB00000000000C0E0E0C0800000000000000055
:102BC00000060C08101F181716141F1E0C0000001A
:102BD00000000000000000000000000000000000F5
:102BE0000000001C3EC0806090F8B878F000000043
:102BF000000000000000000304091F1D1E0F00005C
:102C000000000000000000000000000000000000C4
:102C100000000000000000000000F836D3D150F0A2
:102C2000F060000000000000000000070E0F060228
:102C30000100000000000000000000000000000093
:102C400000000000000000000000000080C0A09014
:102C5000D0D8A8A4C6860604000000000003070719
:102C6000060505060707030000000000000000003D
:102C700000000000000000000000000000000060F4
:102C8000F0F050D0D030F0102060C0000000000004
:102C900000000102060F0E07000000000000000007
:102CA0000000000000000000000000000000000024
:102CB0001103000000000000E09050F02040800070
:102CC0000000000000000000001F242B3F130C0335
:102CD00006F8700000000000000000000000000086
:102CE000000000000000000000000080C0E0D09064
:102CF000E000000000000000000C12171F141697DF
:102D0000D83F0000000000000000000000000001AB
:102D10000100000000000000000000804040C040B2
:102D200040C0404080000000000040C0C3C64B2AA5
:102D30003717120B0603000000000000000000001F
:102D40000000000000000000000000000000000083
:102D5000E090D0E0C08000000000000000060C08F9
:102D6000101F181716141F17120C00000000000087
:102D70000000000000000000000000000000001C37
:102D80003EC0806090F8A848F000000000000000FD
:102D90000000000304091F15120F000000000000CE
:102DA0000000000000000000000000000000000023
:102DB000000000000000F836D3D150F0D090600041
:102DC000000000000000000F12170E0603010000B3
:102DD00000000000000000000000000000000000F3
:102DE000000000000000000080C0A090D0D8A8A47F
:102DF000C68606040000000000030405060505065B
:102E000005040300000000000000000000000000B6
:102E1000000000000000000000006090D0F050D0E2
:102E2000D030F0102060C000000000000001030658
:102E30000E17120F0000000000000000000000004C
:102E40000000000000000000000000000401F888FD
:102E5000F80000F80000E8A8B80088A8F8003820BA
:102E6000F800B8A8E800F8A8E80008E81800F8A8F2
:102E7000F800B8A8F80000000301020502000000F5
:102E8000050286B7B7CEFC01030301000502FC3240
:102E90007949B6000102020106060106060000009B
:102EA000100C0B0F0210000BFE0104FE0DFE0E02B3
:102EB0003C0E00005E0E00007C0E0000940E000030
:102EC000980E0000A80E0000C60E0000EC0E0000D8
:102ED000CE120000D6120000BA120000D612000076
:102EE000D2120000D6120000BE120000D61200005E
:102EF000D6120000D6120000DC120000D61200002C
:102F0000D6120000D6120000C6120000D612000031
:102F1000CA120000D6120000D6120000D61200001D
:102F2000D6120000D6120000C2120000661800007F
:102F3000BC18000054190000621900006A19000052
:102F4000002E2E2E000000002E2E00000000002E6D
:102F500000000000002E2E2E0000002E2E2E00005D
:102F600002000404061008050C14100618152007AA
:102F70003016400F6017801F020202020408102062
:102F80000404040408102040060606060C183060ED
:102F90000808080810204080010002000300040017
:102FA00005000600070008000200040008001000E9
:102FB000200040008000000100AA00006C101010EA
:102FC0003C3C3038000000000000101000001010E1
:102FD000000010100000101000186C6C18603818F9
:102FE0000C300000000000033C183C3C1C7E1C7EA2
:102FF0003C3C00000C00603C3C187C3C787E7E3CF5
:10300000667E066360C6C63C7C3C7C3C7E6666C6CB
:10301000C3C37E3CC03C18003800600006001C00A2
:1030200060180C6038000000000000003000000054
:103030000000001C18387606000FF0FF000FF0FFAC
:10304000000FF0FF000FF0FFFFFFD7D7FFFFD7D72C
:10305000FFFFD7D7FFFFD7D7FFE79393E79FC7E7D8
:10306000F3CFFFFFFFFFFFFCC3E7C3C3E381E381AF
:10307000C3C3FFFFF3FF9FC3C3E783C3878181C33C
:103080009981F99C9F3939C383C383C38199993945
:103090003C3C81C33FC3E7FFC7FF9FFFF9FFE3FF4E
:1030A0009FE7F39FC7FFFFFFFFFFFFFFCFFFFFFF7C
:1030B000FFFFFFE3E7C789F900551818FE383838D5
:1030C000427E283808101010000010100000101068
:1030D000000010100000101000186C6C7E666C1858
:1030E00018186C1800000006663866663C603006EA
:1030F00066660000180030666E3C66666C6060664E
:103100006618066660EEE66666666666186666C6F9
:1031100066660630600C3C006C0060000600300003
:103120006000006018000000000000003000000097
:1031300000000030180CDC06000FF0FF000FF0FF5D
:10314000000FF0FF000FF0FFFFFFD7D7FFFFD7D72B
:10315000FFFFD7D7FFFFD7D7FFE79393819993E777
:10316000E7E793E7FFFFFFF999C79999C39FCFF965
:103170009999FFFFE7FFCF9991C39999939F9F99E1
:1031800099E7F9999F11199999999999E799993915
:103190009999F9CF9FF3C3FF93FF9FFFF9FFCFFFEB
:1031A0009FFFFF9FE7FFFFFFFFFFFFFFCFFFFFFF37
:1031B000FFFFFFCFE7F323F900AA243CFE7C547CF9
:1031C000A5DB24100C38301018001010000010106F
:1031D000000010100000101000186CFED80C3830E1
:1031E000300C38180000000C6E7806066C7C600607
:1031F00066661818307E18066E66666066606060E7
:103200006618066C60FEF66666666660186666C6D8
:103210003C3C0C30300C6600383C7C3C3E3C7C3EF8
:103220007C381C6618CC7C3C7C3E7C3E7E6666C648
:10323000C6667E30180C000E000FF0FF000FF0FF86
:10324000000FF0FF000FF0FFE70FD717E000D010DE
:10325000FF07D717C000D010FFE7930127F3C7CFB0
:10326000CFF3C7E7FFFFFFF39187F9F993839FF946
:103270009999E7E7CF81E7F99199999F999F9F9F46
:1032800099E7F9939F0109999999999FE799993934
:10329000C3C3F3CFCFF399FFC7C383C3C1C383C1F4
:1032A00083C7E399E73383C383C183C18199993984
:1032B000399981CFE7F3FFF10055427EFEFEFEFE15
:1032C00081FF247C7E7C7E103CF010F01FFF1FFFEE
:1032D00010F010F01FFF1FFF0018006C7C18760024
:1032E000300CFE7E007E001876180C1CCC067C0C80
:1032F0003C3E181860000C0C6C667C60667C7C6E32
:103300007E18067860D6DE667C667C3C186666D6DB
:1033100018181830180C00000006666066663066E3
:1033200066180C6C18FE666666666660306666C671
:103330006C660C60180600CC000FF0FF000FF0FF69
:10334000000FF0FF000FF0FFC3FFD7F7FFFFDFFF15
:10335000D7F7D7F7DFFFDFFFFFE7FF9383E789FFAB
:10336000CFF30181FF81FFE789E7F3E333F983F3CB
:10337000C3C1E7E79FFFF3F39399839F99838391F9
:1033800081E7F9879F292199839983C3E79999292F
:10339000E7E7E7CFE7F3FFFFFFF9999F9999CF9907
:1033A00099E7F393E70199999999999FCF99993959
:1033B0009399F39FE7F9FF3300AA427E7C7C54FE89
:1033C000A5FF28100C10307C3C000000000000001D
:1033D0001010101010101010001800FE3630DC0015
:1033E000300C38180000003066183806FE066618E3
:1033F00066060000307E1818607E66606660606653
:103400006618066C60C6CE6660666C06186666FE58
:103410003C1830300C0C0000003E6660667E306662
:1034200066180C7818D666666666603C306666D6A6
:1034300038661830180C00DC000000000F0F0F0F6A
:10344000F0F0F0F0FFFFFFFFC30FFF07E000C00048
:10345000D717D717D010D010FFE7FF01C9CF23FF30
:10346000CFF3C7E7FFFFFFCF99E7C7F901F999E766
:1034700099F9FFFFCF81E7E79F81999F999F9F99D6
:1034800099E7F9939F3931999F9993F9E7999901B0
:10349000C3E7CFCFF3F3FFFFFFC1999F9981CF9986
:1034A00099E7F387E729999999999FC3CF99992922
:1034B000C799E7CFE7F3FF230055243C38381010B5
:1034C00099DBE02808101038180000000000000008
:1034D00010101010101010100000006CFC66CC00D2
:1034E00018186C1818001860661860660C66661864
:1034F000660C181818003000666666666C606066B8
:103500006618666660C6C666606C666618663CEEDF
:1035100066186030060C0000006666606660303E2B
:1035200066180C6C18D666667C3E600630663C7C7D
:103530006C3E3030180C00F8000000000F0F0F0F29
:10354000F0F0F0F0FFFFFFFFE7FFFFFFFFFFFFFFDF
:10355000D7D7D7D7D7D7D7D7FFFFFF93039933FF55
:10356000E7E793E7E7FFE79F99E79F99F39999E7E3
:1035700099F3E7E7E7FFCFFF99999999939F9F996F
:1035800099E799999F3939999F939999E799C31127
:1035900099E79FCFF9F3FFFFFF99999F999FCFC1BB
:1035A00099E7F393E729999983C19FF9CF99C38349
:1035B00093C1CFCFE7F3FF0700AA181810103838CF
:1035C0004266C0440010001000000000000000002F
:1035D00010101010101010100018006C300676003B
:1035E0000C300000180018C03C7E7E3C0C3C3C189F
:1035F0003C3818180C0060183C667C3C787E603CB7
:10360000667E3C637EC6C63C6036663C183C18C687
:10361000C3187E3C033C0000003E7C3C3E3C300630
:10362000663C6C663CC6663C6006607C1E3E186C60
:10363000C6067E1C18380070000000000F0F0F0F28
:10364000F0F0F0F0FFFFFFFFFFFFFFFFFFFFFFFFC6
:10365000D7D7D7D7D7D7D7D7FFE7FF93CFF989FFEA
:10366000F3CFFFFFE7FFE73FC38181C3F3C3C3E7A6
:10367000C3C7E7E7F3FF9FE7C39983C387819FC36E
:103680009981C39C813939C39FC999C3E7C3E7397D
:103690003CE781C3FCC3FFFFFFC183C3C1C3CFF9B4
:1036A00099C39399C33999C39FF99F83E1C1E79364
:1036B00039F981E3E7C7FF8F0055000000000000E3
:1036C0003C3C000000000000000000000000000082
:1036D000101010101010101000000000000000006A
:1036E00000000000300000000000000000000000AA
:1036F000000000300000000000000000000000009A
:1037000000000000000000000000000000000000B9
:1037100000000000000000FF000000000000003C6E
:1037200000003800000000006006000000000000FB
:10373000003C000000000000000000000F0F0F0F11
:10374000F0F0F0F0FFFFFFFFFFFFFFFFFFFFFFFFC5
:10375000D7D7D7D7D7D7D7D7FFFFFFFFFFFFFFFFB9
:10376000FFFFFFFFCFFFFFFFFFFFFFFFFFFFFFFF99
:10377000FFFFFFCFFFFFFFFFFFFFFFFFFFFFFFFF89
:10378000FFFFFFFFFFFFFFFFFFFFFFFFFFFFFFFF49
:10379000FFFFFFFFFFFFFF00FFFFFFFFFFFFFFC374
:1037A000FFFFC7FFFFFFFFFF9FF9FFFFFFFFFFFFC7
:0837B000FFC3FFFFFFFFFFFF55
:1037B80000D0020000EE0700009C0B00007E0E0007
:1037C80000C41000004A1200008E1300B82F000039
:1037D80000366E0100366E0100F4010000366E01FD
:1037E80000127A0000093D000000000000000000FF
:1037F800370600400C4A485281990CCA9386218D9D
:103808009422ADCA2A851D890605170600001306ED
:10381800E600329502850100010001000100010067
:103828000100010001001385419083230500130561
:10383800001063DCA3041387C18F1843B737014016
:10384800C146010008230507C8C719467D167DFE35
:10385800FD16EDFA23A607008D4533F5B300631571
:10386800B5001386C18F18C2170500E01305C50EF1
:10387800028501009385419083A305001305000488
:10388800970500E0938525068285170500E0130556
:0C38980065050285000000000000000033
:00000001FF
