:100000006F00000A000000009C0000009C0000003F
:1000100000000000000000000000000000000000E0
:1000200000000000000000000000000000000000D0
:100030009C000000000000009C0000000000000088
:100040009C0000009C0000009C0000009C00000040
:100050009C0000009C0000009C0000009C00000030
:100060009C0000009C0000009C0000009C00000020
:100070009C0000009C0000009C0000009C00000010
:100080009C0000009C0000009C0000009C00000000
:100090009C0000009C0000006000002001A0010006
:1000A000970100209381817B138181F9173500002E
:1000B0001305C5A7970500209385C5F417060020F2
:1000C0001306060963FAC5008322050023A0550024
:1000D00011059105E3EAC5FE1385418F9385C1E3C0
:1000E0006377B500232005001105E36DB5FE896235
:1000F00093820288739002308D42739042809702FF
:100100000000938222F093E2320073905230EF109D
:10011000F0099712000093822253739012347300F7
:08012000203001000000000086
:100128001145B71601409305A01763C5B30693059B
:10013800B01763C07506C8CA639EB304938541911E
:100148000395050021C91386C1913737014013076C
:1001580007C06347A00093868191944214C239A0D6
:100168007D158AA105E91442910614C28A228AA142
:1001780019C9B62289CA54D7858234C308538565FC
:100188004D8D08D301A80853FD75FD156D8D08D355
:1001980011A088CA85031306D02063CFC30081430A
:1001A800138501940C4185050CC117050020130522
:1001B800E5FE9385C19388C113854194232075007A
:1001C8009383C19083D7030037230140130303406F
:1001D8000325C304930500406390F504938281903E
:1001E80083A502002E9523A0A200138701910C235A
:1001F80085050CA31306000263CAC5002300070087
:1002080023A002009382419023A0A2002390030020
:10021800938511918C21D1A89395F7018507239097
:10022800F30063DC050A9382818F83A502002E9573
:1002380023A0A20093050040E39CF5FC23A0020044
:100248009382418F23A0A2008145970200209382C8
:10025800E2DA03A6C2006345C50093E58500C10242
:1002680003A642006345C50093E54500A10203A625
:1002780002006344C50093E525009382019003A51D
:10028800020023A002009382C18F23A0A20097023C
:1002980000209382A2D603A6C2006345C50093E559
:1002A8000502C10203A642006345C50093E50504A3
:1002B800A10203A602006344C50093E505019382E9
:1002C800F19003C502002380B2006316B500938243
:1002D800E1902380A200A14509A89382019083A5FB
:1002E80002002E9523A0A2008145232AB302B70558
:1002F8004000032583004D8D2324A3007300203084
:100308002A86014593F6150091C232958581060625
:10031800F5F9828000000000634E050263C30504FE
:100328002E86AA857D5515C285466378B600635624
:10033800C00006068606E36CB6FE014563E4C50008
:10034800918D558D85820582F5FA82808682C93F16
:100358002E8582823305A0406347B000B305B040C4
:10036800C1B7B305B0408682653F3305A04082829D
:10037800868263C70500634905005D372E85828242
:10038800B305B040E35B05FE3305A040513F33059C
:10039800B040828200002A8309CA838305002300B3
:1003A80073007D16050385056DFA82802A8311C6C0
:1003B8002300B3007D16050365FE82802147B71729
:1003C800014011469145CCCB93168501E18609433E
:1003D80063C406003703020023A867000100010078
:1003E80001008CCB01000100010006057D17137583
:1003F800F50F71FB3717014050CB89450CCB94435F
:1004080093F6F6F093E6060894C301000100010094
:1004180010CB01000100010050CB010001000100D8
:100428004CCB98431377F7F01367070198C3828082
:1004380083C7219189EFB71701400947D8CB01003D
:10044800010001001147D8CB0100010001008280A2
:1004580083C7219189EFB7170140114798CB010055
:1004680001000100094798CB0100010001008280CA
:1004780083C72191511122C206C42A849DEB4D3FA6
:1004880013058007253F0145153F13757400136553
:10049800050B2D3701451D3741450D37553F493F60
:1004A80013058007213F1244A240130500043101BF
:1004B80031B7A2401244A38CA192238C019231013E
:1004C800828003C72191511106C422C226C08547E4
:1004D8006311F70C23A20194B70700209387071A2A
:1004E80023AEF192B7170240984F1367170098CFC1
:1004F800984F1367470098CF984F1367070198CF15
:10050800984F1367070298CF8D454945EF1040284B
:10051800AD454545EF10C0278D450545EF104027EF
:10052800370701405C439306A02F054693F7F7CFA2
:1005380093E707205CC3854581471307C005370546
:100548000040EF104068B70700401307300798DFF6
:10055800984FE576FD16758F98CF984F85669386E8
:100568000680558F98CF98531367070198D3984BF7
:100578006D9B98CBD84713674700D8C7A240124451
:10058800B7E700E01307000423A2E7108244310113
:100598008280B7170140094798CB114798CB85450A
:1005A8004545EF10E01E85454945EF10601E294579
:1005B8008964EF1080470144A53D938404EAB3079A
:1005C800940088230504DD3BE547E31AF4FE49352A
:1005D8000945EF1080451306F03185453705004081
:1005E800EF10C05961BF83C72191D5EB111122CA01
:1005F8003704002026C806CC1304041A8144268533
:10060800853DA28793050401A146130700088823A6
:10061800902B798D798E3335A00019C2136525008A
:1006280003C60702798E19C21365450003C607037E
:10063800798E19C21365850003C60704798E19C21D
:100648001365050103C60705798E19C213650502EE
:1006580003C60706798E19C21365050403C6070782
:10066800798E19C2136505082EC63AC43EC236C033
:10067800B133824622479247FD16B2450587C1FA33
:100688008507E393B7F8E9338504A1471304040801
:10069800E397F4F6E2405244C244710182808280BA
:1006A8003705002051111306004081451305051A2E
:1006B80006C4ED39A24023AA019223A801922386F9
:1006C8000192310182809357354037070020920507
:1006D800BE951345F5FF9307071A1D898546AE9702
:1006E8009C23B396A6001307071A19E693C6F6FFCC
:1006F800F58F2E971CA38280D58F93F7F70FD5BF60
:100708001307F0076367A7001307F0036363B700D5
:100718005DBF828093573540920537070020AE971A
:100728001307071A3E971345F5FF14231D898547BC
:10073800B397A70093C7F7FFF58F1CA38280130711
:10074800F0076367A7001307F0036363B700D9B71F
:1007580082809357354092053387B700B70700204A
:100768009387071ABA9794231345F5FF1D89054700
:100778003317A700558F98A382801307F007636784
:10078800A7001307F0036363B700E1B78280130182
:10079800C1FD3AC006D022CE26CC3307C50063502F
:1007A80005029307000863C5E7023A83814463445E
:1007B800600282507244E244130141028280328313
:1007C80013060008AA84E354E6FE3303A640C5B71F
:1007D8001303000881443387D50063D005049306CA
:1007E800000463D5E60481453384D500B305D440BD
:1007F80033079300268502461ACA36C83AC62EC45D
:100808002AC2D13512453247A2450505C246524390
:10081800E313A7FEFD16F9FA69BF13060004635433
:10082800E600B306B640E341D0FC61B7BA8681451D
:10083800DDBF3307C500635B05009307000863CF7E
:10084800E7003A868147634EC0008280AA87130575
:100858000008E35AE5FE3306F540F5B7130600082D
:1008680081473387D50063D805049306000463DD08
:10087800E6048145011122CC26CA06CE3684B3840B
:10088800D500B38584403307F6003E8532C83EC69E
:100898003AC42EC22AC0BD3D0245224792450505ED
:1008A800B2474246E314A7FE7D1461FCF24062445D
:1008B800D24405618280130500046354E500B30641
:1008C800B540E349D0FA8280BA868145DDBF3687D4
:1008D800854675BD8546B1BF3687B286054645BD96
:1008E800B2860546B9B7011122CC06CE368426CA8F
:1008F800BA862AC032C205476348C70022866244C6
:10090800F240D2440561C9BF634787006244F240A0
:10091800D24405616DBFAE8436C4553FA246124627
:100928000245B3059400FD155D37A246024593853F
:1009380014001306E4FF36C832C62EC4713F92472E
:100948000247C24632463385E700A2457D1545BFBA
:10095800211106CA22C826C62AC0854763C8C7000F
:1009680036864244D240B24461019DBF63C7D70076
:100978004244D240B2446101B1BFAE84328436C22F
:10098800913F924602452286B3859600FD15993718
:1009980092460245938514001386E6FF32C42EC2A0
:1009A80081378247224692453305F4007D1555BFAD
:1009B8001301C1FD3707002026CC8324C701AE8769
:1009C80036C0AA9406D022CEB2851387046003C627
:1009D800C192802009C61344F4FF1374F40F1383E3
:1009E80067003E85131684016186635E0600024631
:1009F8003ECA1AC83AC62EC42AC21933D24742433D
:100A08003247A2451245060405051374F40FE31B8B
:100A180065FC938404108505E31B97FA82507244A1
:100A2800E244130141028280B707002003A7C701EF
:100A3800011126CAB304A700938704602EC006CE0E
:100A480022CCB2853EC283C6C192802089C6934714
:100A5800F4FF13F4F70F8247024599073EC4931633
:100A68008401E1862EC82AC663D806023933324586
:100A7800C2459317140013F4F70FA2470505E310B6
:100A8800F5FE9247938404108505E39E97FAF24099
:100A98006244D244056182805D31C2453245D1BF8E
:100AA800311122C626C406C82A84AE84082005044B
:100AB80011E5C2403244A24451018280A68536C263
:100AC80032C0FD35924602469904CDB7411122C481
:100AD80026C206C62A84AE840820050411E5B24061
:100AE8002244924441018280A68532C0353F0246A5
:100AF8009904DDB71301C1FC22D626D406D82EC628
:100B080032C836CA3ACC3EC4930415000144C247E1
:100B1800A2973EC0E2476348F400C2503254A25440
:100B280013014103828083C7F4FF2683130700085B
:100B38003EC20146B2473385C700D2476346F60036
:100B4800A2470504BE94E1B792471AD23AD0B3F54A
:100B5800E70032CE85E182450D31724602571253C5
:100B6800058719E7834703001307000805033EC2FA
:100B78000506C9B78245E136125302577246CDB70A
:100B880003C621921D479307160093F7F70F637367
:100B9800F700814703C711926308F7001387419252
:100BA800329708A32381F192828083C7E1903111A3
:100BB80093F7F70F83C6019222C626C406C823807E
:100BC800F1928944054433F7970019CB33F796001F
:100BD80001EB1375F40F36C23EC05D37924682476B
:100BE80005041D478604E310E4FEC2403244A244D3
:100BF80051018280511106C44D3F83C7119203C72A
:100C080021920145630FF700138741923E978507AC
:100C1800082393F7F70F1D476373F7008147A380F5
:100C2800F192A24031018280511106C4E1377DFD65
:100C3800A24031018280511122C2371402401C4C5B
:100C480006C493E717001CCC1C4C93E707011CCC87
:100C5800A5455145EF00D033370701405C4393F772
:100C6800F7F35CC31C4C056713070780D98F1CCCAE
:100C78005C44D98F5CC401005C44FD769386F67FA2
:100C8800F58F5CC4B7370140938707C094476576F2
:100C98007D16E19A94C7DD4694D79306803ED4D753
:100CA8009306401FB4C39443A2401244BD9A94C310
:100CB800D44B93E61600D4CB944393E6060894C32A
:100CC800D44FF18E1966D18ED4CFD44F558FD8CF4B
:100CD800F843A166558FF8C398431367170098C364
:100CE8003101828023ACA1907D57239AE1908280C4
:100CF80083A5419051113705580206C4EFF04FE221
:100D0800A2403101828051111305800C06C422C211
:100D180026C0EF009051B7060140DC4261777D178D
:100D2800F98F37250140DCC213050540EF0050520A
:100D38000147B72201401D4385466D461385024091
:100D48000C49B317E30093C7F7FFED8FB395E6009F
:100D5800CD8F1CC90D07E313C7FE13060040A1453C
:100D6800EF0050209357A540960723A2F190935582
:100D7800254099473705C012A388F190238901902F
:100D8800EFF08FD985678D0763D1A706854695470C
:100D9800A388F1902389D190B7170240984F136721
:100DA800170098CF984F1367070298CF93058004D0
:100DB8007945EF00F01D2945EF003047B71701408E
:100DC800938707409C4793F70704F5F7B706014058
:100DD800DC42370700F97D17F98F37070004D98FF0
:100DE800DCC283C72191754591E379458145EF00C0
:100DF800301A81450945EF00B01903C6119137240F
:100E08000140854513050440EF00F00C130404402D
:100E18001C44370740007D45D98F1CC4EF00303F84
:100E2800193DEFF00FEA1244A240824431016FF0FD
:100E38003F87511106C422C226C0EFF07F8609659C
:100E480085460146CD451305C5EB993909658546A3
:100E5800494681451305C5ECB704002091319384B8
:100E6800C4029C200964130444F58A07A2978843A6
:100E7800854665469305E0042531096585461306D0
:100E880040028145130545EE21399C248546130609
:100E9800B0028A073E9408409305E00411310965C1
:100EA80085461306600381451305C5EFD53E1244F8
:100EB800A240824431016FF00FF3511106C423AEF2
:100EC80001E09D33BD373D339547630CF50463E678
:100ED800A70285466308D5028D47E316F5FE370756
:100EE80000208347C7021307C702850793F7F70F48
:100EF80063F3F60081471CA3F1B79947E315F5FCA6
:100F080001450DA0370700209307C7029C27130748
:100F1800C702850793F7F70F6373F50081471CA78E
:100F280055B70545A24031018280511122C23704CC
:100F380000200E051304C4022A9406C426C02C20DF
:100F4800A14613064002B1051305F004EFF07F8EA9
:100F58004C4091ED30200965854631069305F00433
:100F6800130545F11244A2408244310115BE03A77E
:100F780081E18547631BF700302009658546310606
:100F88009305F0041305C5F1F1BF01461385C1E2CD
:100F9800EF00B053302085469305B0053106138520
:100FA800C1E2C9B7311122C63704002026C406C8D9
:100FB8001304C40281443C2037050020138714031E
:100FC8003EC0024693F7F40F3EC2854693070502DA
:100FD8009305900413050502F8B3D9341820854702
:100FE800631BF700024609651947994693052004D3
:100FF8001305853C013613F5F40F053F82479385A9
:10100800E7FF83A7C1E1639497020547F1461306FA
:10101800B00313051004EFF01F8D210499C4324466
:10102800C240A24451016FF00FDC854469B7F14614
:101038001306B00313051004EFF09F91F9BF3111A7
:101048009387C1DA22C626C406C8AA979423938731
:1010580081D4AA979823AE84A9452A8436C23AC077
:10106800EFF00FAC1375F50F93172500AA978607B5
:101078001D8C924613161500931514002A96A295F6
:1010880006068605814791CA1545024793F7F60F6C
:101098006373D50095478607BA9799C093C7170019
:1010A800324413931700C240A2443E9309650603D5
:1010B8001305053885471947994605061A955101BC
:1010C8006FF05FA3511122C206C401441375F40FD7
:1010D8008145B537050493074006E319F4FEA2409D
:1010E800124431018280511185461306D0039305BD
:1010F800D003014506C4EFF08FFDA24085461306D4
:10110800C00385451305C00331016FF0EFFCB7F745
:1011180000E08C4783A741E103A7C1E19D8DB70794
:1011280000200E079387C702BA97D981A8338D8903
:1011380093B5150029B703A7C1E1B7070020938726
:10114800C7020E07BA97A8338145D5BD511106C409
:1011580022C226C0D13CEFF0AFD41385C1DA130602
:10116800400681459384C1DAEFF04FA41306400688
:101178008145138581D4EFF06FA323AE01E0B70753
:1011880000209386C7020946B0A290320545C8C21E
:10119800B0B29422B29423A801E088A01387C1DAE0
:1011A8009387C702054399C201430145930600028C
:1011B800B4A794370546138481D4369710A398278B
:1011C8003694D0C7B4B710A001EB0947050523AC86
:1011D800E1E023A8A1E031A0094723ACE1E0E31A4C
:1011E80003FE1137C5357D3B1244A24082443101CC
:1011F8006FF06FBF31119387C1DA22C606C826C4C3
:10120800AA979C23138681D42A962A849386C1DAC6
:101218000822138781D403A6C1E1B1CF630DC504A9
:10122800B7040020131635009384C40226960323BE
:10123800460032C23EC03303F34023226600F53134
:1012480003A5C1E18247131335009A9403A3440010
:101258001375F50F3E9323A26400C1391246938695
:10126800C1DA50428247138781D411E603A681E18F
:101278007D1623ACC1E0A29685079CA283A7C1E195
:101288002297228581451CA35D3B3244C240A2447B
:1012980051016FF04FB531119387C1DA06C822C6E4
:1012A80026C43EC0014601458146130310209143E0
:1012B80029448247B355D30085890147B302F60014
:1012C800B357E300858BB387F34093F7F70F81C5D6
:1012D800FD1793F7F70FB384E200842063E3F4006B
:1012E80005050507E31E87FC85062906E393E6FC4A
:1012F80059CD7D1542054185EF00F0300144814408
:101308009305102091422943824733D69500058AD8
:101318000147B303F400B3D7E500858BB387F240E8
:1013280093F7F70F01C6FD1793F7F70FB386E3009E
:10133800942263E7F6087D15635405083A943AC287
:1013480002479D8E8145330687001374F40F22856A
:1013580014A2F531124729E3130514001375F50F8C
:10136800513DB1E41305A4001375F50F6135EFF095
:101378008FA70965130505F7EFF0DF96130500053C
:10138800EF00A06A03A781E18547E3CDE7F0C240FB
:101398003244A244510182801305F4FF1375F50FFE
:1013A8003AC2893D1247A547E318F7FA5DBF13050E
:1013B80064FF1375F50F3D3DA547E395F4FA45BF66
:1013C8000507E31A67F4E34F05FA85042904E39D4A
:1013D80064F24DBF511122C226C006C4A93B03A323
:1013E800C1E1814701450144938481D41387C1DA5F
:1013F80093054006338697001022631A66003386E9
:10140800E70010226360C40463138600050585079E
:10141800E392B7FE7D151375F50FEF00F01803A7DB
:10142800C1E181479386C1DA3386F400102263193B
:10143800E6003386D70010226314860019C57D158F
:101448008507DDB732840545D9B713F5F70FB70718
:1014580000200E079387C702BA978545A8B3C536FB
:101468001244A24082441305800C31017DABB7F7CA
:1014780000E09C47311106C822C626C423AAF1E021
:1014880083A701E16381070C03A7C1E1B706002028
:101498009387C6020E07BA9798239386C602854794
:1014A80036C0631BF70A3D3783A6C1E1024793970D
:1014B8003600BA97A433A6879385C1DAA695882102
:1014C8001386C1DA938581D419C533839500034304
:1014D8000300631ED30C8247A69594A18E06BE9680
:1014E800DC4226960505850708A281452685DCC2CB
:1014F800EFF0FFB403C5C1E1EFF03FA3693B03A7D9
:1015080081E1854763C2E71009651305C5F5EFF06A
:101518006FFD1531EFF04FF183A7C1E1BE84EFF005
:101528006FED15E5B7F700E003A741E19C47998FF8
:1015380037074000F98F7D5791E3268723AEE1E016
:10154800EFF05FA6E9BFEFF0EFEAE30F05F2C24064
:101558003244A24451018280EFF0CFE983A6C1E171
:1015680002477D1593973600BA97A4331375F50F84
:101578001546A687636DA6020966130646F20A0594
:10158800329510410286453E9387F4FF91C83E8507
:10159800A9453EC2EFE0DFDDA54692476314D500BA
:1015A8009387940037F700E0184723AAE1E003A7E0
:1015B800C1E182460E0736973CB3EFF05FB5EFF016
:1015C8008F827DBDEFF03FB7938714003E85A94514
:1015D8003EC2EFE0FFD9924771F5938774FFD9B700
:1015E800EFF07FB5938764FFE3DE07FA9387A405DE
:1015F80055BFEFF05FB49387A40093063006E3D39A
:10160800F6FA938764FA79BF83A7C1E1054685078F
:101618006353F60081478246139737003697544341
:10162800FDD623AEF1E03C333EC2EFF0BF9737F76B
:1016380000E0184723AAE1E0924795BF511106C47C
:1016480022C226C00965C147130700049306000893
:1016580001468145130505F8EFF0CFC9FD54EFE0C9
:101668009FF8EFF02FD91DC5EFF08F83EFF0FF84BF
:1016780071D9EFF0BFADB7F700E0984783A781E2D3
:10168800BA9723A4F1E203A781E18547E3D0E7FEF7
:10169800F93BE9BFEFF0CFE513042503E30394FC1E
:1016A8001306E002A2851385C1E2452D1375F50FD7
:1016B80095476310F5029387C1E213076005130687
:1016C800A00381451385C1E2D8A3EFF02FC0EFE056
:1016D8009FF1A28479B7994763C2B702FD151397A2
:1016E800250054592E97FD47B397E70093C7F7FF96
:1016F800F58F3317E600D98F5CD98280B14763C371
:10170800B702E5151397250014592E97FD47B3978F
:10171800E70093C7F7FFF58F3317E60033E6E700D6
:1017280010D98280CD151397250054552E97FD4763
:10173800B397E70093C7F7FFF58F3316E6005D8E82
:1017480050D582805C5937074000819BCD8F5CD98A
:101758001C45D98F1CC51C41898BF5DF684542059E
:1017680041818280311122C626C406C82AC032842B
:10177800814463488000C24032442685A244510116
:10178800828002452EC27D14753F9245AA94D5B732
:10179800B707100013573540938727043E972A0749
:1017A80093767500104313952600BD47B397A7009D
:1017B80093C7F7FFF18F13F6F5003316A600D18F04
:1017C8001CC39307700263DBB700054593078002CB
:1017D8003315D5006393F500420508CB8280B7F72F
:1017E800FF1F83C7477D1307F00F6393E700C147C7
:1017F800B71602409842FD8B8E07137777F0D98F82
:101808009CC28280371702405C43511122C28983EF
:101818003704002006C426C08D8B85461304C403F4
:101828006384D70489466383D704084048C4B7143F
:101838000240D8408967938787400D83798BBA9790
:101848008E23EFE0FFAD08C8D84089679387873EAD
:101858002D837D8BBA978C23EFE09FACA24048C8BC
:1018680012448244310182804840C9B75C43C18335
:10187800858B81E70840060555BF4840EDBF3727EF
:1018880002401C43511106C4F19B93E717001CC387
:10189800B937371702401C4393E717001CC3B71723
:1018A80002409843098B75DFD843719BD8C3B7179B
:1018B8000240D84309830D8B6DFFD843B70600F962
:1018C800FD16758FD8C39843B706F7FEFD16758FBA
:1018D80098C39843B706FCFFFD16758F98C39847C1
:1018E800F9769386F62F758F98C79847B7069D00A7
:1018F8006146558F98C7D8431377F7F0D8C38967DF
:101908009386073D2D479387073DEC2A6375B600FC
:101918007D17F9167DFB060737160240BA97544221
:101928009C3341771307F77F758FAE07D98F5CC259
:10193800D13DB70700209387C7039C4B3726024049
:101948001842B7C68C01938606A8B3B7D700A24041
:1019580093C71700719BD98F1CC231018280B7F7DA
:1019680000E09843799B98C39843759B98C3984324
:101978001367470098C398430607058398C30D6704
:1019880023A407001307F7ED98CBD843799BD8C356
:1019980098435D9B98C323A001E2984313671700FF
:1019A80098C38280B7170240D853511123A2E1E2AD
:1019B800856706C422C226C0938787380100FD17B1
:1019C800F5FF753DB7170240D84B13675700D8CBC2
:1019D800984F8566938656A3558F98CFD84FB706EC
:1019E80020108506558FD8CF0D648D648D3F130464
:1019F80084B2938484B2636894001244A2408244FF
:101A080031016FF04FB01C4011048297EDB737F7E2
:101A180000E0931715001447AA978E0737F600E0E1
:101A28001846158FE36EF7FE8280996551119385EC
:101A380005DC06C4EFE0DF8CB7F700E09847B7F69F
:101A480000E09C46998FE3EEA7FEA2403101828018
:101A58005111B727014006C4938707406311F50267
:101A6800B7170240984F1367072098CFD8471367D6
:101A78000720D8C70100D8471377F7DFD8C71C4518
:101A88003707F2FF7D17F98F37070E00D98F1CC56E
:101A98001C4537071000D98F1CC55C55370710FF48
:101AA8007D17F98F5CD51C4593E717001CC50545C4
:101AB800AD3FB727014093870740D843B70600FAE0
:101AC800FD16758FB7060002558FD8C39847B726FD
:101AD80001401367870098C7938706409847218B72
:101AE80065FF98471367470098C737270140930752
:101AF80007409C47918BE5FFA24031018280B737B0
:101B08000140938707C06312F502B7170240D84710
:101B1800856693860680558FD8C70100D847FD761D
:101B28009386F67F758FD8C78280B7070040E31D7C
:101B3800F5FEB7170240984B1367170098CB0100C2
:101B4800984B799B98CBCDB7B7370140938707C09F
:101B5800631BF500B71602409C4E05671307078004
:101B6800D98F9CCE8280B7070040E31DF5FE37175A
:101B780002405C4F93E717005CCFEDB7411106C6F2
:101B880022C426C22A8432C0AE847D3F2285853F86
:101B98001C440246FD14E19B1CC404D450D45C4888
:101BA800B240924493E717005CC81C48F99B1CC8D4
:101BB8005C4493E717005CC41C4093E717001CC003
:101BC800224441018280111132C636C43AC23EC055
:101BD80006CC22CA26C82A84AE84BD37228505379A
:101BE8000C443246A246E1990CC47D1610D454D454
:101BF800144082471247BD9A14C0144093B7170087
:101C0800990793E6060814C08D466381D40A63C910
:101C180096028546638AD40489466387D4067C4045
:101C28002167E240D98F7CC05C48C24493E7170023
:101C38005CC81C4093E717001CC0524471018280A5
:101C48009146E39ED4FC38C0584CE576FD16758F56
:101C5800B207D98F5CCC5C4C056793060780D58F9B
:101C68005CCC1C50D98F39A858D8184C92071377D8
:101C7800F7F8D98F1CCC1C4C93E787001CCC1C5060
:101C880093E717001CD061BF18DC184CE576FD16E9
:101C9800758FB207D98F1CCC1C4C056713070780BA
:101CA800D98F1CCC1C5093E70701E9BF58DC584C6E
:101CB80092071377F7F8D98F5CCC5C4C93E78700D1
:101CC8005CCC1C5093E7071075BF130181FC22D828
:101CD80006DA26D62AC42EC0A3040102814601478B
:101CE800130491020245A94532CC36CA3AC8EFE03E
:101CF8002FE32AC202459307F4FFA9453EC6EFE049
:101D0800EFE44247D246824513050503A30FA4FE1C
:101D18002545B24762469304170085068D43636FD5
:101D2800B500224513062700BE85EFE0CFE6D25066
:101D380042542685B254130181038280639A760047
:101D480001CAA38FC7FE930427009307E4FF8146C7
:101D580012473E843AC0268771B763C30500B5B7FA
:101D6800511106C49306D00214A1B305B04005056D
:101D7800A93FA240050531018280511122C203A565
:101D880081E2B74503009385D53F06C4EFE04FD7FE
:101D9800B7A72600938737EC3E9523A4A1E2A2407B
:101DA800124441813101828015C5511122C226C0D9
:101DB80006C42A84FD54AD28B3D4A40093F4F40FC8
:101DC8006D3F2181658DE36DA4FEA24012448244DB
:101DD80031018280014582800DC5511122C226C081
:101DE80006C42A84FD54A920B3D4A400C204C18027
:101DF8006937658DE36EA4FEA24012448244310126
:101E08008280014582805111AA8706C4420541811A
:101E180063C80700D137A24042054185310182805D
:101E28003305A04042054181453F3305A040E5B751
:101E3800C1676375F5029337051093C717008E07BE
:101E4800130700021D8F3355F5009717000093877D
:101E580067BDAA9788233305A7408280B70700018A
:101E6800637FF500C1473355F50097170000938746
:101E780067BBAA97882341473305A7408280E1477B
:101E88003355F500971700009387C7B9AA97882399
:101E980021473305A74082807800AED580A83FD37C
:101EA80000408D14A0C0DA128120D9F1DB40200057
:101EB800AF0000004578706C6F64696E67204174EC
:101EC8006F6D73004C454654202E2E2E2E20506CDC
:101ED80061796572203120697300000052494748D2
:101EE80054202E2E2E20506C617965722032206984
:101EF8007300000041202E2E2E2E2E2E2E205374DD
:101F08006172742047616D65000000002D6C6F736D
:101F1800742D000057494E4E45520000CC15000064
:101F2800E81500008E150000FA150000C014000026
:101F38005615000020202048554D414E0000000055
:101F4800434F4D5055544552000000003C1F0000BF
:101F5800481F0000080076070800EC050800FB048D
:101F68001000BB03000000000100F6090100D90BB6
:101F78000100ED0E00000000FFFFFFFFFFFFFFFF65
:101F8800FFFFFFFFFFFFFFFFFFFFFFFFFFFFFFFF59
:101F9800FFFFFFFFFFFFFFFFFFFFFFFFFFFFFFFF49
:101FA800FFFFFFFFFFFFFFFFFFFFFFE067981CFE3B
:101FB8001E0F37CE0FFFFFFFFFFFFFE063180CFC7B
:101FC8000E0733CC07FFFFFFFFFFFFE7F039CCF820
:101FD800C66331CCE7FFFFFFFFFFFFE7F879CCF9D5
:101FE800E67330CCFFFFFFFFFFFFFFE0FCF9CCF901
:101FF800E673304CFFFFFFFFFFFFFFE0FCF80CF932
:10200800E673320CC7FFFFFFFFFFFFE7F8781CF904
:10201800E673330CE7FFFFFFFFFFFFE7F039FCF83B
:10202800C663338CE7FFFFFFFFFFFFE06319FC0C7B
:102038000E0733CC07FFFFFFFFFFFFE06799FC0E99
:102048001E0F33EE0FFFFFFFFFFFFFFFFFFFFFFF36
:10205800FFFFFFFFFFFFFFFFFFFFFFFFFFFFFFFF88
:10206800FFFFFFFFFFFFFFFFFFFFFFFFFF8F00E105
:10207800E3F1C1FFFFFFFFFFFFFFFFFFFF8F00C07E
:10208800E1E180FFFFFFFFFFFFFFFFFFFF07E78C96
:1020980060C19CFFFFFFFFFFFFFFFFFFFF27E79ED9
:1020A80064099FFFFFFFFFFFFFFFFFFFFE23E79E7F
:1020B800661981FFFFFFFFFFFFFFFFFFFE73E79E2B
:1020C8006739C0FFFFFFFFFFFFFFFFFFFC71E79EBF
:1020D80067F9FCDFFFFFFFFFFFFFFFFFFC01E78C55
:1020E80067F99CFFFFFFFFFFFFFFFFFFF8F8E7C05E
:1020F800E7F980DFFFFFFFFFFFFFFFFFF8F8E7E1E9
:10210800E7F9C1FEFFFFFFFFFFFFFFFFFFFFFFFF34
:10211800FFFFFFDFFFFFFFFFFFFFFFFFFFFFFFFFE7
:10212800FFFFFFDBFFFFFFFFFFFFFFFFFFFFFFFFDB
:10213800FFFFF3FFFEFFFFFFFFFFFFFFFFE3FFFFD0
:10214800FFFBFFCFFBFFFFFFFFFFFFFFFFDCFFFFF2
:10215800FFFBDC876FFFFFFFFFFFFFFFFFBF7FFF76
:10216800FEFDDE00FFFFFFFFFFFFFFFFFF7F7FFF9A
:10217800FF7DF7027FFFFFFFFFFFFFFFFF7F7FFF6E
:10218800FFBFFF007FFFFFFFFFFFFFFC0F7FBC3F8C
:10219800F7FFFE001FFFFFFFFFFFFFF9E37FA3DF4D
:1021A800FBFF03008FFFFFFFFFFFFFFBF87F9FEFA1
:1021B800FDF8018013FFFFFFFFFFFFFBFF3E7FEFEE
:1021C800FFF700603DFFFFFFFFFFFFF9FFC1FFEFD3
:1021D800FFEF0E303FFFFFFFFFFFFFFDFFEDFFDFCB
:1021E8007FD80F9C3FFFFFFFFFFFFFFEFF92FFDF3F
:1021F8009F9001C4FFFFFFFFFFFFFFFF7E613FBF0E
:10220800E70F8F07F7FFFFFFFFFFFFFFBDE1CF7F5E
:10221800FF18F8C3BDFFFFFFFFFFFFFFDBF3F6FF6B
:10222800FF307063FEFFFFFFFFFFFFFFE79E79FFB0
:10223800FE636061DFFFFFFFFFFFFFFFE70C39FF71
:10224800FE67EC61FFFFFFFFFFFFFFFF9B0C36FF00
:10225800FE67FE61DFFFFFFFFFFFFFFF7D9E6F7FD1
:10226800FE637E60EFFFFFFFFFFFFFFEFEFFDFBFA5
:10227800FE30F8C0EFFFFFFFFFFFFFFDFF3F3FDF2E
:10228800FE1F9F80EFFFFFFFFFFFFFFBFFDCFFDF6D
:10229800FE0F0F00FFFFFFFFFFFFFFFBFFEBFFEF4E
:1022A800FE000000FFFFFFFFFFFFFFF7FFDCFFEF6F
:1022B800FE00FC01FFFFFFFFFFFFFFF7FC3F7FEF82
:1022C800FF01FE01FFFFFFFFFFFFFFF7E2FF8FEFB8
:1022D800FF03FF83FFFFFFFFFFFFFFF81F7FB1DF53
:1022E800FF83FF83FFFFFFFFFFFFFFFFFF7FBE3F6F
:1022F800FF83C787FFFFFFFFFFFFFFFFFF7F7FFF12
:10230800FFC1C38FFFFFFFFFFFFFFFFFFFBF7FFF7F
:10231800FFE0FF1FFFFFFFFFFFFFFFFFFFBEFFFF05
:10232800FFF83E7FFFFFFFFFFFFFFFFFFFDDFFFF1F
:10233800FFFE00FFFFFFFFFFFFFFFFFFFFE3FFFFC1
:10234800FFFFFFFFFFFFFFFFFFFFFFFFFFFFFFFF95
:10235800FFFFFFFFFFFFFFFFFFFFFFFFFFFFFFFF85
:10236800FFFFFFFFFFFFFFFFFFFFFFFFFFFFFFFF75
:10237800FFFFFFFFFFFFFFFF007C7D7E7C7C0003EB
:1023880001000102027C7C6F7C7C010203100003C7
:10239800007C757E5D7C00030A002102007C746F5E
:1023A8005D7E010109112103007C557F557C0102E6
:1023B8002B002A03017C556E557C02032B10290241
:1023C800848484CF84FC00000200040406100805FD
:1023D8000C141006181520073016400F6017801FC0
:1023E8000202020204081020040404040810204019
:1023F800060606060C1830600808080810204080F9
:1024080001000200030004000500060007000800A0
:1024180002000400080010002000400080000001B5
:1024280000A830305020702070706070102020207C
:102438000000202000002020000020200000202094
:1024480000204850F8C84010102050200000000814
:102458007060707030F070F87070000010004060AC
:102468007070F070E0F8F87088F8089080888870CC
:10247800F070F070F88888888888F83880702000B4
:102488006000800008003000802008404000000004
:1024980000000000200000000000001820C02808EC
:1024A800001CE0FC001CE0FC001CE0FC001CE0FC44
:1024B800FFFFAFAFFFFFAFAFFFFFAFAFFFFFAFAFA4
:1024C800FFDFB7AF0737BFEFEFDFAFDFFFFFFFF784
:1024D8008F9F8F8FCF0F8F078F8FFFFFEFFFBF9FCC
:1024E8008F8F0F8F1F07078F7707F76F7F77778F8C
:1024F8000F8F0F8F07777777777707C77F8FDFFF84
:102508009FFF7FFFF7FFCFFF7FDFF7BFBFFFFFFF13
:10251800FFFFFFFFDFFFFFFFFFFFFFE7DF3FD7F70B
:1025280000544878F870A870D8A850201870602017
:102538003000202000002020000020200000202063
:10254800002048F8A0D0A020201020200000001073
:1025580098A00808508080088888202020F820103B
:102568008888888890808080882008A080D8C8883B
:102578008888888020888888505010204010500013
:102588009078803808704078F000005040D0F070A3
:10259800F07838F0708888889088F02020205008DB
:1025A800001CE0FC001CE0FC001CE0FC001CE0FC43
:1025B800CF1FAFAFFFFFAFAFFFFFAFAFFFFFAFAFB3
:1025C800FFDFB7075F2F5FDFDFEFDFDFFFFFFFEF23
:1025D800675FF7F7AF7F7FF77777DFDFDF07DFEF3B
:1025E800777777776F7F7F7F77DFF75F7F2737771B
:1025F8007777777FDF777777AFAFEFDFBFEFAFFF23
:102608006F877FC7F78FBF870FFFFFAFBF2F0F8F72
:102618000F87C70F8F7777776F770FDFDFDFAFF71A
:1026280000A884FCF8F8F8F888F848F8FCF8FC20CA
:1026380078E020E03CFC3CFC20E020E03CFC3CFC5A
:1026480000200050F82068002010F8F810F800204A
:10265800A820783090F0F01070780000400010202A
:10266800B0F8F08088F0F098F82008C080A8A88812
:10267800F0A8F070208888A820202020201088004A
:102688006088F04078F8E0888860086040A888880A
:10269800888840C0208888A8608830C0201800102A
:1026A800001CE0FC001CE0FC001CE0FC001CE0FC42
:1026B80087FFAF2FC303A323FF0FAF2F8303A323EA
:1026C800FFDFFFAF07DF97FFDFEF0707EF07FFDF4A
:1026D80057DF87CF6F0F0FEF8F87FFFFBFFFEFDF4A
:1026E8004F070F7F770F0F6707DFF73F7F57577742
:1026F8000F570F8FDF777757DFDFDFDFDFEF77FFEA
:102708009F770FBF87071F77779FF79FBF57777709
:102718007777BF3FDF7777579F77CF3FDFE7FFEFC9
:10272800005484FCF8F8A8F8A8D8D020182060F83D
:102738007800000000000000202020202020202019
:10274800000000F828589000201020201000304089
:10275800C8208008F80888208808002020F8200071
:102768008088888890808088882088A08088988839
:1027780080989008208850A8502040201010000011
:1027880000888840888040788820086040A8888829
:10279800F0784030208850A86078C020202000A021
:1027A800000000001C1C1C1CE0E0E0E0FCFCFCFC41
:1027B800871FAFEFFFFFBFFFAFEFAFEFBFFFBFFF59
:1027C800FFFFFF07D7A76FFFDFEFDFDFEFFFCFBF09
:1027D80037DF7FF707F777DF77F7FFDFDF07DFFF01
:1027E8007F7777776F7F7F7777DF775F7F77677719
:1027F8007F676FF7DF77AF57AFDFBFDFEFEFFFFF21
:10280800FF7777BF777FBF8777DFF79FBF577777E8
:102818000F87BFCFDF77AF579F873FDFDFDFFF5FD0
:1028280000A848787070202088F8C05010202070C8
:102838003000000000000000202020202020202060
:1028480000200050F89868001020502020003080A8
:1028580070F8F87010F07040707020401000402040
:102868007088F070E0F8807088F87090F888887048
:10287800807088F0207020508820F8380870000098
:102888000078F038787840088870485020A8887018
:10289800800840F0187820509008F01820C00040B8
:1028A800000000001C1C1C1CE0E0E0E0FCFCFCFC40
:1028B800CFFFFF0FC3038303AF2FAF2FA323A323A0
:1028C800FFDFFFAF076797FFEFDFAFDFDFFFCF7FE8
:1028D8008F07078FEF0F8FBF8F8FDFBFEFFFBFDF30
:1028E8008F770F8F1F077F8F77078F6F0777778F08
:1028F8007F8F770FDF8FDFAF77DF07C7F78FFFFF98
:10290800FF870FC78787BFF7778FB7AFDF57778FF7
:102918007FF7BF0FE787DFAF6FF70FE7DF3FFFBF37
:102928000054303020207070707000880020002023
:10293800000000000000000020202020202020208F
:10294800000000000000000000000000000000007F
:10295800000000000000000000000000000000006F
:10296800000000000000000000000000000000005F
:10297800000000000000000000000000000000FC53
:10298800000000000000007000003000000000009F
:102998008008000000000000007000000000000037
:1029A800000000001C1C1C1CE0E0E0E0FCFCFCFC3F
:1029B800FFFFFFFFFFFFFFFFAFAFAFAFAFAFAFAF9F
:1029C800FFFFFFFFFFFFFFFFFFFFFFFFFFFFFFFF0F
:1029D800FFFFFFFFFFFFFFFFFFFFFFFFFFFFFFFFFF
:1029E800FFFFFFFFFFFFFFFFFFFFFFFFFFFFFFFFEF
:1029F800FFFFFFFFFFFFFFFFFFFFFFFFFFFFFF03DB
:102A0800FFFFFFFFFFFFFF8FFFFFCFFFFFFFFFFF6E
:102A18007FF7FFFFFFFFFFFFFF8FFFFFFFFFFFFFB6
:102A2800000102020303030304040404040404046D
:102A3800050505050505050505050505050505053E
:102A4800060606060606060606060606060606061E
:102A5800060606060606060606060606060606060E
:102A680007070707070707070707070707070707EE
:102A780007070707070707070707070707070707DE
:102A880007070707070707070707070707070707CE
:102A980007070707070707070707070707070707BE
:102AA800080808080808080808080808080808089E
:102AB800080808080808080808080808080808088E
:102AC800080808080808080808080808080808087E
:102AD800080808080808080808080808080808086E
:102AE800080808080808080808080808080808085E
:102AF800080808080808080808080808080808084E
:102B0800080808080808080808080808080808083D
:102B1800080808080808080808080808080808082D
:102B280000B4000080FB010000E70200809F030062
:102B3800003104008092040080E30400282400008F
:102B4800506C61796572203100000000002100009E
:102B580000000000012400000000000000366E01A3
:102B680000366E0100F4010000366E0100127A0092
:102B780000093D0000000000000000000000000007
:102B8800370600400C4A485281990CCA9386219115
:102B98009422CDC605051D890605170600001306F3
:102BA800E6003295028501000100010001000100E4
:102BB80001000100010013854194832305001305DA
:102BC800001063D8A3081387C1931843B7170140AF
:102BD80093870780C14608239352650023A65700B0
:102BE800050793555500CCC79355450093523500BA
:102BF800CCC7102323A65700010093552500CCC746
:102C0800FD1693551500CCC7931515009352660011
:102C1800C8C701003285CCC7F1F2010023A607001E
:102C28008D4533F5B3006315B5001386C19318C2FB
:102C3800170500E01305C508028501009385419436
:102C480083A3050013050004970500E0938525007C
:102C58008285170500E0130565FF02850000000066
:0C2C680000000000000000000000000060
:00000001FF
