:100000006F00800A00000000A4000000A4000000AF
:1000100000000000000000000000000000000000E0
:1000200000000000000000000000000000000000D0
:10003000A400000000000000A40000000000000078
:10004000A4000000A4000000A4000000A400000020
:10005000A4000000A4000000A4000000A400000010
:10006000A4000000A4000000A4000000A400000000
:10007000A4000000A4000000A4000000A4000000F0
:10008000A4000000A4000000A4000000A4000000E0
:10009000A4000000A400000040000020A400000014
:1000A000A400000001A00100970100209381817944
:1000B00017210020130101F417450000130545D650
:1000C00097050020938505F41706002013064602C5
:1000D00063FAC5008322050023A055001105910590
:1000E000E3EAC5FE1385C18A938581DB6377B5009A
:1000F000232005001105E36DB5FE89629382028815
:10010000739002308D427390428097020000938278
:1001100062EF93E2320073905230EF003063971237
:1001200000009382821E739012347300203001000D
:0401300000000000CB
:100134001145B71601409305A01763C5B30693058F
:10014400B01763C07506C8CA639EB3049385C18C97
:100154000395050021C91386418D373701401307E4
:1001640007C06347A0009386018D944214C239A04E
:100174007D158AA105E91442910614C28A228AA136
:1001840019C9B62289CA54D7858234C308538565F0
:100194004D8D08D301A80853FD75FD156D8D08D349
:1001A40011A088CA85031306D02063CFC3008143FE
:1001B4001385818F0C4185050CC11705002013059B
:1001C40025F89385418F88C11385C18F232075003D
:1001D4009383418C83D703003723014013030340E7
:1001E4000325C304930500406390F5049382018CB6
:1001F40083A502002E9523A0A2001387818C0C23D3
:1002040085050CA31306000263CAC500230007007A
:1002140023A002009382C18B23A0A2002390030099
:100224009385918C8C21D1A89395F7018507239010
:10023400F30063DC050A9382018B83A502002E95EB
:1002440023A0A20093050040E39CF5FC23A0020038
:100254009382C18A23A0A200814597020020938241
:1002640022DA03A6C2006345C50093E58500C102F6
:1002740003A642006345C50093E54500A10203A619
:1002840002006344C50093E525009382818B03A596
:10029400020023A002009382418B23A0A2009702B4
:1002A40000209382E2D503A6C2006345C50093E50E
:1002B4000502C10203A642006345C50093E5050497
:1002C400A10203A602006344C50093E505019382DD
:1002D400718C03C502002380B2006316B5009382BB
:1002E400618C2380A200A14509A89382818B83A5F8
:1002F40002002E9523A0A2008145232AB302B7054C
:100304004000032583004D8D2324A3007300203077
:10031400634E050263C305042E86AA857D5515C266
:1003240085466378B6006356C00006068606E36C0D
:10033400B6FE014563E4C500918D558D8582058225
:10034400F5FA82808682C93F2E8582823305A040D9
:100354006347B000B305B040C1B7B305B04086826F
:10036400653F3305A0408282868263C705006349E6
:1003740005005D372E858282B305B040E35B05FE40
:100384003305A040513F3305B040828200002A83E8
:1003940009CA83830500230073007D1605038505C0
:1003A4006DFA82802A8311C62300B3007D160503EB
:1003B40065FE82802147B717014011469145CCCB99
:1003C40093168501E186094363C4060037030200DE
:1003D40023A867000100010001008CCB010001008B
:1003E400010006057D171375F50F71FB37170140E2
:1003F40050CB89450CCB944393F6F6F093E606086C
:1004040094C301000100010010CB010001000100B0
:1004140050CB0100010001004CCB98431377F7F057
:100424001367070198C3828083C7A18C89EFB7172C
:1004340001400947D8CB0100010001001147D8CB86
:10044400010001000100828083C7A18C89EFB717E6
:100454000140114798CB010001000100094798CBE6
:10046400010001000100828083C7A18C511122C2C6
:1004740006C42A849DEB4D3F13058007253F0145A3
:10048400153F137574001365050B2D3701451D3792
:1004940041450D37553F493F13058007213F12441D
:1004A400A24013050004310131B7A2401244A388CD
:1004B400A18E2388018E3101828083C7A18C91E3B0
:1004C400D5BD511122C483C5018FAA8603C5118FDE
:1004D4003703002093D2354093177500BE929307DB
:1004E400031426C2969713C6F5FF1D8A8423054775
:1004F400130303143317C7001376F70F1AC093F3CB
:10050400160033E3C400639603001343F7FF33F389
:1005140064008244A6922380620083C3070193F29D
:10052400260033637600639602001343F7FF33F328
:10053400630083C307022388670093F2460033E312
:10054400C300639602001343F7FF33F3630083C3CE
:1005540007032380670293F2860033E3C3006396A4
:1005640002001343F7FF33F3630083C307042388B4
:10057400670293F2060133E3C30063960200134358
:10058400F7FF33F3630083C307052380670493F203
:10059400060233E3C300639602001343F7FF33F309
:1005A400630083C307062388670493F2060433E3D6
:1005B400C300639602001343F7FF33F36300238001
:1005C400670603C30707E206E1863366C30063C612
:1005D40006001347F7FF3376E3002388C706850533
:1005E4009307F00763D6B7000505A388A18E81455C
:1005F40022442388B18E924431018280B5B503C769
:10060400A18C511106C422C226C08547631FF7126C
:1006140023AE018EB70700203714024093870714D6
:1006240023AAF18E1C4C93E717001CCC1C4C93E7B7
:1006340047001CCC1C4C93E707011CCC1C4C93E7D3
:1006440007021CCC85454945EF00606FA54545452B
:10065400EF00E06E1C4C8564C58F1CCC5C44C58FD8
:100664005CC401005C44FD761387F6FFF98F5CC41B
:10067400B737014098439386F67F370401401377D8
:1006840077FC1367870098C39843A5457945758F10
:1006940098C39843A166938404801377F7F798C3AB
:1006A40098431367072098C398431367071098C3A8
:1006B400D8436D9BD8C39843558F98C3984391668C
:1006C400558F98C398431367470098C3984313679B
:1006D400070498C35C44E19B93E747005CC4852509
:1006E4005C4411777D17F98F3167D98F5CC4130788
:1006F400C00581479306A02F054685453705004070
:10070400EF00F020B70700401307B00798DF984FB9
:10071400E576FD16758F98CF984F458F98CF9853EF
:100724001367070198D3984B6D9B98CBD8471367F1
:100734004700D8C7A2401244B7E700E013070004FB
:1007440023A2E710824431018280B7170140094790
:1007540098CB114798CB85454545D52385454945D3
:10076400F92B29458D64EF005006014475399384B3
:10077400C416B3079400882305042D39E547E31A0A
:10078400F4FED9310945EF0050041306F0318545D4
:1007940037050040EF00101371BF83C7A18CD5EB60
:1007A400111122CA3704002026C806CC13040414ED
:1007B400814426855539A28793050401A146130770
:1007C40000088823902B798D798E3335A00019C2C7
:1007D4001365250003C60702798E19C21365450007
:1007E40003C60703798E19C21365850003C607047F
:1007F400798E19C21365050103C60705798E19C2DE
:100804001365050203C60706798E19C2136505042C
:1008140003C60707798E19C2136505082EC63AC4A4
:100824003EC236C0413E824622479247FD16B2453B
:100834000587C1FA8507E393B7F839318504A147E1
:1008440013040408E397F4F6E2405244C2447101ED
:1008540082808280370500205111130600408145B3
:100864001305051406C43D3EA24023A6018E23A40D
:10087400018E2382018E3101828093573540920587
:1008840037070020AE97130707143E971345F5FF6B
:1008940014231D898547B397A70093C7F7FFF58FE6
:1008A4001CA382801307F0076367A7001307F003F4
:1008B4006363B700D9B78280935735409205338775
:1008C400B700B707002093870714BA9794231345FA
:1008D400F5FF1D8905473317A700558F98A382801C
:1008E4001307F0076367A7001307F0036363B700F8
:1008F400E1B78280B707002003A7C701011126CA08
:10090400B304A700938704602EC006CE22CCB28520
:100914003EC283C6418E802089C69347F4FF13F4F8
:10092400F70F8247024599073EC493168401E18676
:100934002EC82AC663D8060265373245C2459317C6
:10094400140013F4F70FA2470505E310F5FE9247D0
:10095400938404108505E39E97FAF2406244D244DE
:10096400056182808137C2453245D1BF411122C41D
:1009740026C206C62A84AE840820050411E5B240C6
:100984002244924441018280A68532C0A5370246A2
:100994009904DDB703C6A18D1D479307160093F78D
:1009A400F70F6373F700814703C7918D6308F7005E
:1009B4001387C18D329708A3238DF18C828083C75E
:1009C400618C311193F7F70F83C6818D22C626C43B
:1009D40006C8238CF18C8944054433F7970019CB5E
:1009E40033F7960001EB1375F40F36C23EC05D3742
:1009F4009246824705041D478604E310E4FEC24084
:100A04003244A24451018280511122C206C42A8474
:100A14007D3783C7618CA24033D587401244058952
:100A240031018280511106C4593F83C7918D03C798
:100A3400A18D0145630FF7001387C18D3E9785078C
:100A4400082393F7F70F1D476373F7008147A38CBF
:100A5400F18CA24031018280511106C48D3703C547
:100A6400618CA2401335150031018280511106C4F6
:100A7400E5377DDDA24031018280511122C2371455
:100A840002401C4C06C493E717001CCC1C4C93E793
:100A940007011CCCA54551455D24B7060140DC4641
:100AA40071771307F73FF98FDCC61C4C05671307F2
:100AB4000780D98F1CCC5C44D98F5CC401005C4492
:100AC400FD769386F67FF58F5CC4B7370140938734
:100AD40007C0944765767D16E19A94C7DD4694D79E
:100AE4009306803ED4D79306401FB4C39443A240D8
:100AF4001244BD9A94C3D44B93E61600D4CB9443CA
:100B040093E6060894C3D44FF18E1966D18ED4CFE0
:100B1400D44F558FD8CFF843A166558FF8C3984367
:100B24001367170098C331018280B7370140938758
:100B340007C0C8D70581A8C398538566558F98D335
:100B440082802396018CB7370140938707C098535E
:100B5400FD76FD16758F98D3828083A5C18B5111C4
:100B64003705600906C4EFF02FFBA24031018280F3
:100B740051111305800C06C422C226C0B921B70640
:100B84000140DC4601777D17F98F37250140DCC62B
:100B94001305054091290147B72201401D438546AD
:100BA4006D46138502400C49B317E30093C7F7FF62
:100BB400ED8FB395E600CD8F1CC90D07E313C7FE77
:100BC40013060040A145B1229357A540960723AED2
:100BD400F18A9355254099473705004BA384F18C3E
:100BE4002385018CEFF0CFF285678D0763DFA704BF
:100BF40085469547A384F18C2385D18CB717024091
:100C0400984F1367170098CF984F1367070298CF30
:100C140093058004794525222945452EB7170140BF
:100C2400938707409C4793F70704FDF7B7060140F5
:100C3400DC46370700F97D17F98F37070004D98F91
:100C4400DCC683C7A18C754591E379458145C528E8
:100C540081450945ED2003C6918C37240140854523
:100C6400130504400D20130404401C4437074000BE
:100C74007D45D98F1CC42D2E093551321244A24012
:100C840082443101C1BE994763C2B7029547FD153D
:100C9400B385F5025859FD47B397B70093C7F7FFDB
:100CA400F98FB315B600CD8F5CD98280B14763C28A
:100CB400B7029547E515B385F5021859FD47B39773
:100CC400B70093C7F7FFF98FB315B600CD8F1CD9C2
:100CD40082809547CD15B385F5025855FD47B397E6
:100CE400B70093C7F7FFF98F3316B6005D8E50D562
:100CF40082805C5937074000819BCD8F5CD91C45AD
:100D0400D98F1CC51C41898BF5DF6845420541819B
:100D14008280311122C626C406C82AC03284814486
:100D240063488000C24032442685A2445101828037
:100D340002452EC27D14753F9245AA94D5B7B707D4
:100D4400100013573540938727043E972A0793765C
:100D54007500104313952600BD47B397A70093C7AA
:100D6400F7FFF18F13F6F5003316A600D18F1CC3DD
:100D74009307700263DBB7000545930780023315C0
:100D8400D5006393F500420508CB828037170240F3
:100D94005C43511122C289833704002006C426C053
:100DA4008D8B8546130404026388D70489466387C0
:100DB400D7040840B714024048C4D8408D679387CD
:100DC400071C0D83798BBA978E23EFF0EFD408C8F4
:100DD400D8408D679387071A2D837D8BBA978C2310
:100DE400DC4063C307008545EFF00FD3A24048C839
:100DF400124482443101828048406DBF5C43C18308
:100E0400858B81E70840060575B74840EDBF372755
:100E140002401C43511106C4F19B93E727001CC3F5
:100E2400371702401C4393E717001CC3B71702404F
:100E34009843098B75DFD843719BD8C3B717024019
:100E4400D84309830D8B6DFFD843B70600F9FD160F
:100E5400758FD8C39843B706F7FEFD16758F98C3F0
:100E64009843B706FCFFFD16758F98C39847F9762B
:100E74009386F60F758F98C79847B7069D0061460D
:100E8400558F98C7D8431377F7F0D8C38D679386E7
:100E940087182D4793878718EC2A6375B6007D174A
:100EA400F9167DFB0607B7160240BA97D0429C3369
:100EB40041771307F77F718FAE07D98FDCC2DC420D
:100EC40086078583DCC2D935B707002093870702DC
:100ED4009C4B37C78C011307F7A78946636AF70051
:100EE40037B7120113070788B3B7E70093C6170093
:100EF400372702401C43A240F19BD58F1CC331010C
:100F04008280B7F700E09843799B98C39843759B18
:100F140098C398431367470098C39843060705830B
:100F240098C30D6723A407001307F7ED98CBD843A4
:100F3400799BD8C398435D9B98C323A001D0984361
:100F44001367170098C38280B7170240D853511112
:100F540023A2E1D0856706C422C226C093878738BE
:100F64000100FD17F5FF6535B7170240D84B13672D
:100F74005700D8CB984F85669386D6A3558F98CFC4
:100F8400D84FB70620108506558FD8CF11649164C9
:100F94008D3F1304C4E19384C4E163679400124455
:100FA400A24082443101E9B61C4011048297F5B78E
:100FB400E1473305F502B7F700E09847B7F600E0DC
:100FC4009C46998FE3EEA7FE82809967938707DC9E
:100FD4003305F502B7F700E09847B7F600E09C4602
:100FE400998FE3EEA7FE8280B727014093870740DD
:100FF4006311F502B7170240984F1367072098CF83
:10100400D84713670720D8C70100D8471377F7DFFD
:10101400D8C71C453707F2FF7D17F98F37070E0035
:10102400D98F1CC51C4537071000D98F1CC55C55CA
:10103400370710FF7D17F98F5CD51C4593E7170020
:101044001CC5054559B7B7370140938707C06312DC
:10105400F502B7170240D847856693860680558FF8
:10106400D8C70100D847FD769386F67F758FD8C719
:101074008280B7070040E31DF5FEB7170240984B86
:101084001367170098CB0100984B799B98CBCDB789
:10109400B7370140938707C0631BF500B7160240BA
:1010A4009C4E056713070780D98F9CCE8280B707B3
:1010B4000040E31DF5FE371702405C4F93E717002D
:1010C4005CCFEDB7411106C622C426C22A8432C0C1
:1010D400AE847D3F2285853F1C440246FD14E19B7E
:1010E4001CC404D450D45C48B240924493E7170023
:1010F4005CC81C48F99B1CC85C4493E717005CC49B
:101104001C4093E717001CC0224441018280111146
:1011140032C636C43AC23EC006CC22CA26C82A8485
:10112400AE84BD37228505370C443246A246E19988
:101134000CC47D1610D454D4144082471247BD9A6F
:1011440014C0144093B71700990793E6060814C017
:101154008D466381D40A63C996028546638AD404A2
:1011640089466387D4067C402167E240D98F7CC0DE
:101174005C48C24493E717005CC81C4093E717001F
:101184001CC05244710182809146E39ED4FC38C055
:10119400584CE576FD16758FB207D98F5CCC5C4C44
:1011A400056793060780D58F5CCC1C50D98F39A86E
:1011B40058D8184C92071377F7F8D98F1CCC1C4CCD
:1011C40093E787001CCC1C5093E717001CD061BF29
:1011D40018DC184CE576FD16758FB207D98F1CCC38
:1011E4001C4C056713070780D98F1CCC1C5093E750
:1011F4000701E9BF58DC584C92071377F7F8D98FE9
:101204005CCC5C4C93E787005CCC1C5093E70710E4
:1012140075BF130181FC22D806DA26D62AC42EC053
:10122400A304010281460147130491020245A94522
:1012340032CC36CA3AC8EFF02F8E2AC20245930741
:10124400F4FFA9453EC6EFF0EF8F4247D2468245F0
:1012540013050503A30FA4FE2545B2476246930474
:10126400170085068D43636FB500224513062700DA
:10127400BE85EFF0CF91D25042542685B25413016B
:1012840081038280639A760001CAA38FC7FE930408
:1012940027009307E4FF814612473E843AC026871D
:1012A40071B763C30500B5B7511106C49306D002E4
:1012B40014A1B305B0400505A93FA24005053101BD
:1012C4008280511122C206C426C02E8419E512441C
:1012D400A24082442E853101CDB99304F00F898C4C
:1012E4008604330494021385F4FFEFF01F8413552E
:1012F4001440229575391244A240824431016FF0A2
:101304005F8483C7A18C511106C422C226C089EB15
:10131400EFF04FD4FD54EFF0EFF009CDEFF00FF5FF
:10132400EF003037EF103041A240124482440145AF
:1013340031018280EFF07F8213042503E38D84FC66
:101344001306E002A2851385C1D0A13F1375F50FE2
:1013540095476310F5029387C1D01307600575465E
:10136400930510031385C1D0D8A3EFF02FE0EFF05D
:10137400CFC2A2844DB7511122C206C42A840821C7
:1013840031151375F50FEF10206001C5EF106018CB
:1013940028B0A240124431018280030505008280F6
:1013A4000305150082800305450082804CA18280DC
:1013B4000305250082800305350082801C229821C4
:1013C400E1173117E2071377F70FE187098398A133
:1013D40089871CA28280682582806CA5828008355A
:1013E40082800CB5828048258280282582804CB575
:1013F4008280483582802CB582800305B5008280C6
:10140400511106C422C226C085473CB50CA110B1B7
:10141400A302050023030500A3030500230405001C
:101424002A84B684EF10E00E28A0EF10800E8547C2
:1014340028B05CA0A304040024A423070400A24051
:10144400124482443101828089C58547638BF5004B
:1014540082800307250085476313F700FD573CA1ED
:101464008280830735006395B700FD573CB18280C5
:101474002CB1828089C585476384F5008280E5BDEF
:10148400511122C206C42A840831EF10E04F01C56D
:10149400EF10200828A0A2401244310182802111BB
:1014A40006CA22C826C61C211306B1009305A10052
:1014B4009D075C851C312A848544DC8501378307BC
:1014C400A1003EC09C85024593958701E1853EC2FB
:1014D400EF00707B9247631495003C3419A8938500
:1014E40017000245E205E185EF00F0798147E30644
:1014F40095FED2404244B2443E856101828031115E
:1015040022C606C826C40307550061468306750033
:10151400830405002A849377F70F6353E6049D1729
:101524005CB1938714001CA122853AC236C0853F62
:101534008246124719E5030604009307400663D464
:10154400C70258B00307240074B004A0854763138E
:10155400F700FD573CA0C2403244A24451018280AE
:10156400E5075CB1D1B72285393503070400854707
:101574003CA0E30297FE5CA4F9BF211106CA22C86D
:1015840026C61C211306B1009305A1005C851C31FD
:101594002A848544DC851D358307A1003EC09C85D3
:1015A400024593958701E1853EC2EF00D06D9247D5
:1015B400631495003C3419A8938517000245E2058D
:1015C400E185EF00506C8147E30695FED24042442A
:1015D400B2443E8561018280311122C606C826C408
:1015E40003075500215683067500830405002A84E9
:1015F4009377F70F6352C704E5075CB19387F4FF51
:101604001CA122853AC236C08D3F8246124711E59D
:1016140003060400CD4763C4C70258B0030724007F
:1016240074B004A085476313F700FD573CA0C24083
:101634003244A244510182809D175CB1D9B72285FE
:101644001D3BFD573CA083070400E38297FE23065D
:101654000400F1BF311106C822C626C41C2113069A
:101664007100930561005C831C312A84DC83B933E7
:101674000483830571001395840161852EC0EF00F6
:101684009060054782456314E5003C3419A813852E
:10169400140062056185EF00105F05478147E3068A
:1016A400E5FEC2403244A2443E855101828031119C
:1016B40022C606C826C48304650021568306850015
:1016C400030715002A8493F7F40F63DCC402E507CB
:1016D4007CA19307F7FF1CB122853AC236C09D3F17
:1016E4008246124709E58307140063DF070014A448
:1016F40018B064A022853244C240A24485455101F9
:10170400A1B39D177CA1C9BF22858545A533FD578B
:101714003CB0C2403244A24451018280311106C817
:1017240022C626C41C2113067100930561005C8344
:101734001C312A849D07DC835131048383057100A5
:101744001395840161852EC0EF00F053054782454F
:101754006314E5003C3419A81385140062056185FF
:10176400EF00705205478147E306E5FEC24032446C
:10177400A2443E8551018280311122C606C826C486
:1017840083046500614683068500030715002A84E7
:1017940093F7F40F635E96029D177CA193071700DD
:1017A4001CB122853AC236C0953F8246124719E5DC
:1017B400030614009307000363DFC70014A418B0E2
:1017C40064A022853244C240A24485455101ADB98A
:1017D400E5077CA1F9B722858545693985473CB081
:1017E400C2403244A244510182809307C0031CA129
:1017F400930700021CB185475CA1A30105003CA12D
:10180400A302050023030500A30305002304050028
:101814008280211106CA22C826C618211C3113064B
:10182400B1001D079305A1005885DC85413E8085E4
:101834008307A10093158401E1853E852EC23EC035
:10184400EF0070440547924505046302E502024532
:1018540062046184A285EF0010430547631FE5021B
:10186400EF10203A0245A285EF0030460DA0AA846D
:101874002EC2EF1000399245024562046184EF00E4
:10188400D0440245A285EF001040E30B95FC42448E
:10189400D240B24461016F00C07ED2404244B2449F
:1018A40061018280511122C206C4B7070020830659
:1018B400550083C787031306100313F7F60FBE966C
:1018C4002A84635ED6029387E7FC3E971C2158B1B5
:1018D40085071CA10145EF00304603070400930768
:1018E400400663D7E7001CA0A3030400A30204007E
:1018F40085473CA022851244A240310119BFBA9702
:101904005CB1C9BF211106CA22C826C618211C31E0
:101914001306B1009305A1005885DC85EFF01FAADA
:1019240080858307A10093158401E1853E852EC23D
:101934003EC0EF0050350547924505046302E502B9
:10194400024562046184A285EF00F0330547631FFA
:10195400E502EF10002B0245A285EF0010370DA021
:10196400AA842EC2EF10E0299245024562046184E4
:10197400EF00B0350245A285EF00F030E30B95FC93
:101984004244D240B24461016F00A06FD24042444D
:10199400B24461018280511122C2B707002006C4FB
:1019A40083C68703030755001306F0FC2A84937744
:1019B400F70F158F958F635DC702938727035CB17B
:1019C4001C21FD171CA10945EF0010370307040073
:1019D400CD4763C8E700D1471CA0A3030400A302BA
:1019E4000400FD573CA022851244A240310119BFD6
:1019F4005CB1D1BF211106CA22C826C618211C31E8
:101A04001306B1009305A1005885DC85EFF01F9BF8
:101A1400008593178401E1873EC28307B100131543
:101A240084016185BE853EC0EF00F025854605042E
:101A34006302D5028245620461842285EF00B024EA
:101A44008546631DD502EF10C01B82452285EF0039
:101A5400D02705A0AA84EF10C01A8245124562045B
:101A64006184EF00902682452285EF00D021E30CAB
:101A740095FC4244D240B244610121A5D240424483
:101A8400B24461018280511122C2B707002006C40A
:101A940083C68703030765001306F0FC2A84937743
:101AA400F70F158F958F635CC702938727037CA17B
:101AB4001C31FD171CB10D45EF00102883071400DD
:101AC40063D80700A30004002304040023030400D4
:101AD400FD573CB022851244A240310121BF7CA1B4
:101AE400D9BF511122C206C42A84082131151375A5
:101AF400F50FEF00706911E522851244A24031010F
:101B040059B7830724007D57638AE7000547639C20
:101B1400E70022851244A240310169B322851244B0
:101B2400A24031018DBDA2401244310182802111B5
:101B340006CA22C826C61C3118211306B1009D0707
:101B44009305A1005885DC85EFF05F870085931726
:101B54008401E1873EC28307B100131584016185C6
:101B6400BE853EC0EF003012854605046302D502EF
:101B74008245620461842285EF00F0108546631D6E
:101B8400D502EF10000882452285EF00101405A04D
:101B9400AA84EF1000078245124562046184EF00B5
:101BA400D01282452285EF00100EE30C95FC4244CE
:101BB400D240B2446101F1A1D2404244B244610135
:101BC4008280511122C206C4B70700208306650033
:101BD40083C787031306100313F7F60FBE962A84F0
:101BE400635ED6029387E7FC3E971C3178A1850794
:101BF4001CB10545EF0050140307140093070003BC
:101C040063D7E7001CB023040400230304008547C2
:101C14003CB022851244A240310111BFBA977CA185
:101C2400C9BF511122C206C42A840831EF00D0551D
:101C340011E522851244A2403101ADB1830734007D
:101C44007D57638AE7000547639CE70022851244B9
:101C5400A2403101BDB722851244A240310125B50D
:101C6400A240124431018280511122C206C42A8446
:101C74000831EF00705111E522851244A240310170
:101C840019BB830734007D57638AE7000547639CCB
:101C9400E70022851244A240310125B7228512446F
:101CA400A2403101CDB3A2401244310182805111CE
:101CB40022C206C42A84082131151375F50FEF00DA
:101CC400B04C11E522851244A2403101DDBD8307E9
:101CD40024007D57638BE7000547639DE700228559
:101CE4001244A24031016FF0FFBB22851244A2408E
:101CF400310155B1A2401244310182802302050012
:101D04008280211106CA22C826C61C211306B100EE
:101D14009305A10089075C851C312A84B684890750
:101D2400DC85EFF0AFE98305B1000305A100EF0006
:101D3400807585476315F50099C023020400D240DD
:101D44004244B24461018280311122C626C42A84ED
:101D5400AE8413054006854506C8EFF08FD6B1451D
:101D64001305800CEFF0EFD583C781D40947638254
:101D7400E704636BF7008DE7A30204009C20A1072E
:101D84001CA09C30890725A00D476389E7022285A2
:101D9400324482451246C240A2448146510195B75D
:101DA40085475CB09C2089071CA09C30A1071CB00F
:101DB400F9BFA30204009C20F117D9B785475CB092
:101DC4009C2089071CA09C30F117D5B72E8783C5AA
:101DD40081D48947638FF50463EEB70214221C3261
:101DE400A9E1B106890793F6F60F93F7F70F4CB103
:101DF40014A11CB114331C232C33A206DD8E3C2306
:101E040050235833C207D58FE20522078546DD8D5E
:101E1400598EC5BD8D476387F5028147814681454B
:101E2400F9B7890693F6F60FB10793F7F70F8545CF
:101E34007DBF14221C32E116890793F6F60F93F73F
:101E4400F70FF1BF14221C32890693F6F60FE1173F
:101E5400E9BF48318280511122C206C4054422855B
:101E64009145EFF00FC6BD450145EFF08FC5134511
:101E7400F4FF89451375F50FEFF0AFC4290413740B
:101E8400F40F9307B00FE31CF4FCA2401244310199
:101E9400828082809967938707DC3305F50203A665
:101EA40001D6B7F500E09845B306C740E3EDA6FEBA
:101EB40023A0E1D68280130700102390E1D49387F6
:101EC40001D40547BAA32387070023880700A38208
:101ED40007002393070023840700238607008280DA
:101EE4005111138501DA06C4113DA240138561DA4C
:101EF400310129B5311122C626C4116406C8130460
:101F040004DE0147938441D63D453305A70281454C
:101F14003AC226952AC0EFF06FC983C7D1D41247BD
:101F240091668A07BA979386C6DEB6979C230245C4
:101F340099CB8306240003061400830504003AC0E9
:101F4400EFF00FCC0247050791470D04E31EF7FAA3
:101F5400C2403244A24451018280930740023305B7
:101F6400F5029165938545CE51111306400206C4CE
:101F7400AA951385C1D1EFE08FC1A24031018280BF
:101F8400938701D413072002B8AB114798BB1307FA
:101F940080FC23950700A3860700D8A382801387BB
:101FA40001D458233146938701D4A9466375E600CA
:101FB40059179376F70FD837D4A315468946636526
:101FC400E60005079376F70FD4B78280938701D490
:101FD400B833D42305071377F70FB8B363F6E604D1
:101FE400511122C226C006C4138441D6A38107001E
:101FF4009304C4032285EFF00FBB19CD2285EFF0C3
:10200400CFBF8547631AF50022851244A24082445B
:10201400814531016FF02FBE3D04E31D94FCA240C5
:1020240012448244310182808280511122C206C44A
:1020340085472A84630AF50089476306F50205E1AA
:102044001244A240310101BD22859145EFF06FA7F2
:1020540015041374F40F93075006E317F4FEA2401B
:10206400124431018280930560095145EFF06FA558
:102074001244A240930560091305400631016FF034
:102084004FA485451305800C6FF0AFA31305803E64
:102094006FE0BFF3411122C426C206C68144014742
:1020A4000144BD47B387F402138541D63AC03E9537
:1020B400EFF06FAF85470247138641D66317F500EB
:1020C400050413F7F40F1374F40F85049147E39A8E
:1020D400F4FC85476310F402BD47B307F70281455A
:1020E4003AC03305F600EFF00FB10247938701D4ED
:1020F400E0A7F8B7B240224492444101828003032E
:1021040001003A936341A3022A960145634EE60017
:10211400030741003E976349B700AE96B3A7F600A4
:1021240013C51700828001458280011122CC1384DB
:1021340041D626CA06CE9304C4032285EFF0AFA687
:102144008547631AF5062285EFF0EFA82DE5138580
:10215400C1DAEFF08FA42AC81385C1DAEFF04FA4D7
:102164002AC62285EFF06FA32AC42285EFF04FA37D
:10217400B24542432247850505039D46AA87E205E9
:102184001315830136C236C015469546E18561852F
:10219400BD3715C11305800C85452AC4EFF06F9235
:1021A400224571151375F50F65F91D3B938701D40D
:1021B400982B050798AB3D04E31194F8F240624470
:1021C400D24405618280938701D4982B954663E5B8
:1021D400E60019C72D0719A89946630BD70082801A
:1021E40098278D463307D702F4233697D8B38280D5
:1021F4004147EDBF938701D49823854663E5E60004
:10220400050798A38280511122C226C006C41384F4
:1022140041D6238007009304C4032285EFF0AF9BCB
:10222400AA8501C92285EFF00F9B9305F5FF93F56D
:10223400F50F22853D04EFF04F9AE31094FEA2407F
:102244001244824431018280130181FD26CE22D0C2
:1022540006D2138441D602C6938441D62685EFF074
:102264000F9885476313F5003EC6BD04938701DAD2
:10227400E396F4FE02C4938401DA2685EFF0AF926C
:1022840041C92285EFF02F9241C52285EFF0EF90EE
:102294002AC82285EFF0CF902ACC2685EFF0EF8F65
:1022A4002ACA2685EFF0CF8F524793071500E245DF
:1022B400050742458546E207620736C236C0E18714
:1022C40061879D461D46253D21C5B24789E7854561
:1022D4002285EFF00F912285EFF06F9015C991459B
:1022E400138501DAEFF08F8CA2478DE32285EFF09E
:1022F4008F8EF54763EFA7022285EFF0CF8D93050C
:10230400150093F5F50F2285EFF02F8D85473EC418
:1023140099049387C1DAE39297F63D04938701DA2F
:10232400E31BF4F492500254F24401451301810278
:1023340082802285EFF02F8AAA85F1B74111BD472B
:1023440022C43304F502938741D606C626C2A29757
:102354003E853EC0EFF06F8A85476319F50022443D
:102364000245B240924441016FF08F840245EFF080
:10237400CF8231159377F50F1375850FE391A7FE7F
:102384000245EFF08F81938701D4F4272A84938444
:1023940001D4D14791E61385C1DAEFF00F80AA8703
:1023A40005456341F4020245EFE03FFFFC242A8423
:1023B400514589E71385C1DAEFE03FFE33258500F7
:1023C4003305A040B240224492444101828041112D
:1023D400BD4722C43304F502938741D606C626C2FC
:1023E400A2973E853EC0EFF04F8185476319F50003
:1023F40022440245B240924441016FE0DFFB0245B2
:10240400EFE01FFA9377F50F1375850FE392A7FE9C
:102414000245EFE0FFF8938701D4F4272A849384DC
:1024240001D4814791E61385C1DAEFE07FF7AA87EB
:1024340005456341F4020245EFE09FF6FC242A843B
:10244400014589E71385C1DAEFE09FF5332585005F
:102454003305A040B2402244924441018280751564
:102464001375F50FA547654763EAA7009307902402
:10247400B3D7A700858B354791E36547B70700209D
:10248400238CE70282809376F50F55462A87AE8720
:10249400636BD6022D4605456348B602014563C504
:1024A40005029D8A130500083355D5408D46B38730
:1024B400D7029385C1D10D87BE95BA959C217D8D98
:1024C4003335A0008280054582801377F50FD54609
:1024D400AA8763EEE60293F6F50F2D460545636978
:1024E400D6028D46B385D50213D537409387C1D123
:1024F40093767700130700083357D7401347F7FF45
:10250400AE97AA9794230145758F98A382800545B9
:1025140082800387D1D5394681476346E6000507A3
:1025240093178701E1871167130747CDA38EF1D471
:10253400BA97038507008280138701D478338D46C8
:10254400938701D463E6E6000507F8B388A7828081
:10255400F823A3830700054681466365E600050763
:102564009376F70FF4A3DDB7611122C226C080234E
:10257400AA821305F4FF16956340C50A0145634911
:10258400560813D3354063C5660883C31700B38464
:10259400630063CFD40633858302B3866640139306
:1025A40086011353834193F4F60FB306564089060C
:1025B400C206C1829D893306640293031500C203D7
:1025C40093D303013307A70236964206418201459D
:1025D4004207418363EAC3003385E7002A96082251
:1025E4003315B5001375F50F63546002FD143304FD
:1025F4009402A296C206C18263ECD300BA97B6973E
:102604009C2321470D8FB3D7E740C98F13F5F70FEC
:1026140012448244210182800145DDBF138701D425
:10262400183B9146938701D463EBE60091660A0751
:10263400938686E03697184302874D47B8AB82806D
:102644005D47EDBF6D47DDBF7D47CDBF130720025A
:10265400F5B7111106CC22CA26C8C93783D4A1D430
:102664008965938505712685EFD01FCB1373F50F0C
:10267400238D61D493160501F977C1829387078F5F
:102684003384F6029305803E1AC633858400EFD066
:102694003FC81377F50FA38CE1D41375F50F930797
:1026A40080C13306F502930540063AC43385C4005D
:1026B400229532C2EFD0DFC59377F50F238CF1D486
:1026C4001375F50F9305C0F93305B5021246A945F4
:1026D4003EC0269532952295EFD09FC332432247C0
:1026E4009376F50FA38BD1D441563305C3026146CB
:1026F4008247E24052443307C7022695C2443A95C2
:102704001307C0F9B387E7023E95D957B386F6029B
:102714003695238BA1D47101828099472A8763F26D
:10272400B702CD47014563FFE70083C721D563EBBB
:10273400E70091679387C7883385E7000345C5FEA3
:102744008280014582809307D5FE93F7F70F130724
:102754009005636EF7001307A005B385E502916742
:10276400938747A0AE973E950345D5FE82800145E9
:1027740082809307C5FE93F7F70F13077005637301
:10278400F700D1B7311122C606C826C42E8491E5BC
:102794003244C240A2445101EDB775379947AA8427
:1027A40063E387048387B1D59305F4FF860513F7A4
:1027B400F50FE205E1853E853AC23EC0EFF0BFCC9D
:1027C400854612473D446303D50001449305170031
:1027D4000245E205E185EFF01FCB05476314E500F0
:1027E4001364040FE18CC24032442685A244510193
:1027F4008280311126C42AC21385C1DA06C822C6D2
:102804002EC0EFE09FB92A841385C1DAEFE05FB9E7
:10281400AA852285324482461246C240A24403C796
:1028240051D491679387879751016FF0FFD31111AA
:1028340022CA26C806CC2AC02EC2138441D681449B
:102844002285EFE05FB60DC92285EFE01FB52AC4EB
:102854002285EFE0FFB42AC62285EFE09FB92A87DC
:1028640092460246B245224591679387878AEFF0E4
:10287400BFCF458D9374F50F3D04938701DAE311BF
:10288400F4FCE24052442685C24471018280111155
:1028940022CA2AC0138501DA06CC26C82EC2EFE06C
:1028A4009FB001E98144E24052442685C24471014B
:1028B4008280138501DAEFE01FAF9547E304F5FE4C
:1028C400138501DAEFE07FADAA84138501DAEFE026
:1028D4003FAD2AC4138501DAEFF0AFD79246024622
:1028E400A24591672A879387C7892685EFF0DFC7BA
:1028F400AA84138561DAEFE01FAB55D5138561DA3D
:10290400EFE0BFA92AC4138561DAEFE07FA92AC6E4
:10291400138501DAEFF0EFD32A8792460246B245D7
:10292400224591679387C789EFF01FC4458D93743F
:10293400F50F95BF411106C622C426C22AC0AE8433
:10294400EFF03FE32A840245A6856535B367A4000A
:102954000245A68513F4F70FD93DB367A4000245D9
:10296400A68513F4F70F2537B367A4000245A6859F
:1029740013F4F70FEFF07FDAB240418D2244924412
:102984001375F50F410182801D89828003C30700FE
:10299400AA821305F3FF16956341C50401456340FC
:1029A400560463CEB60283C31700711122C0138488
:1029B400F3FF2E946340D4028D8EB38666023306F1
:1029C4005640330373023303E3023387D70032974D
:1029D4001A97282302441101828001458280828053
:1029E4009D47AE8663EBC7008D672A869387077E73
:1029F400014799451305300351BF014582802111D8
:102A040006CA22C826C62AC02EC29307460563D921
:102A1400A70E2A879307C606014563CEE70C99479C
:102A240063FBB70C1374F60F03C7A1D50246130555
:102A3400540591646205AE869387C4949D4561856F
:102A4400B13703C791D5924602462AC413059405AB
:102A540062059387C4949D4561850D3F224303C756
:102A640081D5924602463363A3001305D40562055B
:102A74001373F30F9387C4949D4561851AC4393742
:102A8400224303C771D5924602463363A30013055C
:102A9400140662051373F30F9387C4949D456185EF
:102AA4001AC4ED35224303C761D592460246336307
:102AB400A3001305540662051373F30F9387C4949C
:102AC4009D4561851AC4D935224392460246336333
:102AD400A3001305940662051373F30F9387C4943C
:102AE40001479D4561851AC4EFF05FEA22433365CF
:102AF400A3001375F50FD2404244B24461018280B1
:102B04000145D5BF1301C1FD238E01D422CE06D0C9
:102B140026CC2AC42EC832C63ACA0144A38D01D495
:102B240036C21C8252473EC063E8E70082507244BA
:102B3400E24413014102828012458144EFD01FAC6C
:102B4400238E01D4A38D01D4B247638CF402C94708
:102B540063E997000145EFD05F96850493F4F40F81
:102B6400E5B7A2478DC7224785476300F70622854C
:102B7400EFD0BF94CD476395F406B247D144E392B6
:102B840097FEEFD07F8C924785073EC259BF82459E
:102B94001306F0FD2685EFF09FE682468D672A84B2
:102BA400268689459387C77F01471305E002EFF026
:102BB400FFDD42468245498C26851374F40FEFF0FD
:102BC4003FE2498C1374F40F5DB7824501462685B4
:102BD400EFF0FFE282452A842685EFF0BFD5D5B712
:102BE40083C7C1D509476366F7008507238EF1D4EF
:102BF400ADB7238E01D483C7B1D58507A38DF1D496
:102C0400A9BF938701D4BA27511106C40507BAA7EF
:102C1400EFF03FA4A24021479D461306D00681450C
:102C2400054531016FF01FEE511106C4EFF07FA28C
:102C3400EFF06FA8EFF0CFAA1385C1DAEFE0FFBA87
:102C4400EFF04FAB9545138501DAEFE02FF6A24084
:102C540021479D461306D0068145054531016FF095
:102C64007FEA511122C206C426C0938701D4E42707
:102C740099C88547638CF4008144A2401244268598
:102C8400824431018280EFF0EFC0FDB7138401D498
:102C94007834BD463307D702138541D63A95EFE021
:102CA400CFEF5147938741D6BD46630DE5026834A3
:102CB4003D473305E5023E95EFE0EFEE938741D6BD
:102CC40045FD68343D4781453305E5023E95EFE017
:102CD400EFED1D4781461306D00681450545EFF00B
:102CE4007FE261BF68343305D5023E95EFE04FEBD8
:102CF400938741D64DFDF1B75111BD4722C233042C
:102D0400F502938741D626C006C481443E942285A9
:102D1400EFE0AFEE19E52285EFE0EFEB9334150019
:102D240086042285EFE02FEB4D47AA876361A70253
:102D3400254705456368F700BDEF83C741D5BE94B9
:102D440013F5F40FA2401244824431018280754786
:102D54006375A70679476309E50022851244A240FA
:102D6400824431016FE0EFE881452285EFE0EFE630
:102D740081452285EFE08FE381461306D0061D4787
:102D840081450545EFF01FD80545EFF00FAA95459D
:102D9400138501DAEFE08FE1938701D4BA27150791
:102DA400BAA7EFF01F8B21479D461306D006814535
:102DB4000545EFF03FD5014571B7114561B74111A4
:102DC40026C2BD44B3049502138741D62AC022C447
:102DD40006C62944BA942685EFE02FE1824711E123
:102DE4002A843E85EFF05FF122951374F50F268552
:102DF400EFE06FDF054795476313E5008147B24075
:102E04003305F400224492441375F50F4101828086
:102E1400511126C022C206C40144938441D61375BD
:102E2400F40FEFF0DFF9BD47B307F402AA850504F8
:102E34003385F400EFE0AFDB9147E312F4FEA240E8
:102E440012448244310182804111938741D626C2C3
:102E540006C622C481443EC03D4433848402824772
:102E64003E942285EFE02FD425C52285EFE0AFD62E
:102E740025E12285EFE0CFD29377F50F1375850F07
:102E84006390A702139584016185EFF02FCBFD5762
:102E94006304F50685476315F5002285EFE02FE608
:102EA4002285EFE08FCF31159377F50F1375850FDA
:102EB4006390A702139584016185EFF04FD1FD570C
:102EC4006300F50485476315F5002285EFE0DF8A8A
:102ED40085049147E392F4F883C751D5894663E5A5
:102EE400F602850793F7F70F2244B2409244A38A6F
:102EF400F1D441016FF0DFF12285EFE0EFED4DB742
:102F04002285EFE0CFFAE9B783C741D593B717001D
:102F1400238AF1D48147C9BF411106C62AC0EFF004
:102F24004FF38245B240214781461306000801450C
:102F340041016FF03FBD511106C422C226C00144B5
:102F44002285EFF07FFD5145EFE02F88B9476308F4
:102F5400F41405041374F40F1545EFD0FFAA09E522
:102F64001945EFD07FAA69DD1545EFD0FFA96DFDA6
:102F74001945EFD07FA96DF90945EFF00F8BEFF0FC
:102F84002F80938701D4C837138401D4EFE0FFFC6A
:102F9400EFF09FC9B7F700E0984723A0E1D6944724
:102FA40083A781D0B69723A4F1D00428639F040A91
:102FB400138501DAEFE02FBF01C59547631CF502C5
:102FC4000545EFD07FA4630E050CEFF08FD4138575
:102FD400C1DAEFE01FC585440945EFD0FFA26300C5
:102FE400050EEFF00FD31385C1DAEFE09FAFA10414
:102FF40093F4F40F2685EFF08FC6EFF0FFE4154548
:10300400EFD09FA0630A050C85473CA0138501DA25
:10301400EFE06FB9914763CAA704138501DAEFE0C3
:103024008FB893051500E205138501DAE185EFE019
:10303400EFB7138501DA9385C1DAEFE0FFD013858A
:1030440001DAEFE04FB6894763DFA700138561DA41
:103054008545EFE0AFB5938501DA1386C1DA1385B0
:1030640061DAEFE0BFD6EFF02F9EEFF0AF985C246B
:10307400C9CF0547638DE70CEFF0BFBE8547631DDD
:10308400F50C1D4781461306D0068145EFF09FA736
:10309400EFE07FDCEFE09FFFEFE07FF0DDB5014480
:1030A40065BD0D45EFD05F96AA84E30705F2EFF006
:1030B4004FC61385C1DAEFE03FBB914431BF1145E0
:1030C400EFD09F94E30805F2EFF0AFC41385C1DAA3
:1030D400EFE0FFBD890429BF1945EFD0FF92E31546
:1030E40005F238208547E312F7F8EFE07FDF938499
:1030F40041D62301040026858145EFE08FAEBD044F
:10310400938701DAE399F4FE8DB7EFF0CF8B1D4777
:1031140081461306D00681450545EFF0BF9E130591
:103124002004EFE03FD7183085476316F700EFE03F
:10313400FFF5A300040018289947E31FF7F2EFE016
:10314400FFF41C38E38D07DEFD171CB891B5EFE0E2
:10315400FFE7EFE09FFD0DB75C2493B717005CA475
:10316400EFF02FBB99B500007800AED580A83FD30F
:1031740000408D14A0C0DA128120D9F1DB40200078
:10318400AF00000002000404061008050C14100629
:10319400181520073016400F6017801F0202020224
:1031A400040810200404040408102040060606063F
:1031B4000C18306008080808102040800100020044
:1031C40003000400050006000700080002000400D4
:1031D40008001000200040008000000100A83030EA
:1031E400502070207070607010202020000020207B
:1031F4000000202000002020000020200020485053
:10320400F8C8401010205020000000087060707052
:1032140030F070F870700000100040607070F07052
:10322400E0F8F87088F8089080888870F070F07082
:10323400F88888888888F8388070200060008000CA
:10324400080030008020084040000000000000001A
:10325400200000000000001820C02808001CE0FC2A
:10326400001CE0FC001CE0FC001CE0FCFFFFAFAF16
:10327400FFFFAFAFFFFFAFAFFFFFAFAFFFDFB7AFF2
:103284000737BFEFEFDFAFDFFFFFFFF78F9F8F8FB2
:10329400CF0F8F078F8FFFFFEFFFBF9F8F8F0F8F92
:1032A4001F07078F7707F76F7F77778F0F8F0F8F42
:1032B40007777777777707C77F8FDFFF9FFF7FFFDA
:1032C400F7FFCFFF7FDFF7BFBFFFFFFFFFFFFFFF6A
:1032D400DFFFFFFFFFFFFFE7DF3FD7F7005448782A
:1032E400F870A870D8A850201870602030002020F2
:1032F400000020200000202000002020002048F8AA
:10330400A0D0A020201020200000001098A00808C1
:10331400508080088888202020F820108888888899
:1033240090808080882008A080D8C8888888888079
:1033340020888888505010204010500090788038A1
:1033440008704078F000005040D0F070F07838F009
:10335400708888889088F02020205008001CE0FCA9
:10336400001CE0FC001CE0FC001CE0FCCF1FAFAF25
:10337400FFFFAFAFFFFFAFAFFFFFAFAFFFDFB70799
:103384005F2F5FDFDFEFDFDFFFFFFFEF675FF7F741
:10339400AF7F7FF77777DFDFDF07DFEF7777777749
:1033A4006F7F7F7F77DFF75F7F2737777777777F49
:1033B400DF777777AFAFEFDFBFEFAFFF6F877FC701
:1033C400F78FBF870FFFFFAFBF2F0F8F0F87C70F79
:1033D4008F7777776F770FDFDFDFAFF700A884FC95
:1033E400F8F8F8F888F848F8FCF8FC2078E020E0D1
:1033F4003CFC3CFC20E020E03CFC3CFC0020005079
:10340400F82068002010F8F810F80020A820783080
:1034140090F0F0107078000040001020B0F8F080B8
:1034240088F0F098F82008C080A8A888F0A8F07068
:10343400208888A820202020201088006088F04060
:1034440078F8E0888860086040A88888888840C048
:10345400208888A8608830C020180010001CE0FC78
:10346400001CE0FC001CE0FC001CE0FC87FFAF2F0C
:10347400C303A323FF0FAF2F8303A323FFDFFFAFF8
:1034840007DF97FFDFEF0707EF07FFDF57DF87CF80
:103494006F0F0FEF8F87FFFFBFFFEFDF4F070F7F28
:1034A400770F0F6707DFF73F7F5757770F570F8F58
:1034B400DF777757DFDFDFDFDFEF77FF9F770FBF40
:1034C40087071F77779FF79FBF5777777777BF3F38
:1034D400DF7777579F77CF3FDFE7FFEF005484FC18
:1034E400F8F8A8F8A8D8D020182060F878000000D0
:1034F400000000002020202020202020000000F8D0
:10350400285890002010202010003040C820800847
:10351400F80888208808002020F8200080888888FF
:1035240090808088882088A08088988880989008D7
:10353400208850A8502040201010000000888840A7
:10354400888040788820086040A88888F0784030D7
:10355400208850A86078C020202000A0000000002F
:103564001C1C1C1CE0E0E0E0FCFCFCFC871FAFEF33
:10357400FFFFBFFFAFEFAFEFBFFFBFFFFFFFFF07CF
:10358400D7A76FFFDFEFDFDFEFFFCFBF37DF7FF7B7
:1035940007F777DF77F7FFDFDF07DFFF7F777777DF
:1035A4006F7F7F7777DF775F7F7767777F676FF7E7
:1035B400DF77AF57AFDFBFDFEFEFFFFFFF7777BFF7
:1035C400777FBF8777DFF79FBF5777770F87BFCFA7
:1035D400DF77AF579F873FDFDFDFFF5F00A84878C3
:1035E4007070202088F8C050102020703000000037
:1035F4000000000020202020202020200020005057
:10360400F8986800102050202000308070F8F8707E
:1036140010F0704070702040100040207088F070EE
:10362400E0F8807088F87090F8888870807088F06E
:10363400207020508820F838087000000078F03896
:10364400787840088870485020A88870800840F036
:10365400187820509008F01820C0004000000000A6
:103664001C1C1C1CE0E0E0E0FCFCFCFCCFFFFF0F9A
:10367400C3038303AF2FAF2FA323A323FFDFFFAF26
:10368400076797FFEFDFAFDFDFFFCF7F8F07078F7E
:10369400EF0F8FBF8F8FDFBFEFFFBFDF8F770F8FEE
:1036A4001F077F8F77078F6F0777778F7F8F770F4E
:1036B400DF8FDFAF77DF07C7F78FFFFFFF870FC706
:1036C4008787BFF7778FB7AFDF57778F7FF7BF0F46
:1036D400E787DFAF6FF70FE7DF3FFFBF00543030FE
:1036E400202070707070008800200020000000000E
:1036F40000000000202020202020202000000000C6
:1037040000000000000000000000000000000000B5
:1037140000000000000000000000000000000000A5
:103724000000000000000000000000000000000095
:103734000000000000000000000000FC0000000089
:10374400000000700000300000000000800800004D
:1037540000000000007000000000000000000000F5
:103764001C1C1C1CE0E0E0E0FCFCFCFCFFFFFFFF79
:10377400FFFFFFFFAFAFAFAFAFAFAFAFFFFFFFFFD5
:10378400FFFFFFFFFFFFFFFFFFFFFFFFFFFFFFFF45
:10379400FFFFFFFFFFFFFFFFFFFFFFFFFFFFFFFF35
:1037A400FFFFFFFFFFFFFFFFFFFFFFFFFFFFFFFF25
:1037B400FFFFFFFFFFFFFFFFFFFFFF03FFFFFFFF11
:1037C400FFFFFF8FFFFFCFFFFFFFFFFF7FF7FFFF2D
:1037D400FFFFFFFFFF8FFFFFFFFFFFFF1901809235
:1037E400A5A9928081BF8181BE8585BE80BF858564
:1037F400BA8081BF81818000230400FCFAFA02FAB6
:10380400FAFEFEEE0AFEFEFE06F6F6F60EFE06FED4
:10381400FEFE06FEFC00000000000000000001C3E4
:10382400C3A2E3434303FBFE0FEFEFDE3FFF0FEEC4
:10383400EFDF36F636F8FFFB38F818E8E8E8D8F09A
:103844000203030707070702000F9FD0D7D7DB9CAB
:103854001F1017171B1C1F18171717905FD857D660
:1038640096180F00000000000000000000030F077E
:10387400070F060002020101020404020000090FFE
:10388400030B0F01000000003838380038383800C6
:103894003838380038383800040102020404000CB7
:1038A40003000000080100187C743C745800000CEC
:1038B4007E5A1E7A4C000018343C1C341800001C3C
:1038C400323E1E321C000EFFFDD91FFDF9CE0058FA
:1038D400743C747C1800004C7A1E5A7E0C0000184C
:1038E400343C1C341800001C323E1E321C00CEF93D
:1038F400FD1FD9FDFF0E20303C7C7A7E74242030DD
:103904003E7E75777222472932141432294738567D
:1039140052A4A4525638787EFEF5F7F3F25224747A
:103924007E7A7C3C3020227277757E3E3020472997
:10393400321414322947385652A4A452563852F23B
:10394400F3F7F5FE7E78000004017C447C00007CE3
:10395400000074545C0044547C001C107C005C54D3
:1039640074007C54740004740C007C547C005C541B
:103974007C0000000801001C7E3E3E7E3400001CDA
:103984003E7E3E7E3400001C3E7E3E3E7400003C83
:103994007E3E7E7C2400003C7E3E7E7C2800003CF3
:1039A4007E3E7E7C480000347E3E3E7E1C00003419
:1039B4007E3E7E3E1C0000743E3E7E3E1C00003C6B
:1039C4007E7C7E3E2400003C7E7C7E3E1400003CD7
:1039D4007E7C7E3E1200003C7E7E7E7E3C00003C6F
:1039E400787070783C000038706060703800002097
:1039F40040404040200000000000000000000000A3
:103A0400FF800100010001000180010001000100AC
:103A1400018001000100010001800100010001009A
:103A2400018001000100010001800100010001008A
:103A3400018001000100010001800100010001007A
:103A4400018001000100010001800100010001006A
:103A5400018001000100010001FFFFDBDBDBDBDB98
:103A6400DBDBDBDBDBDBDBDBDBDBDBDBDBDBDBDBA2
:103A7400DBDBDBDBDBDBDBDBDBDBDBDBDBDBDBDB92
:103A8400DBDBDBDBDBDBDBDBDBDBDBDBDBDBDBDB82
:103A9400DBDBDBDBDBDBDBDBDBDBDBDBDBDBDBDB72
:103AA400DBDBDBDBDBDBDBDBDBDBDBDBDBDBDBDB62
:103AB400DBDBDBFFFFB656B6A6B656B6A6B656B6E1
:103AC400A6B656B6A6B656B6A6B656B6A6B656B652
:103AD400A6B656B6A6B656B6A6B656B6A6B656B642
:103AE400A6B656B6A6B656B6A6B656B6A6B656B632
:103AF400A6B656B6A6B656B6A6B656B6A6B656B622
:103B0400A6B656B6A6B656B6A6B656B6A6FFFF6D68
:103B1400556D2A6D556D2A6D556D2A6D556D2A6D3D
:103B2400556D2A6D556D2A6D556D2A6D556D2A6D2D
:103B3400556D2A6D556D2A6D556D2A6D556D2A6D1D
:103B4400556D2A6D556D2A6D556D2A6D556D2A6D0D
:103B5400556D2A6D556D2A6D556D2A6D556D2A6DFD
:103B6400556D2A6D556D2AFFFF8A518A518A518AF3
:103B7400518A518A518A518A518A518A518A518A69
:103B8400518A518A518A518A518A518A518A518A59
:103B9400518A518A518A518A518A518A518A518A49
:103BA400518A518A518A518A518A518A518A518A39
:103BB400518A518A518A518A518A518A518A518A29
:103BC40051FFFF821482148214821482148214829C
:103BD4001482148214821482148214821482148231
:103BE4001482148214821482148214821482148221
:103BF4001482148214821482148214821482148211
:103C04001482148214821482148214821482148200
:103C14001482148214821482148214FFFF2004205C
:103C24000420042004200420042004200420042070
:103C34000420042004200420042004200420042060
:103C44000420042004200420042004200420042050
:103C54000420042004200420042004200420042040
:103C64000420042004200420042004200420042030
:103C74000420042004FF01010101010101010101EB
:103C84000101010101010101010101010101010120
:103C94000101010101010101010101010101010110
:103CA4000101010101010101010101010101010100
:103CB40001010101010101010101010101010101F0
:103CC40001010101010101010101010101010101E0
:103CD400FFFF01FF0101FFFFFF010101FF01FF01E0
:103CE400FFCFFFFFCFFF83CFFF83CFFFFFCFFFFFC8
:103CF400CFFFFF03FFFF03CFFFFFCFFFFFCFFFFF88
:103D0400CFFFFFFFFFCFFFFFCFFF83CE0F83CE0F89
:103D1400FFCFFFFFCFFFFF03FFFF03CFFFFFCFFF67
:103D2400FFCFFFFFCFFFFFFFFFCFFFFFCFFFCFCFBF
:103D340083CFCF83CFCFFFCFCFFFCF03FFFF03CFFF
:103D4400FFFFCFFFFFCFE0FFCFE0FFFFFFCF9FFFDD
:103D5400CF9FCFCF83CFCF83C1CFFFC1CFFFCF00C2
:103D64000FFF000FFFFFCFFFFFCFE0FFCFE0FFFF0C
:103D7400FFCFFFFFCFFF83CF8383CF83CFCFFFCF8F
:103D8400CFFFCF03FFCF03CFCF3FCFCF3FCFC03F36
:103D9400CFC03FFFCFCFFFCFCFFF83CF8383CF836E
:103DA400FFCFCFFFCFCFFC03CFFC03CFFCFFCFFC73
:103DB400FFCFC0FFCFC0FFFFFFFFF3FFFFF3800F74
:103DC400C3800FC3FFCFFFFFCFFF0303CF0303CF96
:103DD4003FFF033FFF03003FCF003FFF1C10005C89
:103DE40028015C10002430010101000001010100E0
:103DF40001010101010101010101010101010101AF
:103E0400010101013E26000044260000482600006E
:083E14004C26000050260000BE
:103E1C0000D0020000EE0700009C0B00007E0E009C
:103E2C0000C41000004A1200008E1300E0310000A4
:103E3C0000366E0100366E0100F4010000366E0192
:103E4C0000127A0000093D0019000000000000007B
:103E5C00370600400C4A485281990CCA9386A18CB3
:103E6C009422ADCA2A851D89060517060000130683
:103E7C00E6003295028501000100010001000100FD
:103E8C000100010001001385C18F83230500130578
:103E9C00001063DCA3041387418F1843B73701402C
:103EAC00C146010008230507C8C719467D167DFECB
:103EBC00FD16EDFA23A607008D4533F5B300631507
:103ECC00B5001386418F18C2170500E01305050FC6
:103EDC00028501009385C18F83A30500130500049F
:103EEC00970500E0938565068285170500E01305AC
:0C3EFC00A5050285000000000000000089
:00000001FF
