:100000006F00800A00000000A4000000A4000000AF
:1000100000000000000000000000000000000000E0
:1000200000000000000000000000000000000000D0
:10003000A400000000000000A40000000000000078
:10004000A4000000A4000000A4000000A400000020
:10005000A4000000A4000000A4000000A400000010
:10006000A4000000A4000000A4000000A400000000
:10007000A4000000A4000000A4000000A4000000F0
:10008000A4000000A4000000A4000000A4000000E0
:10009000A4000000A400000040000020A400000014
:1000A000A400000001A00100970100209381817944
:1000B0001381017B17350000130545449705002087
:1000C000938545F4170600201306860263FAC500DF
:1000D0008322050023A0550011059105E3EAC5FE22
:1000E0001385C18A938541D36377B500232005002A
:1000F0001105E36DB5FE8962938202887390023028
:100100008D4273904280970200009382A2EF93E2A7
:10011000320073905230EF107053971200009382A8
:10012000A2BC739012347300203001000000000064
:100130001145B71601409305A01763C5B306930593
:10014000B01763C07506C8CA639EB3049385C18C9B
:100150000395050021C91386418D373701401307E8
:1001600007C06347A0009386018D944214C239A052
:100170007D158AA105E91442910614C28A228AA13A
:1001800019C9B62289CA54D7858234C308538565F4
:100190004D8D08D301A80853FD75FD156D8D08D34D
:1001A00011A088CA85031306D02063CFC300814302
:1001B0001385818F0C4185050CC11705002013059F
:1001C00065F89385418F88C11385C18F2320750001
:1001D0009383418C83D703003723014013030340EB
:1001E0000325C304930500406390F5049382018CBA
:1001F00083A502002E9523A0A2001387818C0C23D7
:1002000085050CA31306000263CAC500230007007E
:1002100023A002009382C18B23A0A200239003009D
:100220009385918C8C21D1A89395F7018507239014
:10023000F30063DC050A9382018B83A502002E95EF
:1002400023A0A20093050040E39CF5FC23A002003C
:100250009382C18A23A0A200814597020020938245
:1002600062DA03A6C2006345C50093E58500C102BA
:1002700003A642006345C50093E54500A10203A61D
:1002800002006344C50093E525009382818B03A59A
:10029000020023A002009382418B23A0A2009702B8
:1002A0000020938222D603A6C2006345C50093E5D1
:1002B0000502C10203A642006345C50093E505049B
:1002C000A10203A602006344C50093E505019382E1
:1002D000718C03C502002380B2006316B5009382BF
:1002E000618C2380A200A14509A89382818B83A5FC
:1002F00002002E9523A0A2008145232AB302B70550
:100300004000032583004D8D2324A300730020307B
:10031000634E050263C305042E86AA857D5515C26A
:1003200085466378B6006356C00006068606E36C11
:10033000B6FE014563E4C500918D558D8582058229
:10034000F5FA82808682C93F2E8582823305A040DD
:100350006347B000B305B040C1B7B305B040868273
:10036000653F3305A0408282868263C705006349EA
:1003700005005D372E858282B305B040E35B05FE44
:100380003305A040513F3305B040828200002A83EC
:1003900009CA83830500230073007D1605038505C4
:1003A0006DFA82802A8311C62300B3007D160503EF
:1003B00065FE82802147B717014011469145CCCB9D
:1003C00093168501E186094363C4060037030200E2
:1003D00023A867000100010001008CCB010001008F
:1003E000010006057D171375F50F71FB37170140E6
:1003F00050CB89450CCB944393F6F6F093E6060870
:1004000094C301000100010010CB010001000100B4
:1004100050CB0100010001004CCB98431377F7F05B
:100420001367070198C3828083C7A18C89EFB71730
:1004300001400947D8CB0100010001001147D8CB8A
:10044000010001000100828083C7A18C89EFB717EA
:100450000140114798CB010001000100094798CBEA
:10046000010001000100828083C7A18C511122C2CA
:1004700006C42A849DEB4D3F13058007253F0145A7
:10048000153F137574001365050B2D3701451D3796
:1004900041450D37553F493F13058007213F124421
:1004A000A24013050004310131B7A2401244A388D1
:1004B000A18E2388018E3101828083C7A18C91E3B4
:1004C000D5BD511122C483C5018FAA8603C5118FE2
:1004D0003703002093D2354093177500BE929307DF
:1004E000031426C2969713C6F5FF1D8A8423054779
:1004F000130303143317C7001376F70F1AC093F3CF
:10050000160033E3C400639603001343F7FF33F38D
:1005100064008244A6922380620083C3070193F2A1
:10052000260033637600639602001343F7FF33F32C
:10053000630083C307022388670093F2460033E316
:10054000C300639602001343F7FF33F3630083C3D2
:1005500007032380670293F2860033E3C3006396A8
:1005600002001343F7FF33F3630083C307042388B8
:10057000670293F2060133E3C3006396020013435C
:10058000F7FF33F3630083C307052380670493F207
:10059000060233E3C300639602001343F7FF33F30D
:1005A000630083C307062388670493F2060433E3DA
:1005B000C300639602001343F7FF33F36300238005
:1005C000670603C30707E206E1863366C30063C616
:1005D00006001347F7FF3376E3002388C706850537
:1005E0009307F00763D6B7000505A388A18E814560
:1005F00022442388B18E924431018280B5B503C76D
:10060000A18C511106C422C226C085476310F7147D
:1006100023AE018EB70700203714024093870714DA
:1006200023AAF18E1C4C93E717001CCC1C4C93E7BB
:1006300047001CCC1C4C93E707011CCC1C4C93E7D7
:1006400007021CCC85454945EF10A05FA5454545EF
:10065000EF10205F1C4C8564C58F1CCC5C44C58F9B
:100660005CC401005C44FD761387F6FFF98F5CC41F
:10067000B737014098439386F67F370401401377DC
:1006800077FC1367870098C39843A5457945758F14
:1006900098C39843A166938404801377F7F798C3AF
:1006A00098431367072098C398431367071098C3AC
:1006B000D8436D9BD8C39843558F98C39843916690
:1006C000558F98C398431367470098C3984313679F
:1006D000070498C35C44E19B93E747005CC4EF10B8
:1006E00040565C4411777D17F98F3167D98F5CC410
:1006F0001307C00581479306A02F0546854537059A
:100700000040EF103011B70700401307B00798DF23
:10071000984FE576FD16758F98CF984F458F98CFF7
:1007200098531367070198D3984B6D9B98CBD84784
:1007300013674700D8C7A2401244B7E700E0130789
:10074000000423A2E710824431018280B7170140E0
:10075000094798CB114798CB85454545EF10604E2A
:1007600085454945EF10E04D29458964EF104076F5
:1007700001445D399384C41EB307940088230504A3
:100780001539E547E31AF4FEC1310945EF1040740D
:100790001306F031854537050040EF10100361BFA7
:1007A00083C7A18CD5EB111122CA3704002026C8BB
:1007B00006CC13040414814426857D31A287930559
:1007C0000401A146130700088823902B798D798EA8
:1007D0003335A00019C21365250003C60702798EC0
:1007E00019C21365450003C60703798E19C2136544
:1007F000850003C60704798E19C21365050103C677
:100800000705798E19C21365050203C60706798E9E
:1008100019C21365050403C60707798E19C213654B
:1008200005082EC63AC43EC236C069368246224703
:100830009247FD16B2450587C1FA8507E393B7F8DD
:1008400021318504A14713040408E397F4F6E2403C
:100850005244C244710182808280370500205111C8
:100860001306004081451305051406C4253EA24029
:1008700023A6018E23A4018E2382018E3101828062
:1008800093573540920537070020AE97130707149A
:100890003E971345F5FF14231D898547B397A7009D
:1008A00093C7F7FFF58F1CA382801307F0076367D8
:1008B000A7001307F0036363B700D9B7828093578B
:1008C000354092053387B700B70700209387071498
:1008D000BA9794231345F5FF1D8905473317A700E1
:1008E000558F98A382801307F0076367A70013074B
:1008F000F0036363B700E1B78280B707002003A766
:10090000C7010111856726CA93870780B304A70032
:10091000A6972EC006CE22CCB2853EC283C6418E9B
:10092000802089C69347F4FF13F4F70F82470245EE
:10093000A1073EC493168401E1862EC82AC663D857
:10094000060255373245C2459317140013F4F70FCA
:10095000A2470505E310F5FE924793840410850530
:10096000E39E97FAF2406244D24405618280353FAB
:10097000C2453245D1BF411122C426C206C62A84CF
:10098000AE840820050411E5B2402244924441019E
:100990008280A68532C095370246A104DDB703C622
:1009A000A18D1D479307160093F7F70F6373F700A8
:1009B000814703C7918D6308F7001387C18D329774
:1009C00008A3238DF18C828083C7618C311193F74A
:1009D000F70F83C6818D22C626C406C8238CF18CEE
:1009E0008944054433F7970019CB33F7960001EBA0
:1009F0001375F40F36C23EC05D3792468247050438
:100A00001D478604E310E4FEC2403244A244510173
:100A10008280511122C206C42A847D3783C7618C2B
:100A2000A24033D58740124405893101828051119B
:100A300006C4593F83C7918D03C7A18D0145630F3C
:100A4000F7001387C18D3E978507082393F7F70FAB
:100A50001D476373F7008147A38CF18CA2403101DD
:100A60008280511106C48D3703C5618CA2401335B5
:100A7000150031018280511106C4E5377DDDA240A9
:100A800031018280511122C2371402401C4C06C42D
:100A900093E717001CCC1C4C93E707011CCCA54521
:100AA0005145EF10001AB7060140DC467177130775
:100AB000F73FF98FDCC61C4C056713070780D98FF9
:100AC0001CCC5C44D98F5CC401005C44FD769386E9
:100AD000F67FF58F5CC4B7370140938707C0944712
:100AE00065767D16E19A94C7DD4694D79306803EDD
:100AF000D4D79306401FB4C39443A2401244BD9A76
:100B000094C3D44B93E61600D4CB944393E60608E3
:100B100094C3D44FF18E1966D18ED4CFD44F558F54
:100B2000D8CFF843A166558FF8C3984313671700D1
:100B300098C331018280B7370140938707C0C8D777
:100B40000581A8C398538566558F98D382802396D4
:100B5000018CB7370140938707C09853FD76FD1687
:100B6000758F98D3828083A5C18B51113705600999
:100B700006C4EFF06FFAA2403101828051111305D3
:100B8000800C06C422C226C0EF108034B706014094
:100B9000DC4601777D17F98F37250140DCC6130548
:100BA0000540EF10C0340147B72201401D43854680
:100BB0006D46138502400C49B317E30093C7F7FF56
:100BC000ED8FB395E600CD8F1CC90D07E313C7FE6B
:100BD00013060040A145EF1000049357A540960767
:100BE00023AEF18A9355254099473705004BA384DE
:100BF000F18C2385018CEFF0AFF185678D0763D110
:100C0000A70685469547A384F18C2385D18CB71719
:100C10000240984F1367170098CF984F1367070249
:100C200098CF930580047945EF10A0012945EF1076
:100C3000202AB7170140938707409C4793F7070482
:100C4000F5F7B7060140DC46370700F97D17F98F45
:100C500037070004D98FDCC683C7A18C754591E3A3
:100C600079458145EF00F07D81450945EF00707DB4
:100C700003C6918C37240140854513050440EF00DD
:100C8000D070130404401C44370740007D45D98FC1
:100C90001CC4EF104022FD339D321244A240824416
:100CA000310165BE511122C206C426C02E8401E95D
:100CB0001244A24082442E8531016F1060219304BA
:100CC000F00F898C8604330494021385F4FFA53554
:100CD000135514402295EF10001E1244A240824486
:100CE0003101B5B583C7A18C511106C422C226C0FB
:100CF00091E7A536FD54253B19C9B53BE120EF002E
:100D0000902DA24012448244014531018280A13DD0
:100D100013042503E38184FE1306E002A2851385F4
:100D200041D2EF1060481375F50F9547631EF5002B
:100D3000938741D21307600571469305C00213855E
:100D400041D2D8A30D39A93CA28475B783A501D09F
:100D5000B727100037F500E09387F7CF14453386A7
:100D6000B640E3FDC7FE23A0D1D08280B94733054A
:100D7000F5028D65938585A15111394606C4AA9562
:100D8000138541D0EFF0AFE0A240310182800D47E2
:100D9000A38AE1D07D57A389E1D0238A01D0238B98
:100DA00001D0A3050500A30A0500A30F0500A304B5
:100DB00005028280BD67370700209387676F232075
:100DC000F70282808280511122C283C741D106C4BA
:100DD00099EB15453D3975FD13058002EF10400F65
:100DE0008547238AF1D0A240124431018280130743
:100DF000B50093073503082309C52907E31DF7FE4E
:100E000005458280511122C206C4054422858545CC
:100E1000513D1345F4FF89451375F50F6135050400
:100E20001374F40F9307F00FE312F4FE1244A24080
:100E30001305C01231016F10A0092A962A8363415D
:100E4000E602AE96014563CEF60014803697634AFB
:100E500067001882BA97B3A5B70013C51500828042
:100E600001458280B707002083C207021301C1FD3C
:100E700022CE13871200130415009387070226CC95
:100E800006D01377F70F9304350322833EC4B707C8
:100E900000208345730093870702834663009C33D9
:100EA0008E0503455300B6958E07D54636C2E91721
:100EB000994636C093F7E70F9D461D4693F5F50F0B
:100EC00016CA1AC83AC6953F32474243D2428543B2
:100ED00019C983470300A3030300230303006384AA
:100EE0007700230073002903E39364FAE91213F7F0
:100EF000F20F9943A2476C3074209C3348308E0522
:100F00008E07B6958507D5461EC236C093F7F70FF4
:100F10009D461D4693F5F50F3AC60537324799436E
:100F2000054311C91C20A3030400230304006384A8
:100F30006700230064002904E39E84FA825072440F
:100F4000E244130141028280AA8603C541D129C926
:100F50001387B60093853603014505431C23638E32
:100F60006702F0225C339302660063C8F2029907BD
:100F700063C5C70203868600FC32834267000E0603
:100F80003E96830777008E0796979302660063C6A6
:100F9000F200990763C3C70005452907E310B7FCB2
:100FA000828021C1A9473305F502311106C83707F0
:100FB0000020930707029C33034707021D468E0754
:100FC00093F7870F2E950C2574318E05B6959D46A7
:100FD00036C236C0682193F5F50F8535C240510100
:100FE00082808280A9473305F5020547AA95DC3146
:100FF000639EE70283868500F82189679E069387B2
:1010000087611907B697BA97982303C50708F03187
:10101000A1479306F007918FB3D7F640B396C60069
:101020007D8D758F598D3335A000828099EB0387B4
:101030008500F42189671E0793878761BA97B69761
:10104000E1B701450147E1B701E91305F0073315A1
:10105000B5001375F50F8280A1478D8F1305F0073A
:101060003355F540FDB7A9473305F502411122C4B8
:1010700006C626C23384A5004420B9E47C3093051B
:10108000F0077820B395F50083078400896693F50F
:10109000F50F9E07BA971303F03F014793868661C9
:1010A0001D456367F3003386D70010226D8E2DE651
:1010B00005071377F70F8507E315A7FEB240224413
:1010C000268592444101828085476395F4046C3003
:1010D00013B73500134717003A853AC0B5370247B2
:1010E0008307840089661303F03FBA9778209E0730
:1010F00093868661BA979D4501476367F3003386FF
:10110000D7001022698E5DFA05071377F70F850760
:10111000E315B7FE81445DB785444DB77D15137562
:10112000F50F994763E9A70203C551D10547630845
:10113000E50009476309E50019ED6380F50295476D
:101140000145638CF500F115B335B000B305B0402F
:1011500013F5F50F82801305F00F8280B70700208A
:10116000AA862E8593850702038625000547631D01
:10117000E6041D47637AD70429C9838707021386CB
:1011800087FF63C3C604BD0763C0D7040387150088
:101190009307F7FF634AF50205076347A702338603
:1011A000C64083863500B307F54093058004B387B6
:1011B000B702E1450D67130547A4B386B602B6979B
:1011C0003E953295082182800145828037070020B4
:1011D00083060702AA876348D50213867600014575
:1011E0006344F6021307070203061700639EC50057
:1011F000030737000D651305C5B10E07958F3A95A6
:101200003E950821828001458280935635006157C2
:101210003387E6029307F5FF1946BA9793F7F70F5E
:101220001307F0076367F600096713070721BA97EA
:101230009823938741D0B6979423758F98A3828083
:10124000B707002003870702311122C606C826C44B
:10125000938707029C3361171354F7411D883A9412
:101260003EC0FD170D8493F7F70F1374F40F89EF49
:101270002285613FA2840247BD473305F7022295CC
:101280001375F50F59371DA0BD44B38497023EC2B4
:10129000A29493F4F40F138514FF1375F50FB5376B
:1012A0002685A53792471947E397E7FC11E83244B2
:1012B000C24013851400A2441375F50F5101B1B754
:1012C0001385F4FF1375F50F8937B947E311F4FE61
:1012D000C2403244A244510182809307900663EDDC
:1012E000A70213573500E157B307F7027D1599465A
:1012F000AA9793F7F70F1305000863E7F6008966CE
:1013000093868620B6978823938741D0BA979C23EB
:101310007D8D3335A000828001458280A947330549
:10132000F502211122C826C606CAAA958387850020
:10133000F831F021FD178E07BA9713D4F7411D88B5
:101340003E949D0793D4F7419D880D67BE94930703
:1013500047B3B29794230D848D849305D00F1374F3
:10136000F40F93F4F40F63E1D508BD453305B402DF
:1013700032C436C236951375F50F8537BD45B38532
:10138000B40292462AC03385B6001375F50FB13703
:10139000824722460D67AA9793F7F70F130747B3C3
:1013A000329778339306D00F63EAE602BD463305E1
:1013B000D4023EC23AC03A951375F50F393FBD4687
:1013C000B384D40202472A84330597001375F50FBE
:1013D000293792472A943E949377F40FD24042449F
:1013E000B2443E8561018280130747B381474DBFF8
:1013F000411126C206C622C432C08547AA84639919
:10140000F502B285C53682452A842685013F82458C
:10141000B3078500268513F4F70F6136B240229595
:1014200022441375F50F92443335A00041018280A8
:1014300082451539C9BF03C721D1111122CA26C857
:1014400006CC937417002A862A8489CC1304A5003D
:1014500083C561D185466387D50083C621D1858A3E
:10146000639E0612830784004C3005453EC07C30E5
:1014700074203EC26390A508938516006CA0854534
:10148000268532C436C6AD37224609CDB246094557
:1014900081C832C636C4EF0030533246A2460589B1
:1014A00048B074A0542085456390B60674309945C1
:1014B00063E6D504850674B08145268532C40D3FA8
:1014C00022469305A40025C9B1C8EF00F04F82471A
:1014D000224605891CA4924748A07CB003C521D1AF
:1014E00045E1A30104001420854563ECD50C850675
:1014F00014A06DA0C9F59385F6FF49B71424A30382
:101500000400850614A44DBFC5FA743099C2FD16B7
:101510005DB79D4674B01424FD16EDB78247894629
:1015200054A01CA492477CB083C621D1858A91C661
:101530002E84B68431BFDDF0C5BF4C208546639A4A
:10154000D502A3010400483085466318D502A5469C
:1015500034B0034396001422631F03040543636DF4
:10156000D3020943639465006308B502850614A29B
:1015700035A0F1F9994634B0F9B761FD8D46C9BF80
:10158000B146E300D5F6994532C0EFE0BFDB1375F5
:10159000F50F024601E581BF854614B61387140096
:1015A0009374F70F95462904E394D4EAE240524439
:1015B000C2447101828099C2FD1655BFA304060082
:1015C000F1BF23000400D9BF2A872E85A1C98D67EA
:1015D000938747B3BA979C23511122C206C41307BD
:1015E000E00F32846388E7001307F00F6395E7008C
:1015F00001450DA085473D473307E5024517338573
:10160000E7001375F50FD13911C51305500519E021
:101610001305A00AA2401244310182808280A947AA
:10162000B307F6022A87BE95F421636FD50293872C
:101630007600014563CBE70283C741D13365F600ED
:101640000DC5BC219021158FB43193050006B387D9
:10165000B7020E068E060D65130545BBB297B69709
:101660003E953A950821828001458280011122CC65
:1016700026CA2EC213041600B28506CE2AC08144A3
:1016800001468306740092476391F604142085474F
:101690006380F6027420024532C636C82EC4413734
:1016A000C246A24532463315D500458D9374F50FD9
:1016B00005061376F60F95472904E314F6FCF2406D
:1016C00062442685D2440561828092478506E39173
:1016D000D7FE034364001AC8E30C03FC08208546C8
:1016E000E308D5FC024532C62EC4153F4243A1464D
:1016F0003246B38666403355D540458DA245937436
:10170000F50F7DB7896779719387872122D406D633
:1017100026D22AC62EC8014402C43ECA9377F40FCB
:1017200022853EC2EFE09FEDD2479314740002C0C1
:10173000BE94B247D9EB83C741D1B1CF92450245A0
:10174000EFF0DF9D9C20424692452AD002453ECED6
:10175000313F224692452ACC0245BD35E246F2474A
:101760009245C98E0245D58F93F7F70F3ECCEFF027
:10177000FFA5E2479245C98F024593F7F70F3ECC8C
:10178000EFF0DF9DE2470257C98F3375F7001375FD
:10179000F50FEFE09FD2A247850493C717003EC420
:1017A0008247850793F7F70F3EC00247930700086B
:1017B000E311F7F8EFE05FC90504A147E310F4F681
:1017C000B250225492544561828032478547E314D7
:1017D000F7FC88207DBF130181FB130620038145A0
:1017E000280086C2A2C026DEEFE0DFBB2800EFF0B3
:1017F0000FDA05452C0039371545EFF08FA175D963
:101800009305F00F13054006EFF0CFC99305F00FD5
:1018100013058002EFF00FC913058025552DEFF059
:101820008FDA838731D105476343F71E63C0070210
:1018300015449305400613050005EFF0AFC67D146F
:101840001305C0121374F40F612565F403C531D17B
:10185000050562056185A389A1D01375F50FA3095C
:101860000100A30E0100A3030102A3080102EFF08F
:10187000EFCFB7070900938727203EC0EFF08FD343
:10188000824793068003F4843EC69306800785470B
:10189000230AF100230DF100230FF1002311D102DF
:1018A0002304F1022309F1028946E1471D4723027F
:1018B000D102231BF1029306700795472308E1002C
:1018C0002307E102230CF102A3040100B7F700E0B3
:1018D000231501002316D102944723A0D1D09447A9
:1018E00083A701D2B69723A0F1D21545EFF06F92EE
:1018F00019C1EFF04FCD83C741D1D9C70D45EFF0E6
:101900004F9163090512A30601001145EFF06F9096
:101910008547631105140945EFF0AF8F6308051281
:10192000230601001545EFF0CF8E39CD3707002093
:101930009306070283872600A1EB1C871304D009B6
:101940008D0793F7871F2300F7028307010198870C
:101950008E07BA978D0713D7F7411D8BBA978D87DE
:101960009CB29547BCA222858945EFF0AFB3130521
:10197000740185451375F50FEFF0CFB205041374AC
:10198000F40F8547E311F4FE83C721D1DD460147FB
:1019900063E5F600850713F7F70F28002389E1D0E8
:1019A000EFF08FDA55E92800EFF0FFA803C721D147
:1019B0006313070EB706002093860602838726006E
:1019C000854563D8F5000386360063CEC51205064B
:1019D000B0B2B70700201387070203072700854628
:1019E000938707026312D70C838637006346D712AA
:1019F000639BE6002800EFF0EFC6EFF07F84B707A7
:101A0000002093870702B8330507B8B371A81544BF
:101A10009305400613050005EFF0CFA87D141305CC
:101A2000C0121374F40F6D2165F40547238BE1D0C8
:101A3000014515B50545EFE0DFFD854711E51C873C
:101A40009D8BE39407EC8947DC86C1B59C87E39BBB
:101A500007EC89475C86F9B5EFF0CFBA83C751D15F
:101A600099C7FD1793F7F70FA38AF1D001BD1305AE
:101A7000800CB92915449305400613054006EFF084
:101A80006FA27D149305400605451374F40FEFF023
:101A90006FA175F0A1BBA147E30EF7F0C147E30BBF
:101AA000F7F00D8BE30707F283C721D1858BA1E304
:101AB0002C0001458139EFF06FA903C741D185475B
:101AC0006317F7028947238AF1D08D67938747C749
:101AD0008C3388233EC2EFF0EF9C92470D671307CB
:101AE00007CA8907E316F7FE1305401FD526988419
:101AF00085476310F70883C751D1B1C7EFF08FB0A6
:101B000083C751D1B9BFB706002093860602FD17DF
:101B1000A3810600BCA271B7EFF0CFA99307D00252
:101B200005451D8D85451375F50F3EC2EFF08F9766
:101B3000924789453E85EFF0EF969247FD1793F760
:101B4000F70FF9FF95B7EFF0EFAB1305800C4926BF
:101B500015449305400613054006EFF0AF947D143D
:101B60009305400605451374F40FEFF0AF9375F03D
:101B7000B5B983C621D13147E399E6D62800EFF005
:101B80000FA78547E313F5D669B9994763C2B70232
:101B90009547FD15B385F5025859FD47B397B70032
:101BA00093C7F7FFF98FB315B600CD8F5CD982804C
:101BB000B14763C2B7029547E515B385F5021859D9
:101BC000FD47B397B70093C7F7FFF98FB315B6007A
:101BD000CD8F1CD982809547CD15B385F502585518
:101BE000FD47B397B70093C7F7FFF98F3316B600D9
:101BF0005D8E50D582805C5937074000819BCD8F28
:101C00005CD91C45D98F1CC51C41898BF5DF684503
:101C1000420541818280311122C626C406C82AC0ED
:101C20003284814463488000C24032442685A24405
:101C30005101828002452EC27D14753F9245AA94BF
:101C4000D5B7B707100013573540938727043E9741
:101C50002A0793767500104313952600BD47B39766
:101C6000A70093C7F7FFF18F13F6F5003316A60010
:101C7000D18F1CC39307700263DBB7000545930740
:101C800080023315D5006393F500420508CB8280AE
:101C9000371702405C43511122C289833704002068
:101CA00006C426C08D8B8546130444026388D7047E
:101CB00089466387D7040840B714024048C4D84017
:101CC0008D67938787CD0D83798BBA978E23EFE04D
:101CD000AFE408C8D8408D67938787CB2D837D8B71
:101CE000BA978C23DC4063C307008545EFE0CFE261
:101CF000A24048C8124482443101828048406DBFEE
:101D00005C43C183858B81E70840060575B7484071
:101D1000EDBF372702401C43511106C4F19B93E7E6
:101D200027001CC3371702401C4393E717001CC34E
:101D3000B71702409843098B75DFD843719BD8C30E
:101D4000B7170240D84309830D8B6DFFD843B70600
:101D500000F9FD16758FD8C39843B706F7FEFD1638
:101D6000758F98C39843B706FCFFFD16758F98C30F
:101D70009847F9769386F60F758F98C79847B706F8
:101D80009D006146558F98C7D8431377F7F0D8C3A5
:101D90008D67938607CA2D47938707CAEC2A637518
:101DA000B6007D17F9167DFB0607B7160240BA97F5
:101DB000D0429C3341771307F77F718FAE07D98FDD
:101DC000DCC2DC4286078583DCC2D935B707002038
:101DD000938747029C4B37C78C011307F7A78946A7
:101DE000636AF70037B7120113070788B3B7E70034
:101DF00093C61700372702401C43A240F19BD58FA2
:101E00001CC331018280B7F700E09843799B98C3E7
:101E10009843759B98C398431367470098C39843AA
:101E20000607058398C30D6723A407001307F7ED82
:101E300098CBD843799BD8C398435D9B98C323AC78
:101E400001D098431367170098C38280B7170240E8
:101E5000D853511123AEE1D0856706C422C226C0F3
:101E6000938787380100FD17F5FF6535B7170240E6
:101E7000D84B13675700D8CB984F85669386D6A367
:101E8000558F98CFD84FB70620108506558FD8CFDD
:101E90000D648D648D3F1304844F9384844F636875
:101EA00094001244A240824431016FE03FCD1C40B7
:101EB00011048297EDB7E1473305F502B7F700E06B
:101EC0009847B7F600E09C46998FE3EEA7FE828024
:101ED0009967938707DC3305F502B7F700E0984769
:101EE000B7F600E09C46998FE3EEA7FE8280B72705
:101EF0000140938707406311F502B7170240984FDE
:101F00001367072098CFD84713670720D8C7010069
:101F1000D8471377F7DFD8C71C453707F2FF7D177F
:101F2000F98F37070E00D98F1CC51C4537071000E5
:101F3000D98F1CC55C55370710FF7D17F98F5CD50D
:101F40001C4593E717001CC5054559B7B737014035
:101F5000938707C06312F502B7170240D84785661A
:101F600093860680558FD8C70100D847FD769386A3
:101F7000F67F758FD8C78280B7070040E31DF5FE56
:101F8000B7170240984B1367170098CB0100984B86
:101F9000799B98CBCDB7B7370140938707C0631BB8
:101FA000F500B71602409C4E056713070780D98FCE
:101FB0009CCE8280B7070040E31DF5FE3717024034
:101FC0005C4F93E717005CCFEDB7411106C622C402
:101FD00026C22A8432C0AE847D3F2285853F1C44C0
:101FE0000246FD14E19B1CC404D450D45C48B240AA
:101FF000924493E717005CC81C48F99B1CC85C44DA
:1020000093E717005CC41C4093E717001CC02244F0
:1020100041018280111132C636C43AC23EC006CC9C
:1020200022CA26C82A84AE84BD37228505370C44CF
:102030003246A246E1990CC47D1610D454D4144003
:1020400082471247BD9A14C0144093B717009907EE
:1020500093E6060814C08D466381D40A63C99602CC
:102060008546638AD40489466387D4067C40216709
:10207000E240D98F7CC05C48C24493E717005CC83B
:102080001C4093E717001CC05244710182809146A6
:10209000E39ED4FC38C0584CE576FD16758FB20728
:1020A000D98F5CCC5C4C056793060780D58F5CCCE0
:1020B0001C50D98F39A858D8184C92071377F7F8C5
:1020C000D98F1CCC1C4C93E787001CCC1C5093E789
:1020D00017001CD061BF18DC184CE576FD16758F13
:1020E000B207D98F1CCC1C4C056713070780D98F0A
:1020F0001CCC1C5093E70701E9BF58DC584C9207F1
:102100001377F7F8D98F5CCC5C4C93E787005CCCF5
:102110001C5093E7071075BF130181FC22D806DA23
:1021200026D62AC42EC0A304010281460147130407
:1021300091020245A94532CC36CA3AC8EFE0CF9D9C
:102140002AC202459307F4FFA9453EC6EFE08F9FE0
:102150004247D246824513050503A30FA4FE254539
:10216000B24762469304170085068D43636FB5003E
:10217000224513062700BE85EFE06FA1D2504254DE
:102180002685B254130181038280639A760001CAC6
:10219000A38FC7FE930427009307E4FF81461247ED
:1021A0003E843AC0268771B763C30500B5B75111A5
:1021B00006C49306D00214A1B305B0400505A93F9B
:1021C000A24005053101828003A501D2B747030073
:1021D0009387D73F3305F502B7A72600938737ECDF
:1021E0003E9523A0A1D24181828000007800AED527
:1021F00080A83FD300408D14A0C0DA128120D9F10D
:10220000DB402000AF000000402010080402010065
:10221000BFDFEFF7FBFDFE00000000000000000044
:102220003EE3C1C1C1C1C1C1C1C1C1C1C1C1C1C1FF
:10223000C1C1C1C1C1C1C1C1C1C1C1C1C1C1C1E36C
:10224000FFFFFFFFC18082BE8280BE80BE8488BE49
:102250008086B88680808080BEAA94809CA2A29C42
:1022600080BE848884BE80BEAA9480BEAAA280BE9E
:102270009AAC80C1FFFFFFFFE3C1C1C1C1C1C1C1B1
:10228000C1C1C1C1C1C1C1C1C1C1C1C1C1C1C1C13E
:10229000C1C1C1C1C1C1E33E000000000000000097
:1022A000FF0100000000000000000000000000002E
:1022B000000000000000000000000000000000001E
:1022C000000000000000000000000000000000000E
:1022D00000000000000000000000000000000000FE
:1022E00000000000000000000000000000000000EE
:1022F00000000000000000000000000000000000DE
:1023000000000000000000000000000000000000CD
:1023100000000000000001FF0000000000000000BD
:10232000FF00000000000000FF7F7F7F7F7F7F8134
:102330000000000000000000FF7F7F7F7F7F7F8123
:102340000000000000000000FF7F7F7F7F7F7F8113
:102350000000000000000000FF7F7F7F7F7F7F8103
:102360000000000000000000FF7F7F7F7F7F7F81F3
:102370000000000000000000FF7F7F7F7F7F7F81E3
:102380000000000000000000FF7F7F7F7F7F7F81D3
:1023900000000000000000FF00000000000000003E
:1023A000FF0000000000000000000000000000002E
:1023B000000000000000000000000000000000001D
:1023C000000000000000000000000000000000000D
:1023D00000000000000000000000000000000000FD
:1023E00000000000000000000000000000000000ED
:1023F00000000000000000000000000000000000DD
:1024000000000000000000000000000000000000CC
:1024100000000000000000FF001C3EFE7EB61C0411
:10242000FF00000000000000FF7F7F7F7F7F7F8133
:102430000000000000000000FF7F7F7F7F7F7F8122
:102440000000000000000000FF7F7F7F7F7F7F8112
:102450000000000000000000FF7F7F7F7F7F7F8102
:102460000000000000000000FF7F7F7F7F7F7F81F2
:102470000000000000000000FF7F7F7F7F7F7F81E2
:102480000000000000000000FF7F7F7F7F7F7F81D2
:1024900000000000000000FF001C3EFE7EB61C0491
:1024A000FF0000000000000000000000000000002D
:1024B000000000000000000000000000000000001C
:1024C000000000000000000000000000000000000C
:1024D00000000000000000000000000000000000FC
:1024E00000000000000000000000000000000000EC
:1024F00000000000000000000000000000000000DC
:1025000000000000000000000000000000000000CB
:1025100000000000000000FF001C3EFE7EB61C0410
:10252000FF00000000000000FF7F7F7F7F7F7F8132
:102530000000000000000000FF7F7F7F7F7F7F8121
:102540000000000000000000FF7F7F7F7F7F7F8111
:102550000000000000000000FF7F7F7F7F7F7F8101
:102560000000000000000000FF7F7F7F7F7F7F81F1
:102570000000000000000000FF7F7F7F7F7F7F81E1
:102580000000000000000000FF7F7F7F7F7F7F81D1
:1025900000000000000000FF00000000000000003C
:1025A0007FC08080808080808080808080808080EC
:1025B000808080808080808080808080808080801B
:1025C000808080808080808080808080808080800B
:1025D00080808080808080808080808080808080FB
:1025E00080808080808080808080808080808080EB
:1025F00080808080808080808080808080808080DB
:1026000080808080808080808080808080808080CA
:10261000808080808080C07FFFFFFFFFFFFFFFFF83
:10262000FFFFFFFFFFFFFFFFFFFFFFFFFFFFFFFFBA
:10263000FFFFFFFFFFFFFFFFFFFFFFFFFFFFFFFFAA
:10264000FFFFFFFFFFFFFFFFFFFFFFFFFFFFFFFF9A
:10265000FFFFFFFFFFFFFFFFFFFFFFFFFFFFFFFF8A
:10266000FFFFFFFFFFFFFFFFFFFFFFFFFFFFFFFF7A
:10267000FFFFFFFFFFFFFFFFFFFFFFFFFFFFFFFF6A
:10268000FFFFFFFFFFFFFFFFFFFFFFFFFFFFFFFF5A
:10269000FFFFFFFFFFFFFFFFFFFFFFFFFFFFFFFF4A
:1026A000FF0000000000000080808080808080802B
:1026B000000000000000008080808080808080809A
:1026C000000000000000008080808080808080808A
:1026D000000000000000008080808080808080807A
:1026E000000000000000008080808080808080806A
:1026F000000000000000008080808080808080805A
:102700000000000000000080808080808080808049
:1027100000000000000000FFFFFFFFFFFFFFFFFFC2
:10272000FF00000000000000FFFFFFFFFFFFFFFFB2
:1027300000000000000000FFFFFFFFFFFFFFFFFFA2
:1027400000000000000000FFFFFFFFFFFFFFFFFF92
:1027500000000000000000FFFFFFFFFFFFFFFFFF82
:1027600000000000000000FFFFFFFFFFFFFFFFFF72
:1027700000000000000000FFFFFFFFFFFFFFFFFF62
:1027800000000000000000FFFFFFFFFFFFFFFFFF52
:1027900000000000000000FFFFFFFFFFFFFFFFFF42
:1027A000FF0000000000000080808080808080802A
:1027B0000000000000000080808080808080808099
:1027C0000000000000000080808080808080808089
:1027D0000000000000000080808080808080808079
:1027E0000000000000000080808080808080808069
:1027F0000000000000000080808080808080808059
:102800000000000000000080808080808080808048
:1028100000000000000000FFFFFFFFFFFFFFFFFFC1
:10282000FF00000000000000FFFFFFFFFFFFFFFFB1
:1028300000000000000000FFFFFFFFFFFFFFFFFFA1
:1028400000000000000000FFFFFFFFFFFFFFFFFF91
:1028500000000000000000FFFFFFFFFFFFFFFFFF81
:1028600000000000000000FFFFFFFFFFFFFFFFFF71
:1028700000000000000000FFFFFFFFFFFFFFFFFF61
:1028800000000000000000FFFFFFFFFFFFFFFFFF51
:1028900000000000000000FFFFFFFFFFFFFFFFFF41
:1028A000FF00000000000000808080808080808029
:1028B0000000000000000080808080808080808098
:1028C0000000000000000080808080808080808088
:1028D0000000000000000080808080808080808078
:1028E0000000000000000080808080808080808068
:1028F0000000000000000080808080808080808058
:102900000000000000000080808080808080808047
:1029100000000000000000FFFFFFFFFFFFFFFFFFC0
:10292000FF00000000000000FFFFFFFFFFFFFFFFB0
:1029300000000000000000FFFFFFFFFFFFFFFFFFA0
:1029400000000000000000FFFFFFFFFFFFFFFFFF90
:1029500000000000000000FFFFFFFFFFFFFFFFFF80
:1029600000000000000000FFFFFFFFFFFFFFFFFF70
:1029700000000000000000FFFFFFFFFFFFFFFFFF60
:1029800000000000000000FFFFFFFFFFFFFFFFFF50
:1029900000000000000000FFFFFFFFFFFFFFFFFF40
:1029A000FF808080808080808080808080808080A8
:1029B0008080808080808080808080808080808017
:1029C0008080808080808080808080808080808007
:1029D00080808080808080808080808080808080F7
:1029E00080808080808080808080808080808080E7
:1029F00080808080808080808080808080808080D7
:102A000080808080808080808080808080808080C6
:102A100080808080808080FFF83C05017FD0154554
:102A20004E255509D000FDFF51536455054D4EC547
:102A300055001000F81D14531DF014147821551F73
:102A4000FF00000001000000000000000000008006
:102A500080000000000000000000000000000000F6
:102A600000000000000040B0B04000000000000086
:102A7000000000000000000000000000000054AB57
:102A8000AB54000000000000000000000000000047
:102A90000000001818247EA5A57E24181800000048
:102AA0000000000000000000181824182424FF244F
:102AB00024FF2424182418180000000018182418D3
:102AC000241824183C24FFA5A5FF243C182418240E
:102AD0001824181800000000000000000000000189
:102AE00001000000000000000000000000000000E5
:102AF000000000000000020D0D02000000000000B8
:102B000000000000000000000000000000002AD5C6
:102B1000D52A00000000000000000000387DFFFF03
:102B2000FAF67C3800387DFFFA7438003078FDFE04
:102B3000FCF46830FFFFFFFFFFFFFFFF0000000015
:102B400000000000FE010101010101010202020278
:102B50000202020203030303030303030404040445
:102B60000404040405050505050505050606060615
:102B700006060606070707070707070708080808E5
:102B80000808080809090909090909090A0A0A0AB5
:102B90000A0A0A0A0B0B0B0B0B0B0B0B0C0C0C0C85
:102BA0000C0C0C0C0D0D0D0D0D0D0D0D0E0E0E0E55
:102BB0000E0E0E0E0E1B7F7F3F1B0E000E1B7F3F67
:102BC0003F5B0E000E5B3F3F7F1B0E00020E1B7F24
:102BD0003F5F0E00020E5B3F7F1F0E00020E7B3F29
:102BE0007F5F0E000E1F7F7F3F1F0E000E1F7F3F77
:102BF0003F5F0E000E5F3F3F7F1F0E000E5F7F3F67
:102C00007B0E02000E1F7F3F5B0E02000E5F3F7FB8
:102C10001B0E02000C1E2A6E2A1E0C00001E2567C9
:102C2000251E00000E1F2567251F0E000C1E2A6E94
:102C30002A1E0C00001E2567251E00000E1F25679A
:102C4000251F0E000C1E2A6E2A1E0C00001E256772
:102C5000251E00000E1F2567251F0E000C1E2A6E64
:102C60002A1E0C00001E2567251E00000E1F25676A
:102C7000251F0E00019600780196001E0196001E89
:102C80003298009B4696004B5A96004B6E8E6E8E85
:102C9000009B6E8E6E8E009B5AC05AC05AC05AC09E
:102CA00002000404061008050C141006181520076D
:102CB0003016400F6017801F020202020408102025
:102CC0000404040408102040060606060C183060B0
:102CD00008080808102040800100020003000400DA
:102CE00005000600070008000200040008001000AC
:102CF000200040008000000100AA00006C101010AD
:102D00003C3C3038000000000000101000001010A3
:102D1000000010100000101000186C6C18603818BB
:102D20000C300000000000033C183C3C1C7E1C7E64
:102D30003C3C00000C00603C3C187C3C787E7E3CB7
:102D4000667E066360C6C63C7C3C7C3C7E6666C68E
:102D5000C3C37E3CC03C18003800600006001C0065
:102D600060180C6038000000000000003000000017
:102D70000000001C18387606000FF0FF000FF0FF6F
:102D8000000FF0FF000FF0FFFFFFD7D7FFFFD7D7EF
:102D9000FFFFD7D7FFFFD7D7FFE79393E79FC7E79B
:102DA000F3CFFFFFFFFFFFFCC3E7C3C3E381E38172
:102DB000C3C3FFFFF3FF9FC3C3E783C3878181C3FF
:102DC0009981F99C9F3939C383C383C38199993908
:102DD0003C3C81C33FC3E7FFC7FF9FFFF9FFE3FF11
:102DE0009FE7F39FC7FFFFFFFFFFFFFFCFFFFFFF3F
:102DF000FFFFFFE3E7C789F900551818FE38383898
:102E0000427E28380810101000001010000010102A
:102E1000000010100000101000186C6C7E666C181A
:102E200018186C1800000006663866663C603006AC
:102E300066660000180030666E3C66666C60606610
:102E40006618066660EEE66666666666186666C6BC
:102E500066660630600C3C006C00600006003000C6
:102E6000600000601800000000000000300000005A
:102E700000000030180CDC06000FF0FF000FF0FF20
:102E8000000FF0FF000FF0FFFFFFD7D7FFFFD7D7EE
:102E9000FFFFD7D7FFFFD7D7FFE79393819993E73A
:102EA000E7E793E7FFFFFFF999C79999C39FCFF928
:102EB0009999FFFFE7FFCF9991C39999939F9F99A4
:102EC00099E7F9999F11199999999999E7999939D8
:102ED0009999F9CF9FF3C3FF93FF9FFFF9FFCFFFAE
:102EE0009FFFFF9FE7FFFFFFFFFFFFFFCFFFFFFFFA
:102EF000FFFFFFCFE7F323F900AA243CFE7C547CBC
:102F0000A5DB24100C383010180010100000101031
:102F1000000010100000101000186CFED80C3830A3
:102F2000300C38180000000C6E7806066C7C6006C9
:102F300066661818307E18066E66666066606060A9
:102F40006618066C60FEF66666666660186666C69B
:102F50003C3C0C30300C6600383C7C3C3E3C7C3EBB
:102F60007C381C6618CC7C3C7C3E7C3E7E6666C60B
:102F7000C6667E30180C000E000FF0FF000FF0FF49
:102F8000000FF0FF000FF0FFE70FD717E000D010A1
:102F9000FF07D717C000D010FFE7930127F3C7CF73
:102FA000CFF3C7E7FFFFFFF39187F9F993839FF909
:102FB0009999E7E7CF81E7F99199999F999F9F9F09
:102FC00099E7F9939F0109999999999FE7999939F7
:102FD000C3C3F3CFCFF399FFC7C383C3C1C383C1B7
:102FE00083C7E399E73383C383C183C18199993947
:102FF000399981CFE7F3FFF10055427EFEFEFEFED8
:1030000081FF247C7E7C7E103CF010F01FFF1FFFB0
:1030100010F010F01FFF1FFF0018006C7C187600E6
:10302000300CFE7E007E001876180C1CCC067C0C42
:103030003C3E181860000C0C6C667C60667C7C6EF4
:103040007E18067860D6DE667C667C3C186666D69E
:1030500018181830180C00000006666066663066A6
:1030600066180C6C18FE666666666660306666C634
:103070006C660C60180600CC000FF0FF000FF0FF2C
:10308000000FF0FF000FF0FFC3FFD7F7FFFFDFFFD8
:10309000D7F7D7F7DFFFDFFFFFE7FF9383E789FF6E
:1030A000CFF30181FF81FFE789E7F3E333F983F38E
:1030B000C3C1E7E79FFFF3F39399839F99838391BC
:1030C00081E7F9879F292199839983C3E7999929F2
:1030D000E7E7E7CFE7F3FFFFFFF9999F9999CF99CA
:1030E00099E7F393E70199999999999FCF9999391C
:1030F0009399F39FE7F9FF3300AA427E7C7C54FE4C
:10310000A5FF28100C10307C3C00000000000000DF
:103110001010101010101010001800FE3630DC00D7
:10312000300C38180000003066183806FE066618A5
:1031300066060000307E1818607E66606660606615
:103140006618066C60C6CE6660666C06186666FE1B
:103150003C1830300C0C0000003E6660667E306625
:1031600066180C7818D666666666603C306666D669
:1031700038661830180C00DC000000000F0F0F0F2D
:10318000F0F0F0F0FFFFFFFFC30FFF07E000C0000B
:10319000D717D717D010D010FFE7FF01C9CF23FFF3
:1031A000CFF3C7E7FFFFFFCF99E7C7F901F999E729
:1031B00099F9FFFFCF81E7E79F81999F999F9F9999
:1031C00099E7F9939F3931999F9993F9E799990173
:1031D000C3E7CFCFF3F3FFFFFFC1999F9981CF9949
:1031E00099E7F387E729999999999FC3CF999929E5
:1031F000C799E7CFE7F3FF230055243C3838101078
:1032000099DBE028081010381800000000000000CA
:1032100010101010101010100000006CFC66CC0094
:1032200018186C1818001860661860660C66661826
:10323000660C181818003000666666666C6060667A
:103240006618666660C6C666606C666618663CEEA2
:1032500066186030060C0000006666606660303EEE
:1032600066180C6C18D666667C3E600630663C7C40
:103270006C3E3030180C00F8000000000F0F0F0FEC
:10328000F0F0F0F0FFFFFFFFE7FFFFFFFFFFFFFFA2
:10329000D7D7D7D7D7D7D7D7FFFFFF93039933FF18
:1032A000E7E793E7E7FFE79F99E79F99F39999E7A6
:1032B00099F3E7E7E7FFCFFF99999999939F9F9932
:1032C00099E799999F3939999F939999E799C311EA
:1032D00099E79FCFF9F3FFFFFF99999F999FCFC17E
:1032E00099E7F393E729999983C19FF9CF99C3830C
:1032F00093C1CFCFE7F3FF0700AA18181010383892
:103300004266C044001000100000000000000000F1
:1033100010101010101010100018006C30067600FD
:103320000C300000180018C03C7E7E3C0C3C3C1861
:103330003C3818180C0060183C667C3C787E603C79
:10334000667E3C637EC6C63C6036663C183C18C64A
:10335000C3187E3C033C0000003E7C3C3E3C3006F3
:10336000663C6C663CC6663C6006607C1E3E186C23
:10337000C6067E1C18380070000000000F0F0F0FEB
:10338000F0F0F0F0FFFFFFFFFFFFFFFFFFFFFFFF89
:10339000D7D7D7D7D7D7D7D7FFE7FF93CFF989FFAD
:1033A000F3CFFFFFE7FFE73FC38181C3F3C3C3E769
:1033B000C3C7E7E7F3FF9FE7C39983C387819FC331
:1033C0009981C39C813939C39FC999C3E7C3E73940
:1033D0003CE781C3FCC3FFFFFFC183C3C1C3CFF977
:1033E00099C39399C33999C39FF99F83E1C1E79327
:1033F00039F981E3E7C7FF8F0055000000000000A6
:103400003C3C000000000000000000000000000044
:10341000101010101010101000000000000000002C
:10342000000000003000000000000000000000006C
:10343000000000300000000000000000000000005C
:10344000000000000000000000000000000000007C
:1034500000000000000000FF000000000000003C31
:1034600000003800000000006006000000000000BE
:10347000003C000000000000000000000F0F0F0FD4
:10348000F0F0F0F0FFFFFFFFFFFFFFFFFFFFFFFF88
:10349000D7D7D7D7D7D7D7D7FFFFFFFFFFFFFFFF7C
:1034A000FFFFFFFFCFFFFFFFFFFFFFFFFFFFFFFF5C
:1034B000FFFFFFCFFFFFFFFFFFFFFFFFFFFFFFFF4C
:1034C000FFFFFFFFFFFFFFFFFFFFFFFFFFFFFFFF0C
:1034D000FFFFFFFFFFFFFF00FFFFFFFFFFFFFFC337
:1034E000FFFFC7FFFFFFFFFF9FF9FFFFFFFFFFFF8A
:0834F000FFC3FFFFFFFFFFFF18
:1034F80000D0020000EE0700009C0B00007E0E00CA
:1035080000C41000004A1200008E1300F82C0000BE
:10351800F6F6000000366E0100366E0100F4010078
:1035280000366E0100127A0000093D00000000001C
:10353800370600400C4A485281990CCA9386A18CE0
:103548009422ADCA2A851D890605170600001306B0
:10355800E60032950285010001000100010001002A
:103568000100010001001385C18F832305001305A5
:10357800001063DCA3041387418F1843B737014059
:10358800C146010008230507C8C719467D167DFEF8
:10359800FD16EDFA23A607008D4533F5B300631534
:1035A800B5001386418F18C2170500E01305C50E34
:1035B800028501009385C18F83A3050013050004CC
:1035C800970500E0938525068285170500E0130519
:0C35D800650502850000000000000000F6
:00000001FF
