:100000006F00800A00000000A4000000A4000000AF
:1000100000000000000000000000000000000000E0
:1000200000000000000000000000000000000000D0
:10003000A400000000000000A40000000000000078
:10004000A4000000A4000000A4000000A400000020
:10005000A4000000A4000000A4000000A400000010
:10006000A4000000A4000000A4000000A400000000
:10007000A4000000A4000000A4000000A4000000F0
:10008000A4000000A4000000A4000000A4000000E0
:10009000A4000000A400000040000020A400000014
:1000A000A400000001A00100970100209381817944
:1000B0001381017B173500001305C54E97050020FD
:1000C000938545F4170600201306860263FAC500DF
:1000D0008322050023A0550011059105E3EAC5FE22
:1000E0001385C18A938581D36377B50023200500EA
:1000F0001105E36DB5FE8962938202887390023028
:100100008D4273904280970200009382A2EF93E2A7
:10011000320073905230EF007063971200009382A8
:10012000E2207390123473002030010000000000C0
:100130001145B71601409305A01763C5B306930593
:10014000B01763C07506C8CA639EB3049385C18C9B
:100150000395050021C91386418D373701401307E8
:1001600007C06347A0009386018D944214C239A052
:100170007D158AA105E91442910614C28A228AA13A
:1001800019C9B62289CA54D7858234C308538565F4
:100190004D8D08D301A80853FD75FD156D8D08D34D
:1001A00011A088CA85031306D02063CFC300814302
:1001B0001385818F0C4185050CC11705002013059F
:1001C00065F89385418F88C11385C18F2320750001
:1001D0009383418C83D703003723014013030340EB
:1001E0000325C304930500406390F5049382018CBA
:1001F00083A502002E9523A0A2001387818C0C23D7
:1002000085050CA31306000263CAC500230007007E
:1002100023A002009382C18B23A0A200239003009D
:100220009385918C8C21D1A89395F7018507239014
:10023000F30063DC050A9382018B83A502002E95EF
:1002400023A0A20093050040E39CF5FC23A002003C
:100250009382C18A23A0A200814597020020938245
:1002600062DA03A6C2006345C50093E58500C102BA
:1002700003A642006345C50093E54500A10203A61D
:1002800002006344C50093E525009382818B03A59A
:10029000020023A002009382418B23A0A2009702B8
:1002A0000020938222D603A6C2006345C50093E5D1
:1002B0000502C10203A642006345C50093E505049B
:1002C000A10203A602006344C50093E505019382E1
:1002D000718C03C502002380B2006316B5009382BF
:1002E000618C2380A200A14509A89382818B83A5FC
:1002F00002002E9523A0A2008145232AB302B70550
:100300004000032583004D8D2324A300730020307B
:10031000634E050263C305042E86AA857D5515C26A
:1003200085466378B6006356C00006068606E36C11
:10033000B6FE014563E4C500918D558D8582058229
:10034000F5FA82808682C93F2E8582823305A040DD
:100350006347B000B305B040C1B7B305B040868273
:10036000653F3305A0408282868263C705006349EA
:1003700005005D372E858282B305B040E35B05FE44
:100380003305A040513F3305B040828200002A83EC
:1003900009CA83830500230073007D1605038505C4
:1003A0006DFA82802A8311C62300B3007D160503EF
:1003B00065FE82802147B717014011469145CCCB9D
:1003C00093168501E186094363C4060037030200E2
:1003D00023A867000100010001008CCB010001008F
:1003E000010006057D171375F50F71FB37170140E6
:1003F00050CB89450CCB944393F6F6F093E6060870
:1004000094C301000100010010CB010001000100B4
:1004100050CB0100010001004CCB98431377F7F05B
:100420001367070198C3828083C7A18C89EFB71730
:1004300001400947D8CB0100010001001147D8CB8A
:10044000010001000100828083C7A18C89EFB717EA
:100450000140114798CB010001000100094798CBEA
:10046000010001000100828083C7A18C511122C2CA
:1004700006C42A849DEB4D3F13058007253F0145A7
:10048000153F137574001365050B2D3701451D3796
:1004900041450D37553F493F13058007213F124421
:1004A000A24013050004310131B7A2401244A388D1
:1004B000A18E2388018E3101828083C7A18C91E3B4
:1004C000D5BD511122C483C5018FAA8603C5118FE2
:1004D0003703002093D2354093177500BE929307DF
:1004E000031426C2969713C6F5FF1D8A8423054779
:1004F000130303143317C7001376F70F1AC093F3CF
:10050000160033E3C400639603001343F7FF33F38D
:1005100064008244A6922380620083C3070193F2A1
:10052000260033637600639602001343F7FF33F32C
:10053000630083C307022388670093F2460033E316
:10054000C300639602001343F7FF33F3630083C3D2
:1005500007032380670293F2860033E3C3006396A8
:1005600002001343F7FF33F3630083C307042388B8
:10057000670293F2060133E3C3006396020013435C
:10058000F7FF33F3630083C307052380670493F207
:10059000060233E3C300639602001343F7FF33F30D
:1005A000630083C307062388670493F2060433E3DA
:1005B000C300639602001343F7FF33F36300238005
:1005C000670603C30707E206E1863366C30063C616
:1005D00006001347F7FF3376E3002388C706850537
:1005E0009307F00763D6B7000505A388A18E814560
:1005F00022442388B18E924431018280B5B503C76D
:10060000A18C511106C422C226C08547631FF71270
:1006100023AE018EB70700203714024093870714DA
:1006200023AAF18E1C4C93E717001CCC1C4C93E7BB
:1006300047001CCC1C4C93E707011CCC1C4C93E7D7
:1006400007021CCC85454945EF00A06FA5454545EF
:10065000EF00206F1C4C8564C58F1CCC5C44C58F9B
:100660005CC401005C44FD761387F6FFF98F5CC41F
:10067000B737014098439386F67F370401401377DC
:1006800077FC1367870098C39843A5457945758F14
:1006900098C39843A166938404801377F7F798C3AF
:1006A00098431367072098C398431367071098C3AC
:1006B000D8436D9BD8C39843558F98C39843916690
:1006C000558F98C398431367470098C3984313679F
:1006D000070498C35C44E19B93E747005CC49525FD
:1006E0005C4411777D17F98F3167D98F5CC413078C
:1006F000C00581479306A02F054685453705004074
:10070000EF003021B70700401307B00798DF984F7C
:10071000E576FD16758F98CF984F458F98CF9853F3
:100720001367070198D3984B6D9B98CBD8471367F5
:100730004700D8C7A2401244B7E700E013070004FF
:1007400023A2E710824431018280B7170140094794
:1007500098CB114798CB85454545E52385454945C7
:10076000CD2329458964EF009006014475399384AF
:10077000042AB3079400882305042D39E547E31ABA
:10078000F4FED9310945EF0090041306F031854598
:1007900037050040EF00501371BF83C7A18CD5EB24
:1007A000111122CA3704002026C806CC13040414F1
:1007B000814426855539A28793050401A146130774
:1007C00000088823902B798D798E3335A00019C2CB
:1007D0001365250003C60702798E19C2136545000B
:1007E00003C60703798E19C21365850003C6070483
:1007F000798E19C21365050103C60705798E19C2E2
:100800001365050203C60706798E19C21365050430
:1008100003C60707798E19C2136505082EC63AC4A8
:100820003EC236C0413E824622479247FD16B2453F
:100830000587C1FA8507E393B7F839318504A147E5
:1008400013040408E397F4F6E2405244C2447101F1
:1008500082808280370500205111130600408145B7
:100860001305051406C43D3EA24023A6018E23A411
:10087000018E2382018E310182809357354092058B
:1008800037070020AE97130707143E971345F5FF6F
:1008900014231D898547B397A70093C7F7FFF58FEA
:1008A0001CA382801307F0076367A7001307F003F8
:1008B0006363B700D9B78280935735409205338779
:1008C000B700B707002093870714BA9794231345FE
:1008D000F5FF1D8905473317A700558F98A3828020
:1008E0001307F0076367A7001307F0036363B700FC
:1008F000E1B78280B707002003A7C7010111856710
:1009000026CA93870780B304A700A6972EC006CEF9
:1009100022CCB2853EC283C6418E802089C69347D1
:10092000F4FF13F4F70F82470245A1073EC4931664
:100930008401E1862EC82AC663D80602553732459F
:10094000C2459317140013F4F70FA2470505E310EF
:10095000F5FE9247938404108505E39E97FAF240D2
:100960006244D24405618280353FC2453245D1BFE1
:10097000411122C426C206C62A84AE84082005047A
:1009800011E5B2402244924441018280A68532C0E2
:1009900095370246A104DDB703C6A18D1D47930715
:1009A000160093F7F70F6373F700814703C7918D24
:1009B0006308F7001387C18D329708A3238DF18C4C
:1009C000828083C7618C311193F7F70F83C6818DC5
:1009D00022C626C406C8238CF18C8944054433F70B
:1009E000970019CB33F7960001EB1375F40F36C25D
:1009F0003EC05D379246824705041D478604E310DA
:100A0000E4FEC2403244A24451018280511122C20C
:100A100006C42A847D3783C7618CA24033D58740C2
:100A20001244058931018280511106C4593F83C7A0
:100A3000918D03C7A18D0145630FF7001387C18D09
:100A40003E978507082393F7F70F1D476373F70059
:100A50008147A38CF18CA24031018280511106C4E0
:100A60008D3703C5618CA24013351500310182809A
:100A7000511106C4E5377DDDA2403101828051115C
:100A800022C2371402401C4C06C493E717001CCC4A
:100A90001C4C93E707011CCCA54551455D24B706C6
:100AA0000140DC4671771307F73FF98FDCC61C4C19
:100AB000056713070780D98F1CCC5C44D98F5CC4B1
:100AC00001005C44FD769386F67FF58F5CC4B737F2
:100AD0000140938707C0944765767D16E19A94C7D5
:100AE000DD4694D79306803ED4D79306401FB4C307
:100AF0009443A2401244BD9A94C3D44B93E616008B
:100B0000D4CB944393E6060894C3D44FF18E196670
:100B1000D18ED4CFD44F558FD8CFF843A166558FFF
:100B2000F8C398431367170098C331018280B73721
:100B30000140938707C0C8D70581A8C3985385662D
:100B4000558F98D382802396018CB73701409387C5
:100B500007C09853FD76FD16758F98D3828083A5C4
:100B6000C18B51113705600906C4EFF0EFFAA240BE
:100B70003101828051111305800C06C422C226C0A7
:100B8000B921B7060140DC4601777D17F98F37257B
:100B90000140DCC61305054091290147B7220140F9
:100BA0001D4385466D46138502400C49B317E3008B
:100BB00093C7F7FFED8FB395E600CD8F1CC90D07E6
:100BC000E313C7FE13060040A145B1229357A54089
:100BD000960723AEF18A9355254099473705004B78
:100BE000A384F18C2385018CEFF08FF285678D074C
:100BF00063DFA70485469547A384F18C2385D18CB8
:100C0000B7170240984F1367170098CF984F136794
:100C1000070298CF93058004794525222945452E62
:100C2000B7170140938707409C4793F70704FDF7E8
:100C3000B7060140DC46370700F97D17F98F370703
:100C40000004D98FDCC683C7A18C754591E3794533
:100C50008145C52881450945ED2003C6918C37247F
:100C600001408545130504400D20130404401C4435
:100C7000370740007D45D98F1CC42D2E09354132E0
:100C80001244A24082443101F1B6994763C2B702CF
:100C90009547FD15B385F5025859FD47B397B70041
:100CA00093C7F7FFF98FB315B600CD8F5CD982805B
:100CB000B14763C2B7029547E515B385F5021859E8
:100CC000FD47B397B70093C7F7FFF98FB315B60089
:100CD000CD8F1CD982809547CD15B385F502585527
:100CE000FD47B397B70093C7F7FFF98F3316B600E8
:100CF0005D8E50D582805C5937074000819BCD8F37
:100D00005CD91C45D98F1CC51C41898BF5DF684512
:100D1000420541818280311122C626C406C82AC0FC
:100D20003284814463488000C24032442685A24414
:100D30005101828002452EC27D14753F9245AA94CE
:100D4000D5B7B707100013573540938727043E9750
:100D50002A0793767500104313952600BD47B39775
:100D6000A70093C7F7FFF18F13F6F5003316A6001F
:100D7000D18F1CC39307700263DBB700054593074F
:100D800080023315D5006393F500420508CB8280BD
:100D9000371702405C43511122C289833704002077
:100DA00006C426C08D8B8546130404026388D704CD
:100DB00089466387D7040840B714024048C4D84026
:100DC00089679387472F0D83798BBA978E23EFF02E
:100DD000AFD408C8D84089679387472D2D837D8B72
:100DE000BA978C23DC4063C307008545EFF0CFD270
:100DF000A24048C8124482443101828048406DBFFD
:100E00005C43C183858B81E70840060575B7484080
:100E1000EDBF372702401C43511106C4F19B93E7F5
:100E200027001CC3371702401C4393E717001CC35D
:100E3000B71702409843098B75DFD843719BD8C31D
:100E4000B7170240D84309830D8B6DFFD843B7060F
:100E500000F9FD16758FD8C39843B706F7FEFD1647
:100E6000758F98C39843B706FCFFFD16758F98C31E
:100E70009847F9769386F60F758F98C79847B70607
:100E80009D006146558F98C7D8431377F7F0D8C3B4
:100E900089679386C72B2D479387C72BEC2A6375E9
:100EA000B6007D17F9167DFB0607B7160240BA9704
:100EB000D0429C3341771307F77F718FAE07D98FEC
:100EC000DCC2DC4286078583DCC2D935B707002047
:100ED000938707029C4B37C78C011307F7A78946F6
:100EE000636AF70037B7120113070788B3B7E70043
:100EF00093C61700372702401C43A240F19BD58FB1
:100F00001CC331018280B7F700E09843799B98C3F6
:100F10009843759B98C398431367470098C39843B9
:100F20000607058398C30D6723A407001307F7ED91
:100F300098CBD843799BD8C398435D9B98C323A093
:100F400001D098431367170098C38280B7170240F7
:100F5000D853511123A2E1D0856706C422C226C00E
:100F6000938787380100FD17F5FF6535B7170240F5
:100F7000D84B13675700D8CB984F85669386D6A376
:100F8000558F98CFD84FB70620108506558FD8CFEC
:100F90000D648D648D3F1304045A9384045A63676F
:100FA00094001244A24082443101E9B61C4011046D
:100FB0008297F5B7E1473305F502B7F700E09847A8
:100FC000B7F600E09C46998FE3EEA7FE8280996712
:100FD000938707DC3305F502B7F700E09847B7F6CB
:100FE00000E09C46998FE3EEA7FE8280B727014080
:100FF000938707406311F502B7170240984F1367B4
:10100000072098CFD84713670720D8C70100D847D3
:101010001377F7DFD8C71C453707F2FF7D17F98F25
:1010200037070E00D98F1CC51C4537071000D98F14
:101030001CC55C55370710FF7D17F98F5CD51C4523
:1010400093E717001CC5054559B7B737014093878B
:1010500007C06312F502B7170240D847856693862A
:101060000680558FD8C70100D847FD769386F67F56
:10107000758FD8C78280B7070040E31DF5FEB7170C
:101080000240984B1367170098CB0100984B799B4F
:1010900098CBCDB7B7370140938707C0631BF500E6
:1010A000B71602409C4E056713070780D98F9CCE68
:1010B0008280B7070040E31DF5FE371702405C4F02
:1010C00093E717005CCFEDB7411106C622C426C2D4
:1010D0002A8432C0AE847D3F2285853F1C4402466F
:1010E000FD14E19B1CC404D450D45C48B24092442B
:1010F00093E717005CC81C48F99B1CC85C4493E745
:1011000017005CC41C4093E717001CC02244410137
:101110008280111132C636C43AC23EC006CC22CA01
:1011200026C82A84AE84BD37228505370C44324652
:10113000A246E1990CC47D1610D454D414408247C1
:101140001247BD9A14C0144093B71700990793E64D
:10115000060814C08D466381D40A63C99602854689
:10116000638AD40489466387D4067C402167E240C1
:10117000D98F7CC05C48C24493E717005CC81C4010
:1011800093E717001CC05244710182809146E39E90
:10119000D4FC38C0584CE576FD16758FB207D98F50
:1011A0005CCC5C4C056793060780D58F5CCC1C50EB
:1011B000D98F39A858D8184C92071377F7F8D98FD8
:1011C0001CCC1C4C93E787001CCC1C5093E71700E9
:1011D0001CD061BF18DC184CE576FD16758FB20780
:1011E000D98F1CCC1C4C056713070780D98F1CCCEA
:1011F0001C5093E70701E9BF58DC584C920713775E
:10120000F7F8D98F5CCC5C4C93E787005CCC1C5022
:1012100093E7071075BF130181FC22D806DA26D6A2
:101220002AC42EC0A304010281460147130491027F
:101230000245A94532CC36CA3AC8EFF0EF8D2AC232
:1012400002459307F4FFA9453EC6EFF0AF8F424732
:10125000D246824513050503A30FA4FE2545B247D8
:1012600062469304170085068D43636FB5002245DF
:1012700013062700BE85EFF08F91D2504254268589
:10128000B254130181038280639A760001CAA38F4E
:10129000C7FE930427009307E4FF814612473E846C
:1012A0003AC0268771B763C30500B5B7511106C4AC
:1012B0009306D00214A1B305B0400505A93FA24092
:1012C00005053101828003A581D0B74703009387CC
:1012D000D73F3305F502B7A72600938737EC3E9535
:1012E00023A4A1D041818280511122C206C426C00C
:1012F0002E8419E51244A24082442E853101C1B9E1
:101300009304F00F898C8604330494021385F4FF50
:10131000EFF0FF8113551440229569391244A24021
:10132000824431016FF03F8283C7A18C511106C402
:1013300022C226C089EBEFF0EFD1FD54EFF0CFEEE3
:1013400001CDEFF0EFF24122EF00B051A240124484
:101350008244014531018280EFF07F801304250330
:10136000E38E84FC1306E002A2851385C1D0253FDD
:101370001375F50F95476310F5029387C1D01307D6
:10138000600571469305C0021385C1D0D8A3EFF064
:101390002FDEEFF08FC0A28455B7611122C226C0A4
:1013A0008023AA821305F4FF16956340C50A014500
:1013B0006349560813D3354063C5660883C31700D5
:1013C000B384630063CFD40633858302B38666405B
:1013D000139386011353834193F4F60FB3065640DB
:1013E0008906C206C1829D893306640293031500F3
:1013F000C20393D303013307A70236964206418204
:1014000001454207418363EAC3003385E7002A961A
:1014100008223315B5001375F50F63546002FD14EF
:1014200033049402A296C206C18263ECD300BA9739
:10143000B6979C2321470D8FB3D7E740C98F13F58B
:10144000F70F12448244210182800145DDBF03C3AE
:101450000700AA821305F3FF16956341C5040145F1
:101460006340560463CEB60283C31700711122C0D5
:101470001384F3FF2E946340D4028D8EB3866602EC
:1014800033065640330373023303E3023387D70036
:1014900032971A97282302441101828001458280E5
:1014A000828082809967938707DC3305F50203A663
:1014B000C1D1B7F500E09845B306C740E3EDA6FEFD
:1014C00023AEE1D08280F1BF05472383E1D22380A0
:1014D00001D2238101D213071010A38001D22392DD
:1014E000E1D2370702021307272023A6E1D2938710
:1014F000C1D2D8C3094798A7828013371500238427
:10150000E1D23335A000938781D288B32383A1D25F
:101510008280511106C4453B06058D67318993874A
:101520004757AA9798239386C1D236970C2309462A
:101530006399C50083C781D21CA30545A240310130
:101540008280983336970C23E386C5FEB8233697FE
:101550000C23E381C5FEBC330145B6979823E31FF6
:10156000C7FC03C781D298A3C9BFAA86814701459A
:101570001386C1D2054391453387C70018236317EB
:10158000D7003317F300498F1375F70F8507E395DD
:10159000B7FE95470543A5453307F60018236319A1
:1015A000D7001387F7FF3317E300498F1375F70F41
:1015B0008507E393B7FE82800D47637DA7009307FD
:1015C000C5FF93F7F70F6366F70005051375F50F71
:1015D000828001458280211126C622C806CA9387CF
:1015E00081D288330D64130484544137AA8693054D
:1015F0000402A1425C2033F7F600631AF704834328
:101600005400814733D7F340058B1DCF13F5F70FF7
:101610001EC436C23EC04D371386C1D23307A60062
:1016200008238D6609439385865682479246A243D6
:10163000A142631B650083C781D205451CA3D2402C
:101640004244B244610182808507E39D57FA090450
:10165000E39285FA0145E5B7211122C826C606CADC
:101660001387C1D283C481D2582301456311970ADD
:10167000938781D288331384C1D2C53D0D678347D8
:101680008754AA86130787543376F500631DF60046
:10169000034317000146A142B357C340858BB9E30A
:1016A0000506E31B56FE3C230145FD8E6391F606BD
:1016B0003033A1460147B357E640858B99CF137568
:1016C000F70F32C23AC0CD3DB307A4008823894545
:1016D00002471246A146630AB5020507E31DD7FC7F
:1016E000014535A01375F60F36C41AC232C0E9356C
:1016F000B307A40088230D67894502461243A2461A
:1017000013078754A142E31DB5F884A30545D240D1
:101710004244B244610182801301C1FD26CC06D04F
:1017200022CE2AC28D6491352AC091479384C45633
:10173000214689453387970082461823014533F3B4
:10174000E6008146B352A34093F212006385020083
:10175000850693F6F60F0505E316C5FE6393B604FA
:1017600033476700014421433355874005891DC530
:101770001375F40F3AC63EC481359386C1D23695AF
:10178000834305008942A2473247214689452143C8
:101790006396530083C781D21CA165A00504E3159D
:1017A00064FC8507E398C7F89387C1D2D02301472B
:1017B0001384C1D28943B387E400882382478145DB
:1017C000B3F6A700814733D3B64013731300630504
:1017D0000300850793F7F70F85052143E39565FE21
:1017E0008545638AB7006389770405079147E31449
:1017F000F7FC014581A89247E319F6FE8147A98EBF
:10180000A14533D5F640058905C513F5F70F36CA4E
:101810003AC832C63EC44D3322958342050009437F
:10182000A24732464247D246A1458943E38462F645
:101830008507E398B7FC55BFE319F6FA83C781D251
:101840005CA0054582507244E2441301410282804B
:10185000511126C006C422C29384C1D2EFF0BFA6A4
:10186000058142058D454181EFE01FB02A84EFF0EC
:101870009FA5058142058D454181EFE0FFAE8D4773
:10188000B307F502A6973385870018218947E31728
:10189000F7FC83C781D21CA1A240124482443101CB
:1018A0008280511126C003C581D206C422C2AD3543
:1018B0001DE53704002083478403A9CF938781D295
:1018C0008833993D09ED83478403A9C79387C1D223
:1018D000D4230947639AE60003C781D2D8A3A24064
:1018E0001244824431018280853B75F98347840329
:1018F000854463F1F402C5317DF18347840363FBC2
:10190000F400D13969FD03478403854763F4E70098
:10191000093171F51244A2408244310115BF130709
:101920009004AA87636FA7001307700305456363DC
:10193000F7021385C7FD13352501134515000A0568
:101940008280930755FB93F7F70F45471145636373
:10195000F700094582801307D004AA87636FA700A8
:101960001307300305456363F702138577FE1335CC
:10197000A501134515000A058280930725FB93F7FF
:10198000F70F654711456363F70009458280130728
:101990001005AA87636FA7001307E002054563647B
:1019A000F702138557FF13354502134515000A0545
:1019B00082809307E5FA93F7F70F1307300211457A
:1019C0006363F70009458280511122C226C006C414
:1019D000AA842E84A9379147630AF50603C641D22B
:1019E0009387C1D2AA979C232A876318A60493865B
:1019F00041D29432B9E203C651D385466313D6006F
:101A000089470D66130686113A9614221306C006FE
:101A1000B387C7021306400279140D651305C5FC90
:101A2000B386D4403307C702BA9749473304E40268
:101A3000A2973E953695082129A089460145E39253
:101A4000D7FCA24012448244310182800145D5BFB7
:101A5000511122C226C006C4AA842E84ED3D9147AE
:101A60006309F50603C641D29387C1D2AA97BC3356
:101A70002A876317A604938641D294320546639160
:101A8000C60403C651D36313D60089470D661306F7
:101A900046113A9614221306E004B387C70269463A
:101AA00071140D65130505EEB386D4403307C702E4
:101AB0003304C402BA97A2973E953695082129A00F
:101AC00089460145E394D7FCA24012448244310187
:101AD00082800145D5BF511122C226C006C4AA8406
:101AE0002E8475359147630DF50603C641D2938761
:101AF000C1D2AA97FC232A87631BA604938641D2EE
:101B0000903289466315D60403C651D385466313C4
:101B1000D60089470D66130606113A96142213065D
:101B2000800DB387C702130680046D140D6513057D
:101B300085C5B386D4403307C702BA97130740025E
:101B40003304E402A2973E953695082129A08946E0
:101B50000145E391D7FCA2401244824431018280C6
:101B60000145D5BF11476386E502636BB7009387D4
:101B7000E5FF93F7F70F0547637CF7000145828087
:101B80009387B5FF93F7F70F0547E369F7FEA1B712
:101B900025BD7DBD311103C721D226C48D642A869F
:101BA000AE869387C4512EC22AC08145654506C8BA
:101BB00022C6EFF0DF899246024603C711D22A847B
:101BC0009387C45181451305A005EFF05F88C2409B
:101BD000418D3244A2441375F50F51018280854630
:101BE0002A8763E5B6028D66939775009386C64192
:101BF0005111B69706C422C2AA978023613F1345AC
:101C0000F5FFA240618D1244310182809387E5FF88
:101C10000D651305C5119E07AA973385E7000821B6
:101C20008280411106C622C426C22AC0AE84453F26
:101C30002A840245A6853D37B240418D2244924414
:101C40001375F50F41018280311122C606C826C4E2
:101C500032C085462E8481476306D50083C751D3A1
:101C600093B7170083C661D291E28147A38AF1D26C
:101C700082479374F40F63EAF4003244C240A244F2
:101C80001305C00351016FF0FF812285EFE01F971C
:101C900081473E85A6853EC26937EFE01F829247A5
:101CA00013070008850793F7F70FE394E7FEEFE0CB
:101CB000AFF9050475BF21468145054571B751113E
:101CC00022C206C4794491452945EFF0EFE1114560
:101CD000EFF0EFAF7D149145130540061374F40F38
:101CE000EFF08FE06DF0370702029387C1D2130740
:101CF000272098C3D8C3094798A71244A24023833A
:101D000001D231014DBF111122CA25469385C1D29E
:101D1000480026C806CCEFE08FE72947938481D29C
:101D2000A9451305C0083AC0EFF00FDC9145130533
:101D3000C00DEFF06FDB83C761D202478945A697DC
:101D400090239387C1D29386970088236313C5009D
:101D50008CA38507E39BF6FE3AC0B13F25464C00B5
:101D60001385C1D2EFE0AFE291452945EFF0CFD71F
:101D7000993702477D171377F70F5DF3E24052441E
:101D8000C24471018280411122C406C6AD3F3707AB
:101D900002029387C1D21307272098C3D8C30947EB
:101DA00098A783C761D291CF0547638CE7020145AD
:101DB0002AC0238301D20137B240224402454101A7
:101DC000828083C711D2A14663E6F6008507A3800F
:101DD000F1D2F1BF15451D2085472380F1D205457D
:101DE000C1BF83C721D2A14663E6F60085072381E0
:101DF000F1D275BF114519208947C5B7994763ECE2
:101E0000A70C8D67938747580A053E951C415111D1
:101E100006C422C28287014422859145EFF0CFCCCF
:101E200029041374F40F93074006E317F4FE1244D9
:101E3000A2401305200331016FF06F99130440068F
:101E400022858D45EFF04FCA29041374F40F9307D0
:101E5000800CE317F4FEE1BF1244A240310125B724
:101E60001244A2403101A1BD4D4493050005114526
:101E7000EFF08FC77D14930500051305400613741A
:101E8000F40FEFF06FC675F0A2401244310182806A
:101E90001304800C130580FC018D8D451375F50F1F
:101EA000EFF08FC42285B145EFF00FC47D14137499
:101EB000F40FA947E310F4FEC1BF9305A00F13056B
:101EC0004006EFF06FC21244A2409305A00F5145A7
:101ED00031016FF06FC18280311122C626C406C85D
:101EE0002AC28D64EFF06FE82AC001449384C4567F
:101EF0003307940018238247B3F6E700630BD70239
:101F000005042147E316E4FE814781461387C1D2C9
:101F1000894525463385E70008216313B5008546CA
:101F20008507E399C7FE95E23244C240A2445101BD
:101F300079B30D476360870203C701D392476304F7
:101F4000F700050475B781356DDDC2403244A24407
:101F5000510182800D3D4DD5CDBF85472A86AE8685
:101F600063FBB7009387D5FF93F7F70F09476378B3
:101F7000F702014582808D67939675009387C7416C
:101F80005111B69706C422C2AA978023EFF09FC0D2
:101F90001345F5FFA240618D1244310182808D67A7
:101FA000938787C101478D45130560036FF02FCAE2
:101FB000111126C806CC22CA2AC2814493F7F40F15
:101FC00026853EC0EFE08FE38307410001443EC415
:101FD0008245228559378246A2458D6722862AC6C8
:101FE000938747BE014713054003EFF00FBB324311
:101FF00082468D623363A3001373F30F938742B15C
:1020000022860147CD4521451AC6EFF00FB932436C
:1020100082468D623363A3001373F30F938742B13B
:1020200022860147CD45130500051AC6EFF0EFB62D
:10203000324305041374F40F3365A3001375F50FD1
:10204000EFE0AFC793070008E314F4F8EFE0CFBF69
:102050008504A147E394F4F6E2405244C24471017E
:102060008280511126C006C422C2B704002003C5D5
:1020700084039D473305F50259051375F50F0D3F90
:102080001145EFE0BF9831C17945EFE05FF41145AC
:10209000EFE0DF971DC503C58403854763E5A7000F
:1020A00005051375F50F9D47238CA4023305F50232
:1020B00059051375F50FED3D8D451305800CEFF0B7
:1020C000AFA21145EFE09F946DFD0945EFE01F942D
:1020D00021C17945EFE0BFEF0945EFE03F930DC522
:1020E00003C5840301C57D151375F50F9D47238C2A
:1020F000A4023305F50259051375F50F553D8D45BD
:102100001305800CEFF04F9E0945EFE03F906DFD09
:102110001545EFE0BF8F09E51945EFE03F8F2DD161
:102120001545EFE0BF8E6DFD1945EFE03F8E6DF96F
:10213000EFF08FB90545EFF04FBC214681450145D1
:10214000EFF09FB01945EFF07FCB1305401FEFE094
:102150001FE8B7F700E0944783A781D00144B69702
:1021600023A4F1D083C761D2638C07100545EFE04B
:10217000FF890DCD7945EFE09FE50545EFE01F892B
:10218000630F050A09E883C641D2B68791C2854725
:1021900085072382F1D2054483C701D2E39907EC76
:1021A000214689450145EFF03FAA6DBF0D45EFE09F
:1021B000FF8505C17945EFE09FE10D45EFE01F8503
:1021C0003DCD71F883C741D2E9D7FD1793F7F70FDB
:1021D000C9B71145EFE09F8315C17945EFE03FDFB7
:1021E0001145EFE0BF8221CD5DF4938741D2943356
:1021F000368791C20547050798B371BF0945EFE0DF
:10220000FF8019E91545EFE07F8005ED1945EFE006
:10221000EFFF05E9014449B77945EFE05FDB094588
:10222000EFE0CFFE09CD25F8938741D29C33138789
:1022300041D281C7FD1793F7F70F1CB3A9BF79D01F
:1022400099BF138741D218330D4683C641D2330755
:10225000C7029387C1D2BA97B69794230947E39BE5
:10226000E6FA138481D2183098A3EFF0DFA4083087
:10227000EFF0DFB80830EFF03FC6238301D221BF73
:10228000EFF02FE2EFF03FA303C581D2EFF01FB7CD
:1022900003C581D2EFF05FC485472383F1D2EDBD42
:1022A0007800AED580A83FD300408D14A0C0DA12CC
:1022B0008120D9F1DB402000AF00000002000404BF
:1022C000061008050C141006181520073016400FCC
:1022D0006017801F02020202040810200404040494
:1022E00008102040060606060C183060080808088A
:1022F00010204080010002000300040005000600D9
:102300000700080002000400080010002000400040
:102310008000000100AA00006C1010103C3C303816
:10232000000000000000101000001010000010104D
:102330000000101000186C6C186038180C30000089
:10234000000000033C183C3C1C7E1C7E3C3C000012
:102350000C00603C3C187C3C787E7E3C667E0663CC
:1023600060C6C63C7C3C7C3C7E6666C6C3C37E3C85
:10237000C03C18003800600006001C0060180C60AB
:102380003800000000000000300000000000001CC9
:1023900018387606000FF0FF000FF0FF000FF0FF77
:1023A000000FF0FFFFFFD7D7FFFFD7D7FFFFD7D72B
:1023B000FFFFD7D7FFE79393E79FC7E7F3CFFFFF71
:1023C000FFFFFFFCC3E7C3C3E381E381C3C3FFFF98
:1023D000F3FF9FC3C3E783C3878181C39981F99CBE
:1023E0009F3939C383C383C3819999393C3C81C3E5
:1023F0003FC3E7FFC7FF9FFFF9FFE3FF9FE7F39F9F
:10240000C7FFFFFFFFFFFFFFCFFFFFFFFFFFFFE360
:10241000E7C789F900551818FE383838427E283841
:102420000810101000001010000010100000101014
:102430000000101000186C6C7E666C1818186C1870
:1024400000000006663866663C603006666600007E
:10245000180030666E3C66666C60606666180666DC
:1024600060EEE66666666666186666C6666606308E
:10247000600C3C006C0060000600300060000060F2
:1024800018000000000000003000000000000030D4
:10249000180CDC06000FF0FF000FF0FF000FF0FF3C
:1024A000000FF0FFFFFFD7D7FFFFD7D7FFFFD7D72A
:1024B000FFFFD7D7FFE79393819993E7E7E793E788
:1024C000FFFFFFF999C79999C39FCFF99999FFFF2A
:1024D000E7FFCF9991C39999939F9F9999E7F999AC
:1024E0009F11199999999999E79999399999F9CFDA
:1024F0009FF3C3FF93FF9FFFF9FFCFFF9FFFFF9F56
:10250000E7FFFFFFFFFFFFFFCFFFFFFFFFFFFFCF53
:10251000E7F323F900AA243CFE7C547CA5DB2410BD
:102520000C383010180010100000101000001010AF
:102530000000101000186CFED80C3830300C381821
:102540000000000C6E7806066C7C60066666181843
:10255000307E18066E666660666060606618066C9F
:1025600060FEF66666666660186666C63C3C0C30C1
:10257000300C6600383C7C3C3E3C7C3E7C381C6623
:1025800018CC7C3C7C3E7C3E7E6666C6C6667E3051
:10259000180C000E000FF0FF000FF0FF000FF0FF0F
:1025A000000FF0FFE70FD717E000D010FF07D71795
:1025B000C000D010FFE7930127F3C7CFCFF3C7E7E1
:1025C000FFFFFFF39187F9F993839FF99999E7E763
:1025D000CF81E7F99199999F999F9F9F99E7F993E7
:1025E0009F0109999999999FE7999939C3C3F3CFA5
:1025F000CFF399FFC7C383C3C1C383C183C7E39923
:10260000E73383C383C183C181999939399981CFD4
:10261000E7F3FFF10055427EFEFEFEFE81FF247CC3
:102620007E7C7E103CF010F01FFF1FFF10F010F0BA
:102630001FFF1FFF0018006C7C187600300CFE7E18
:10264000007E001876180C1CCC067C0C3C3E18183A
:1026500060000C0C6C667C60667C7C6E7E18067874
:1026600060D6DE667C667C3C186666D61818183024
:10267000180C0000000666606666306666180C6C12
:1026800018FE666666666660306666C66C660C60D6
:10269000180600CC000FF0FF000FF0FF000FF0FF56
:1026A000000FF0FFC3FFD7F7FFFFDFFFD7F7D7F724
:1026B000DFFFDFFFFFE7FF9383E789FFCFF30181B0
:1026C000FF81FFE789E7F3E333F983F3C3C1E7E76A
:1026D0009FFFF3F39399839F9983839181E7F98710
:1026E0009F292199839983C3E7999929E7E7E7CF40
:1026F000E7F3FFFFFFF9999F9999CF9999E7F39332
:10270000E70199999999999FCF9999399399F39F4D
:10271000E7F9FF3300AA427E7C7C54FEA5FF281017
:102720000C10307C3C000000000000001010101065
:1027300010101010001800FE3630DC00300C381875
:102740000000003066183806FE06661866060000AF
:10275000307E1818607E6660666060666618066C7B
:1027600060C6CE6660666C06186666FE3C18303041
:102770000C0C0000003E6660667E306666180C78C1
:1027800018D666666666603C306666D6386618306F
:10279000180C00DC000000000F0F0F0FF0F0F0F03D
:1027A000FFFFFFFFC30FFF07E000C000D717D717D9
:1027B000D010D010FFE7FF01C9CF23FFCFF3C7E749
:1027C000FFFFFFCF99E7C7F901F999E799F9FFFFF3
:1027D000CF81E7E79F81999F999F9F9999E7F99307
:1027E0009F3931999F9993F9E7999901C3E7CFCF21
:1027F000F3F3FFFFFFC1999F9981CF9999E7F38781
:10280000E729999999999FC3CF999929C799E7CFB2
:10281000E7F3FF230055243C3838101099DBE028FB
:1028200008101038180000000000000010101010F0
:10283000101010100000006CFC66CC0018186C180A
:1028400018001860661860660C666618660C181822
:1028500018003000666666666C60606666186666BC
:1028600060C6C666606C666618663CEE66186030C8
:10287000060C0000006666606660303E66180C6CF0
:1028800018D666667C3E600630663C7C6C3E303016
:10289000180C00F8000000000F0F0F0FF0F0F0F020
:1028A000FFFFFFFFE7FFFFFFFFFFFFFFD7D7D7D7F0
:1028B000D7D7D7D7FFFFFF93039933FFE7E793E716
:1028C000E7FFE79F99E79F99F39999E799F3E7E77E
:1028D000E7FFCFFF99999999939F9F9999E79999C4
:1028E0009F3939999F939999E799C31199E79FCF98
:1028F000F9F3FFFFFF99999F999FCFC199E7F39350
:10290000E729999983C19FF9CF99C38393C1CFCF09
:10291000E7F3FF0700AA1818101038384266C044C1
:102920000010001000000000000000001010101047
:10293000101010100018006C300676000C300000EB
:10294000180018C03C7E7E3C0C3C3C183C381818E3
:102950000C0060183C667C3C787E603C667E3C6384
:102960007EC6C63C6036663C183C18C6C3187E3C22
:10297000033C0000003E7C3C3E3C3006663C6C66FE
:102980003CC6663C6006607C1E3E186CC6067E1C1B
:1029900018380070000000000F0F0F0FF0F0F0F07B
:1029A000FFFFFFFFFFFFFFFFFFFFFFFFD7D7D7D7D7
:1029B000D7D7D7D7FFE7FF93CFF989FFF3CFFFFF33
:1029C000E7FFE73FC38181C3F3C3C3E7C3C7E7E7BB
:1029D000F3FF9FE7C39983C387819FC39981C39CFA
:1029E000813939C39FC999C3E7C3E7393CE781C33C
:1029F000FCC3FFFFFFC183C3C1C3CFF999C3939940
:102A0000C33999C39FF99F83E1C1E79339F981E302
:102A1000E7C7FF8F00550000000000003C3C0000AD
:102A20000000000000000000000000001010101066
:102A30001010101000000000000000000000000056
:102A40003000000000000000000000000000003026
:102A50000000000000000000000000000000000076
:102A60000000000000000000000000000000000066
:102A7000000000FF000000000000003C00003800E3
:102A8000000000006006000000000000003C0000A4
:102A900000000000000000000F0F0F0FF0F0F0F03A
:102AA000FFFFFFFFFFFFFFFFFFFFFFFFD7D7D7D7D6
:102AB000D7D7D7D7FFFFFFFFFFFFFFFFFFFFFFFFC6
:102AC000CFFFFFFFFFFFFFFFFFFFFFFFFFFFFFCF76
:102AD000FFFFFFFFFFFFFFFFFFFFFFFFFFFFFFFF06
:102AE000FFFFFFFFFFFFFFFFFFFFFFFFFFFFFFFFF6
:102AF000FFFFFF00FFFFFFFFFFFFFFC3FFFFC7FF59
:102B0000FFFFFFFF9FF9FFFFFFFFFFFFFFC3FFFF77
:102B1000FFFFFFFF2905FE03010101011121418192
:102B200041211101F1010101010101010101010135
:102B3000F1011121418141211101010103FEFCFF3D
:102B400000000000001412111011121410FF1010D8
:102B5000901010101010901010FF1014121110117E
:102B6000121400000000FFFFFF0000000000000042
:102B7000000000000000FF000020110A040A1120DC
:102B80000000FF000000000000000000000000FF47
:102B9000FFFF0000004040E15149494951E141FF38
:102BA0004141E15149494951E14141FF41E1514927
:102BB000494951E140400000FFFF0F1830303030EC
:102BC00030313232323130303130303031323232F5
:102BD00031303030313030313232323130303030EB
:102BE000382F1F001902FF0101010101010101013C
:102BF00001010101010101010101010101FFFE01CA
:102C00000303030303030303030303030303030394
:102C100003030303030303031403009F1591009FA1
:102C2000859F0097959D0093940F0000000040CF72
:102C300042CF00CF42CF00CF46CB00CF08C700C065
:102C400040400407050700070305000701070003CC
:102C5000040300070504000000000000783C9ECE3D
:102C6000C6E2E2E2F27272723A3A3A3A3A3A3A3AE0
:102C70003A3A7AFAF2F2F2E2E2C28200000000008E
:102C8000060F1F1F1F3F3F3F7F7C7878787878784A
:102C90007838383C3C3C3E1F1F0F0F07070361008C
:102CA00000008EC2E2E2F2F2F2FA7A7A3A3A3A3A64
:102CB0003A3A3A3A3A3A3A7A7AFAF2F2F2E2E2C234
:102CC0008E000000000007070F1F1F3F3F3F7E7C64
:102CD00078787878787878787878787C7E3F3F3F15
:102CE0001F1F0F07070000000082C2E2E2F2F2F2AB
:102CF000FA7A3A3A3A3A3A3A3A3A3A3A727272F2D4
:102D0000E2E2E2C6CE9E3C780000000000610307CC
:102D1000070F0F1F1F3E3C3C3C3838787878787896
:102D200078787C7F3F3F3F1F1F1F0F060000000089
:102D300080C0E0F0783C1E0E061A3A3A7A7AFAF22F
:102D4000F2E2E2E2C2C2C2E2E2E2E27272723A3A53
:102D50003A1A1A1A476371707878383C3C1C1C1E6A
:102D60000E0E0F0707070307070F0F1F1F3E3E7EBC
:102D70007C7C78787000E01C00000E02021A1A3A7F
:102D80003A3A7A72F2F2E2E2E2C2E2E2E2F2F2729B
:102D90007A3A3A3A1A1A02020E00000000007070E5
:102DA00078787C3C3C3E1E1E0F0F07070703070781
:102DB000070F0F1E1E3E3C3C7C78787070000000B0
:102DC0001A1A1A3A3A3A727272E2E2E2E2C2C2C2E3
:102DD000E2E2E2F2F2FA7A7A3A3A1A060E1E3C7807
:102DE000F0E0C0801CE0007078787C7C7E3E3E1F66
:102DF0001F0F0F0707030707070F0E0E1E1C1C3CB3
:102E00003C3878787071634780C0E0F0783C9E4E23
:102E1000A652AA52AA52AA52AA52AA52AA52AA52D6
:102E2000AA52AA52AA52AA52AA52AA122753295403
:102E30002A552A552A552A552A552A552A552A559A
:102E40002A552A552A552A552A552A552A05601CDD
:102E500000720E42AA52AA52AA52AA52AA52AA52C8
:102E6000AA52AA52AA52AA52AA52AA52AA52AA4292
:102E70000E72000000502A552A552A552A552A5507
:102E80002A552A552A552A552A552A552A552A554A
:102E90002A552A552A50000012AA52AA52AA52AA0A
:102EA00052AA52AA52AA52AA52AA52AA52AA52AA42
:102EB00052AA52A64E9E3C78F0E0C0801C60052AC3
:102EC000552A552A552A552A552A552A552A552A0A
:102ED000552A552A552A552A552A552A5429532701
:102EE000000000133D7C7C7EFEE6E7E3E3E3E3E3E2
:102EF000E363777F7E3E3E1C080000383C7C7E7E8C
:102F0000FEE6E7E3C3C3C3C3C3E3E7E6FE7E7E7C1E
:102F10003C38000000081C3E3E7E7F7763E3E3E31D
:102F2000E3E3E3E7E6FE7E7C7C3D130000009ECFFA
:102F3000C7E36160713333373F1E1E1E3C3C7E7E0B
:102F4000F6F6E3E3E3C301C187C0C0E1E3E37377CF
:102F5000363E3E1C1C1C3E3E367773E3E3E1C0C0A8
:102F60008700C101C3E3E3E3F6F67E7E3C3C1E1E10
:102F70001E3F373333716061E3C7CF9E9E4FA75327
:102F8000A954AA55AA55AA55AA55AA55AA55AA554B
:102F9000AA55AA550AC18750AA55AA55AA55AA5595
:102FA000AA55AA55AA55AA55AA55AA55AA508700A6
:102FB000C10A55AA55AA55AA55AA55AA55AA55AA4D
:102FC00055AA55AA54A953A74F9E000000C0E0601F
:102FD00030B0B0B0B0B0B0B0B0B0B030300000453C
:102FE0004E4F5F5F5D59585858585D4F4F474700E7
:102FF0000030303030B0B0B0B0B0B0B03030303081
:10300000000000464F4F4F5D59585858595D4F4F7B
:103010004F460000003030B0B0B0B0B0B0B0B0B08B
:10302000B03060E0C0000047474F4F5D58585858D7
:10303000595D5F5F4F4E4500C0C0E06030B0B0B03A
:103040003030303030B0B0B0B0B0535958484C4C3C
:1030500045474747474F5F5D595940607030B0B0B2
:10306000B030303030303030B0B0B0307000505808
:10307000585D4D4F47474747474F4D5D58585000A3
:10308000B0B0B0B0B03030303030B0B0B03060E060
:10309000C0C0604059595D5F4F47474747454C4C5A
:1030A00048585953C0C0E06030B030B030B030B094
:1030B00030B030B030B05349544A554A554A554A59
:1030C000554A554A554A45607030B030B030B0303E
:1030D000B030B030B030B030700048554A554A5525
:1030E0004A554A554A554A554A554800B030B030BD
:1030F000B030B030B030B030B03060E0C0C060450B
:103100004A554A554A554A554A554A554A544953CB
:103110000B2F520019344E0024384B0000000000E1
:10312000000000000000000000000000000000009F
:10313000000000000000000000000000000000800F
:10314000C0C0E0603030303030303030303030307F
:10315000303030B0703030303030303030303030AF
:103160003030303070B0303030303030303030309F
:10317000303030303060E0C0C0800000000000001F
:10318000000000000000000000000000000000003F
:10319000000000000000000000000000000000002F
:1031A000000000000000000000000000000000001F
:1031B0000000000000000080C0E0F0787C5E4F4717
:1031C00043414040404040404040404040404040FB
:1031D00040E05C4340404040404040404040404030
:1031E0004040404040435CE0404040404040404020
:1031F000404040404040404143474F5E7C78F0E0D3
:10320000C08000000000000000000000000000007E
:1032100000000000000000000000000000000000AE
:10322000000000000000000000000000000000801E
:10323000C0E0F0783C1E0F07030100000000000012
:103240000000000000000000000000000000C03886
:103250000700000000000000000000000000000067
:1032600000000000000000000738C000000000005F
:10327000000000000000000000000000000000014D
:1032800003070F1E3C78F0E0C08000000000000043
:10329000000000000000000000000000000000002E
:1032A0000000000000000080C0E0F0783C1E0F0726
:1032B00003030202020202020202020202020202EC
:1032C000020202020202020202020282720E0302E1
:1032D00002020202020202020202020202020202CE
:1032E00002020202020202020202030E72820202C1
:1032F00002020202020202020202020202020202AE
:10330000020202020202020303070F1E3C78F0E0F1
:10331000C08000000000000000000000000000006D
:1033200040E0F0F8FC9E0F070301000000000000E1
:10333000000000000000000000000000000000008D
:10334000000000000000000000E01C03000000007E
:10335000000000000000000000000000000000006D
:1033600000000000000000000000000000031CE05E
:10337000000000000000000000000000000000004D
:10338000000000000000000000000000000000013C
:1033900003070F9EFCF8F0E0400000000000003F33
:1033A00042FC85F9EBABEBEBEBEBEBEBEBEBEBEB9D
:1033B000EBEBEBEBEBEBEBEBEBEBEBEBEBEBEBEB5D
:1033C000EBEBEBEBEBEBEBEBE3EBEBEBEBEBEBEB55
:1033D000EBEBEBEBEBEBEBEBEBEBEBEBEBEBEBEB3D
:1033E000EBEBEBEBEBEBEBEBEBEBEBEBEBEBEBEB2D
:1033F000E3EBEBEBEBEBEBEBEBEBEBEBEBEBEBEB25
:10340000EBEBEBEBEBEBEBEBEBEBEBEBEBEBEBEB0C
:10341000EBEBEBABEBF985FC423F0000FE01FCFE61
:10342000FEFE06D6C6FE067E7EF6EE1EE6FEFEFE1C
:1034300076FEFEFEFEFEFEFEFEFEFEFEFEFEFEFE34
:10344000FEFEFEFEFEFEFEFEFEFEFEFEFEFEFEFE9C
:10345000FEFEFEFEFEFEFEFEFC01FE0000FE01FC86
:10346000FEFEFE067676FE06D6C6FE067E06FEFE4C
:10347000FE76FEFEFEFEFEFEFEFEFEFEFEFEFEFEF4
:10348000FEFEFEFEFEFEFEFEFEFEFEFEFEFEFEFE5C
:10349000FEFEFEFEFEFEFEFEFEFC01FE0304091B18
:1034A0002B1B2B1B2B1B2B1B2B1B2B1B2B1B2B1BEC
:1034B0002B1B2B1B2B1B2B1B2B1B2B1B2B1B2B3BBC
:1034C0002B3B2B3B2B3B2B3B2B3B2B3B2B3B2B3BCC
:1034D0002B3B2B3B2B3B2B3B190C07000003040918
:1034E0001B2B1B2B1B2B1B2B1B2B1B2B1B2B1B2BAC
:1034F0001B2B1B2B1B2B1B2B1B2B1B2B1B2B1B2B9C
:103500001B2B3B2B3B2B3B2B3B2B3B2B3B2B3B2BAB
:103510003B2B3B2B3B2B3B2B3B190C070401F88827
:10352000F80000F80000E8A8B80088A8F8003820E3
:10353000F800B8A8E800F8A8E80008E81800F8A81B
:10354000F800B8A8F8000000815A245A508048209A
:103550000A0112044120448088200C0122018204C7
:10356000308011048001200404200180184281244D
:10357000E007299402060800000806020602000877
:10358000080002063C1E0000161E0000581E000027
:10359000601E0000681E0000901E0000BA1E0000A1
:1035A00000D0020000EE0700009C0B00007E0E0021
:1035B00000C41000004A1200008E13001423000003
:1035C00000366E0100366E0100F4010000366E0117
:1035D00000127A0000093D00010000000000000018
:1035E000370600400C4A485281990CCA9386A18C38
:1035F0009422ADCA2A851D89060517060000130608
:10360000E600329502850100010001000100010081
:103610000100010001001385C18F832305001305FC
:10362000001063DCA3041387418F1843B7370140B0
:10363000C146010008230507C8C719467D167DFE4F
:10364000FD16EDFA23A607008D4533F5B30063158B
:10365000B5001386418F18C2170500E01305C50E8B
:10366000028501009385C18F83A305001305000423
:10367000970500E0938525068285170500E0130570
:0C3680006505028500000000000000004D
:00000001FF
